02RETORNO01COBRANÇA       30470000314811705209PROMEDICO PLANO ASSISTENCIAL A756 - BANCOOB S/A 0207190000373                                                                                                                                                                                                                                                                                               000001
1022395731500012730470000705209000000                         00000052727410000000DM 00000000000000000000 010901071905-10                         301218000000000596075630470120000000000000000000000000000000000000000000000000000000000000000000000000000000000000005960000000000000000000000000000000000000000000000000000010000000000000          0000451299760100000000000000000000000000000000000000000002
1022395731500012730470000705209000000                         00000053148710000000DM 00000000000000000000 010901071919-10                         301218000000000398075630470120000000000000000000000000000000000000000000000000000000000000000000000000000000000000003980000000000000000000000000000000000000000000000000000010000000000000          0000519864166900000000000000000000000000000000000000000003
1022395731500012730470000705209000000                         00000053076110000000DM 00000000000000000000 010901071905-10                         311218000000000299075630470120000000000000000000000000000000000000000000000000000000000000000000000000000000000000002990000000000000000000000000000000000000000000000000000010000000000000          0006364214061000000000000000000000000000000000000000000004
1022395731500012730470000705209000000                         00000066999108000000DM 00000000000000000000 010901071924-08                         010119000000000299075630470120000000000000000000000000000000000000000000000000000000000000000000000000000000000000002990000000000000000000000000000000000000000000000000000010000000000000          0000356689565200000000000000000000000000000000000000000005
1022395731500012730470000705209000000                         00000074603912000000DM 00000000000000000000 011001071903-12                         100619000000000299075630470120000000000070000000000000000000000000000000000000000000000000000000000000000000000000002990000000000000000000000000000000000000000000000000000010000000000000          0000276461460800000000000000000000000000000000000000000006
1022395731500012730470000705209000000                         00000071106412000000DM 00000000000000000000 01060107192-12                          150519000000000398010423320120207190000135000000000000000000000000000000000000000000000000000000000000000000000000004121000000000014100000000000000000000000000000000000000010000000000000          0000284920762400000000000000000000000000000000000000000007
1022395731500012730470000705209000000                         00000073199707000000DM 00000000000000000000 010901071928-07                         301218000000000299075630470120000000000000000000000000000000000000000000000000000000000000000000000000000000000000002990000000000000000000000000000000000000000000000000000010000000000000          0000692056165400000000000000000000000000000000000000000008
1022395731500012730470000705209000000                         00000077502706000000DM 00000000000000000000 010901071913-06                         311218000000000299075630470120000000000000000000000000000000000000000000000000000000000000000000000000000000000000002990000000000000000000000000000000000000000000000000000010000000000000          0000007180667900000000000000000000000000000000000000000009
1022395731500012730470000705209000000                         00000080617212000000DM 00000000000000000000 010601071903-12                         100719000000001091010423320120207190000135000000000000000000000000000000000000000000000000000000000000000000000000010910000000000000000000000000000000000000000000000000000010000000000000          0000292618760200000000000000000000000000000000000000000010
1022395731500012730470000705209000000                         00000082083612000000DM 00000000000000000000 010601071903-12                         100719000000000299010416420120207190000135000000000000000000000000000000000000000000000000000000000000000000000000002990000000000000000000000000000000000000000000000000000010000000000000          0001318533260100000000000000000000000000000000000000000011
1022395731500012730470000705209000000                         00000083468112000000DM 00000000000000000000 010601071901-12                         100719000000000398010408940120207190000135000000000000000000000000000000000000000000000000000000000000000000000000003980000000000000000000000000000000000000000000000000000010000000000000          0009759542064400000000000000000000000000000000000000000012
1022395731500012730470000705209000000                         00000083516012000000DM 00000000000000000000 010601071906-12                         100719000000000299023711210120207190000135000000000000000000000000000000000000000000000000000000000000000000000000002990000000000000000000000000000000000000000000000000000010000000000000          0004805493364900000000000000000000000000000000000000000013
1022395731500012730470000705209000000                         00000090792404000000DM 00000000000000000000 010901071936-04                         301218000000000497075630470120000000000000000000000000000000000000000000000000000000000000000000000000000000000000004970000000000000000000000000000000000000000000000000000010000000000000          0000922410569600000000000000000000000000000000000000000014
1022395731500012730470000705209000000                         00000092846504000000DM 00000000000000000000 010901071924-04                         301218000000000299075630470120000000000000000000000000000000000000000000000000000000000000000000000000000000000000002990000000000000000000000000000000000000000000000000000010000000000000          0004338857463400000000000000000000000000000000000000000015
1022395731500012730470000705209000000                         00000094732904000000DM 00000000000000000000 010901071921-04                         301218000000000299075630470120000000000000000000000000000000000000000000000000000000000000000000000000000000000000002990000000000000000000000000000000000000000000000000000010000000000000          0005952484760400000000000000000000000000000000000000000016
1022395731500012730470000705209000000                         00000089568805000000DM 00000000000000000000 010901071926-05                         010119000000000497075630470990000000000000000000000000000000000000000000000000000000000000000000000000000000000000004970000000000000000000000000000000000000000000000000000010000000000000          0000540061468000000000000000000000000000000000000000000017
1022395731500012730470000705209000000                         00000091915009000000DM 00000000000000000000 01100107196-09                          100519000000000398075630470120000000000070000000000000000000000000000000000000000000000000000000000000000000000000003980000000000000000000000000000000000000000000000000000010000000000000          0001397287080900000000000000000000000000000000000000000018
1022395731500012730470000705209000000                         00000097330410000000DM 00000000000000000000 010601071910-10                         100719000000000398010423320120207190000135000000000000000000000000000000000000000000000000000000000000000000000000003980000000000000000000000000000000000000000000000000000010000000000000          0000510253660500000000000000000000000000000000000000000019
1022395731500012730470000705209000000                         00000093062804000000DM 00000000000000000000 010901071944-04                         301218000000000299075630470120000000000000000000000000000000000000000000000000000000000000000000000000000000000000002990000000000000000000000000000000000000000000000000000010000000000000          0000256905967600000000000000000000000000000000000000000020
1022395731500012730470000705209000000                         00000096166604000000DM 00000000000000000000 010901071923-04                         301218000000000299075630470120000000000000000000000000000000000000000000000000000000000000000000000000000000000000002990000000000000000000000000000000000000000000000000000010000000000000          0009376903269100000000000000000000000000000000000000000021
1022395731500012730470000705209000000                         00000097167204000000DM 00000000000000000000 01090107196-04                          301218000000000299075630470120000000000000000000000000000000000000000000000000000000000000000000000000000000000000002990000000000000000000000000000000000000000000000000000010000000000000          0000898740266500000000000000000000000000000000000000000022
1022395731500012730470000705209000000                         00000099047110000000DM 00000000000000000000 010601071945-10                         100719000000000299023706600120207190000135000000000000000000000000000000000000000000000000000000000000000000000000002990000000000000000000000000000000000000000000000000000010000000000000          0000487632168000000000000000000000000000000000000000000023
1022395731500012730470000705209000000                         00000102746103000000DM 00000000000000000000 010901071935-03                         301218000000000299075630470120000000000000000000000000000000000000000000000000000000000000000000000000000000000000002990000000000000000000000000000000000000000000000000000010000000000000          0000592166465000000000000000000000000000000000000000000024
1022395731500012730470000705209000000                         00000104162703000000DM 00000000000000000000 010901071912-03                         010119000000000497075630470120000000000000000000000000000000000000000000000000000000000000000000000000000000000000004970000000000000000000000000000000000000000000000000000010000000000000          0001083263064000000000000000000000000000000000000000000025
1022395731500012730470000705209000000                         00000107959608000000DM 00000000000000000000 010601071921-08                         250619000000000299010423320120207190000135000000000000000000000000000000000000000000000000000000000000000000000000003054000000000006400000000000000000000000000000000000000010000000000000          0001159004366900000000000000000000000000000000000000000026
1022395731500012730470000705209000000                         00000109830007000000DM 00000000000000000000 010601071920-07                         150519000000000497010423320990207190000135000000000000000000000000000000000000000000000000000000000000000000000000005146000000000017600000000000000000000000000000000000000010000000000000          0009117245460400000000000000000000000000000000000000000027
1022395731500012730470000705209000000                         00000118361701000000DM 00000000000000000000 010901071939-01                         301218000000000299075630470120000000000000000000000000000000000000000000000000000000000000000000000000000000000000002990000000000000000000000000000000000000000000000000000010000000000000          0001000034763900000000000000000000000000000000000000000028
1022395731500012730470000705209000000                         00000107552809000000DM 00000000000000000000 010601071936-09                         200619000000000596010431480120207190000135000000000000000000000000000000000000000000000000000000000000000000000000006100000000000014000000000000000000000000000000000000000010000000000000          0000497600862200000000000000000000000000000000000000000029
1022395731500012730470000705209000000                         00000113737102000000DM 00000000000000000000 010901071910-02                         301218000000000695075630470120000000000000000000000000000000000000000000000000000000000000000000000000000000000000006950000000000000000000000000000000000000000000000000000010000000000000          0000709610661800000000000000000000000000000000000000000030
1022395731500012730470000705209000000                         00000114809602000000DM 00000000000000000000 010901071901-02                         301218000000000299075630470120000000000000000000000000000000000000000000000000000000000000000000000000000000000000002990000000000000000000000000000000000000000000000000000010000000000000          0000303335467000000000000000000000000000000000000000000031
1022395731500012730470000705209000000                         00000113101602000000DM 00000000000000000000 010901071903-02                         010119000000000497075630470120000000000000000000000000000000000000000000000000000000000000000000000000000000000000004970000000000000000000000000000000000000000000000000000010000000000000          0000611387662400000000000000000000000000000000000000000032
1022395731500012730470000705209000000                         00000117516008000000DM 00000000000000000000 010601071936-08                         050719000000000398010431480120207190000135000000000000000000000000000000000000000000000000000000000000000000000000003980000000000000000000000000000000000000000000000000000010000000000000          0006632955860400000000000000000000000000000000000000000033
1022395731500012730470000705209000000                         00000116136008000000DM 00000000000000000000 010601071916-08                         050719000000000299010443920120207190000135000000000000000000000000000000000000000000000000000000000000000000000000002990000000000000000000000000000000000000000000000000000010000000000000          0001339683067900000000000000000000000000000000000000000034
1022395731500012730470000705209000000                         00000121494501000000DM 00000000000000000000 01090107194-01                          301218000000000299075630470120000000000000000000000000000000000000000000000000000000000000000000000000000000000000002990000000000000000000000000000000000000000000000000000010000000000000          0001320524362500000000000000000000000000000000000000000035
1022395731500012730470000705209000000                         00000125655807000000DM 00000000000000000000 010601071949-07                         100719000000000299000111540120207190000135000000000000000000000000000000000000000000000000000000000000000000000000002990000000000000000000000000000000000000000000000000000010000000000000          0002849995665300000000000000000000000000000000000000000036
1022395731500012730470000705209000000                         00000130155007000000DM 00000000000000000000 01060107192-07                          050719000000000299010423320120207190000135000000000000000000000000000000000000000000000000000000000000000000000000002990000000000000000000000000000000000000000000000000000010000000000000          0006449179066300000000000000000000000000000000000000000037
1022395731500012730470000705209000000                         00000131296307000000DM 00000000000000000000 010601071909-07                         100719000000000398023704670120207190000135000000000000000000000000000000000000000000000000000000000000000000000000003980000000000000000000000000000000000000000000000000000010000000000000          0004256492160400000000000000000000000000000000000000000038
1022395731500012730470000705209000000                         00000133233806000000DM 00000000000000000000 010601071925-06                         300619000000000497023704670990207190000135000000000000000000000000000000000000000000000000000000000000000000000000004970000000000000000000000000000000000000000000000000000010000000000000          0001344573371600000000000000000000000000000000000000000039
1022395731500012730470000705209000000                         00000132568106000000DM 00000000000000000000 010601071929-06                         020719000000000299075608150120207190000135000000000000000000000000000000000000000000000000000000000000000000000000002990000000000000000000000000000000000000000000000000000010000000000000          0006407046874900000000000000000000000000000000000000000040
1022395731500012730470000705209000000                         00000135788006000000DM 00000000000000000000 010601071923-06                         200719000000000398010423320120207190000135000000000000000000000000000000000000000000000000000000000000000000000000003980000000000000000000000000000000000000000000000000000010000000000000          0000400552469900000000000000000000000000000000000000000041
1022395731500012730470000705209000000                         00000138008506000000DM 00000000000000000000 010601071930-06                         100719000000000398010401060120207190000135000000000000000000000000000000000000000000000000000000000000000000000000003980000000000000000000000000000000000000000000000000000010000000000000          0000061975168100000000000000000000000000000000000000000042
1022395731500012730470000705209000000                         00000136948802000000DM 00000000000000000000 011001071901-02                         200319000000000299075630470120000000000070000000000000000000000000000000000000000000000000000000000000000000000000002990000000000000000000000000000000000000000000000000000010000000000000          0000869296663000000000000000000000000000000000000000000043
1022395731500012730470000705209000000                         00000140036605000000DM 00000000000000000000 011001071927-05                         050719000000000299075630470990000000000070000000000000000000000000000000000000000000000000000000000000000000000000002990000000000000000000000000000000000000000000000000000010000000000000          0000644718765700000000000000000000000000000000000000000044
1022395731500012730470000705209000000                         00000142905206000000DM 00000000000000000000 01100107196-06                          100719000000000695075630470120000000000070000000000000000000000000000000000000000000000000000000000000000000000000006950000000000000000000000000000000000000000000000000000010000000000000          0000422706167900000000000000000000000000000000000000000045
1022395731500012730470000705209000000                         00000149876704000000DM 00000000000000000000 010601071901-04                         100719000000000299010432340120207190000135000000000000000000000000000000000000000000000000000000000000000000000000002990000000000000000000000000000000000000000000000000000010000000000000          0000351139265900000000000000000000000000000000000000000046
1022395731500012730470000705209000000                         00000156827603000000DM 00000000000000000000 010601071901-03                         050719000000000299010423320120207190000135000000000000000000000000000000000000000000000000000000000000000000000000002990000000000000000000000000000000000000000000000000000010000000000000          0009377747767200000000000000000000000000000000000000000047
1022395731500012730470000705209000000                         00000042686012000000DM 00000000000000000000 010901071903-12                         301218000000000299075630470990000000000000000000000000000000000000000000000000000000000000000000000000000000000000002990000000000000000000000000000000000000000000000000000010000000000000          0000025828762400000000000000000000000000000000000000000048
1022395731500012730470000705209000000                         00000052895710000000DM 00000000000000000000 010901071913-10                         301218000000000398075630470120000000000000000000000000000000000000000000000000000000000000000000000000000000000000003980000000000000000000000000000000000000000000000000000010000000000000          0000069221758400000000000000000000000000000000000000000049
1022395731500012730470000705209000000                         00000055719210000000DM 00000000000000000000 010901071903-10                         301218000000000596075630470120000000000000000000000000000000000000000000000000000000000000000000000000000000000000005960000000000000000000000000000000000000000000000000000010000000000000          0000500121168900000000000000000000000000000000000000000050
1022395731500012730470000705209000000                         00000061835309000000DM 00000000000000000000 010901071980-09                         301218000000000299075630470120000000000000000000000000000000000000000000000000000000000000000000000000000000000000002990000000000000000000000000000000000000000000000000000010000000000000          0000130013560300000000000000000000000000000000000000000051
1022395731500012730470000705209000000                         00000074426406000000DM 00000000000000000000 010901071921-06                         311218000000000299075630470120000000000000000000000000000000000000000000000000000000000000000000000000000000000000002990000000000000000000000000000000000000000000000000000010000000000000          0000661066762400000000000000000000000000000000000000000052
1022395731500012730470000705209000000                         00000083504212000000DM 00000000000000000000 010601071905-12                         100719000000000299010416420120207190000135000000000000000000000000000000000000000000000000000000000000000000000000002990000000000000000000000000000000000000000000000000000010000000000000          0000472857665500000000000000000000000000000000000000000053
1022395731500012730470000705209000000                         00000082904012000000DM 00000000000000000000 010601071903-12                         100719000000000299010423320120207190000135000000000000000000000000000000000000000000000000000000000000000000000000002990000000000000000000000000000000000000000000000000000010000000000000          0004274862364900000000000000000000000000000000000000000054
1022395731500012730470000705209000000                         00000090768704000000DM 00000000000000000000 010901071935-04                         301218000000000398075630470120000000000000000000000000000000000000000000000000000000000000000000000000000000000000003980000000000000000000000000000000000000000000000000000010000000000000          0000295139161700000000000000000000000000000000000000000055
1022395731500012730470000705209000000                         00000094744704000000DM 00000000000000000000 010901071922-04                         301218000000000596075630470120000000000000000000000000000000000000000000000000000000000000000000000000000000000000005960000000000000000000000000000000000000000000000000000010000000000000          0000879551569000000000000000000000000000000000000000000056
1022395731500012730470000705209000000                         00000090636004000000DM 00000000000000000000 010901071931-04                         301218000000000398075630470120000000000000000000000000000000000000000000000000000000000000000000000000000000000000003980000000000000000000000000000000000000000000000000000010000000000000          0000331802260800000000000000000000000000000000000000000057
1022395731500012730470000705209000000                         00000094817005000000DM 00000000000000000000 010901071928-05                         010119000000000398075630470120000000000000000000000000000000000000000000000000000000000000000000000000000000000000003980000000000000000000000000000000000000000000000000000010000000000000          0001066053863600000000000000000000000000000000000000000058
1022395731500012730470000705209000000                         00000094226504000000DM 00000000000000000000 01090107194-04                          301218000000000299075630470120000000000000000000000000000000000000000000000000000000000000000000000000000000000000002990000000000000000000000000000000000000000000000000000010000000000000          0000325518963200000000000000000000000000000000000000000059
1022395731500012730470000705209000000                         00000093291505000000DM 00000000000000000000 010901071973-05                         311218000000000299075630470120000000000000000000000000000000000000000000000000000000000000000000000000000000000000002990000000000000000000000000000000000000000000000000000010000000000000          0004586223065300000000000000000000000000000000000000000060
1022395731500012730470000705209000000                         00000091689911000000DM 00000000000000000000 010601071910-11                         100719000000000398010431480120207190000135000000000000000000000000000000000000000000000000000000000000000000000000003980000000000000000000000000000000000000000000000000000010000000000000          0008892046179100000000000000000000000000000000000000000061
1022395731500012730470000705209000000                         00000093135005000000DM 00000000000000000000 010901071955-05                         311218000000000299075630470120000000000000000000000000000000000000000000000000000000000000000000000000000000000000002990000000000000000000000000000000000000000000000000000010000000000000          0000897479661900000000000000000000000000000000000000000062
1022395731500012730470000705209000000                         00000093159705000000DM 00000000000000000000 010901071956-05                         311218000000000299075630470120000000000000000000000000000000000000000000000000000000000000000000000000000000000000002990000000000000000000000000000000000000000000000000000010000000000000          0000536283265400000000000000000000000000000000000000000063
1022395731500012730470000705209000000                         00000095368504000000DM 00000000000000000000 010901071937-04                         301218000000000497075630470120000000000000000000000000000000000000000000000000000000000000000000000000000000000000004970000000000000000000000000000000000000000000000000000010000000000000          0000808561065500000000000000000000000000000000000000000064
1022395731500012730470000705209000000                         00000100607404000000DM 00000000000000000000 010901071968-04                         010119000000000299075630470120000000000000000000000000000000000000000000000000000000000000000000000000000000000000002990000000000000000000000000000000000000000000000000000010000000000000          0000928148963500000000000000000000000000000000000000000065
1022395731500012730470000705209000000                         00000102560112000000DM 00000000000000000000 011001071920-12                         150919000000000299075630470010000000000070000000000000000000000000000000000000000000000000000000000000000000000000002990000000000000000000000000000000000000000000000000000010000000000000          0000919702163600000000000000000000000000000000000000000066
1022395731500012730470000705209000000                         00000101950603000000DM 00000000000000000000 010901071935-03                         301218000000000299075630470120000000000000000000000000000000000000000000000000000000000000000000000000000000000000002990000000000000000000000000000000000000000000000000000010000000000000          0003588042261500000000000000000000000000000000000000000067
1022395731500012730470000705209000000                         00000102113810000000DM 00000000000000000000 010601071923-10                         260719000000000299000105060120207190000135000000000000000000000000000000000000000000000000000000000000000000000000002990000000000000000000000000000000000000000000000000000010000000000000          0005467660667200000000000000000000000000000000000000000068
1022395731500012730470000705209000000                         00000101032709000000DM 00000000000000000000 011001071920-09                         150619000000000299075630470120000000000070000000000000000000000000000000000000000000000000000000000000000000000000002990000000000000000000000000000000000000000000000000000010000000000000          0000860361969700000000000000000000000000000000000000000069
1022395731500012730470000705209000000                         00000106886403000000DM 00000000000000000000 01090107196-03                          010119000000000497075630470120000000000000000000000000000000000000000000000000000000000000000000000000000000000000004970000000000000000000000000000000000000000000000000000010000000000000          0000978850866900000000000000000000000000000000000000000070
1022395731500012730470000705209000000                         00000111265002000000DM 00000000000000000000 010901071931-02                         301218000000000299075630470120000000000000000000000000000000000000000000000000000000000000000000000000000000000000002990000000000000000000000000000000000000000000000000000010000000000000          0000973025964000000000000000000000000000000000000000000071
1022395731500012730470000705209000000                         00000107958907000000DM 00000000000000000000 010601071921-07                         250519000000000299010423320120207190000135000000000000000000000000000000000000000000000000000000000000000000000000003085000000000009500000000000000000000000000000000000000010000000000000          0001159004366900000000000000000000000000000000000000000072
1022395731500012730470000705209000000                         00000109585902000000DM 00000000000000000000 010901071917-02                         301218000000000299075630470120000000000000000000000000000000000000000000000000000000000000000000000000000000000000002990000000000000000000000000000000000000000000000000000010000000000000          0000610752065100000000000000000000000000000000000000000073
1022395731500012730470000705209000000                         00000113815108000000DM 00000000000000000000 010601071920-08                         080719000000000299010401180990207190000135000000000000000000000000000000000000000000000000000000000000000000000000002990000000000000000000000000000000000000000000000000000010000000000000          0000846030764600000000000000000000000000000000000000000074
1022395731500012730470000705209000000                         00000110137302000000DM 00000000000000000000 010901071931-02                         301218000000000398075630470120000000000000000000000000000000000000000000000000000000000000000000000000000000000000003980000000000000000000000000000000000000000000000000000010000000000000          0001131268261200000000000000000000000000000000000000000075
1022395731500012730470000705209000000                         00000110372509000000DM 00000000000000000000 010601071941-09                         010719000000000398010423320120207190000135000000000000000000000000000000000000000000000000000000000000000000000000003980000000000000000000000000000000000000000000000000000010000000000000          0002421373069700000000000000000000000000000000000000000076
1022395731500012730470000705209000000                         00000114869802000000DM 00000000000000000000 010901071901-02                         301218000000000299075630470120000000000000000000000000000000000000000000000000000000000000000000000000000000000000002990000000000000000000000000000000000000000000000000000010000000000000          0003486505564900000000000000000000000000000000000000000077
1022395731500012730470000705209000000                         00000117158108000000DM 00000000000000000000 010601071925-08                         100719000000000398010416420120207190000135000000000000000000000000000000000000000000000000000000000000000000000000003980000000000000000000000000000000000000000000000000000010000000000000          0000387593489000000000000000000000000000000000000000000078
1022395731500012730470000705209000000                         00000121278301000000DM 00000000000000000000 010901071905-01                         010119000000000497075630470120000000000000000000000000000000000000000000000000000000000000000000000000000000000000004970000000000000000000000000000000000000000000000000000010000000000000          0000770138764100000000000000000000000000000000000000000079
1022395731500012730470000705209000000                         00000121019507000000DM 00000000000000000000 010601071905-07                         300619000000000299010401060120207190000135000000000000000000000000000000000000000000000000000000000000000000000000002990000000000000000000000000000000000000000000000000000010000000000000          0000051039567800000000000000000000000000000000000000000080
1022395731500012730470000705209000000                         00000123159007000000DM 00000000000000000000 010601071910-07                         060719000000000398010431480120207190000135000000000000000000000000000000000000000000000000000000000000000000000000003980000000000000000000000000000000000000000000000000000010000000000000          0007009173060000000000000000000000000000000000000000000081
1022395731500012730470000705209000000                         00000124929201000000DM 00000000000000000000 010901071979-01                         010119000000000497075630470120000000000000000000000000000000000000000000000000000000000000000000000000000000000000004970000000000000000000000000000000000000000000000000000010000000000000          0001064606369300000000000000000000000000000000000000000082
1022395731500012730470000705209000000                         00000116485707000000DM 00000000000000000000 010601071907-07                         100619000000000299075641050120207190000135000000000000000000000000000000000000000000000000000000000000000000000000003258000000000026800000000000000000000000000000000000000010000000000000          0000915264668800000000000000000000000000000000000000000083
1022395731500012730470000705209000000                         00000128127007000000DM 00000000000000000000 010601071910-07                         100719000000000695075601200120207190000135000000000000000000000000000000000000000000000000000000000000000000000000006950000000000000000000000000000000000000000000000000000010000000000000          0002520211164900000000000000000000000000000000000000000084
1022395731500012730470000705209000000                         00000130275007000000DM 00000000000000000000 010601071910-07                         100719000000000398010401180120207190000135000000000000000000000000000000000000000000000000000000000000000000000000003980000000000000000000000000000000000000000000000000000010000000000000          0009742470669100000000000000000000000000000000000000000085
1022395731500012730470000705209000000                         00000125318006000000DM 00000000000000000000 010601071933-06                         150719000000000299010432340120207190000135000000000000000000000000000000000000000000000000000000000000000000000000002990000000000000000000000000000000000000000000000000000010000000000000          0000925095060800000000000000000000000000000000000000000086
1022395731500012730470000705209000000                         00000138897504000000DM 00000000000000000000 010601071970-04                         200619000000000299023734600120207190000135000000000000000000000000000000000000000000000000000000000000000000000000003158000000000016800000000000000000000000000000000000000010000000000000          0000269540164700000000000000000000000000000000000000000087
1022395731500012730470000705209000000                         00000136949503000000DM 00000000000000000000 011001071901-03                         200419000000000299075630470120000000000070000000000000000000000000000000000000000000000000000000000000000000000000002990000000000000000000000000000000000000000000000000000010000000000000          0000869296663000000000000000000000000000000000000000000088
1022395731500012730470000705209000000                         00000138321705000000DM 00000000000000000000 010601071932-05                         100719000000000299010416420120207190000135000000000000000000000000000000000000000000000000000000000000000000000000002990000000000000000000000000000000000000000000000000000010000000000000          0008426660061500000000000000000000000000000000000000000089
1022395731500012730470000705209000000                         00000140035904000000DM 00000000000000000000 011001071927-04                         050619000000000299075630470990000000000070000000000000000000000000000000000000000000000000000000000000000000000000002990000000000000000000000000000000000000000000000000000010000000000000          0000644718765700000000000000000000000000000000000000000090
1022395731500012730470000705209000000                         00000156887803000000DM 00000000000000000000 010601071903-03                         200619000000000299010432340120207190000135000000000000000000000000000000000000000000000000000000000000000000000000003158000000000016800000000000000000000000000000000000000010000000000000          0002906007960400000000000000000000000000000000000000000091
1022395731500012730470000705209000000                         00000163870311000000DM 00000000000000000000 01100107193167-11                       200320000000000299075630470010000000000070000000000000000000000000000000000000000000000000000000000000000000000000002990000000000000000000000000000000000000000000000000000010000000000000          0000016629868900000000000000000000000000000000000000000092
1022395731500012730470000705209000000                         00000170247201000000DM 00000000000000000000 0110010719GR84-01                       300619000000000497075630470010000000000070000000000000000000000000000000000000000000000000000000000000000000000000004970000000000000000000000000000000000000000000000000000010000000000000          0000337522260200000000000000000000000000000000000000000093
1022395731500012730470000705209000000                         00000173534002000000DM 00000000000000000000 01060107193698-02                       300619000000000596000121060990207190000135000000000000000000000000000000000000000000000000000000000000000000000000005960000000000000000000000000000000000000000000000000000010000000000000          0001173076662500000000000000000000000000000000000000000094
1022395731500012730470000705209000000                         00000058172011000000DM 00000000000000000000 010601071907-11                         100219000000000398010411120120207190000135000000000000000000000000000000000000000000000000000000000000000000000000004246000000000026600000000000000000000000000000000000000010000000000000          0000456972862600000000000000000000000000000000000000000095
1022395731500012730470000705209000000                         00000052967210000000DM 00000000000000000000 01090107198-10                          301218000000000497075630470990000000000000000000000000000000000000000000000000000000000000000000000000000000000000004970000000000000000000000000000000000000000000000000000010000000000000          0007206860460400000000000000000000000000000000000000000096
1022395731500012730470000705209000000                         00000057888009000000DM 00000000000000000000 010901071901-09                         301218000000000299075630470120000000000000000000000000000000000000000000000000000000000000000000000000000000000000002990000000000000000000000000000000000000000000000000000010000000000000          0000897032969200000000000000000000000000000000000000000097
1022395731500012730470000705209000000                         00000077771911000000DM 00000000000000000000 011001071938-11                         310519000000000299075630470120000000000070000000000000000000000000000000000000000000000000000000000000000000000000002990000000000000000000000000000000000000000000000000000010000000000000          0001048609766800000000000000000000000000000000000000000098
1022395731500012730470000705209000000                         00000082384912000000DM 00000000000000000000 010601071924-12                         100719000000000299010423320120207190000135000000000000000000000000000000000000000000000000000000000000000000000000002990000000000000000000000000000000000000000000000000000010000000000000          0003353714367200000000000000000000000000000000000000000099
1022395731500012730470000705209000000                         00000080821612000000DM 00000000000000000000 010601071902-12                         250619000000000299023769800120207190000135000000000000000000000000000000000000000000000000000000000000000000000000003054000000000006400000000000000000000000000000000000000010000000000000          0000726792560000000000000000000000000000000000000000000100
1022395731500012730470000705209000000                         00000083096012000000DM 00000000000000000000 010601071914-12                         100719000000000299023721070120207190000135000000000000000000000000000000000000000000000000000000000000000000000000002990000000000000000000000000000000000000000000000000000010000000000000          0000307743764300000000000000000000000000000000000000000101
1022395731500012730470000705209000000                         00000082589911000000DM 00000000000000000000 010601071920-11                         150619000000000497010423320120207190000135000000000000000000000000000000000000000000000000000000000000000000000000005095000000000012500000000000000000000000000000000000000010000000000000          0001271336561900000000000000000000000000000000000000000102
1022395731500012730470000705209000000                         00000089253204000000DM 00000000000000000000 010901071923-04                         301218000000000299075630470120000000000000000000000000000000000000000000000000000000000000000000000000000000000000002990000000000000000000000000000000000000000000000000000010000000000000          0000822921367400000000000000000000000000000000000000000103
1022395731500012730470000705209000000                         00000085714812000000DM 00000000000000000000 010601071911-12                         200719000000000497023721070120207190000135000000000000000000000000000000000000000000000000000000000000000000000000004970000000000000000000000000000000000000000000000000000010000000000000          0000353812862600000000000000000000000000000000000000000104
1022395731500012730470000705209000000                         00000088982011000000DM 00000000000000000000 010601071920-11                         300619000000000398023721070120207190000135000000000000000000000000000000000000000000000000000000000000000000000000003980000000000000000000000000000000000000000000000000000010000000000000          0004757563868700000000000000000000000000000000000000000105
1022395731500012730470000705209000000                         00000089455012000000DM 00000000000000000000 01060107192-12                          100819000000000398034131090120207190000135000000000000000000000000000000000000000000000000000000000000000000000000003980000000000000000000000000000000000000000000000000000010000000000000          0001287591388300000000000000000000000000000000000000000106
1022395731500012730470000705209000000                         00000093146104000000DM 00000000000000000000 010901071955-04                         301218000000000299075630470120000000000000000000000000000000000000000000000000000000000000000000000000000000000000002990000000000000000000000000000000000000000000000000000010000000000000          0000275984060300000000000000000000000000000000000000000107
1022395731500012730470000705209000000                         00000093813111000000DM 00000000000000000000 010601071903-11                         170719000000000299010416420120207190000135000000000000000000000000000000000000000000000000000000000000000000000000002990000000000000000000000000000000000000000000000000000010000000000000          0000383103169000000000000000000000000000000000000000000108
1022395731500012730470000705209000000                         00000091916710000000DM 00000000000000000000 01100107196-10                          100619000000000398075630470120000000000070000000000000000000000000000000000000000000000000000000000000000000000000003980000000000000000000000000000000000000000000000000000010000000000000          0001397287080900000000000000000000000000000000000000000109
1022395731500012730470000705209000000                         00000099677310000000DM 00000000000000000000 010601071920-10                         120719000000000398023706600120207190000135000000000000000000000000000000000000000000000000000000000000000000000000003980000000000000000000000000000000000000000000000000000010000000000000          0002801680796800000000000000000000000000000000000000000110
1022395731500012730470000705209000000                         00000101945910000000DM 00000000000000000000 01060107191-10                          100719000000000299010414910990207190000135000000000000000000000000000000000000000000000000000000000000000000000000002990000000000000000000000000000000000000000000000000000010000000000000          0001349679062800000000000000000000000000000000000000000111
1022395731500012730470000705209000000                         00000100702003000000DM 00000000000000000000 010901071975-03                         301218000000000299075630470120000000000000000000000000000000000000000000000000000000000000000000000000000000000000002990000000000000000000000000000000000000000000000000000010000000000000          0007974401060600000000000000000000000000000000000000000112
1022395731500012730470000705209000000                         00000102184009000000DM 00000000000000000000 010601071920-09                         290619000000000497023721070120207190000135000000000000000000000000000000000000000000000000000000000000000000000000004970000000000000000000000000000000000000000000000000000010000000000000          0000315188774000000000000000000000000000000000000000000113
1022395731500012730470000705209000000                         00000106490703000000DM 00000000000000000000 010901071969-03                         301218000000000299075630470120000000000000000000000000000000000000000000000000000000000000000000000000000000000000002990000000000000000000000000000000000000000000000000000010000000000000          0006666137469100000000000000000000000000000000000000000114
1022395731500012730470000705209000000                         00000106598703000000DM 00000000000000000000 010901071980-03                         301218000000000398075630470120000000000000000000000000000000000000000000000000000000000000000000000000000000000000003980000000000000000000000000000000000000000000000000000010000000000000          0006892518265300000000000000000000000000000000000000000115
1022395731500012730470000705209000000                         00000118044608000000DM 00000000000000000000 010601071920-08                         060719000000000299010414910120207190000135000000000000000000000000000000000000000000000000000000000000000000000000002990000000000000000000000000000000000000000000000000000010000000000000          0002903482560400000000000000000000000000000000000000000116
1022395731500012730470000705209000000                         00000122673301000000DM 00000000000000000000 010901071904-01                         301218000000000299075630470120000000000000000000000000000000000000000000000000000000000000000000000000000000000000002990000000000000000000000000000000000000000000000000000010000000000000          0000919737765100000000000000000000000000000000000000000117
1022395731500012730470000705209000000                         00000122085001000000DM 00000000000000000000 010901071901-01                         311218000000000398075630470120000000000000000000000000000000000000000000000000000000000000000000000000000000000000003980000000000000000000000000000000000000000000000000000010000000000000          0000309430054500000000000000000000000000000000000000000118
1022395731500012730470000705209000000                         00000125577801000000DM 00000000000000000000 010901071943-01                         301218000000000299075630470120000000000000000000000000000000000000000000000000000000000000000000000000000000000000002990000000000000000000000000000000000000000000000000000010000000000000          0000016265068000000000000000000000000000000000000000000119
1022395731500012730470000705209000000                         00000118774008000000DM 00000000000000000000 010601071922-08                         120719000000000299010432340120207190000135000000000000000000000000000000000000000000000000000000000000000000000000002990000000000000000000000000000000000000000000000000000010000000000000          0009167215564900000000000000000000000000000000000000000120
1022395731500012730470000705209000000                         00000122031307000000DM 00000000000000000000 010601071910-07                         300619000000000299075641050120207190000135000000000000000000000000000000000000000000000000000000000000000000000000002990000000000000000000000000000000000000000000000000000010000000000000          0001016544960800000000000000000000000000000000000000000121
1022395731500012730470000705209000000                         00000136951005000000DM 00000000000000000000 011001071901-05                         200619000000000299075630470120000000000070000000000000000000000000000000000000000000000000000000000000000000000000002990000000000000000000000000000000000000000000000000000010000000000000          0000869296663000000000000000000000000000000000000000000122
1022395731500012730470000705209000000                         00000141788005000000DM 00000000000000000000 010601071916-05                         100719000000000398010401180120207190000135000000000000000000000000000000000000000000000000000000000000000000000000003980000000000000000000000000000000000000000000000000000010000000000000          0000510186661000000000000000000000000000000000000000000123
1022395731500012730470000705209000000                         00000142908409000000DM 00000000000000000000 01100107196-09                          101019000000000695075630470120000000000070000000000000000000000000000000000000000000000000000000000000000000000000006950000000000000000000000000000000000000000000000000000010000000000000          0000422706167900000000000000000000000000000000000000000124
1022395731500012730470000705209000000                         00000147485805000000DM 00000000000000000000 010601071910-05                         210719000000000299010431480120207190000135000000000000000000000000000000000000000000000000000000000000000000000000002990000000000000000000000000000000000000000000000000000010000000000000          0006894821267200000000000000000000000000000000000000000125
1022395731500012730470000705209000000                         00000144783104000000DM 00000000000000000000 01060107195-04                          250619000000000299075640710120207190000135000000000000000000000000000000000000000000000000000000000000000000000000003108000000000011800000000000000000000000000000000000000010000000000000          0001048158667900000000000000000000000000000000000000000126
1022395731500012730470000705209000000                         00000165715403000000DM 00000000000000000000 010601071902-03                         150719000000000299010414910120207190000135000000000000000000000000000000000000000000000000000000000000000000000000002990000000000000000000000000000000000000000000000000000010000000000000          0000985411066400000000000000000000000000000000000000000127
1022395731500012730470000705209000000                         00000170248002000000DM 00000000000000000000 0110010719GR84-02                       300719000000000497075630470010000000000070000000000000000000000000000000000000000000000000000000000000000000000000004970000000000000000000000000000000000000000000000000000010000000000000          0000337522260200000000000000000000000000000000000000000128
1022395731500012730470000705209000000                         00000170251205000000DM 00000000000000000000 0110010719GR84-05                       301019000000000497075630470010000000000070000000000000000000000000000000000000000000000000000000000000000000000000004970000000000000000000000000000000000000000000000000000010000000000000          0000337522260200000000000000000000000000000000000000000129
1022395731500012730470000705209000000                         00000170254408000000DM 00000000000000000000 0110010719GR84-08                       300120000000000497075630470010000000000070000000000000000000000000000000000000000000000000000000000000000000000000004970000000000000000000000000000000000000000000000000000010000000000000          0000337522260200000000000000000000000000000000000000000130
1022395731500012730470000705209000000                         00000165434903000000DM 00000000000000000000 01060107193355-03                       150719000000000299003321670120207190000135000000000000000000000000000000000000000000000000000000000000000000000000002990000000000000000000000000000000000000000000000000000010000000000000          0002902902360000000000000000000000000000000000000000000131
1022395731500012730470000705209000000                         00000171935601000000DM 00000000000000000000 0106010719GR75-01                       150619000000000398010423320010207190000135000000000000000000000000000000000000000000000000000000000000000000000000004271000000000029100000000000000000000000000000000000000010000000000000          0000284920762400000000000000000000000000000000000000000132
1022395731500012730470000705209000000                         00000178112602000000DM 00000000000000000000 01060107193863-02                       010719000000000299075641050990207190000135000000000000000000000000000000000000000000000000000000000000000000000000002990000000000000000000000000000000000000000000000000000010000000000000          0000479943060200000000000000000000000000000000000000000133
1022395731500012730470000705209000000                         00000186147201000000DM 00000000000000000000 01060107193790-01                       100719000000000497010423320990207190000135000000000000000000000000000000000000000000000000000000000000000000000000004970000000000000000000000000000000000000000000000000000010000000000000          0000589957066000000000000000000000000000000000000000000134
1022395731500012730470000705209000000                         00000181645102000000DM 00000000000000000000 01060107193274 - INC 01-02              150719000000000497010423320990207190000135000000000000000000000000000000000000000000000000000000000000000000000000004970000000000000000000000000000000000000000000000000000010000000000000          0001005775966900000000000000000000000000000000000000000135
1022395731500012730470000705209000000                         00000191363601000000DM 00000000000000000000 0110010719GR170-01                      100819000000000695075630470010000000000070000000000000000000000000000000000000000000000000000000000000000000000000006950000000000000000000000000000000000000000000000000000010000000000000          0000422706167900000000000000000000000000000000000000000136
1022395731500012730470000705209000000                         00000191366804000000DM 00000000000000000000 0110010719GR170-04                      101119000000000695075630470010000000000070000000000000000000000000000000000000000000000000000000000000000000000000006950000000000000000000000000000000000000000000000000000010000000000000          0000422706167900000000000000000000000000000000000000000137
1022395731500012730470000705209000000                         00000192581107000000DM 00000000000000000000 01100107193473-07                       300120000000000296575630470990000000000070000000000000000000000000000000000000000000000000000000000000000000000000002965000000000000000000000000000000000000000000000000000010000000000000          0003019499712000000000000000000000000000000000000000000138
1022395731500012730470000705209000000                         00000192584310000000DM 00000000000000000000 01100107193473-10                       300420000000000296575630470990000000000070000000000000000000000000000000000000000000000000000000000000000000000000002965000000000000000000000000000000000000000000000000000010000000000000          0003019499712000000000000000000000000000000000000000000139
1022395731500012730470000705209000000                         00000192714108000000DM 00000000000000000000 01100107194060-08                       010321000000000299075630470990000000000070000000000000000000000000000000000000000000000000000000000000000000000000002990000000000000000000000000000000000000000000000000000010000000000000          0003041817381800000000000000000000000000000000000000000140
1022395731500012730470000705209000000                         00000042638612000000DM 00000000000000000000 01090107196-12                          301218000000000299075630470990000000000000000000000000000000000000000000000000000000000000000000000000000000000000002990000000000000000000000000000000000000000000000000000010000000000000          0001268385271100000000000000000000000000000000000000000141
1022395731500012730470000705209000000                         00000053400010000000DM 00000000000000000000 01090107194-10                          301218000000000497075630470120000000000000000000000000000000000000000000000000000000000000000000000000000000000000004970000000000000000000000000000000000000000000000000000010000000000000          0000948434660000000000000000000000000000000000000000000142
1022395731500012730470000705209000000                         00000059296709000000DM 00000000000000000000 010901071922-09                         301218000000000299075630470990000000000000000000000000000000000000000000000000000000000000000000000000000000000000002990000000000000000000000000000000000000000000000000000010000000000000          0004855632287500000000000000000000000000000000000000000143
1022395731500012730470000705209000000                         00000065086008000000DM 00000000000000000000 010901071910-08                         301218000000000398075630470120000000000000000000000000000000000000000000000000000000000000000000000000000000000000003980000000000000000000000000000000000000000000000000000010000000000000          0000496299964800000000000000000000000000000000000000000144
1022395731500012730470000705209000000                         00000073367507000000DM 00000000000000000000 010901071914-07                         301218000000000596075630470120000000000000000000000000000000000000000000000000000000000000000000000000000000000000005960000000000000000000000000000000000000000000000000000010000000000000          0000276005260500000000000000000000000000000000000000000145
1022395731500012730470000705209000000                         00000074682007000000DM 00000000000000000000 010901071905-07                         301218000000000497075630470120000000000000000000000000000000000000000000000000000000000000000000000000000000000000004970000000000000000000000000000000000000000000000000000010000000000000          0000891824561000000000000000000000000000000000000000000146
1022395731500012730470000705209000000                         00000081387112000000DM 00000000000000000000 010601071920-12                         250619000000000299023769800120207190000135000000000000000000000000000000000000000000000000000000000000000000000000003054000000000006400000000000000000000000000000000000000010000000000000          0007083459860400000000000000000000000000000000000000000147
1022395731500012730470000705209000000                         00000081795812000000DM 00000000000000000000 01060107192-12                          050719000000000497010423320120207190000135000000000000000000000000000000000000000000000000000000000000000000000000004970000000000000000000000000000000000000000000000000000010000000000000          0001188100963700000000000000000000000000000000000000000148
1022395731500012730470000705209000000                         00000083143211000000DM 00000000000000000000 011001071907-11                         100619000000000299075630470120000000000070000000000000000000000000000000000000000000000000000000000000000000000000002990000000000000000000000000000000000000000000000000000010000000000000          0009827209868700000000000000000000000000000000000000000149
1022395731500012730470000705209000000                         00000085761411000000DM 00000000000000000000 010601071917-11                         010719000000000299010432340120207190000135000000000000000000000000000000000000000000000000000000000000000000000000002990000000000000000000000000000000000000000000000000000010000000000000          0001732954062500000000000000000000000000000000000000000150
1022395731500012730470000705209000000                         00000092246404000000DM 00000000000000000000 010901071931-04                         301218000000000299075630470120000000000000000000000000000000000000000000000000000000000000000000000000000000000000002990000000000000000000000000000000000000000000000000000010000000000000          0009194256063000000000000000000000000000000000000000000151
1022395731500012730470000705209000000                         00000088808205000000DM 00000000000000000000 01090107198-05                          301218000000000299075630470120000000000000000000000000000000000000000000000000000000000000000000000000000000000000002990000000000000000000000000000000000000000000000000000010000000000000          0000157008665600000000000000000000000000000000000000000152
1022395731500012730470000705209000000                         00000097282510000000DM 00000000000000000000 010601071920-10                         050719000000000497023721070120207190000135000000000000000000000000000000000000000000000000000000000000000000000000004970000000000000000000000000000000000000000000000000000010000000000000          0000711661065000000000000000000000000000000000000000000153
1022395731500012730470000705209000000                         00000102559311000000DM 00000000000000000000 011001071920-11                         150819000000000299075630470010000000000070000000000000000000000000000000000000000000000000000000000000000000000000002990000000000000000000000000000000000000000000000000000010000000000000          0000919702163600000000000000000000000000000000000000000154
1022395731500012730470000705209000000                         00000101031008000000DM 00000000000000000000 011001071920-08                         150519000000000299075630470120000000000070000000000000000000000000000000000000000000000000000000000000000000000000002990000000000000000000000000000000000000000000000000000010000000000000          0000860361969700000000000000000000000000000000000000000155
1022395731500012730470000705209000000                         00000114833302000000DM 00000000000000000000 010901071903-02                         301218000000000398075630470120000000000000000000000000000000000000000000000000000000000000000000000000000000000000003980000000000000000000000000000000000000000000000000000010000000000000          0000199846766000000000000000000000000000000000000000000156
1022395731500012730470000705209000000                         00000107522703000000DM 00000000000000000000 010901071934-03                         301218000000000299075630470120000000000000000000000000000000000000000000000000000000000000000000000000000000000000002990000000000000000000000000000000000000000000000000000010000000000000          0009744790067200000000000000000000000000000000000000000157
1022395731500012730470000705209000000                         00000108974603000000DM 00000000000000000000 010901071920-03                         010119000000000299075630470990000000000000000000000000000000000000000000000000000000000000000000000000000000000000002990000000000000000000000000000000000000000000000000000010000000000000          0000281892369700000000000000000000000000000000000000000158
1022395731500012730470000705209000000                         00000112579808000000DM 00000000000000000000 010601071910-08                         010719000000000497010431480120207190000135000000000000000000000000000000000000000000000000000000000000000000000000004970000000000000000000000000000000000000000000000000000010000000000000          0000270798960600000000000000000000000000000000000000000159
1022395731500012730470000705209000000                         00000109717102000000DM 00000000000000000000 010901071935-02                         301218000000000299075630470120000000000000000000000000000000000000000000000000000000000000000000000000000000000000002990000000000000000000000000000000000000000000000000000010000000000000          0000129108669200000000000000000000000000000000000000000160
1022395731500012730470000705209000000                         00000118265401000000DM 00000000000000000000 010901071933-01                         301218000000000299075630470120000000000000000000000000000000000000000000000000000000000000000000000000000000000000002990000000000000000000000000000000000000000000000000000010000000000000          0001073376761300000000000000000000000000000000000000000161
1022395731500012730470000705209000000                         00000119923708000000DM 00000000000000000000 010601071920-08                         130719000000000497010423320990207190000135000000000000000000000000000000000000000000000000000000000000000000000000004970000000000000000000000000000000000000000000000000000010000000000000          0000561983763700000000000000000000000000000000000000000162
1022395731500012730470000705209000000                         00000121758501000000DM 00000000000000000000 010901071910-01                         311218000000000299075630470120000000000000000000000000000000000000000000000000000000000000000000000000000000000000002990000000000000000000000000000000000000000000000000000010000000000000          0000775125962000000000000000000000000000000000000000000163
1022395731500012730470000705209000000                         00000125187407000000DM 00000000000000000000 010601071922-07                         100719000000000299023769800120207190000135000000000000000000000000000000000000000000000000000000000000000000000000002990000000000000000000000000000000000000000000000000000010000000000000          0003941600370000000000000000000000000000000000000000000164
1022395731500012730470000705209000000                         00000132459305000000DM 00000000000000000000 010601071921-05                         150619000000000299075601200120207190000135000000000000000000000000000000000000000000000000000000000000000000000000003208000000000021800000000000000000000000000000000000000010000000000000          0000534349862000000000000000000000000000000000000000000165
1022395731500012730470000705209000000                         00000131007407000000DM 00000000000000000000 011001071924-07                         150719000000000398075630470990000000000070000000000000000000000000000000000000000000000000000000000000000000000000003980000000000000000000000000000000000000000000000000000010000000000000          0000451893166100000000000000000000000000000000000000000166
1022395731500012730470000705209000000                         00000136950304000000DM 00000000000000000000 011001071901-04                         200519000000000299075630470120000000000070000000000000000000000000000000000000000000000000000000000000000000000000002990000000000000000000000000000000000000000000000000000010000000000000          0000869296663000000000000000000000000000000000000000000167
1022395731500012730470000705209000000                         00000142907708000000DM 00000000000000000000 01100107196-08                          100919000000000695075630470120000000000070000000000000000000000000000000000000000000000000000000000000000000000000006950000000000000000000000000000000000000000000000000000010000000000000          0000422706167900000000000000000000000000000000000000000168
1022395731500012730470000705209000000                         00000142910011000000DM 00000000000000000000 01100107196-11                          101219000000000695075630470120000000000070000000000000000000000000000000000000000000000000000000000000000000000000006950000000000000000000000000000000000000000000000000000010000000000000          0000422706167900000000000000000000000000000000000000000169
1022395731500012730470000705209000000                         00000146288705000000DM 00000000000000000000 010601071912-05                         050719000000000299010423320120207190000135000000000000000000000000000000000000000000000000000000000000000000000000002990000000000000000000000000000000000000000000000000000010000000000000          0000117979066900000000000000000000000000000000000000000170
1022395731500012730470000705209000000                         00000151604804000000DM 00000000000000000000 010601071903-04                         100719000000000299000111540120207190000135000000000000000000000000000000000000000000000000000000000000000000000000002990000000000000000000000000000000000000000000000000000010000000000000          0008994259066800000000000000000000000000000000000000000171
1022395731500012730470000705209000000                         00000153346003000000DM 00000000000000000000 01060107193025-03                       150619000000000398010401180120207190000135000000000000000000000000000000000000000000000000000000000000000000000000004271000000000029100000000000000000000000000000000000000010000000000000          0000253623162300000000000000000000000000000000000000000172
1022395731500012730470000705209000000                         00000154955603000000DM 00000000000000000000 0106010719GR07-03                       300619000000000398010431480010207190000135000000000000000000000000000000000000000000000000000000000000000000000000003980000000000000000000000000000000000000000000000000000010000000000000          0003072358265300000000000000000000000000000000000000000173
1022395731500012730470000705209000000                         00000164788205000000DM 00000000000000000000 01060107193046 INC 01-05                150919000000000398010423320120207190000135000000000000000000000000000000000000000000000000000000000000000000000000003980000000000000000000000000000000000000000000000000000010000000000000          0004997546364900000000000000000000000000000000000000000174
1022395731500012730470000705209000000                         00000170255109000000DM 00000000000000000000 0110010719GR84-09                       290220000000000497075630470010000000000070000000000000000000000000000000000000000000000000000000000000000000000000004970000000000000000000000000000000000000000000000000000010000000000000          0000337522260200000000000000000000000000000000000000000175
1022395731500012730470000705209000000                         00000170258312000000DM 00000000000000000000 0110010719GR84-12                       300520000000000497075630470010000000000070000000000000000000000000000000000000000000000000000000000000000000000000004970000000000000000000000000000000000000000000000000000010000000000000          0000337522260200000000000000000000000000000000000000000176
1022395731500012730470000705209000000                         00000173714601000000DM 00000000000000000000 01100107193700-01                       150619000000000299075630470990000000000070000000000000000000000000000000000000000000000000000000000000000000000000002990000000000000000000000000000000000000000000000000000010000000000000          0004661761260400000000000000000000000000000000000000000177
1022395731500012730470000705209000000                         00000173401502000000DM 00000000000000000000 01060107193714-02                       100719000000000299010423320120207190000135000000000000000000000000000000000000000000000000000000000000000000000000002990000000000000000000000000000000000000000000000000000010000000000000          0000395245869400000000000000000000000000000000000000000178
1022395731500012730470000705209000000                         00000167919502000000DM 00000000000000000000 0106010719GR68-02                       100719000000000299034197050010207190000135000000000000000000000000000000000000000000000000000000000000000000000000002990000000000000000000000000000000000000000000000000000010000000000000          0000367618265000000000000000000000000000000000000000000179
1022395731500012730470000705209000000                         00000163863104000000DM 00000000000000000000 01100107193167-04                       200819000000000299075630470010000000000070000000000000000000000000000000000000000000000000000000000000000000000000002990000000000000000000000000000000000000000000000000000010000000000000          0000016629868900000000000000000000000000000000000000000180
1022395731500012730470000705209000000                         00000163866307000000DM 00000000000000000000 01100107193167-07                       201119000000000299075630470010000000000070000000000000000000000000000000000000000000000000000000000000000000000000002990000000000000000000000000000000000000000000000000000010000000000000          0000016629868900000000000000000000000000000000000000000181
1022395731500012730470000705209000000                         00000163869510000000DM 00000000000000000000 01100107193167-10                       200220000000000299075630470010000000000070000000000000000000000000000000000000000000000000000000000000000000000000002990000000000000000000000000000000000000000000000000000010000000000000          0000016629868900000000000000000000000000000000000000000182
1022395731500012730470000705209000000                         00000177668802000000DM 00000000000000000000 010601071901-02                         150719000000000299075670520120207190000135000000000000000000000000000000000000000000000000000000000000000000000000002990000000000000000000000000000000000000000000000000000010000000000000          0000382214269700000000000000000000000000000000000000000183
1022395731500012730470000705209000000                         00000175399203000000DM 00000000000000000000 01060107193621-03                       150719000000000497075641050010207190000135000000000000000000000000000000000000000000000000000000000000000000000000004970000000000000000000000000000000000000000000000000000010000000000000          0001069031763800000000000000000000000000000000000000000184
1022395731500012730470000705209000000                         00000192805703000000DM 00000000000000000000 01100107193167 - INC 01-03              200920000000000497075630470990000000000070000000000000000000000000000000000000000000000000000000000000000000000000004970000000000000000000000000000000000000000000000000000010000000000000          0000016629868900000000000000000000000000000000000000000185
1022395731500012730470000705209000000                         00000192808906000000DM 00000000000000000000 01100107193167 - INC 01-06              201220000000000497075630470990000000000070000000000000000000000000000000000000000000000000000000000000000000000000004970000000000000000000000000000000000000000000000000000010000000000000          0000016629868900000000000000000000000000000000000000000186
1022395731500012730470000705209000000                         00000041376112000000DM 00000000000000000000 010901071909-12                         301218000000000299075630470990000000000000000000000000000000000000000000000000000000000000000000000000000000000000002990000000000000000000000000000000000000000000000000000010000000000000          0000338297960800000000000000000000000000000000000000000187
1022395731500012730470000705209000000                         00000042960412000000DM 00000000000000000000 010901071905-12                         301218000000000596075630470990000000000000000000000000000000000000000000000000000000000000000000000000000000000000005960000000000000000000000000000000000000000000000000000010000000000000          0000923244069500000000000000000000000000000000000000000188
1022395731500012730470000705209000000                         00000053520910000000DM 00000000000000000000 010901071909-10                         301218000000000398075630470120000000000000000000000000000000000000000000000000000000000000000000000000000000000000003980000000000000000000000000000000000000000000000000000010000000000000          0000630078661700000000000000000000000000000000000000000189
1022395731500012730470000705209000000                         00000061799209000000DM 00000000000000000000 010901071975-09                         301218000000000299075630470120000000000000000000000000000000000000000000000000000000000000000000000000000000000000002990000000000000000000000000000000000000000000000000000010000000000000          0000436432668200000000000000000000000000000000000000000190
1022395731500012730470000705209000000                         00000066351808000000DM 00000000000000000000 01090107194-08                          301218000000000398075630470120000000000000000000000000000000000000000000000000000000000000000000000000000000000000003980000000000000000000000000000000000000000000000000000010000000000000          0001296553361300000000000000000000000000000000000000000191
1022395731500012730470000705209000000                         00000066903508000000DM 00000000000000000000 010901071920-08                         301218000000000497075630470120000000000000000000000000000000000000000000000000000000000000000000000000000000000000004970000000000000000000000000000000000000000000000000000010000000000000          0000314718966000000000000000000000000000000000000000000192
1022395731500012730470000705209000000                         00000084963305000000DM 00000000000000000000 010901071934-05                         311218000000000398075630470120000000000000000000000000000000000000000000000000000000000000000000000000000000000000003980000000000000000000000000000000000000000000000000000010000000000000          0000346086663200000000000000000000000000000000000000000193
1022395731500012730470000705209000000                         00000085479005000000DM 00000000000000000000 010901071910-05                         301218000000000299075630470120000000000000000000000000000000000000000000000000000000000000000000000000000000000000002990000000000000000000000000000000000000000000000000000010000000000000          0000585061661600000000000000000000000000000000000000000194
1022395731500012730470000705209000000                         00000091586504000000DM 00000000000000000000 010901071923-04                         301218000000000992075630470120000000000000000000000000000000000000000000000000000000000000000000000000000000000000009920000000000000000000000000000000000000000000000000000010000000000000          0000275423263000000000000000000000000000000000000000000195
1022395731500012730470000705209000000                         00000093039805000000DM 00000000000000000000 010901071942-05                         311218000000000299075630470120000000000000000000000000000000000000000000000000000000000000000000000000000000000000002990000000000000000000000000000000000000000000000000000010000000000000          0000468378464500000000000000000000000000000000000000000196
1022395731500012730470000705209000000                         00000093363005000000DM 00000000000000000000 010901071977-05                         311218000000000299075630470120000000000000000000000000000000000000000000000000000000000000000000000000000000000000002990000000000000000000000000000000000000000000000000000010000000000000          0000166317462800000000000000000000000000000000000000000197
1022395731500012730470000705209000000                         00000090379011000000DM 00000000000000000000 010601071910-11                         150719000000000299075630470120207190000110000000000000000000000000000000000000000000000000000000000000000000000000002990000000000000000000000000000000000000000000000000000010000000000000          0000536345660500000000000000000000000000000000000000000198
1022395731500012730470000705209000000                         00000095537004000000DM 00000000000000000000 010901071949-04                         301218000000000497075630470120000000000000000000000000000000000000000000000000000000000000000000000000000000000000004970000000000000000000000000000000000000000000000000000010000000000000          0007354148660000000000000000000000000000000000000000000199
1022395731500012730470000705209000000                         00000097960604000000DM 00000000000000000000 010901071920-04                         301218000000000299075630470120000000000000000000000000000000000000000000000000000000000000000000000000000000000000002990000000000000000000000000000000000000000000000000000010000000000000          0004726271067200000000000000000000000000000000000000000200
1022395731500012730470000705209000000                         00000097005410000000DM 00000000000000000000 010601071902-10                         300619000000000299010432340120207190000135000000000000000000000000000000000000000000000000000000000000000000000000002990000000000000000000000000000000000000000000000000000010000000000000          0008314061166800000000000000000000000000000000000000000201
1022395731500012730470000705209000000                         00000099640109000000DM 00000000000000000000 010601071903-09                         120619000000000299010416420120207190000135000000000000000000000000000000000000000000000000000000000000000000000000003067000000000007700000000000000000000000000000000000000010000000000000          0002913488960400000000000000000000000000000000000000000202
1022395731500012730470000705209000000                         00000102558610000000DM 00000000000000000000 011001071920-10                         150719000000000299075630470010000000000070000000000000000000000000000000000000000000000000000000000000000000000000002990000000000000000000000000000000000000000000000000000010000000000000          0000919702163600000000000000000000000000000000000000000203
1022395731500012730470000705209000000                         00000101029406000000DM 00000000000000000000 011001071920-06                         150319000000000299075630470120000000000070000000000000000000000000000000000000000000000000000000000000000000000000002990000000000000000000000000000000000000000000000000000010000000000000          0000860361969700000000000000000000000000000000000000000204
1022395731500012730470000705209000000                         00000112525002000000DM 00000000000000000000 010901071923-02                         301218000000000596075630470120000000000000000000000000000000000000000000000000000000000000000000000000000000000000005960000000000000000000000000000000000000000000000000000010000000000000          0009759115760400000000000000000000000000000000000000000205
1022395731500012730470000705209000000                         00000114845102000000DM 00000000000000000000 010901071905-02                         301218000000000398075630470120000000000000000000000000000000000000000000000000000000000000000000000000000000000000003980000000000000000000000000000000000000000000000000000010000000000000          0005646678161500000000000000000000000000000000000000000206
1022395731500012730470000705209000000                         00000104948809000000DM 00000000000000000000 010601071920-09                         020719000000000299010432340120207190000135000000000000000000000000000000000000000000000000000000000000000000000000002990000000000000000000000000000000000000000000000000000010000000000000          0000745666167700000000000000000000000000000000000000000207
1022395731500012730470000705209000000                         00000116666008000000DM 00000000000000000000 010601071923-08                         010719000000000398010401180990207190000135000000000000000000000000000000000000000000000000000000000000000000000000003980000000000000000000000000000000000000000000000000000010000000000000          0002674597666800000000000000000000000000000000000000000208
1022395731500012730470000705209000000                         00000118851201000000DM 00000000000000000000 010901071905-01                         301218000000000695075630470120000000000000000000000000000000000000000000000000000000000000000000000000000000000000006950000000000000000000000000000000000000000000000000000010000000000000          0000408117567500000000000000000000000000000000000000000209
1022395731500012730470000705209000000                         00000120460605000000DM 00000000000000000000 010601071901-05                         280619000000000299010432340120207190000135000000000000000000000000000000000000000000000000000000000000000000000000003078000000000008800000000000000000000000000000000000000010000000000000          0003053760665300000000000000000000000000000000000000000210
1022395731500012730470000705209000000                         00000123201501000000DM 00000000000000000000 010901071930-01                         301218000000000596075630470120000000000000000000000000000000000000000000000000000000000000000000000000000000000000005960000000000000000000000000000000000000000000000000000010000000000000          0002078694860400000000000000000000000000000000000000000211
1022395731500012730470000705209000000                         00000122415207000000DM 00000000000000000000 010601071903-07                         300619000000000299000130030120207190000135000000000000000000000000000000000000000000000000000000000000000000000000002990000000000000000000000000000000000000000000000000000010000000000000          0000387547169500000000000000000000000000000000000000000212
1022395731500012730470000705209000000                         00000129129301000000DM 00000000000000000000 010901071909-01                         010119000000000299075630470120000000000000000000000000000000000000000000000000000000000000000000000000000000000000002990000000000000000000000000000000000000000000000000000010000000000000          0008686373860000000000000000000000000000000000000000000213
1022395731500012730470000705209000000                         00000129650806000000DM 00000000000000000000 010601071920-06                         300619000000000299000111540120207190000135000000000000000000000000000000000000000000000000000000000000000000000000002990000000000000000000000000000000000000000000000000000010000000000000          0000396340164800000000000000000000000000000000000000000214
1022395731500012730470000705209000000                         00000123909601000000DM 00000000000000000000 010901071903-01                         301218000000000398075630470120000000000000000000000000000000000000000000000000000000000000000000000000000000000000003980000000000000000000000000000000000000000000000000000010000000000000          0000324232861200000000000000000000000000000000000000000215
1022395731500012730470000705209000000                         00000131679506000000DM 00000000000000000000 010601071901-06                         100619000000000299003317190120207190000135000000000000000000000000000000000000000000000000000000000000000000000000003258000000000026800000000000000000000000000000000000000010000000000000          0005527747062000000000000000000000000000000000000000000216
1022395731500012730470000705209000000                         00000135141306000000DM 00000000000000000000 010601071910-06                         100719000000000398010423320120207190000135000000000000000000000000000000000000000000000000000000000000000000000000003980000000000000000000000000000000000000000000000000000010000000000000          0001049476166000000000000000000000000000000000000000000217
1022395731500012730470000705209000000                         00000148120304000000DM 00000000000000000000 010601071963-04                         280719000000000299010414910120207190000135000000000000000000000000000000000000000000000000000000000000000000000000002990000000000000000000000000000000000000000000000000000010000000000000          0004638804462000000000000000000000000000000000000000000218
1022395731500012730470000705209000000                         00000147075703000000DM 00000000000000000000 010601071909-03                         280519000000000299023706600120207190000135000000000000000000000000000000000000000000000000000000000000000000000000003387000000000039700000000000000000000000000000000000000010000000000000          0003510875427200000000000000000000000000000000000000000219
1022395731500012730470000705209000000                         00000140096805000000DM 00000000000000000000 01060107192-05                          050719000000000596010443920120207190000135000000000000000000000000000000000000000000000000000000000000000000000000005960000000000000000000000000000000000000000000000000000010000000000000          0000494031468500000000000000000000000000000000000000000220
1022395731500012730470000705209000000                         00000148479203000000DM 00000000000000000000 010601071932-03                         300619000000000299000111540120207190000135000000000000000000000000000000000000000000000000000000000000000000000000002990000000000000000000000000000000000000000000000000000010000000000000          0000553201476000000000000000000000000000000000000000000221
1022395731500012730470000705209000000                         00000158844004000000DM 00000000000000000000 01060107193148-04                       050819000000000299010423320120207190000135000000000000000000000000000000000000000000000000000000000000000000000000002990000000000000000000000000000000000000000000000000000010000000000000          0000263383962200000000000000000000000000000000000000000222
1022395731500012730470000705209000000                         00000153862703000000DM 00000000000000000000 0106010719GR37-03                       300619000000000299075622140010207190000135000000000000000000000000000000000000000000000000000000000000000000000000002990000000000000000000000000000000000000000000000000000010000000000000          0000154195561700000000000000000000000000000000000000000223
1022395731500012730470000705209000000                         00000163867008000000DM 00000000000000000000 01100107193167-08                       201219000000000299075630470010000000000070000000000000000000000000000000000000000000000000000000000000000000000000002990000000000000000000000000000000000000000000000000000010000000000000          0000016629868900000000000000000000000000000000000000000224
1022395731500012730470000705209000000                         00000163621902000000DM 00000000000000000000 010601071980-02                         200619000000000299075608160120207190000135000000000000000000000000000000000000000000000000000000000000000000000000003158000000000016800000000000000000000000000000000000000010000000000000          0000337958467300000000000000000000000000000000000000000225
1022395731500012730470000705209000000                         00000169106302000000DM 00000000000000000000 0106010719GR70-02                       200719000000000299010431480010207190000135000000000000000000000000000000000000000000000000000000000000000000000000002990000000000000000000000000000000000000000000000000000010000000000000          0006666153669100000000000000000000000000000000000000000226
1022395731500012730470000705209000000                         00000164234603000000DM 00000000000000000000 01060107193268-03                       100719000000000299010431480120207190000135000000000000000000000000000000000000000000000000000000000000000000000000002990000000000000000000000000000000000000000000000000000010000000000000          0000307472663600000000000000000000000000000000000000000227
1022395731500012730470000705209000000                         00000161533702000000DM 00000000000000000000 010601071940-02                         300619000000000299010432340120207190000135000000000000000000000000000000000000000000000000000000000000000000000000002990000000000000000000000000000000000000000000000000000010000000000000          0001114883069300000000000000000000000000000000000000000228
1022395731500012730470000705209000000                         00000170257611000000DM 00000000000000000000 0110010719GR84-11                       300420000000000497075630470010000000000070000000000000000000000000000000000000000000000000000000000000000000000000004970000000000000000000000000000000000000000000000000000010000000000000          0000337522260200000000000000000000000000000000000000000229
1022395731500012730470000705209000000                         00000167943202000000DM 00000000000000000000 0106010719GR68-02                       100719000000000299010437040010207190000135000000000000000000000000000000000000000000000000000000000000000000000000002990000000000000000000000000000000000000000000000000000010000000000000          0009741485964900000000000000000000000000000000000000000230
1022395731500012730470000705209000000                         00000185187801000000DM 00000000000000000000 010601071901-01                         280619000000000299023734600120207190000135000000000000000000000000000000000000000000000000000000000000000000000000003078000000000008800000000000000000000000000000000000000010000000000000          0000526038160200000000000000000000000000000000000000000231
1022395731500012730470000705209000000                         00000191365003000000DM 00000000000000000000 0110010719GR170-03                      101019000000000695075630470010000000000070000000000000000000000000000000000000000000000000000000000000000000000000006950000000000000000000000000000000000000000000000000000010000000000000          0000422706167900000000000000000000000000000000000000000232
1022395731500012730470000705209000000                         00000042816812000000DM 00000000000000000000 010901071903-12                         301218000000000299075630470990000000000000000000000000000000000000000000000000000000000000000000000000000000000000002990000000000000000000000000000000000000000000000000000010000000000000          0000833109561800000000000000000000000000000000000000000233
1022395731500012730470000705209000000                         00000057984309000000DM 00000000000000000000 010901071912-09                         301218000000000299075630470120000000000000000000000000000000000000000000000000000000000000000000000000000000000000002990000000000000000000000000000000000000000000000000000010000000000000          0000154195561700000000000000000000000000000000000000000234
1022395731500012730470000705209000000                         00000062207508000000DM 00000000000000000000 010901071913-08                         301218000000000299075630470120000000000000000000000000000000000000000000000000000000000000000000000000000000000000002990000000000000000000000000000000000000000000000000000010000000000000          0000448374862900000000000000000000000000000000000000000235
1022395731500012730470000705209000000                         00000066483508000000DM 00000000000000000000 010901071923-08                         301218000000000299075630470120000000000000000000000000000000000000000000000000000000000000000000000000000000000000002990000000000000000000000000000000000000000000000000000010000000000000          0000355253763500000000000000000000000000000000000000000236
1022395731500012730470000705209000000                         00000066061608000000DM 00000000000000000000 010901071912-08                         301218000000000398075630470120000000000000000000000000000000000000000000000000000000000000000000000000000000000000003980000000000000000000000000000000000000000000000000000010000000000000          0002519745266800000000000000000000000000000000000000000237
1022395731500012730470000705209000000                         00000071283308000000DM 00000000000000000000 010901071909-08                         301218000000000497075630470120000000000000000000000000000000000000000000000000000000000000000000000000000000000000004970000000000000000000000000000000000000000000000000000010000000000000          0000328948969800000000000000000000000000000000000000000238
1022395731500012730470000705209000000                         00000074078007000000DM 00000000000000000000 01090107198-07                          301218000000000398075630470120000000000000000000000000000000000000000000000000000000000000000000000000000000000000003980000000000000000000000000000000000000000000000000000010000000000000          0000530666065700000000000000000000000000000000000000000239
1022395731500012730470000705209000000                         00000080209612000000DM 00000000000000000000 010601071912-12                         050719000000000299010443920120207190000135000000000000000000000000000000000000000000000000000000000000000000000000002990000000000000000000000000000000000000000000000000000010000000000000          0000726049565000000000000000000000000000000000000000000240
1022395731500012730470000705209000000                         00000081944605000000DM 00000000000000000000 010901071932-05                         301218000000000398075630470120000000000000000000000000000000000000000000000000000000000000000000000000000000000000003980000000000000000000000000000000000000000000000000000010000000000000          0000902888064000000000000000000000000000000000000000000241
1022395731500012730470000705209000000                         00000084831605000000DM 00000000000000000000 010901071931-05                         301218000000000299075630470120000000000000000000000000000000000000000000000000000000000000000000000000000000000000002990000000000000000000000000000000000000000000000000000010000000000000          0000077561163800000000000000000000000000000000000000000242
1022395731500012730470000705209000000                         00000084880706000000DM 00000000000000000000 010901071920-06                         311218000000000299075630470120000000000000000000000000000000000000000000000000000000000000000000000000000000000000002990000000000000000000000000000000000000000000000000000010000000000000          0000463617487900000000000000000000000000000000000000000243
1022395731500012730470000705209000000                         00000085866208000000DM 00000000000000000000 010601071921-08                         150319000000000299010431480120207190000135000000000000000000000000000000000000000000000000000000000000000000000000003156000000000016600000000000000000000000000000000000000010000000000000          0009449820260000000000000000000000000000000000000000000244
1022395731500012730470000705209000000                         00000093219405000000DM 00000000000000000000 010901071966-05                         311218000000000299075630470120000000000000000000000000000000000000000000000000000000000000000000000000000000000000002990000000000000000000000000000000000000000000000000000010000000000000          0000363272461000000000000000000000000000000000000000000245
1022395731500012730470000705209000000                         00000091341011000000DM 00000000000000000000 010601071910-11                         100719000000000398010423320120207190000135000000000000000000000000000000000000000000000000000000000000000000000000003980000000000000000000000000000000000000000000000000000010000000000000          0002979644064400000000000000000000000000000000000000000246
1022395731500012730470000705209000000                         00000094876404000000DM 00000000000000000000 010901071931-04                         301218000000000596075630470120000000000000000000000000000000000000000000000000000000000000000000000000000000000000005960000000000000000000000000000000000000000000000000000010000000000000          0001150577967700000000000000000000000000000000000000000247
1022395731500012730470000705209000000                         00000094967011000000DM 00000000000000000000 010601071933-11                         050719000000000497010431480120207190000135000000000000000000000000000000000000000000000000000000000000000000000000004970000000000000000000000000000000000000000000000000000010000000000000          0004570325661500000000000000000000000000000000000000000248
1022395731500012730470000705209000000                         00000090331811000000DM 00000000000000000000 010601071931-11                         050719000000000398010431480120207190000135000000000000000000000000000000000000000000000000000000000000000000000000003980000000000000000000000000000000000000000000000000000010000000000000          0006490035561500000000000000000000000000000000000000000249
