02RETORNO01COBRANÇA       30470000314811705209PRO-MEDICO SAUDE LTDA - ME    756 - BANCOOB S/A 0404190000322                                                                                                                                                                                                                                                                                               000001
1022395731500012730470000705209000000                         00000032451111000000DM 00000000000000000000 010903041905-11                         041018000000000299075630470990000000000000000000000000000000000000000000000000000000000000000000000000000000000000002990000000000000000000000000000000000000000000000000000010000000000000          0000193588161200000000000000000000000000000000000000000002
1022395731500012730470000705209000000                         00000038450910000000DM 00000000000000000000 010903041901-10                         041018000000000398075630470120000000000000000000000000000000000000000000000000000000000000000000000000000000000000003980000000000000000000000000000000000000000000000000000010000000000000          0000317739689200000000000000000000000000000000000000000003
1022395731500012730470000705209000000                         00000073010010000000DM 00000000000000000000 011003041901-10                         240319000000000299075630470120000000000070000000000000000000000000000000000000000000000000000000000000000000000000002990000000000000000000000000000000000000000000000000000010000000000000          0006514118062000000000000000000000000000000000000000000004
1022395731500012730470000705209000000                         00000072015811000000DM 00000000000000000000 010603041915-11                         150419000000000299075630470120404190000110000000000000000000000000000000000000000000000000000000000000000000000000002990000000000000000000000000000000000000000000000000000010000000000000          0000066631963400000000000000000000000000000000000000000005
1022395731500012730470000705209000000                         00000070975811000000DM 00000000000000000000 010603041902-11                         100419000000000299010432340120404190000135000000000000000000000000000000000000000000000000000000000000000000000000002990000000000000000000000000000000000000000000000000000010000000000000          0002611365164900000000000000000000000000000000000000000006
1022395731500012730470000705209000000                         00000074475504000000DM 00000000000000000000 011003041922-04                         101018000000000398075630470120000000000070000000000000000000000000000000000000000000000000000000000000000000000000003980000000000000000000000000000000000000000000000000000010000000000000          0002421469864900000000000000000000000000000000000000000007
1022395731500012730470000705209000000                         00000074478707000000DM 00000000000000000000 011003041922-07                         100119000000000398075630470120000000000070000000000000000000000000000000000000000000000000000000000000000000000000003980000000000000000000000000000000000000000000000000000010000000000000          0002421469864900000000000000000000000000000000000000000008
1022395731500012730470000705209000000                         00000074541710000000DM 00000000000000000000 010603041905-10                         100419000000000299000111540120404190000135000000000000000000000000000000000000000000000000000000000000000000000000002990000000000000000000000000000000000000000000000000000010000000000000          0000810871262900000000000000000000000000000000000000000009
1022395731500012730470000705209000000                         00000076053410000000DM 00000000000000000000 010603041923-10                         100419000000000398010423320990404190000135000000000000000000000000000000000000000000000000000000000000000000000000003980000000000000000000000000000000000000000000000000000010000000000000          0000439452767800000000000000000000000000000000000000000010
1022395731500012730470000705209000000                         00000086994008000000DM 00000000000000000000 011003041913-08                         200319000000000398075630470120000000000070000000000000000000000000000000000000000000000000000000000000000000000000003980000000000000000000000000000000000000000000000000000010000000000000          0001172686661000000000000000000000000000000000000000000011
1022395731500012730470000705209000000                         00000083548608000000DM 00000000000000000000 01060304192-08                          150319000000000497023706600120404190000135000000000000000000000000000000000000000000000000000000000000000000000000005100000000000013000000000000000000000000000000000000000010000000000000          0006489822962000000000000000000000000000000000000000000012
1022395731500012730470000705209000000                         00000085682704000000DM 00000000000000000000 010603041923-04                         151218000000000299075640360120404190000135000000000000000000000000000000000000000000000000000000000000000000000000003157000000000016700000000000000000000000000000000000000010000000000000          0000408470666300000000000000000000000000000000000000000013
1022395731500012730470000705209000000                         00000090124208000000DM 00000000000000000000 010603041901-08                         100419000000000299010432340120404190000135000000000000000000000000000000000000000000000000000000000000000000000000002990000000000000000000000000000000000000000000000000000010000000000000          0003078962164900000000000000000000000000000000000000000014
1022395731500012730470000705209000000                         00000090196208000000DM 00000000000000000000 010603041912-08                         100419000000000398010401180120404190000135000000000000000000000000000000000000000000000000000000000000000000000000003980000000000000000000000000000000000000000000000000000010000000000000          0000025821768500000000000000000000000000000000000000000015
1022395731500012730470000705209000000                         00000097627707000000DM 00000000000000000000 01060304198-07                          150419000000000398010431480120404190000135000000000000000000000000000000000000000000000000000000000000000000000000003980000000000000000000000000000000000000000000000000000010000000000000          0000596161166300000000000000000000000000000000000000000016
1022395731500012730470000705209000000                         00000097808008000000DM 00000000000000000000 010603041923-08                         050419000000000497010401180120404190000135000000000000000000000000000000000000000000000000000000000000000000000000004970000000000000000000000000000000000000000000000000000010000000000000          0000631408860700000000000000000000000000000000000000000017
1022395731500012730470000705209000000                         00000099637906000000DM 00000000000000000000 010603041903-06                         120319000000000299010416420120404190000135000000000000000000000000000000000000000000000000000000000000000000000000003070000000000008000000000000000000000000000000000000000010000000000000          0002913488960400000000000000000000000000000000000000000018
1022395731500012730470000705209000000                         00000100907004000000DM 00000000000000000000 01060304197-04                          120119000000000299063300010990404190000135000000000000000000000000000000000000000000000000000000000000000000000000003127000000000013700000000000000000000000000000000000000010000000000000          0001152947966500000000000000000000000000000000000000000019
1022395731500012730470000705209000000                         00000103744605000000DM 00000000000000000000 01060304196-05                          200319000000000596023706600120404190000135000000000000000000000000000000000000000000000000000000000000000000000000006106000000000014600000000000000000000000000000000000000010000000000000          0000260944165700000000000000000000000000000000000000000020
1022395731500012730470000705209000000                         00000104259604000000DM 00000000000000000000 011003041921-04                         300119000000000497075630470120000000000070000000000000000000000000000000000000000000000000000000000000000000000000004970000000000000000000000000000000000000000000000000000010000000000000          0003873767163400000000000000000000000000000000000000000021
1022395731500012730470000705209000000                         00000113850006000000DM 00000000000000000000 010603041922-06                         050419000000000596023706600120404190000135000000000000000000000000000000000000000000000000000000000000000000000000005960000000000000000000000000000000000000000000000000000010000000000000          0000602610460700000000000000000000000000000000000000000022
1022395731500012730470000705209000000                         00000109326007000000DM 00000000000000000000 010603041910-07                         150419000000000299010432340120404190000135000000000000000000000000000000000000000000000000000000000000000000000000002990000000000000000000000000000000000000000000000000000010000000000000          0003718261766800000000000000000000000000000000000000000023
1022395731500012730470000705209000000                         00000109546111000000DM 00000000000000000000 011003041916-11                         100919000000000299075630470120000000000070000000000000000000000000000000000000000000000000000000000000000000000000002990000000000000000000000000000000000000000000000000000010000000000000          0004373657262000000000000000000000000000000000000000000024
1022395731500012730470000705209000000                         00000122688304000000DM 00000000000000000000 011003041909-04                         050419000000000299075630470120000000000070000000000000000000000000000000000000000000000000000000000000000000000000002990000000000000000000000000000000000000000000000000000010000000000000          0001105478769700000000000000000000000000000000000000000025
1022395731500012730470000705209000000                         00000122690906000000DM 00000000000000000000 011003041909-06                         050619000000000299075630470120000000000070000000000000000000000000000000000000000000000000000000000000000000000000002990000000000000000000000000000000000000000000000000000010000000000000          0001105478769700000000000000000000000000000000000000000026
1022395731500012730470000705209000000                         00000120052005000000DM 00000000000000000000 010603041919-05                         100419000000000299010431480120404190000135000000000000000000000000000000000000000000000000000000000000000000000000002990000000000000000000000000000000000000000000000000000010000000000000          0004069134964900000000000000000000000000000000000000000027
1022395731500012730470000705209000000                         00000116036904000000DM 00000000000000000000 011003041912-04                         200319000000000398075630470120000000000070000000000000000000000000000000000000000000000000000000000000000000000000003980000000000000000000000000000000000000000000000000000010000000000000          0000237337967800000000000000000000000000000000000000000028
1022395731500012730470000705209000000                         00000122028004000000DM 00000000000000000000 010603041910-04                         310319000000000299075641050120404190000135000000000000000000000000000000000000000000000000000000000000000000000000003078000000000008800000000000000000000000000000000000000010000000000000          0001016544960800000000000000000000000000000000000000000029
1022395731500012730470000705209000000                         00000127889009000000DM 00000000000000000000 011003041907-09                         100919000000000398075630470120000000000070000000000000000000000000000000000000000000000000009000000000000000000000003980000000000000000000000000000000000000000000000000000010000000000000          0000439904161700000000000000000000000000000000000000000030
1022395731500012730470000705209000000                         00000127892212000000DM 00000000000000000000 011003041907-12                         101219000000000398075630470120000000000070000000000000000000000000000000000000000000000000009000000000000000000000003980000000000000000000000000000000000000000000000000000010000000000000          0000439904161700000000000000000000000000000000000000000031
1022395731500012730470000705209000000                         00000117297005000000DM 00000000000000000000 010603041902-05                         100419000000000299010432340120404190000135000000000000000000000000000000000000000000000000000000000000000000000000002990000000000000000000000000000000000000000000000000000010000000000000          0000710512368000000000000000000000000000000000000000000032
1022395731500012730470000705209000000                         00000132868703000000DM 00000000000000000000 010603041944-03                         020419000000000299075610720120404190000135000000000000000000000000000000000000000000000000000000000000000000000000003058000000000006800000000000000000000000000000000000000010000000000000          0007616553176800000000000000000000000000000000000000000033
1022395731500012730470000705209000000                         00000140393102000000DM 00000000000000000000 010603041916-02                         150319000000000398075641050120404190000135000000000000000000000000000000000000000000000000000000000000000000000000004311000000000033100000000000000000000000000000000000000010000000000000          0001321393180200000000000000000000000000000000000000000034
1022395731500012730470000705209000000                         00000142721702000000DM 00000000000000000000 010603041916-02                         100419000000000695010423320120404190000135000000000000000000000000000000000000000000000000000000000000000000000000006950000000000000000000000000000000000000000000000000000010000000000000          0003588263861500000000000000000000000000000000000000000035
1022395731500012730470000705209000000                         00000151350102000000DM 00000000000000000000 011003041920-02                         100519000000000299075630470120000000000070000000000000000000000000000000000000000000000000000000000000000000000000002990000000000000000000000000000000000000000000000000000010000000000000          0000643636366100000000000000000000000000000000000000000036
1022395731500012730470000705209000000                         00000151353305000000DM 00000000000000000000 011003041920-05                         100819000000000299075630470120000000000070000000000000000000000000000000000000000000000000000000000000000000000000002990000000000000000000000000000000000000000000000000000010000000000000          0000643636366100000000000000000000000000000000000000000037
1022395731500012730470000705209000000                         00000151356508000000DM 00000000000000000000 011003041920-08                         101119000000000299075630470120000000000070000000000000000000000000000000000000000000000000000000000000000000000000002990000000000000000000000000000000000000000000000000000010000000000000          0000643636366100000000000000000000000000000000000000000038
1022395731500012730470000705209000000                         00000151359711000000DM 00000000000000000000 011003041920-11                         100220000000000299075630470120000000000070000000000000000000000000000000000000000000000000000000000000000000000000002990000000000000000000000000000000000000000000000000000010000000000000          0000643636366100000000000000000000000000000000000000000039
1022395731500012730470000705209000000                         00000154070007000000DM 00000000000000000000 0110030419GR2-07                        051019000000000398075630470010000000000070000000000000000000000000000000000000000000000000000000000000000000000000003980000000000000000000000000000000000000000000000000000010000000000000          0008261313360000000000000000000000000000000000000000000040
1022395731500012730470000705209000000                         00000154073210000000DM 00000000000000000000 0110030419GR2-10                        050120000000000398075630470010000000000070000000000000000000000000000000000000000000000000000000000000000000000000003980000000000000000000000000000000000000000000000000000010000000000000          0008261313360000000000000000000000000000000000000000000041
1022395731500012730470000705209000000                         00000160363508000000DM 00000000000000000000 01100304193202-08                       201119000000000299075630470010000000000070000000000000000000000000000000000000000000000000000000000000000000000000002990000000000000000000000000000000000000000000000000000010000000000000          0001027831761800000000000000000000000000000000000000000042
1022395731500012730470000705209000000                         00000160366711000000DM 00000000000000000000 01100304193202-11                       200220000000000299075630470010000000000070000000000000000000000000000000000000000000000000000000000000000000000000002990000000000000000000000000000000000000000000000000000010000000000000          0001027831761800000000000000000000000000000000000000000043
1022395731500012730470000705209000000                         00000148321401000000DM 00000000000000000000 010603041922-01                         200419000000000398034131090120404190000135000000000000000000000000000000000000000000000000000000000000000000000000003980000000000000000000000000000000000000000000000000000010000000000000          0001111067570400000000000000000000000000000000000000000044
1022395731500012730470000705209000000                         00000163536701000000DM 00000000000000000000 011003041974-01                         150519000000000299075630470120000000000070000000000000000000000000000000000000000000000000000000000000000000000000002990000000000000000000000000000000000000000000000000000010000000000000          0008252115861500000000000000000000000000000000000000000045
1022395731500012730470000705209000000                         00000163539904000000DM 00000000000000000000 011003041974-04                         150819000000000299075630470120000000000070000000000000000000000000000000000000000000000000000000000000000000000000002990000000000000000000000000000000000000000000000000000010000000000000          0008252115861500000000000000000000000000000000000000000046
1022395731500012730470000705209000000                         00000032318611000000DM 00000000000000000000 010903041906-11                         041018000000000299075630470990000000000000000000000000000000000000000000000000000000000000000000000000000000000000002990000000000000000000000000000000000000000000000000000010000000000000          0000378802267100000000000000000000000000000000000000000047
1022395731500012730470000705209000000                         00000058662512000000DM 00000000000000000000 010603041920-12                         200319000000000299010432340120404190000135000000000000000000000000000000000000000000000000000000000000000000000000003062000000000007200000000000000000000000000000000000000010000000000000          0005841199269100000000000000000000000000000000000000000048
1022395731500012730470000705209000000                         00000060079312000000DM 00000000000000000000 01060304198-12                          100419000000000398010401180120404190000135000000000000000000000000000000000000000000000000000000000000000000000000003980000000000000000000000000000000000000000000000000000010000000000000          0003473129666800000000000000000000000000000000000000000049
1022395731500012730470000705209000000                         00000068124311000000DM 00000000000000000000 010603041901-11                         100419000000000299000111540120404190000135000000000000000000000000000000000000000000000000000000000000000000000000002990000000000000000000000000000000000000000000000000000010000000000000          0000658001388500000000000000000000000000000000000000000050
1022395731500012730470000705209000000                         00000067476211000000DM 00000000000000000000 010603041926-11                         050419000000000299010431480120404190000135000000000000000000000000000000000000000000000000000000000000000000000000002990000000000000000000000000000000000000000000000000000010000000000000          0000248492560300000000000000000000000000000000000000000051
1022395731500012730470000705209000000                         00000069401912000000DM 00000000000000000000 011003041910-12                         150519000000000398075630470120000000000070000000000000000000000000000000000000000000000000000000000000000000000000003980000000000000000000000000000000000000000000000000000010000000000000          0005506223765300000000000000000000000000000000000000000052
1022395731500012730470000705209000000                         00000074476205000000DM 00000000000000000000 011003041922-05                         101118000000000398075630470120000000000070000000000000000000000000000000000000000000000000000000000000000000000000003980000000000000000000000000000000000000000000000000000010000000000000          0002421469864900000000000000000000000000000000000000000053
1022395731500012730470000705209000000                         00000075993609000000DM 00000000000000000000 010603041931-09                         200419000000000299010414910120404190000135000000000000000000000000000000000000000000000000000000000000000000000000002990000000000000000000000000000000000000000000000000000010000000000000          0000391624962200000000000000000000000000000000000000000054
1022395731500012730470000705209000000                         00000080410809000000DM 00000000000000000000 010603041911-09                         060419000000000398010431480120404190000135000000000000000000000000000000000000000000000000000000000000000000000000003980000000000000000000000000000000000000000000000000000010000000000000          0001268854166800000000000000000000000000000000000000000055
1022395731500012730470000705209000000                         00000082540910000000DM 00000000000000000000 010603041916-10                         100419000000000299010432340120404190000135000000000000000000000000000000000000000000000000000000000000000000000000002990000000000000000000000000000000000000000000000000000010000000000000          0001690733667700000000000000000000000000000000000000000056
1022395731500012730470000705209000000                         00000082815009000000DM 00000000000000000000 01060304192-09                          100419000000000398010414910120404190000135000000000000000000000000000000000000000000000000000000000000000000000000003980000000000000000000000000000000000000000000000000000010000000000000          0005221752360000000000000000000000000000000000000000000057
1022395731500012730470000705209000000                         00000085303009000000DM 00000000000000000000 010603041920-09                         150419000000000398023706600120404190000135000000000000000000000000000000000000000000000000000000000000000000000000003980000000000000000000000000000000000000000000000000000010000000000000          0003590169168700000000000000000000000000000000000000000058
1022395731500012730470000705209000000                         00000097843907000000DM 00000000000000000000 01060304192-07                          100419000000000398010401180120404190000135000000000000000000000000000000000000000000000000000000000000000000000000003980000000000000000000000000000000000000000000000000000010000000000000          0000270532161600000000000000000000000000000000000000000059
1022395731500012730470000705209000000                         00000099080507000000DM 00000000000000000000 01060304194-07                          200319000000000398023704670120404190000135000000000000000000000000000000000000000000000000000000000000000000000000004077000000000009700000000000000000000000000000000000000010000000000000          0005855877264900000000000000000000000000000000000000000060
1022395731500012730470000705209000000                         00000099180711000000DM 00000000000000000000 01060304191-11                          180819000000000299010423320990404190000135000000000000000000000000000000000000000000000000000000000000000000000000002990000000000000000000000000000000000000000000000000000010000000000000          0000388627565500000000000000000000000000000000000000000061
1022395731500012730470000705209000000                         00000101054907000000DM 00000000000000000000 010603041912-07                         150419000000000299023721070120404190000135000000000000000000000000000000000000000000000000000000000000000000000000002990000000000000000000000000000000000000000000000000000010000000000000          0000731690664200000000000000000000000000000000000000000062
1022395731500012730470000705209000000                         00000104261106000000DM 00000000000000000000 011003041921-06                         300319000000000497075630470120000000000070000000000000000000000000000000000000000000000000000000000000000000000000004970000000000000000000000000000000000000000000000000000010000000000000          0003873767163400000000000000000000000000000000000000000063
1022395731500012730470000705209000000                         00000109539004000000DM 00000000000000000000 011003041916-04                         100219000000000299075630470120000000000070000000000000000000000000000000000000000000000000000000000000000000000000002990000000000000000000000000000000000000000000000000000010000000000000          0004373657262000000000000000000000000000000000000000000064
1022395731500012730470000705209000000                         00000109542207000000DM 00000000000000000000 011003041916-07                         100519000000000299075630470120000000000070000000000000000000000000000000000000000000000000000000000000000000000000002990000000000000000000000000000000000000000000000000000010000000000000          0004373657262000000000000000000000000000000000000000000065
1022395731500012730470000705209000000                         00000109545410000000DM 00000000000000000000 011003041916-10                         100819000000000299075630470120000000000070000000000000000000000000000000000000000000000000000000000000000000000000002990000000000000000000000000000000000000000000000000000010000000000000          0004373657262000000000000000000000000000000000000000000066
1022395731500012730470000705209000000                         00000108761706000000DM 00000000000000000000 010603041940-06                         110419000000000299010432340120404190000135000000000000000000000000000000000000000000000000000000000000000000000000002990000000000000000000000000000000000000000000000000000010000000000000          0001502483564600000000000000000000000000000000000000000067
1022395731500012730470000705209000000                         00000122687603000000DM 00000000000000000000 011003041909-03                         050319000000000299075630470120000000000070000000000000000000000000000000000000000000000000000000000000000000000000002990000000000000000000000000000000000000000000000000000010000000000000          0001105478769700000000000000000000000000000000000000000068
1022395731500012730470000705209000000                         00000120339904000000DM 00000000000000000000 011003041910-04                         100319000000000497075630470120000000000070000000000000000000000000000000000000000000000000000000000000000000000000004970000000000000000000000000000000000000000000000000000010000000000000          0001131824563000000000000000000000000000000000000000000069
1022395731500012730470000705209000000                         00000121114005000000DM 00000000000000000000 010603041910-05                         150419000000000398023721070120404190000135000000000000000000000000000000000000000000000000000000000000000000000000003980000000000000000000000000000000000000000000000000000010000000000000          0000069514062000000000000000000000000000000000000000000070
1022395731500012730470000705209000000                         00000127176104000000DM 00000000000000000000 010603041903-04                         040419000000000299010416420120404190000135000000000000000000000000000000000000000000000000000000000000000000000000002990000000000000000000000000000000000000000000000000000010000000000000          0000386824860900000000000000000000000000000000000000000071
1022395731500012730470000705209000000                         00000126648504000000DM 00000000000000000000 01060304194-04                          100419000000000398075641280120404190000135000000000000000000000000000000000000000000000000000000000000000000000000003980000000000000000000000000000000000000000000000000000010000000000000          0001077804989200000000000000000000000000000000000000000072
1022395731500012730470000705209000000                         00000128640504000000DM 00000000000000000000 010603041901-04                         100419000000000299010431480120404190000135000000000000000000000000000000000000000000000000000000000000000000000000002990000000000000000000000000000000000000000000000000000010000000000000          0000773412611100000000000000000000000000000000000000000073
1022395731500012730470000705209000000                         00000130524004000000DM 00000000000000000000 010603041926-04                         150419000000000398010423320120404190000135000000000000000000000000000000000000000000000000000000000000000000000000003980000000000000000000000000000000000000000000000000000010000000000000          0003086213264900000000000000000000000000000000000000000074
1022395731500012730470000705209000000                         00000131677004000000DM 00000000000000000000 010603041901-04                         100419000000000299003317190120404190000135000000000000000000000000000000000000000000000000000000000000000000000000002990000000000000000000000000000000000000000000000000000010000000000000          0005527747062000000000000000000000000000000000000000000075
1022395731500012730470000705209000000                         00000132445003000000DM 00000000000000000000 010603041905-03                         050419000000000398023706600120404190000135000000000000000000000000000000000000000000000000000000000000000000000000003980000000000000000000000000000000000000000000000000000010000000000000          0009978319360000000000000000000000000000000000000000000076
1022395731500012730470000705209000000                         00000134154003000000DM 00000000000000000000 010603041909-03                         100419000000000299010431480120404190000135000000000000000000000000000000000000000000000000000000000000000000000000002990000000000000000000000000000000000000000000000000000010000000000000          0004661365062500000000000000000000000000000000000000000077
1022395731500012730470000705209000000                         00000143165902000000DM 00000000000000000000 010603041914-02                         050419000000000398010431480120404190000135000000000000000000000000000000000000000000000000000000000000000000000000003980000000000000000000000000000000000000000000000000000010000000000000          0001895063965300000000000000000000000000000000000000000078
1022395731500012730470000705209000000                         00000143213802000000DM 00000000000000000000 010603041902-02                         050419000000000299023721070120404190000135000000000000000000000000000000000000000000000000000000000000000000000000002990000000000000000000000000000000000000000000000000000010000000000000          0000842290362800000000000000000000000000000000000000000079
1022395731500012730470000705209000000                         00000160360305000000DM 00000000000000000000 01100304193202-05                       200819000000000299075630470010000000000070000000000000000000000000000000000000000000000000000000000000000000000000002990000000000000000000000000000000000000000000000000000010000000000000          0001027831761800000000000000000000000000000000000000000080
1022395731500012730470000705209000000                         00000143320101000000DM 00000000000000000000 011003041901-01                         150319000000000497075630470120000000000070000000000000000000000000000000000000000000000000000000000000000000000000004970000000000000000000000000000000000000000000000000000010000000000000          0000483119865000000000000000000000000000000000000000000081
1022395731500012730470000705209000000                         00000149993401000000DM 00000000000000000000 01060304196-01                          100419000000000497010401180120404190000135000000000000000000000000000000000000000000000000000000000000000000000000004970000000000000000000000000000000000000000000000000000010000000000000          0000758939060700000000000000000000000000000000000000000082
1022395731500012730470000705209000000                         00000153284801000000DM 00000000000000000000 01060304193009-01                       100419000000000497010401180010404190000135000000000000000000000000000000000000000000000000000000000000000000000000004970000000000000000000000000000000000000000000000000000010000000000000          0000524432961800000000000000000000000000000000000000000083
1022395731500012730470000705209000000                         00000158373401000000DM 00000000000000000000 01060304196249 INC 01-01                050419000000000398023720910120404190000135000000000000000000000000000000000000000000000000000000000000000000000000003980000000000000000000000000000000000000000000000000000010000000000000          0000164241060800000000000000000000000000000000000000000084
1022395731500012730470000705209000000                         00000154066003000000DM 00000000000000000000 0110030419GR2-03                        050619000000000398075630470010000000000070000000000000000000000000000000000000000000000000000000000000000000000000003980000000000000000000000000000000000000000000000000000010000000000000          0008261313360000000000000000000000000000000000000000000085
1022395731500012730470000705209000000                         00000154071808000000DM 00000000000000000000 0110030419GR2-08                        051119000000000398075630470010000000000070000000000000000000000000000000000000000000000000000000000000000000000000003980000000000000000000000000000000000000000000000000000010000000000000          0008261313360000000000000000000000000000000000000000000086
1022395731500012730470000705209000000                         00000163542107000000DM 00000000000000000000 011003041974-07                         151119000000000299075630470120000000000070000000000000000000000000000000000000000000000000000000000000000000000000002990000000000000000000000000000000000000000000000000000010000000000000          0008252115861500000000000000000000000000000000000000000087
1022395731500012730470000705209000000                         00000163545310000000DM 00000000000000000000 011003041974-10                         150220000000000299075630470120000000000070000000000000000000000000000000000000000000000000000000000000000000000000002990000000000000000000000000000000000000000000000000000010000000000000          0008252115861500000000000000000000000000000000000000000088
1022395731500012730470000705209000000                         00000151354006000000DM 00000000000000000000 011003041920-06                         100919000000000299075630470120000000000070000000000000000000000000000000000000000000000000000000000000000000000000002990000000000000000000000000000000000000000000000000000010000000000000          0000643636366100000000000000000000000000000000000000000089
1022395731500012730470000705209000000                         00000159455203000000DM 00000000000000000000 0110030419GR46-03                       150719000000000398075630470010000000000070000000000000000000000000000000000000000000000000000000000000000000000000003980000000000000000000000000000000000000000000000000000010000000000000          0001280319860600000000000000000000000000000000000000000090
1022395731500012730470000705209000000                         00000159458406000000DM 00000000000000000000 0110030419GR46-06                       151019000000000398075630470010000000000070000000000000000000000000000000000000000000000000000000000000000000000000003980000000000000000000000000000000000000000000000000000010000000000000          0001280319860600000000000000000000000000000000000000000091
1022395731500012730470000705209000000                         00000032919411000000DM 00000000000000000000 010903041911-11                         041018000000000398075630470990000000000000000000000000000000000000000000000000000000000000000000000000000000000000003980000000000000000000000000000000000000000000000000000010000000000000          0003472886463400000000000000000000000000000000000000000092
1022395731500012730470000705209000000                         00000060957812000000DM 00000000000000000000 010603041913-12                         100419000000000299000111540120404190000135000000000000000000000000000000000000000000000000000000000000000000000000002990000000000000000000000000000000000000000000000000000010000000000000          0004522320361500000000000000000000000000000000000000000093
1022395731500012730470000705209000000                         00000068486511000000DM 00000000000000000000 010603041926-11                         200419000000000299010431480120404190000135000000000000000000000000000000000000000000000000000000000000000000000000002990000000000000000000000000000000000000000000000000000010000000000000          0000418261164000000000000000000000000000000000000000000094
1022395731500012730470000705209000000                         00000067247511000000DM 00000000000000000000 01060304192-11                          060419000000000596023706600120404190000135000000000000000000000000000000000000000000000000000000000000000000000000005960000000000000000000000000000000000000000000000000000010000000000000          0008126722363400000000000000000000000000000000000000000095
1022395731500012730470000705209000000                         00000068149712000000DM 00000000000000000000 01100304198-12                          100519000000000398075630470120000000000070000000000000000000000000000000000000000000000000000000000000000000000000003980000000000000000000000000000000000000000000000000000010000000000000          0007621760460400000000000000000000000000000000000000000096
1022395731500012730470000705209000000                         00000074310511000000DM 00000000000000000000 010603041925-11                         210419000000000398010431480120404190000135000000000000000000000000000000000000000000000000000000000000000000000000003980000000000000000000000000000000000000000000000000000010000000000000          0006051595368700000000000000000000000000000000000000000097
1022395731500012730470000705209000000                         00000070011009000000DM 00000000000000000000 010603041930-09                         100219000000000398003331540120404190000135000000000000000000000000000000000000000000000000000000000000000000000000004127000000000014700000000000000000000000000000000000000010000000000000          0000420504060100000000000000000000000000000000000000000098
1022395731500012730470000705209000000                         00000086059509000000DM 00000000000000000000 010603041931-09                         100419000000000299023721070120404190000135000000000000000000000000000000000000000000000000000000000000000000000000002990000000000000000000000000000000000000000000000000000010000000000000          0007031750067800000000000000000000000000000000000000000099
1022395731500012730470000705209000000                         00000094424408000000DM 00000000000000000000 010603041916-08                         200419000000000299010401310120404190000135000000000000000000000000000000000000000000000000000000000000000000000000002990000000000000000000000000000000000000000000000000000010000000000000          0009824253963400000000000000000000000000000000000000000100
1022395731500012730470000705209000000                         00000091940410000000DM 00000000000000000000 010603041926-10                         100619000000000398034168980120404190000135000000000000000000000000000000000000000000000000000000000000000000000000003980000000000000000000000000000000000000000000000000000010000000000000          0002417726165300000000000000000000000000000000000000000101
1022395731500012730470000705209000000                         00000090172608000000DM 00000000000000000000 010603041927-08                         200419000000000398003317190120404190000135000000000000000000000000000000000000000000000000000000000000000000000000003980000000000000000000000000000000000000000000000000000010000000000000          0000260480762900000000000000000000000000000000000000000102
1022395731500012730470000705209000000                         00000097711107000000DM 00000000000000000000 010603041905-07                         110419000000000299000111540120404190000135000000000000000000000000000000000000000000000000000000000000000000000000002990000000000000000000000000000000000000000000000000000010000000000000          0000289605563000000000000000000000000000000000000000000103
1022395731500012730470000705209000000                         00000097783107000000DM 00000000000000000000 010603041914-07                         100419000000000299010401180120404190000135000000000000000000000000000000000000000000000000000000000000000000000000002990000000000000000000000000000000000000000000000000000010000000000000          0000385195060700000000000000000000000000000000000000000104
1022395731500012730470000705209000000                         00000096361307000000DM 00000000000000000000 01060304194-07                          150419000000000299010431480120404190000135000000000000000000000000000000000000000000000000000000000000000000000000002990000000000000000000000000000000000000000000000000000010000000000000          0002905094460400000000000000000000000000000000000000000105
1022395731500012730470000705209000000                         00000098852407000000DM 00000000000000000000 010603041906-07                         100419000000000299010416420120404190000135000000000000000000000000000000000000000000000000000000000000000000000000002990000000000000000000000000000000000000000000000000000010000000000000          0006908172767200000000000000000000000000000000000000000106
1022395731500012730470000705209000000                         00000110681706000000DM 00000000000000000000 010603041932-06                         100419000000000398010423320120404190000135000000000000000000000000000000000000000000000000000000000000000000000000003980000000000000000000000000000000000000000000000000000010000000000000          0009742661065900000000000000000000000000000000000000000107
1022395731500012730470000705209000000                         00000112337506000000DM 00000000000000000000 010603041984-06                         050419000000000299010431480120404190000135000000000000000000000000000000000000000000000000000000000000000000000000002990000000000000000000000000000000000000000000000000000010000000000000          0005923429667200000000000000000000000000000000000000000108
1022395731500012730470000705209000000                         00000107069306000000DM 00000000000000000000 011003041974-06                         300319000000000299075630470120000000000070000000000000000000000000000000000000000000000000000000000000000000000000002990000000000000000000000000000000000000000000000000000010000000000000          0005299607784900000000000000000000000000000000000000000109
1022395731500012730470000705209000000                         00000109544709000000DM 00000000000000000000 011003041916-09                         100719000000000299075630470120000000000070000000000000000000000000000000000000000000000000000000000000000000000000002990000000000000000000000000000000000000000000000000000010000000000000          0004373657262000000000000000000000000000000000000000000110
1022395731500012730470000705209000000                         00000109547912000000DM 00000000000000000000 011003041916-12                         101019000000000299075630470120000000000070000000000000000000000000000000000000000000000000000000000000000000000000002990000000000000000000000000000000000000000000000000000010000000000000          0004373657262000000000000000000000000000000000000000000111
1022395731500012730470000705209000000                         00000104260405000000DM 00000000000000000000 011003041921-05                         280219000000000497075630470120000000000070000000000000000000000000000000000000000000000000000000000000000000000000004970000000000000000000000000000000000000000000000000000010000000000000          0003873767163400000000000000000000000000000000000000000112
1022395731500012730470000705209000000                         00000106361106000000DM 00000000000000000000 010603041907-06                         150419000000000398010401060120404190000135000000000000000000000000000000000000000000000000000000000000000000000000003980000000000000000000000000000000000000000000000000000010000000000000          0000129916463300000000000000000000000000000000000000000113
1022395731500012730470000705209000000                         00000117897105000000DM 00000000000000000000 010603041938-05                         150419000000000398023706600120404190000135000000000000000000000000000000000000000000000000000000000000000000000000003980000000000000000000000000000000000000000000000000000010000000000000          0002607380367200000000000000000000000000000000000000000114
1022395731500012730470000705209000000                         00000118053205000000DM 00000000000000000000 010603041921-05                         100419000000000299010416420120404190000135000000000000000000000000000000000000000000000000000000000000000000000000002990000000000000000000000000000000000000000000000000000010000000000000          0006051608966800000000000000000000000000000000000000000115
1022395731500012730470000705209000000                         00000121749904000000DM 00000000000000000000 010603041960-04                         110319000000000398010431480120404190000135000000000000000000000000000000000000000000000000000000000000000000000000004364000000000038400000000000000000000000000000000000000010000000000000          0000583523765000000000000000000000000000000000000000000116
1022395731500012730470000705209000000                         00000121126905000000DM 00000000000000000000 010603041905-05                         200419000000000299010431480120404190000135000000000000000000000000000000000000000000000000000000000000000000000000002990000000000000000000000000000000000000000000000000000010000000000000          0008500382473400000000000000000000000000000000000000000117
1022395731500012730470000705209000000                         00000122998202000000DM 00000000000000000000 010603041924-02                         070219000000000497023721070990404190000135000000000000000000000000000000000000000000000000000000000000000000000000005980000000000101000000000000000000000000000000000000000010000000000000          0000603306365100000000000000000000000000000000000000000118
1022395731500012730470000705209000000                         00000122693009000000DM 00000000000000000000 011003041909-09                         050919000000000299075630470120000000000070000000000000000000000000000000000000000000000000000000000000000000000000002990000000000000000000000000000000000000000000000000000010000000000000          0001105478769700000000000000000000000000000000000000000119
1022395731500012730470000705209000000                         00000122696212000000DM 00000000000000000000 011003041909-12                         051219000000000299075630470120000000000070000000000000000000000000000000000000000000000000000000000000000000000000002990000000000000000000000000000000000000000000000000000010000000000000          0001105478769700000000000000000000000000000000000000000120
1022395731500012730470000705209000000                         00000130882202000000DM 00000000000000000000 010603041920-02                         280219000000000299075630470120404190000110000000000000000000000000000000000000000000000000000000000000000000000000003387000000000039700000000000000000000000000000000000000010000000000000          0001089483660900000000000000000000000000000000000000000121
1022395731500012730470000705209000000                         00000133901502000000DM 00000000000000000000 011003041929-02                         100319000000000299075630470990000000000070000000000000000000000000000000000000000000000000000000000000000000000000002990000000000000000000000000000000000000000000000000000010000000000000          0001018543660900000000000000000000000000000000000000000122
1022395731500012730470000705209000000                         00000134118403000000DM 00000000000000000000 010603041926-03                         030419000000000299010423320990404190000135000000000000000000000000000000000000000000000000000000000000000000000000002990000000000000000000000000000000000000000000000000000010000000000000          0006144978461500000000000000000000000000000000000000000123
1022395731500012730470000705209000000                         00000136552002000000DM 00000000000000000000 01060304194-02                          030419000000000299010423320120404190000135000000000000000000000000000000000000000000000000000000000000000000000000002990000000000000000000000000000000000000000000000000000010000000000000          0001050828267500000000000000000000000000000000000000000124
1022395731500012730470000705209000000                         00000137693303000000DM 00000000000000000000 010603041906-03                         200419000000000497010431480120404190000135000000000000000000000000000000000000000000000000000000000000000000000000004970000000000000000000000000000000000000000000000000000010000000000000          0000326795367700000000000000000000000000000000000000000125
1022395731500012730470000705209000000                         00000150077501000000DM 00000000000000000000 01060304197750-01                       070419000000000299023721070990404190000135000000000000000000000000000000000000000000000000000000000000000000000000002990000000000000000000000000000000000000000000000000000010000000000000          0000531089460800000000000000000000000000000000000000000126
1022395731500012730470000705209000000                         00000154065302000000DM 00000000000000000000 0110030419GR2-02                        050519000000000398075630470010000000000070000000000000000000000000000000000000000000000000000000000000000000000000003980000000000000000000000000000000000000000000000000000010000000000000          0008261313360000000000000000000000000000000000000000000127
1022395731500012730470000705209000000                         00000154068505000000DM 00000000000000000000 0110030419GR2-05                        050819000000000398075630470010000000000070000000000000000000000000000000000000000000000000000000000000000000000000003980000000000000000000000000000000000000000000000000000010000000000000          0008261313360000000000000000000000000000000000000000000128
1022395731500012730470000705209000000                         00000154074011000000DM 00000000000000000000 0110030419GR2-11                        050220000000000398075630470010000000000070000000000000000000000000000000000000000000000000000000000000000000000000003980000000000000000000000000000000000000000000000000000010000000000000          0008261313360000000000000000000000000000000000000000000129
1022395731500012730470000705209000000                         00000161016201000000DM 00000000000000000000 0106030419I9425-01                      150419000000000299010431480120404190000135000000000000000000000000000000000000000000000000000000000000000000000000002990000000000000000000000000000000000000000000000000000010000000000000          0001767839065300000000000000000000000000000000000000000130
1022395731500012730470000705209000000                         00000163541406000000DM 00000000000000000000 011003041974-06                         151019000000000299075630470120000000000070000000000000000000000000000000000000000000000000000000000000000000000000002990000000000000000000000000000000000000000000000000000010000000000000          0008252115861500000000000000000000000000000000000000000131
1022395731500012730470000705209000000                         00000163544609000000DM 00000000000000000000 011003041974-09                         150120000000000299075630470120000000000070000000000000000000000000000000000000000000000000000000000000000000000000002990000000000000000000000000000000000000000000000000000010000000000000          0008252115861500000000000000000000000000000000000000000132
1022395731500012730470000705209000000                         00000163547812000000DM 00000000000000000000 011003041974-12                         150420000000000299075630470120000000000070000000000000000000000000000000000000000000000000000000000000000000000000002990000000000000000000000000000000000000000000000000000010000000000000          0008252115861500000000000000000000000000000000000000000133
1022395731500012730470000705209000000                         00000151360512000000DM 00000000000000000000 011003041920-12                         100320000000000299075630470120000000000070000000000000000000000000000000000000000000000000000000000000000000000000002990000000000000000000000000000000000000000000000000000010000000000000          0000643636366100000000000000000000000000000000000000000134
1022395731500012730470000705209000000                         00000159459107000000DM 00000000000000000000 0110030419GR46-07                       151119000000000398075630470010000000000070000000000000000000000000000000000000000000000000000000000000000000000000003980000000000000000000000000000000000000000000000000000010000000000000          0001280319860600000000000000000000000000000000000000000135
1022395731500012730470000705209000000                         00000159461709000000DM 00000000000000000000 0110030419GR46-09                       150120000000000398075630470010000000000070000000000000000000000000000000000000000000000000000000000000000000000000003980000000000000000000000000000000000000000000000000000010000000000000          0001280319860600000000000000000000000000000000000000000136
1022395731500012730470000705209000000                         00000065304210000000DM 00000000000000000000 010603041913-10                         150419000000000299010432340120404190000135000000000000000000000000000000000000000000000000000000000000000000000000002990000000000000000000000000000000000000000000000000000010000000000000          0000246620765600000000000000000000000000000000000000000137
1022395731500012730470000705209000000                         00000068216605000000DM 00000000000000000000 010903041920-05                         041018000000000299075630470120000000000000000000000000000000000000000000000000000000000000000000000000000000000000002990000000000000000000000000000000000000000000000000000010000000000000          0000379552167000000000000000000000000000000000000000000138
1022395731500012730470000705209000000                         00000065992111000000DM 00000000000000000000 01060304192-11                          100419000000000299010423320120404190000135000000000000000000000000000000000000000000000000000000000000000000000000002990000000000000000000000000000000000000000000000000000010000000000000          0005130314069100000000000000000000000000000000000000000139
1022395731500012730470000705209000000                         00000071967811000000DM 00000000000000000000 01060304192-11                          150419000000000299010423320120404190000135000000000000000000000000000000000000000000000000000000000000000000000000002990000000000000000000000000000000000000000000000000000010000000000000          0009619562275300000000000000000000000000000000000000000140
1022395731500012730470000705209000000                         00000074480209000000DM 00000000000000000000 011003041922-09                         100319000000000398075630470120000000000070000000000000000000000000000000000000000000000000000000000000000000000000003980000000000000000000000000000000000000000000000000000010000000000000          0002421469864900000000000000000000000000000000000000000141
1022395731500012730470000705209000000                         00000069149612000000DM 00000000000000000000 011003041923-12                         200419000000000299075630470120000000000070000000000000000000000000000000000000000000000000000000000000000000000000002990000000000000000000000000000000000000000000000000000010000000000000          0008320785669100000000000000000000000000000000000000000142
1022395731500012730470000705209000000                         00000074067908000000DM 00000000000000000000 01060304194-08                          100219000000000299010431480120404190000135000000000000000000000000000000000000000000000000000000000000000000000000003100000000000011000000000000000000000000000000000000000010000000000000          0000745036368200000000000000000000000000000000000000000143
1022395731500012730470000705209000000                         00000084474508000000DM 00000000000000000000 010603041905-08                         100319000000000497010443920120404190000135000000000000000000000000000000000000000000000000000000000000000000000000005108000000000013800000000000000000000000000000000000000010000000000000          0000740315064300000000000000000000000000000000000000000144
1022395731500012730470000705209000000                         00000085681003000000DM 00000000000000000000 010603041923-03                         151118000000000299075640360120404190000135000000000000000000000000000000000000000000000000000000000000000000000000003187000000000019700000000000000000000000000000000000000010000000000000          0000408470666300000000000000000000000000000000000000000145
1022395731500012730470000705209000000                         00000091156708000000DM 00000000000000000000 010603041915-08                         150419000000000497010423320990404190000135000000000000000000000000000000000000000000000000000000000000000000000000004970000000000000000000000000000000000000000000000000000010000000000000          0008909435267200000000000000000000000000000000000000000146
1022395731500012730470000705209000000                         00000102698206000000DM 00000000000000000000 01060304191-06                          100419000000000398010408940990404190000135000000000000000000000000000000000000000000000000000000000000000000000000003980000000000000000000000000000000000000000000000000000010000000000000          0007030534069700000000000000000000000000000000000000000147
1022395731500012730470000705209000000                         00000096950308000000DM 00000000000000000000 01060304191-08                          100419000000000398010431480990404190000135000000000000000000000000000000000000000000000000000000000000000000000000003980000000000000000000000000000000000000000000000000000010000000000000          0009759145960000000000000000000000000000000000000000000148
1022395731500012730470000705209000000                         00000101906107000000DM 00000000000000000000 010603041933-07                         100419000000000299010401180120404190000135000000000000000000000000000000000000000000000000000000000000000000000000002990000000000000000000000000000000000000000000000000000010000000000000          0004230258763400000000000000000000000000000000000000000149
1022395731500012730470000705209000000                         00000103553906000000DM 00000000000000000000 01060304193-06                          100419000000000299010423320990404190000135000000000000000000000000000000000000000000000000000000000000000000000000002990000000000000000000000000000000000000000000000000000010000000000000          0004515381768700000000000000000000000000000000000000000150
1022395731500012730470000705209000000                         00000109540805000000DM 00000000000000000000 011003041916-05                         100319000000000299075630470120000000000070000000000000000000000000000000000000000000000000000000000000000000000000002990000000000000000000000000000000000000000000000000000010000000000000          0004373657262000000000000000000000000000000000000000000151
1022395731500012730470000705209000000                         00000114608505000000DM 00000000000000000000 010603041931-05                         100419000000000299010416420120404190000135000000000000000000000000000000000000000000000000000000000000000000000000002990000000000000000000000000000000000000000000000000000010000000000000          0006491211665300000000000000000000000000000000000000000152
1022395731500012730470000705209000000                         00000121606005000000DM 00000000000000000000 01060304196-05                          200419000000000299023721070120404190000135000000000000000000000000000000000000000000000000000000000000000000000000002990000000000000000000000000000000000000000000000000000010000000000000          0009351199061000000000000000000000000000000000000000000153
1022395731500012730470000705209000000                         00000127885005000000DM 00000000000000000000 011003041907-05                         100519000000000398075630470120000000000070000000000000000000000000000000000000000000000000009000000000000000000000003980000000000000000000000000000000000000000000000000000010000000000000          0000439904161700000000000000000000000000000000000000000154
1022395731500012730470000705209000000                         00000127888208000000DM 00000000000000000000 011003041907-08                         100819000000000398075630470120000000000070000000000000000000000000000000000000000000000000009000000000000000000000003980000000000000000000000000000000000000000000000000000010000000000000          0000439904161700000000000000000000000000000000000000000155
1022395731500012730470000705209000000                         00000127890810000000DM 00000000000000000000 011003041907-10                         101019000000000398075630470120000000000070000000000000000000000000000000000000000000000000009000000000000000000000003980000000000000000000000000000000000000000000000000000010000000000000          0000439904161700000000000000000000000000000000000000000156
1022395731500012730470000705209000000                         00000125315803000000DM 00000000000000000000 010603041933-03                         150419000000000299010432340120404190000135000000000000000000000000000000000000000000000000000000000000000000000000002990000000000000000000000000000000000000000000000000000010000000000000          0000925095060800000000000000000000000000000000000000000157
1022395731500012730470000705209000000                         00000134670703000000DM 00000000000000000000 010603041901-03                         100419000000000299000111540120404190000135000000000000000000000000000000000000000000000000000000000000000000000000002990000000000000000000000000000000000000000000000000000010000000000000          0000016290364200000000000000000000000000000000000000000158
1022395731500012730470000705209000000                         00000140394903000000DM 00000000000000000000 010603041916-03                         150419000000000398075641050120404190000135000000000000000000000000000000000000000000000000000000000000000000000000003980000000000000000000000000000000000000000000000000000010000000000000          0001321393180200000000000000000000000000000000000000000159
1022395731500012730470000705209000000                         00000137057703000000DM 00000000000000000000 01060304192-03                          150419000000000299010431480120404190000135000000000000000000000000000000000000000000000000000000000000000000000000002990000000000000000000000000000000000000000000000000000010000000000000          0000870486772600000000000000000000000000000000000000000160
1022395731500012730470000705209000000                         00000141521402000000DM 00000000000000000000 01060304192-02                          050419000000000497010423320120404190000135000000000000000000000000000000000000000000000000000000000000000000000000004970000000000000000000000000000000000000000000000000000010000000000000          0005763881060000000000000000000000000000000000000000000161
1022395731500012730470000705209000000                         00000149873501000000DM 00000000000000000000 010603041901-01                         100419000000000299010432340120404190000135000000000000000000000000000000000000000000000000000000000000000000000000002990000000000000000000000000000000000000000000000000000010000000000000          0000351139265900000000000000000000000000000000000000000162
1022395731500012730470000705209000000                         00000150833601000000DM 00000000000000000000 010603041904-01                         150419000000000299000111540120404190000135000000000000000000000000000000000000000000000000000000000000000000000000002990000000000000000000000000000000000000000000000000000010000000000000          0007778357364900000000000000000000000000000000000000000163
1022395731500012730470000705209000000                         00000160358803000000DM 00000000000000000000 01100304193202-03                       200619000000000299075630470010000000000070000000000000000000000000000000000000000000000000000000000000000000000000002990000000000000000000000000000000000000000000000000000010000000000000          0001027831761800000000000000000000000000000000000000000164
1022395731500012730470000705209000000                         00000154069206000000DM 00000000000000000000 0110030419GR2-06                        050919000000000398075630470010000000000070000000000000000000000000000000000000000000000000000000000000000000000000003980000000000000000000000000000000000000000000000000000010000000000000          0008261313360000000000000000000000000000000000000000000165
1022395731500012730470000705209000000                         00000163540705000000DM 00000000000000000000 011003041974-05                         150919000000000299075630470120000000000070000000000000000000000000000000000000000000000000000000000000000000000000002990000000000000000000000000000000000000000000000000000010000000000000          0008252115861500000000000000000000000000000000000000000166
1022395731500012730470000705209000000                         00000151349301000000DM 00000000000000000000 011003041920-01                         100419000000000299075630470120000000000070000000000000000000000000000000000000000000000000000000000000000000000000002990000000000000000000000000000000000000000000000000000010000000000000          0000643636366100000000000000000000000000000000000000000167
1022395731500012730470000705209000000                         00000151351903000000DM 00000000000000000000 011003041920-03                         100619000000000299075630470120000000000070000000000000000000000000000000000000000000000000000000000000000000000000002990000000000000000000000000000000000000000000000000000010000000000000          0000643636366100000000000000000000000000000000000000000168
1022395731500012730470000705209000000                         00000151358010000000DM 00000000000000000000 011003041920-10                         100120000000000299075630470120000000000070000000000000000000000000000000000000000000000000000000000000000000000000002990000000000000000000000000000000000000000000000000000010000000000000          0000643636366100000000000000000000000000000000000000000169
1022395731500012730470000705209000000                         00000062537112000000DM 00000000000000000000 010603041920-12                         050419000000000299000111540120404190000135000000000000000000000000000000000000000000000000000000000000000000000000002990000000000000000000000000000000000000000000000000000010000000000000          0000405672764300000000000000000000000000000000000000000170
1022395731500012730470000705209000000                         00000062031912000000DM 00000000000000000000 010603041903-12                         100419000000000299023769800120404190000135000000000000000000000000000000000000000000000000000000000000000000000000002990000000000000000000000000000000000000000000000000000010000000000000          0000016269764300000000000000000000000000000000000000000171
1022395731500012730470000705209000000                         00000064511912000000DM 00000000000000000000 010603041902-12                         200419000000000299000111540120404190000135000000000000000000000000000000000000000000000000000000000000000000000000002990000000000000000000000000000000000000000000000000000010000000000000          0002075547360400000000000000000000000000000000000000000172
1022395731500012730470000705209000000                         00000065391311000000DM 00000000000000000000 01060304192-11                          050419000000000299010407070120404190000135000000000000000000000000000000000000000000000000000000000000000000000000002990000000000000000000000000000000000000000000000000000010000000000000          0006267825663400000000000000000000000000000000000000000173
1022395731500012730470000705209000000                         00000065397705000000DM 00000000000000000000 010903041901-05                         041018000000000299075630470120000000000000000000000000000000000000000000000000000000000000000000000000000000000000002990000000000000000000000000000000000000000000000000000010000000000000          0000300998767600000000000000000000000000000000000000000174
1022395731500012730470000705209000000                         00000068379112000000DM 00000000000000000000 010603041927-12                         200419000000000299023769800120404190000135000000000000000000000000000000000000000000000000000000000000000000000000002990000000000000000000000000000000000000000000000000000010000000000000          0000559888163200000000000000000000000000000000000000000175
1022395731500012730470000705209000000                         00000077578610000000DM 00000000000000000000 010603041920-10                         050419000000000299010432340120404190000135000000000000000000000000000000000000000000000000000000000000000000000000002990000000000000000000000000000000000000000000000000000010000000000000          0000975994565700000000000000000000000000000000000000000176
1022395731500012730470000705209000000                         00000086959109000000DM 00000000000000000000 010603041916-09                         100419000000000299010431480120404190000135000000000000000000000000000000000000000000000000000000000000000000000000002990000000000000000000000000000000000000000000000000000010000000000000          0000077199472900000000000000000000000000000000000000000177
1022395731500012730470000705209000000                         00000085684106000000DM 00000000000000000000 010603041923-06                         150219000000000299075640360120404190000135000000000000000000000000000000000000000000000000000000000000000000000000003095000000000010500000000000000000000000000000000000000010000000000000          0000408470666300000000000000000000000000000000000000000178
1022395731500012730470000705209000000                         00000085687309000000DM 00000000000000000000 010603041923-09                         150519000000000299075640360120404190000135000000000000000000000000000000000000000000000000000000000000000000000000002990000000000000000000000000000000000000000000000000000010000000000000          0000408470666300000000000000000000000000000000000000000179
1022395731500012730470000705209000000                         00000099181412000000DM 00000000000000000000 01060304191-12                          180919000000000299010423320990404190000135000000000000000000000000000000000000000000000000000000000000000000000000002990000000000000000000000000000000000000000000000000000010000000000000          0000388627565500000000000000000000000000000000000000000180
1022395731500012730470000705209000000                         00000100908705000000DM 00000000000000000000 01060304197-05                          120219000000000299063300010990404190000135000000000000000000000000000000000000000000000000000000000000000000000000003098000000000010800000000000000000000000000000000000000010000000000000          0001152947966500000000000000000000000000000000000000000181
1022395731500012730470000705209000000                         00000102062707000000DM 00000000000000000000 010603041939-07                         100419000000000596010401180120404190000135000000000000000000000000000000000000000000000000000000000000000000000000005960000000000000000000000000000000000000000000000000000010000000000000          0009640761168700000000000000000000000000000000000000000182
1022395731500012730470000705209000000                         00000105846007000000DM 00000000000000000000 010603041965-07                         150419000000000398003317190120404190000135000000000000000000000000000000000000000000000000000000000000000000000000003980000000000000000000000000000000000000000000000000000010000000000000          0008727721264900000000000000000000000000000000000000000183
1022395731500012730470000705209000000                         00000108660801000000DM 00000000000000000000 011003041932-01                         261118000000000299075630470120000000000070000000000000000000000000000000000000000000000000000000000000000000000000002990000000000000000000000000000000000000000000000000000010000000000000          0007102870663400000000000000000000000000000000000000000184
1022395731500012730470000705209000000                         00000109541506000000DM 00000000000000000000 011003041916-06                         100419000000000299075630470120000000000070000000000000000000000000000000000000000000000000000000000000000000000000002990000000000000000000000000000000000000000000000000000010000000000000          0004373657262000000000000000000000000000000000000000000185
1022395731500012730470000705209000000                         00000108941306000000DM 00000000000000000000 010603041921-06                         100419000000000398034131090120404190000135000000000000000000000000000000000000000000000000000000000000000000000000003980000000000000000000000000000000000000000000000000000010000000000000          0006882657564900000000000000000000000000000000000000000186
1022395731500012730470000705209000000                         00000112037006000000DM 00000000000000000000 010603041930-06                         060419000000000398023704670120404190000135000000000000000000000000000000000000000000000000000000000000000000000000003980000000000000000000000000000000000000000000000000000010000000000000          0004693968765300000000000000000000000000000000000000000187
1022395731500012730470000705209000000                         00000124512004000000DM 00000000000000000000 010603041962-04                         150419000000000299000111540120404190000135000000000000000000000000000000000000000000000000000000000000000000000000002990000000000000000000000000000000000000000000000000000010000000000000          0004057686860400000000000000000000000000000000000000000188
1022395731500012730470000705209000000                         00000118125805000000DM 00000000000000000000 010603041926-05                         150419000000000299010432340120404190000135000000000000000000000000000000000000000000000000000000000000000000000000002990000000000000000000000000000000000000000000000000000010000000000000          0000911814680500000000000000000000000000000000000000000189
1022395731500012730470000705209000000                         00000127891511000000DM 00000000000000000000 011003041907-11                         101119000000000398075630470120000000000070000000000000000000000000000000000000000000000000009000000000000000000000003980000000000000000000000000000000000000000000000000000010000000000000          0000439904161700000000000000000000000000000000000000000190
1022395731500012730470000705209000000                         00000122999003000000DM 00000000000000000000 010603041924-03                         070319000000000497023721070990404190000135000000000000000000000000000000000000000000000000000000000000000000000000005516000000000054600000000000000000000000000000000000000010000000000000          0000603306365100000000000000000000000000000000000000000191
1022395731500012730470000705209000000                         00000133853602000000DM 00000000000000000000 011003041928-02                         120319000000000398075630470990000000000070000000000000000000000000000000000000000000000000000000000000000000000000003980000000000000000000000000000000000000000000000000000010000000000000          0000232973865000000000000000000000000000000000000000000192
1022395731500012730470000705209000000                         00000136445703000000DM 00000000000000000000 010603041923-03                         050419000000000299010431480120404190000135000000000000000000000000000000000000000000000000000000000000000000000000002990000000000000000000000000000000000000000000000000000010000000000000          0009447495869100000000000000000000000000000000000000000193
1022395731500012730470000705209000000                         00000141377202000000DM 00000000000000000000 010603041917-02                         100419000000000299010443920120404190000135000000000000000000000000000000000000000000000000000000000000000000000000002990000000000000000000000000000000000000000000000000000010000000000000          0008374722266800000000000000000000000000000000000000000194
1022395731500012730470000705209000000                         00000135593303000000DM 00000000000000000000 010603041908-03                         150419000000000299010423320120404190000135000000000000000000000000000000000000000000000000000000000000000000000000002990000000000000000000000000000000000000000000000000000010000000000000          0005587180166800000000000000000000000000000000000000000195
1022395731500012730470000705209000000                         00000135713803000000DM 00000000000000000000 010603041901-03                         150419000000000398010423320120404190000135000000000000000000000000000000000000000000000000000000000000000000000000003980000000000000000000000000000000000000000000000000000010000000000000          0000105552160700000000000000000000000000000000000000000196
1022395731500012730470000705209000000                         00000150557701000000DM 00000000000000000000 01060304192-01                          150419000000000299000110090120404190000135000000000000000000000000000000000000000000000000000000000000000000000000002990000000000000000000000000000000000000000000000000000010000000000000          0000675064368000000000000000000000000000000000000000000197
1022395731500012730470000705209000000                         00000154075712000000DM 00000000000000000000 0110030419GR2-12                        050320000000000398075630470010000000000070000000000000000000000000000000000000000000000000000000000000000000000000003980000000000000000000000000000000000000000000000000000010000000000000          0008261313360000000000000000000000000000000000000000000198
1022395731500012730470000705209000000                         00000163546011000000DM 00000000000000000000 011003041974-11                         150320000000000299075630470120000000000070000000000000000000000000000000000000000000000000000000000000000000000000002990000000000000000000000000000000000000000000000000000010000000000000          0008252115861500000000000000000000000000000000000000000199
1022395731500012730470000705209000000                         00000160361006000000DM 00000000000000000000 01100304193202-06                       200919000000000299075630470010000000000070000000000000000000000000000000000000000000000000000000000000000000000000002990000000000000000000000000000000000000000000000000000010000000000000          0001027831761800000000000000000000000000000000000000000200
1022395731500012730470000705209000000                         00000160364209000000DM 00000000000000000000 01100304193202-09                       201219000000000299075630470010000000000070000000000000000000000000000000000000000000000000000000000000000000000000002990000000000000000000000000000000000000000000000000000010000000000000          0001027831761800000000000000000000000000000000000000000201
1022395731500012730470000705209000000                         00000160367412000000DM 00000000000000000000 01100304193202-12                       200320000000000299075630470010000000000070000000000000000000000000000000000000000000000000000000000000000000000000002990000000000000000000000000000000000000000000000000000010000000000000          0001027831761800000000000000000000000000000000000000000202
1022395731500012730470000705209000000                         00000159454502000000DM 00000000000000000000 0110030419GR46-02                       150619000000000398075630470010000000000070000000000000000000000000000000000000000000000000000000000000000000000000003980000000000000000000000000000000000000000000000000000010000000000000          0001280319860600000000000000000000000000000000000000000203
1022395731500012730470000705209000000                         00000159460008000000DM 00000000000000000000 0110030419GR46-08                       151219000000000398075630470010000000000070000000000000000000000000000000000000000000000000000000000000000000000000003980000000000000000000000000000000000000000000000000000010000000000000          0001280319860600000000000000000000000000000000000000000204
1022395731500012730470000705209000000                         00000065762709000000DM 00000000000000000000 010603041926-09                         150119000000000299075630470120404190000110000000000000000000000000000000000000000000000000000000000000000000000000003126000000000013600000000000000000000000000000000000000010000000000000          0000777606860800000000000000000000000000000000000000000205
1022395731500012730470000705209000000                         00000065765912000000DM 00000000000000000000 010603041926-12                         150419000000000299075630470120404190000110000000000000000000000000000000000000000000000000000000000000000000000000002990000000000000000000000000000000000000000000000000000010000000000000          0000777606860800000000000000000000000000000000000000000206
1022395731500012730470000705209000000                         00000072711111000000DM 00000000000000000000 010603041920-11                         200419000000000497010401180120404190000135000000000000000000000000000000000000000000000000000000000000000000000000004970000000000000000000000000000000000000000000000000000010000000000000          0001288655762500000000000000000000000000000000000000000207
1022395731500012730470000705209000000                         00000074068609000000DM 00000000000000000000 01060304194-09                          100319000000000299010431480120404190000135000000000000000000000000000000000000000000000000000000000000000000000000003072000000000008200000000000000000000000000000000000000010000000000000          0000745036368200000000000000000000000000000000000000000208
1022395731500012730470000705209000000                         00000077889209000000DM 00000000000000000000 010603041915-09                         150319000000000596075622140120404190000135000000000000000000000000000000000000000000000000000000000000000000000000006116000000000015600000000000000000000000000000000000000010000000000000          0002072118867200000000000000000000000000000000000000000209
1022395731500012730470000705209000000                         00000086419809000000DM 00000000000000000000 010603041909-09                         200419000000000497010443920120404190000135000000000000000000000000000000000000000000000000000000000000000000000000004970000000000000000000000000000000000000000000000000000010000000000000          0004641630763400000000000000000000000000000000000000000210
1022395731500012730470000705209000000                         00000092453007000000DM 00000000000000000000 010603041931-07                         200319000000000299026000010120404190000135000000000000000000000000000000000000000000000000000000000000000000000000003062000000000007200000000000000000000000000000000000000010000000000000          0000900166967000000000000000000000000000000000000000000211
1022395731500012730470000705209000000                         00000098312007000000DM 00000000000000000000 010603041926-07                         050419000000000398010431480990404190000135000000000000000000000000000000000000000000000000000000000000000000000000003980000000000000000000000000000000000000000000000000000010000000000000          0001138624861400000000000000000000000000000000000000000212
1022395731500012730470000705209000000                         00000099044007000000DM 00000000000000000000 010603041945-07                         100419000000000299023706600120404190000135000000000000000000000000000000000000000000000000000000000000000000000000002990000000000000000000000000000000000000000000000000000010000000000000          0000487632168000000000000000000000000000000000000000000213
1022395731500012730470000705209000000                         00000099296607000000DM 00000000000000000000 010603041902-07                         110419000000000299023711210120404190000135000000000000000000000000000000000000000000000000000000000000000000000000002990000000000000000000000000000000000000000000000000000010000000000000          0000756834066000000000000000000000000000000000000000000214
1022395731500012730470000705209000000                         00000100274007000000DM 00000000000000000000 010603041929-07                         050419000000000398010431480120404190000135000000000000000000000000000000000000000000000000000000000000000000000000003980000000000000000000000000000000000000000000000000000010000000000000          0002444384067200000000000000000000000000000000000000000215
1022395731500012730470000705209000000                         00000099179910000000DM 00000000000000000000 01060304191-10                          180719000000000299010423320990404190000135000000000000000000000000000000000000000000000000000000000000000000000000002990000000000000000000000000000000000000000000000000000010000000000000          0000388627565500000000000000000000000000000000000000000216
1022395731500012730470000705209000000                         00000104874807000000DM 00000000000000000000 010603041934-07                         150419000000000398010437040120404190000135000000000000000000000000000000000000000000000000000000000000000000000000003980000000000000000000000000000000000000000000000000000010000000000000          0000033816468500000000000000000000000000000000000000000217
1022395731500012730470000705209000000                         00000109543008000000DM 00000000000000000000 011003041916-08                         100619000000000299075630470120000000000070000000000000000000000000000000000000000000000000000000000000000000000000002990000000000000000000000000000000000000000000000000000010000000000000          0004373657262000000000000000000000000000000000000000000218
1022395731500012730470000705209000000                         00000102810907000000DM 00000000000000000000 010603041921-07                         100419000000000299000115870120404190000135000000000000000000000000000000000000000000000000000000000000000000000000002990000000000000000000000000000000000000000000000000000010000000000000          0004743869064400000000000000000000000000000000000000000219
1022395731500012730470000705209000000                         00000112541906000000DM 00000000000000000000 010603041925-06                         050419000000000398000110090120404190000135000000000000000000000000000000000000000000000000000000000000000000000000003980000000000000000000000000000000000000000000000000000010000000000000          0004492291474900000000000000000000000000000000000000000220
1022395731500012730470000705209000000                         00000122916904000000DM 00000000000000000000 010603041910-04                         100419000000000398010401180120404190000135000000000000000000000000000000000000000000000000000000000000000000000000003980000000000000000000000000000000000000000000000000000010000000000000          0000364995068500000000000000000000000000000000000000000221
1022395731500012730470000705209000000                         00000118041405000000DM 00000000000000000000 010603041920-05                         060419000000000299023769800120404190000135000000000000000000000000000000000000000000000000000000000000000000000000002990000000000000000000000000000000000000000000000000000010000000000000          0002903482560400000000000000000000000000000000000000000222
1022395731500012730470000705209000000                         00000127886806000000DM 00000000000000000000 011003041907-06                         100619000000000398075630470120000000000070000000000000000000000000000000000000000000000000009000000000000000000000003980000000000000000000000000000000000000000000000000000010000000000000          0000439904161700000000000000000000000000000000000000000223
1022395731500012730470000705209000000                         00000122691607000000DM 00000000000000000000 011003041909-07                         050719000000000299075630470120000000000070000000000000000000000000000000000000000000000000000000000000000000000000002990000000000000000000000000000000000000000000000000000010000000000000          0001105478769700000000000000000000000000000000000000000224
1022395731500012730470000705209000000                         00000122694810000000DM 00000000000000000000 011003041909-10                         051019000000000299075630470120000000000070000000000000000000000000000000000000000000000000000000000000000000000000002990000000000000000000000000000000000000000000000000000010000000000000          0001105478769700000000000000000000000000000000000000000225
1022395731500012730470000705209000000                         00000139546302000000DM 00000000000000000000 010603041951-02                         150419000000000299075630470120404190000110000000000000000000000000000000000000000000000000000000000000000000000000002990000000000000000000000000000000000000000000000000000010000000000000          0009739151469100000000000000000000000000000000000000000226
1022395731500012730470000705209000000                         00000143321902000000DM 00000000000000000000 011003041901-02                         150419000000000497075630470120000000000070000000000000000000000000000000000000000000000000000000000000000000000000004970000000000000000000000000000000000000000000000000000010000000000000          0000483119865000000000000000000000000000000000000000000227
1022395731500012730470000705209000000                         00000141353602000000DM 00000000000000000000 010603041916-02                         150419000000000299000110090120404190000135000000000000000000000000000000000000000000000000000000000000000000000000002990000000000000000000000000000000000000000000000000000010000000000000          0004475339065900000000000000000000000000000000000000000228
1022395731500012730470000705209000000                         00000141450603000000DM 00000000000000000000 010603041924-03                         190419000000000596010431480120404190000135000000000000000000000000000000000000000000000000000000000000000000000000005960000000000000000000000000000000000000000000000000000010000000000000          0000692052062100000000000000000000000000000000000000000229
1022395731500012730470000705209000000                         00000134598003000000DM 00000000000000000000 010603041920-03                         100419000000000299023706600120404190000135000000000000000000000000000000000000000000000000000000000000000000000000002990000000000000000000000000000000000000000000000000000010000000000000          0003588323562000000000000000000000000000000000000000000230
1022395731500012730470000705209000000                         00000142625402000000DM 00000000000000000000 010603041909-02                         150419000000000299010423320120404190000135000000000000000000000000000000000000000000000000000000000000000000000000002990000000000000000000000000000000000000000000000000000010000000000000          0001404253688300000000000000000000000000000000000000000231
1022395731500012730470000705209000000                         00000147062102000000DM 00000000000000000000 010603041908-02                         100419000000000398075622140120404190000135000000000000000000000000000000000000000000000000000000000000000000000000003980000000000000000000000000000000000000000000000000000010000000000000          0000063970562600000000000000000000000000000000000000000232
1022395731500012730470000705209000000                         00000160053601000000DM 00000000000000000000 01060304193151-01                       050519000000000497010431480120404190000135000000000000000000000000000000000000000000000000000000000000000000000000004970000000000000000000000000000000000000000000000000000010000000000000          0008132671864900000000000000000000000000000000000000000233
1022395731500012730470000705209000000                         00000160357002000000DM 00000000000000000000 01100304193202-02                       200519000000000299075630470010000000000070000000000000000000000000000000000000000000000000000000000000000000000000002990000000000000000000000000000000000000000000000000000010000000000000          0001027831761800000000000000000000000000000000000000000234
1022395731500012730470000705209000000                         00000154064601000000DM 00000000000000000000 0110030419GR2-01                        050419000000000398075630470010000000000070000000000000000000000000000000000000000000000000000000000000000000000000003980000000000000000000000000000000000000000000000000000010000000000000          0008261313360000000000000000000000000000000000000000000235
1022395731500012730470000705209000000                         00000154067804000000DM 00000000000000000000 0110030419GR2-04                        050719000000000398075630470010000000000070000000000000000000000000000000000000000000000000000000000000000000000000003980000000000000000000000000000000000000000000000000000010000000000000          0008261313360000000000000000000000000000000000000000000236
1022395731500012730470000705209000000                         00000151352604000000DM 00000000000000000000 011003041920-04                         100719000000000299075630470120000000000070000000000000000000000000000000000000000000000000000000000000000000000000002990000000000000000000000000000000000000000000000000000010000000000000          0000643636366100000000000000000000000000000000000000000237
1022395731500012730470000705209000000                         00000151355807000000DM 00000000000000000000 011003041920-07                         101019000000000299075630470120000000000070000000000000000000000000000000000000000000000000000000000000000000000000002990000000000000000000000000000000000000000000000000000010000000000000          0000643636366100000000000000000000000000000000000000000238
1022395731500012730470000705209000000                         00000159456004000000DM 00000000000000000000 0110030419GR46-04                       150819000000000398075630470010000000000070000000000000000000000000000000000000000000000000000000000000000000000000003980000000000000000000000000000000000000000000000000000010000000000000          0001280319860600000000000000000000000000000000000000000239
1022395731500012730470000705209000000                         00000159462410000000DM 00000000000000000000 0110030419GR46-10                       150220000000000398075630470010000000000070000000000000000000000000000000000000000000000000000000000000000000000000003980000000000000000000000000000000000000000000000000000010000000000000          0001280319860600000000000000000000000000000000000000000240
1022395731500012730470000705209000000                         00000039082606000000DM 00000000000000000000 010603041905-06                         060419000000000497000111540120404190000135000000000000000000000000000000000000000000000000000000000000000000000000004970000000000000000000000000000000000000000000000000000010000000000000          0005267766461500000000000000000000000000000000000000000241
1022395731500012730470000705209000000                         00000061298612000000DM 00000000000000000000 010603041922-12                         200419000000000299023734600120404190000135000000000000000000000000000000000000000000000000000000000000000000000000002990000000000000000000000000000000000000000000000000000010000000000000          0006688969360400000000000000000000000000000000000000000242
1022395731500012730470000705209000000                         00000065764111000000DM 00000000000000000000 010603041926-11                         150319000000000299075630470120404190000110000000000000000000000000000000000000000000000000000000000000000000000000003067000000000007700000000000000000000000000000000000000010000000000000          0000777606860800000000000000000000000000000000000000000243
1022395731500012730470000705209000000                         00000060987906000000DM 00000000000000000000 010903041902-06                         041018000000000299075630470120000000000000000000000000000000000000000000000000000000000000000000000000000000000000002990000000000000000000000000000000000000000000000000000010000000000000          0000414036387800000000000000000000000000000000000000000244
1022395731500012730470000705209000000                         00000074479408000000DM 00000000000000000000 011003041922-08                         100219000000000398075630470120000000000070000000000000000000000000000000000000000000000000000000000000000000000000003980000000000000000000000000000000000000000000000000000010000000000000          0002421469864900000000000000000000000000000000000000000245
1022395731500012730470000705209000000                         00000069406505000000DM 00000000000000000000 010903041910-05                         041018000000000299075630470120000000000000000000000000000000000000000000000000000000000000000000000000000000000000002990000000000000000000000000000000000000000000000000000010000000000000          0000016549880300000000000000000000000000000000000000000246
1022395731500012730470000705209000000                         00000075236309000000DM 00000000000000000000 010603041905-09                         100319000000000299010423320120404190000135000000000000000000000000000000000000000000000000000000000000000000000000003072000000000008200000000000000000000000000000000000000010000000000000          0000786279060000000000000000000000000000000000000000000247
1022395731500012730470000705209000000                         00000076522510000000DM 00000000000000000000 010603041927-10                         100419000000000398010431480120404190000135000000000000000000000000000000000000000000000000000000000000000000000000003980000000000000000000000000000000000000000000000000000010000000000000          0000171844963100000000000000000000000000000000000000000248
1022395731500012730470000705209000000                         00000086060310000000DM 00000000000000000000 010603041931-10                         100519000000000299023721070120404190000135000000000000000000000000000000000000000000000000000000000000000000000000002990000000000000000000000000000000000000000000000000000010000000000000          0007031750067800000000000000000000000000000000000000000249
