02RETORNO01COBRANÇA       30470000314811705209PROMEDICO PLANO ASSISTENCIAL A756 - BANCOOB S/A 0205190000329                                                                                                                                                                                                                                                                                               000001
1022395731500012730470000705209000000                         00000041374710000000DM 00000000000000000000 010929041909-10                         301018000000000299075630470990000000000000000000000000000000000000000000000000000000000000000000000000000000000000002990000000000000000000000000000000000000000000000000000010000000000000          0000338297960800000000000000000000000000000000000000000002
1022395731500012730470000705209000000                         00000042814310000000DM 00000000000000000000 010929041903-10                         301018000000000299075630470990000000000000000000000000000000000000000000000000000000000000000000000000000000000000002990000000000000000000000000000000000000000000000000000010000000000000          0000833109561800000000000000000000000000000000000000000003
1022395731500012730470000705209000000                         00000043483310000000DM 00000000000000000000 01092904194-10                          281018000000000398075630470990000000000000000000000000000000000000000000000000000000000000000000000000000000000000003980000000000000000000000000000000000000000000000000000010000000000000          0001114245267000000000000000000000000000000000000000000004
1022395731500012730470000705209000000                         00000042958910000000DM 00000000000000000000 010929041905-10                         301018000000000596075630470990000000000000000000000000000000000000000000000000000000000000000000000000000000000000005960000000000000000000000000000000000000000000000000000010000000000000          0000923244069500000000000000000000000000000000000000000005
1022395731500012730470000705209000000                         00000047991809000000DM 00000000000000000000 010929041922-09                         281018000000000299075630470990000000000000000000000000000000000000000000000000000000000000000000000000000000000000002990000000000000000000000000000000000000000000000000000010000000000000          0001054144869200000000000000000000000000000000000000000006
1022395731500012730470000705209000000                         00000048088810000000DM 00000000000000000000 010929041920-10                         291018000000000299075630470990000000000000000000000000000000000000000000000000000000000000000000000000000000000000002990000000000000000000000000000000000000000000000000000010000000000000          0000494134569000000000000000000000000000000000000000000007
1022395731500012730470000705209000000                         00000055717808000000DM 00000000000000000000 010929041903-08                         301018000000000596075630470120000000000000000000000000000000000000000000000000000000000000000000000000000000000000005960000000000000000000000000000000000000000000000000000010000000000000          0000500121168900000000000000000000000000000000000000000008
1022395731500012730470000705209000000                         00000053518308000000DM 00000000000000000000 010929041909-08                         301018000000000398075630470120000000000000000000000000000000000000000000000000000000000000000000000000000000000000003980000000000000000000000000000000000000000000000000000010000000000000          0000630078661700000000000000000000000000000000000000000009
1022395731500012730470000705209000000                         00000081942103000000DM 00000000000000000000 010929041932-03                         301018000000000398075630470120000000000000000000000000000000000000000000000000000000000000000000000000000000000000003980000000000000000000000000000000000000000000000000000010000000000000          0000902888064000000000000000000000000000000000000000000010
1022395731500012730470000705209000000                         00000094874002000000DM 00000000000000000000 010929041931-02                         301018000000000596075630470120000000000000000000000000000000000000000000000000000000000000000000000000000000000000005960000000000000000000000000000000000000000000000000000010000000000000          0001150577967700000000000000000000000000000000000000000011
1022395731500012730470000705209000000                         00000096332002000000DM 00000000000000000000 010929041920-02                         281018000000000497075630470120000000000000000000000000000000000000000000000000000000000000000000000000000000000000004970000000000000000000000000000000000000000000000000000010000000000000          0001008581968900000000000000000000000000000000000000000012
1022395731500012730470000705209000000                         00000096392102000000DM 00000000000000000000 010929041905-02                         281018000000000299075630470120000000000000000000000000000000000000000000000000000000000000000000000000000000000000002990000000000000000000000000000000000000000000000000000010000000000000          0000663179661000000000000000000000000000000000000000000013
1022395731500012730470000705209000000                         00000103278707000000DM 00000000000000000000 010629041901-07                         260419000000000299075630470123004190000110000000000000000000000000000000000000000000000000000000000000000000000000003051000000000006100000000000000000000000000000000000000010000000000000          0000962232564500000000000000000000000000000000000000000014
1022395731500012730470000705209000000                         00000101090407000000DM 00000000000000000000 010629041914-07                         150419000000000299003331540123004190000135000000000000000000000000000000000000000000000000000000000000000000000000003063000000000007300000000000000000000000000000000000000010000000000000          0001444163167700000000000000000000000000000000000000000015
1022395731500012730470000705209000000                         00000102744701000000DM 00000000000000000000 010929041935-01                         301018000000000299075630470120000000000000000000000000000000000000000000000000000000000000000000000000000000000000002990000000000000000000000000000000000000000000000000000010000000000000          0000592166465000000000000000000000000000000000000000000016
1022395731500012730470000705209000000                         00000106488101000000DM 00000000000000000000 010929041969-01                         301018000000000299075630470120000000000000000000000000000000000000000000000000000000000000000000000000000000000000002990000000000000000000000000000000000000000000000000000010000000000000          0006666137469100000000000000000000000000000000000000000017
1022395731500012730470000705209000000                         00000101924401000000DM 00000000000000000000 010929041935-01                         301018000000000299075630470120000000000000000000000000000000000000000000000000000000000000000000000000000000000000002990000000000000000000000000000000000000000000000000000010000000000000          0004071133163400000000000000000000000000000000000000000018
1022395731500012730470000705209000000                         00000114195703000000DM 00000000000000000000 011029041902-03                         290119000000000299075630470120000000000070000000000000000000000000000000000000000000000000000000000000000000000000002990000000000000000000000000000000000000000000000000000010000000000000          0001287560369800000000000000000000000000000000000000000019
1022395731500012730470000705209000000                         00000112722207000000DM 00000000000000000000 010629041923-07                         200519000000000299023734600123004190000135000000000000000000000000000000000000000000000000000000000000000000000000002990000000000000000000000000000000000000000000000000000010000000000000          0000273281364800000000000000000000000000000000000000000020
1022395731500012730470000705209000000                         00000116459505000000DM 00000000000000000000 010629041922-05                         300419000000000398023711210123004190000135000000000000000000000000000000000000000000000000000000000000000000000000003980000000000000000000000000000000000000000000000000000010000000000000          0004747587063400000000000000000000000000000000000000000021
1022395731500012730470000705209000000                         00000106728501000000DM 00000000000000000000 010929041922-01                         281018000000000398075630470120000000000000000000000000000000000000000000000000000000000000000000000000000000000000003980000000000000000000000000000000000000000000000000000010000000000000          0000344060063700000000000000000000000000000000000000000022
1022395731500012730470000705209000000                         00000138367502000000DM 00000000000000000000 010629041934-02                         280419000000000299000111540123004190000135000000000000000000000000000000000000000000000000000000000000000000000000002990000000000000000000000000000000000000000000000000000010000000000000          0000739311263900000000000000000000000000000000000000000023
1022395731500012730470000705209000000                         00000141570503000000DM 00000000000000000000 010629041902-03                         100519000000000299075630470123004190000110000000000000000000000000000000000000000000000000000000000000000000000000002990000000000000000000000000000000000000000000000000000010000000000000          0005125424765300000000000000000000000000000000000000000024
1022395731500012730470000705209000000                         00000148710006000000DM 00000000000000000000 011029041941-06                         190919000000000299075630470120000000000070000000000000000000000000000000000000000000000000000000000000000000000000002990000000000000000000000000000000000000000000000000000010000000000000          0008409112663400000000000000000000000000000000000000000025
1022395731500012730470000705209000000                         00000148713209000000DM 00000000000000000000 011029041941-09                         191219000000000299075630470120000000000070000000000000000000000000000000000000000000000000000000000000000000000000002990000000000000000000000000000000000000000000000000000010000000000000          0008409112663400000000000000000000000000000000000000000026
1022395731500012730470000705209000000                         00000148716412000000DM 00000000000000000000 011029041941-12                         190320000000000299075630470120000000000070000000000000000000000000000000000000000000000000000000000000000000000000002990000000000000000000000000000000000000000000000000000010000000000000          0008409112663400000000000000000000000000000000000000000027
1022395731500012730470000705209000000                         00000163590507000000DM 00000000000000000000 011029041978-07                         101119000000000299075630470120000000000070000000000000000000000000000000000000000000000000000000000000000000000000002990000000000000000000000000000000000000000000000000000010000000000000          0000318003562500000000000000000000000000000000000000000028
1022395731500012730470000705209000000                         00000163593710000000DM 00000000000000000000 011029041978-10                         100220000000000299075630470120000000000070000000000000000000000000000000000000000000000000000000000000000000000000002990000000000000000000000000000000000000000000000000000010000000000000          0000318003562500000000000000000000000000000000000000000029
1022395731500012730470000705209000000                         00000032620712000000DM 00000000000000000000 01092904192-12                          301018000000000299075630470990000000000000000000000000000000000000000000000000000000000000000000000000000000000000002990000000000000000000000000000000000000000000000000000010000000000000          0000973025964000000000000000000000000000000000000000000030
1022395731500012730470000705209000000                         00000032331212000000DM 00000000000000000000 010929041920-12                         281018000000000497075630470990000000000000000000000000000000000000000000000000000000000000000000000000000000000000004970000000000000000000000000000000000000000000000000000010000000000000          0000365205761900000000000000000000000000000000000000000031
1022395731500012730470000705209000000                         00000031623012000000DM 00000000000000000000 01092904196-12                          301018000000000299075630470990000000000000000000000000000000000000000000000000000000000000000000000000000000000000002990000000000000000000000000000000000000000000000000000010000000000000          0001479399280300000000000000000000000000000000000000000032
1022395731500012730470000705209000000                         00000031755712000000DM 00000000000000000000 01092904191-12                          301018000000000398075630470990000000000000000000000000000000000000000000000000000000000000000000000000000000000000003980000000000000000000000000000000000000000000000000000010000000000000          0001131268261200000000000000000000000000000000000000000033
1022395731500012730470000705209000000                         00000042469011000000DM 00000000000000000000 010929041921-11                         281018000000000497075630470990000000000000000000000000000000000000000000000000000000000000000000000000000000000000004970000000000000000000000000000000000000000000000000000010000000000000          0000710137362300000000000000000000000000000000000000000034
1022395731500012730470000705209000000                         00000048027909000000DM 00000000000000000000 010929041924-09                         281018000000000299075630470990000000000000000000000000000000000000000000000000000000000000000000000000000000000000002990000000000000000000000000000000000000000000000000000010000000000000          0000357343867900000000000000000000000000000000000000000035
1022395731500012730470000705209000000                         00000053398908000000DM 00000000000000000000 01092904194-08                          301018000000000497075630470120000000000000000000000000000000000000000000000000000000000000000000000000000000000000004970000000000000000000000000000000000000000000000000000010000000000000          0000948434660000000000000000000000000000000000000000000036
1022395731500012730470000705209000000                         00000053579208000000DM 00000000000000000000 010929041909-08                         301018000000000299075630470120000000000000000000000000000000000000000000000000000000000000000000000000000000000000002990000000000000000000000000000000000000000000000000000010000000000000          0000580184862200000000000000000000000000000000000000000037
1022395731500012730470000705209000000                         00000057982907000000DM 00000000000000000000 010929041912-07                         301018000000000299075630470120000000000000000000000000000000000000000000000000000000000000000000000000000000000000002990000000000000000000000000000000000000000000000000000010000000000000          0000154195561700000000000000000000000000000000000000000038
1022395731500012730470000705209000000                         00000067963610000000DM 00000000000000000000 010629041910-10                         100319000000000299003331540123004190000135000000000000000000000000000000000000000000000000000000000000000000000000003099000000000010900000000000000000000000000000000000000010000000000000          0001393262066600000000000000000000000000000000000000000039
1022395731500012730470000705209000000                         00000066481006000000DM 00000000000000000000 010929041923-06                         301018000000000299075630470120000000000000000000000000000000000000000000000000000000000000000000000000000000000000002990000000000000000000000000000000000000000000000000000010000000000000          0000355253763500000000000000000000000000000000000000000040
1022395731500012730470000705209000000                         00000074196405000000DM 00000000000000000000 010929041902-05                         291018000000000299075630470120000000000000000000000000000000000000000000000000000000000000000000000000000000000000002990000000000000000000000000000000000000000000000000000010000000000000          0006871644369100000000000000000000000000000000000000000041
1022395731500012730470000705209000000                         00000076978410000000DM 00000000000000000000 01062904198-10                          150419000000000398010423320123004190000135000000000000000000000000000000000000000000000000000000000000000000000000004078000000000009800000000000000000000000000000000000000010000000000000          0000362941262900000000000000000000000000000000000000000042
1022395731500012730470000705209000000                         00000074076505000000DM 00000000000000000000 01092904198-05                          301018000000000398075630470120000000000000000000000000000000000000000000000000000000000000000000000000000000000000003980000000000000000000000000000000000000000000000000000010000000000000          0000530666065700000000000000000000000000000000000000000043
1022395731500012730470000705209000000                         00000082081110000000DM 00000000000000000000 010629041903-10                         100519000000000299010416420123004190000135000000000000000000000000000000000000000000000000000000000000000000000000002990000000000000000000000000000000000000000000000000000010000000000000          0001318533260100000000000000000000000000000000000000000044
1022395731500012730470000705209000000                         00000089239902000000DM 00000000000000000000 010929041920-02                         301018000000000299075630470120000000000000000000000000000000000000000000000000000000000000000000000000000000000000002990000000000000000000000000000000000000000000000000000010000000000000          0000180075969000000000000000000000000000000000000000000045
1022395731500012730470000705209000000                         00000089251802000000DM 00000000000000000000 010929041923-02                         301018000000000299075630470120000000000000000000000000000000000000000000000000000000000000000000000000000000000000002990000000000000000000000000000000000000000000000000000010000000000000          0000822921367400000000000000000000000000000000000000000046
1022395731500012730470000705209000000                         00000091860002000000DM 00000000000000000000 010929041922-02                         281018000000000299075630470120000000000000000000000000000000000000000000000000000000000000000000000000000000000000002990000000000000000000000000000000000000000000000000000010000000000000          0000260626260300000000000000000000000000000000000000000047
1022395731500012730470000705209000000                         00000099452607000000DM 00000000000000000000 010629041926-07                         150419000000000299010432340123004190000135000000000000000000000000000000000000000000000000000000000000000000000000003062000000000007200000000000000000000000000000000000000010000000000000          0000991348966000000000000000000000000000000000000000000048
1022395731500012730470000705209000000                         00000096164102000000DM 00000000000000000000 010929041923-02                         301018000000000299075630470120000000000000000000000000000000000000000000000000000000000000000000000000000000000000002990000000000000000000000000000000000000000000000000000010000000000000          0009376903269100000000000000000000000000000000000000000049
1022395731500012730470000705209000000                         00000100640801000000DM 00000000000000000000 010929041970-01                         301018000000000299075630470120000000000000000000000000000000000000000000000000000000000000000000000000000000000000002990000000000000000000000000000000000000000000000000000010000000000000          0009338280462000000000000000000000000000000000000000000050
1022395731500012730470000705209000000                         00000101089606000000DM 00000000000000000000 010629041914-06                         150319000000000299003331540123004190000135000000000000000000000000000000000000000000000000000000000000000000000000003094000000000010400000000000000000000000000000000000000010000000000000          0001444163167700000000000000000000000000000000000000000051
1022395731500012730470000705209000000                         00000105294307000000DM 00000000000000000000 010629041938-07                         270419000000000299010423320123004190000135000000000000000000000000000000000000000000000000000000000000000000000000002990000000000000000000000000000000000000000000000000000010000000000000          0000768251567800000000000000000000000000000000000000000052
1022395731500012730470000705209000000                         00000122665405000000DM 00000000000000000000 010629041903-05                         300419000000000299010432340123004190000135000000000000000000000000000000000000000000000000000000000000000000000000002990000000000000000000000000000000000000000000000000000010000000000000          0007319286467200000000000000000000000000000000000000000053
1022395731500012730470000705209000000                         00000122366606000000DM 00000000000000000000 010629041901-06                         260519000000000299010432340123004190000135000000000000000000000000000000000000000000000000000000000000000000000000002990000000000000000000000000000000000000000000000000000010000000000000          0001071516663800000000000000000000000000000000000000000054
1022395731500012730470000705209000000                         00000135641203000000DM 00000000000000000000 010629041913-03                         260419000000000398010401180123004190000135000000000000000000000000000000000000000000000000000000000000000000000000004112000000000013200000000000000000000000000000000000000010000000000000          0000220422966000000000000000000000000000000000000000000055
1022395731500012730470000705209000000                         00000134264505000000DM 00000000000000000000 010629041903-05                         080619000000000299010432340123004190000135000000000000000000000000000000000000000000000000000000000000000000000000002990000000000000000000000000000000000000000000000000000010000000000000          0006726159064900000000000000000000000000000000000000000056
1022395731500012730470000705209000000                         00000138894301000000DM 00000000000000000000 010629041970-01                         200319000000000299023734600123004190000135000000000000000000000000000000000000000000000000000000000000000000000000003447000000000045700000000000000000000000000000000000000010000000000000          0000269540164700000000000000000000000000000000000000000057
1022395731500012730470000705209000000                         00000138319103000000DM 00000000000000000000 010629041932-03                         100519000000000299010416420123004190000135000000000000000000000000000000000000000000000000000000000000000000000000002990000000000000000000000000000000000000000000000000000010000000000000          0008426660061500000000000000000000000000000000000000000058
1022395731500012730470000705209000000                         00000148714010000000DM 00000000000000000000 011029041941-10                         190120000000000299075630470120000000000070000000000000000000000000000000000000000000000000000000000000000000000000002990000000000000000000000000000000000000000000000000000010000000000000          0008409112663400000000000000000000000000000000000000000059
1022395731500012730470000705209000000                         00000163585802000000DM 00000000000000000000 011029041978-02                         100619000000000299075630470120000000000070000000000000000000000000000000000000000000000000000000000000000000000000002990000000000000000000000000000000000000000000000000000010000000000000          0000318003562500000000000000000000000000000000000000000060
1022395731500012730470000705209000000                         00000163595112000000DM 00000000000000000000 011029041978-12                         100420000000000299075630470120000000000070000000000000000000000000000000000000000000000000000000000000000000000000002990000000000000000000000000000000000000000000000000000010000000000000          0000318003562500000000000000000000000000000000000000000061
1022395731500012730470000705209000000                         00000162060601000000DM 00000000000000000000 010629041966-01                         230519000000000299075629350123004190000135000000000000000000000000000000000000000000000000000000000000000000000000002990000000000000000000000000000000000000000000000000000010000000000000          0004623781062500000000000000000000000000000000000000000062
1022395731500012730470000705209000000                         00000032872312000000DM 00000000000000000000 010929041902-12                         301018000000000695075630470120000000000000000000000000000000000000000000000000000000000000000000000000000000000000006950000000000000000000000000000000000000000000000000000010000000000000          0000610752065100000000000000000000000000000000000000000063
1022395731500012730470000705209000000                         00000031454412000000DM 00000000000000000000 01092904197-12                          301018000000000299075630470990000000000000000000000000000000000000000000000000000000000000000000000000000000000000002990000000000000000000000000000000000000000000000000000010000000000000          0000447437267000000000000000000000000000000000000000000064
1022395731500012730470000705209000000                         00000033558312000000DM 00000000000000000000 010929041905-12                         301018000000000398075630470120000000000000000000000000000000000000000000000000000000000000000000000000000000000000003980000000000000000000000000000000000000000000000000000010000000000000          0000444603280100000000000000000000000000000000000000000065
1022395731500012730470000705209000000                         00000037765511000000DM 00000000000000000000 010929041924-11                         281018000000000398075630470990000000000000000000000000000000000000000000000000000000000000000000000000000000000000003980000000000000000000000000000000000000000000000000000010000000000000          0000346505461000000000000000000000000000000000000000000066
1022395731500012730470000705209000000                         00000037982411000000DM 00000000000000000000 010929041923-11                         281018000000000497075630470990000000000000000000000000000000000000000000000000000000000000000000000000000000000000004970000000000000000000000000000000000000000000000000000010000000000000          0001219865664700000000000000000000000000000000000000000067
1022395731500012730470000705209000000                         00000047339309000000DM 00000000000000000000 010929041906-09                         281018000000000299075630470990000000000000000000000000000000000000000000000000000000000000000000000000000000000000002990000000000000000000000000000000000000000000000000000010000000000000          0001025328868100000000000000000000000000000000000000000068
1022395731500012730470000705209000000                         00000047677910000000DM 00000000000000000000 010929041920-10                         281018000000000299075630470990000000000000000000000000000000000000000000000000000000000000000000000000000000000000002990000000000000000000000000000000000000000000000000000010000000000000          0001561003069200000000000000000000000000000000000000000069
1022395731500012730470000705209000000                         00000052725008000000DM 00000000000000000000 010929041905-08                         301018000000000596075630470120000000000000000000000000000000000000000000000000000000000000000000000000000000000000005960000000000000000000000000000000000000000000000000000010000000000000          0000451299760100000000000000000000000000000000000000000070
1022395731500012730470000705209000000                         00000057886607000000DM 00000000000000000000 010929041901-07                         301018000000000299075630470120000000000000000000000000000000000000000000000000000000000000000000000000000000000000002990000000000000000000000000000000000000000000000000000010000000000000          0000897032969200000000000000000000000000000000000000000071
1022395731500012730470000705209000000                         00000059294207000000DM 00000000000000000000 010929041922-07                         301018000000000299075630470990000000000000000000000000000000000000000000000000000000000000000000000000000000000000002990000000000000000000000000000000000000000000000000000010000000000000          0004855632287500000000000000000000000000000000000000000072
1022395731500012730470000705209000000                         00000065465301000000DM 00000000000000000000 010629041903                            050519000000000299000105060123004190000135000000000000000000000000000000000000000000000000000000000000000000000000002990000000000000000000000000000000000000000000000000000010000000000000          0009254078360000000000000000000000000000000000000000000073
1022395731500012730470000705209000000                         00000059583707000000DM 00000000000000000000 01092904196-07                          301018000000000299075630470120000000000000000000000000000000000000000000000000000000000000000000000000000000000000002990000000000000000000000000000000000000000000000000000010000000000000          0000344164969900000000000000000000000000000000000000000074
1022395731500012730470000705209000000                         00000059930407000000DM 00000000000000000000 010929041901-07                         281018000000000299075630470120000000000000000000000000000000000000000000000000000000000000000000000000000000000000002990000000000000000000000000000000000000000000000000000010000000000000          0008384625565300000000000000000000000000000000000000000075
1022395731500012730470000705209000000                         00000064705812000000DM 00000000000000000000 01062904194-12                          180419000000000299075611640123004190000135000000000000000000000000000000000000000000000000000000000000000000000000003059000000000006900000000000000000000000000000000000000010000000000000          0000502547065000000000000000000000000000000000000000000076
1022395731500012730470000705209000000                         00000063669812000000DM 00000000000000000000 010629041901-12                         300419000000000299010432340123004190000135000000000000000000000000000000000000000000000000000000000000000000000000002990000000000000000000000000000000000000000000000000000010000000000000          0001114883069300000000000000000000000000000000000000000077
1022395731500012730470000705209000000                         00000073365005000000DM 00000000000000000000 010929041914-05                         301018000000000596075630470120000000000000000000000000000000000000000000000000000000000000000000000000000000000000005960000000000000000000000000000000000000000000000000000010000000000000          0000276005260500000000000000000000000000000000000000000078
1022395731500012730470000705209000000                         00000074292705000000DM 00000000000000000000 010929041904-05                         291018000000000299075630470120000000000000000000000000000000000000000000000000000000000000000000000000000000000000002990000000000000000000000000000000000000000000000000000010000000000000          0001548894362500000000000000000000000000000000000000000079
1022395731500012730470000705209000000                         00000075969910000000DM 00000000000000000000 010629041927-10                         150419000000000299000105060123004190000135000000000000000000000000000000000000000000000000000000000000000000000000003062000000000007200000000000000000000000000000000000000010000000000000          0000780408063800000000000000000000000000000000000000000080
1022395731500012730470000705209000000                         00000090634502000000DM 00000000000000000000 010929041931-02                         301018000000000398075630470120000000000000000000000000000000000000000000000000000000000000000000000000000000000000003980000000000000000000000000000000000000000000000000000010000000000000          0000331802260800000000000000000000000000000000000000000081
1022395731500012730470000705209000000                         00000097927207000000DM 00000000000000000000 01062904193-07                          150419000000000497010408940993004190000135000000000000000000000000000000000000000000000000000000000000000000000000005092000000000012200000000000000000000000000000000000000010000000000000          0003072201269100000000000000000000000000000000000000000082
1022395731500012730470000705209000000                         00000099344507000000DM 00000000000000000000 010629041940-07                         150419000000000299010423320123004190000135000000000000000000000000000000000000000000000000000000000000000000000000003063000000000007300000000000000000000000000000000000000010000000000000          0009040484023000000000000000000000000000000000000000000083
1022395731500012730470000705209000000                         00000107520201000000DM 00000000000000000000 010929041934-01                         301018000000000299075630470120000000000000000000000000000000000000000000000000000000000000000000000000000000000000002990000000000000000000000000000000000000000000000000000010000000000000          0009744790067200000000000000000000000000000000000000000084
1022395731500012730470000705209000000                         00000100700501000000DM 00000000000000000000 010929041975-01                         301018000000000299075630470120000000000000000000000000000000000000000000000000000000000000000000000000000000000000002990000000000000000000000000000000000000000000000000000010000000000000          0007974401060600000000000000000000000000000000000000000085
1022395731500012730470000705209000000                         00000113489906000000DM 00000000000000000000 010629041920-06                         300419000000000299010432340123004190000135000000000000000000000000000000000000000000000000000000000000000000000000002990000000000000000000000000000000000000000000000000000010000000000000          0007011581863400000000000000000000000000000000000000000086
1022395731500012730470000705209000000                         00000122569105000000DM 00000000000000000000 010629041933-05                         280419000000000497010431480123004190000135000000000000000000000000000000000000000000000000000000000000000000000000004970000000000000000000000000000000000000000000000000000010000000000000          0000844074160000000000000000000000000000000000000000000087
1022395731500012730470000705209000000                         00000126059503000000DM 00000000000000000000 010629041910-03                         150319000000000299000103650123004190000135000000000000000000000000000000000000000000000000000000000000000000000000003497000000000050700000000000000000000000000000000000000010000000000000          0000568428960600000000000000000000000000000000000000000088
1022395731500012730470000705209000000                         00000143994703000000DM 00000000000000000000 010629041901-03                         100519000000000299010414910013004190000135000000000000000000000000000000000000000000000000000000000000000000000000002990000000000000000000000000000000000000000000000000000010000000000000          0000931407761600000000000000000000000000000000000000000089
1022395731500012730470000705209000000                         00000144875403000000DM 00000000000000000000 010629041930-03                         050519000000000398010423320123004190000135000000000000000000000000000000000000000000000000000000000000000000000000003980000000000000000000000000000000000000000000000000000010000000000000          0003366500166800000000000000000000000000000000000000000090
1022395731500012730470000705209000000                         00000163586503000000DM 00000000000000000000 011029041978-03                         100719000000000299075630470120000000000070000000000000000000000000000000000000000000000000000000000000000000000000002990000000000000000000000000000000000000000000000000000010000000000000          0000318003562500000000000000000000000000000000000000000091
1022395731500012730470000705209000000                         00000163589706000000DM 00000000000000000000 011029041978-06                         101019000000000299075630470120000000000070000000000000000000000000000000000000000000000000000000000000000000000000002990000000000000000000000000000000000000000000000000000010000000000000          0000318003562500000000000000000000000000000000000000000092
1022395731500012730470000705209000000                         00000163592009000000DM 00000000000000000000 011029041978-09                         100120000000000299075630470120000000000070000000000000000000000000000000000000000000000000000000000000000000000000002990000000000000000000000000000000000000000000000000000010000000000000          0000318003562500000000000000000000000000000000000000000093
1022395731500012730470000705209000000                         00000032227012000000DM 00000000000000000000 010929041920-12                         281018000000000398075630470990000000000000000000000000000000000000000000000000000000000000000000000000000000000000003980000000000000000000000000000000000000000000000000000010000000000000          0001268580163400000000000000000000000000000000000000000094
1022395731500012730470000705209000000                         00000036035211000000DM 00000000000000000000 010929041901-11                         301018000000000497075630470120000000000000000000000000000000000000000000000000000000000000000000000000000000000000004970000000000000000000000000000000000000000000000000000010000000000000          0001000034763900000000000000000000000000000000000000000095
1022395731500012730470000705209000000                         00000042636110000000DM 00000000000000000000 01092904196-10                          301018000000000299075630470990000000000000000000000000000000000000000000000000000000000000000000000000000000000000002990000000000000000000000000000000000000000000000000000010000000000000          0001268385271100000000000000000000000000000000000000000096
1022395731500012730470000705209000000                         00000039543811000000DM 00000000000000000000 010929041911-11                         281018000000000596075630470990000000000000000000000000000000000000000000000000000000000000000000000000000000000000005960000000000000000000000000000000000000000000000000000010000000000000          0005825396365300000000000000000000000000000000000000000097
1022395731500012730470000705209000000                         00000052425409000000DM 00000000000000000000 010929041903-09                         281018000000000299075630470120000000000000000000000000000000000000000000000000000000000000000000000000000000000000002990000000000000000000000000000000000000000000000000000010000000000000          0001896252168700000000000000000000000000000000000000000098
1022395731500012730470000705209000000                         00000053639008000000DM 00000000000000000000 010929041926-08                         281018000000000299075630470120000000000000000000000000000000000000000000000000000000000000000000000000000000000000002990000000000000000000000000000000000000000000000000000010000000000000          0001291693874500000000000000000000000000000000000000000099
1022395731500012730470000705209000000                         00000053747008000000DM 00000000000000000000 010929041901-08                         301018000000000398075630470120000000000000000000000000000000000000000000000000000000000000000000000000000000000000003980000000000000000000000000000000000000000000000000000010000000000000          0001129971864700000000000000000000000000000000000000000100
1022395731500012730470000705209000000                         00000061797807000000DM 00000000000000000000 010929041975-07                         301018000000000299075630470120000000000000000000000000000000000000000000000000000000000000000000000000000000000000002990000000000000000000000000000000000000000000000000000010000000000000          0000436432668200000000000000000000000000000000000000000101
1022395731500012730470000705209000000                         00000074244305000000DM 00000000000000000000 010929041903-05                         291018000000000299075630470120000000000000000000000000000000000000000000000000000000000000000000000000000000000000002990000000000000000000000000000000000000000000000000000010000000000000          0005616026760400000000000000000000000000000000000000000102
1022395731500012730470000705209000000                         00000077458710000000DM 00000000000000000000 01062904193-10                          150419000000000299000111540123004190000135000000000000000000000000000000000000000000000000000000000000000000000000003062000000000007200000000000000000000000000000000000000010000000000000          0000617780064500000000000000000000000000000000000000000103
1022395731500012730470000705209000000                         00000085477603000000DM 00000000000000000000 010929041910-03                         301018000000000299075630470120000000000000000000000000000000000000000000000000000000000000000000000000000000000000002990000000000000000000000000000000000000000000000000000010000000000000          0000585061661600000000000000000000000000000000000000000104
1022395731500012730470000705209000000                         00000085087209000000DM 00000000000000000000 01062904196-09                          150419000000000398010401160123004190000135000000000000000000000000000000000000000000000000000000000000000000000000004077000000000009700000000000000000000000000000000000000010000000000000          0000681930861200000000000000000000000000000000000000000105
1022395731500012730470000705209000000                         00000089650803000000DM 00000000000000000000 010929041921-03                         281018000000000398075630470120000000000000000000000000000000000000000000000000000000000000000000000000000000000000003980000000000000000000000000000000000000000000000000000010000000000000          0002911480082900000000000000000000000000000000000000000106
1022395731500012730470000705209000000                         00000092760702000000DM 00000000000000000000 010929041910-02                         291018000000000299075630470120000000000000000000000000000000000000000000000000000000000000000000000000000000000000002990000000000000000000000000000000000000000000000000000010000000000000          0007304727969100000000000000000000000000000000000000000107
1022395731500012730470000705209000000                         00000092880602000000DM 00000000000000000000 010929041928-02                         301018000000000299075630470120000000000000000000000000000000000000000000000000000000000000000000000000000000000000002990000000000000000000000000000000000000000000000000000010000000000000          0000928599469500000000000000000000000000000000000000000108
1022395731500012730470000705209000000                         00000116664606000000DM 00000000000000000000 010629041923-06                         010519000000000398010401180993004190000135000000000000000000000000000000000000000000000000000000000000000000000000003980000000000000000000000000000000000000000000000000000010000000000000          0002674597666800000000000000000000000000000000000000000109
1022395731500012730470000705209000000                         00000116412006000000DM 00000000000000000000 01062904196-06                          100519000000000299010431480123004190000135000000000000000000000000000000000000000000000000000000000000000000000000002990000000000000000000000000000000000000000000000000000010000000000000          0006364223966800000000000000000000000000000000000000000110
1022395731500012730470000705209000000                         00000135476605000000DM 00000000000000000000 010629041903-05                         100519000000000596000111790123004190000135000000000000000000000000000000000000000000000000000000000000000000000000005960000000000000000000000000000000000000000000000000000010000000000000          0001743165463400000000000000000000000000000000000000000111
1022395731500012730470000705209000000                         00000141571204000000DM 00000000000000000000 010629041902-04                         100619000000000299075630470123004190000110000000000000000000000000000000000000000000000000000000000000000000000000002990000000000000000000000000000000000000000000000000000010000000000000          0005125424765300000000000000000000000000000000000000000112
1022395731500012730470000705209000000                         00000142578203000000DM 00000000000000000000 010629041905-03                         050519000000000299010401180993004190000135000000000000000000000000000000000000000000000000000000000000000000000000002990000000000000000000000000000000000000000000000000000010000000000000          0000270144560400000000000000000000000000000000000000000113
1022395731500012730470000705209000000                         00000142710603000000DM 00000000000000000000 010629041915-03                         280519000000000299010423320123004190000135000000000000000000000000000000000000000000000000000000000000000000000000002990000000000000000000000000000000000000000000000000000010000000000000          0007032088864900000000000000000000000000000000000000000114
1022395731500012730470000705209000000                         00000148708504000000DM 00000000000000000000 011029041941-04                         190719000000000299075630470120000000000070000000000000000000000000000000000000000000000000000000000000000000000000002990000000000000000000000000000000000000000000000000000010000000000000          0008409112663400000000000000000000000000000000000000000115
1022395731500012730470000705209000000                         00000161208701000000DM 00000000000000000000 010629041927-01                         300419000000000299010432340123004190000135000000000000000000000000000000000000000000000000000000000000000000000000002990000000000000000000000000000000000000000000000000000010000000000000          0000881272965700000000000000000000000000000000000000000116
1022395731500012730470000705209000000                         00000031442612000000DM 00000000000000000000 01092904196-12                          301018000000000596075630470990000000000000000000000000000000000000000000000000000000000000000000000000000000000000005960000000000000000000000000000000000000000000000000000010000000000000          0009759115760400000000000000000000000000000000000000000117
1022395731500012730470000705209000000                         00000033016512000000DM 00000000000000000000 010929041903-12                         301018000000000497075630470120000000000000000000000000000000000000000000000000000000000000000000000000000000000000004970000000000000000000000000000000000000000000000000000010000000000000          0000016265068000000000000000000000000000000000000000000118
1022395731500012730470000705209000000                         00000037681111000000DM 00000000000000000000 010929041904-11                         281018000000000299075630470120000000000000000000000000000000000000000000000000000000000000000000000000000000000000002990000000000000000000000000000000000000000000000000000010000000000000          0002252937181400000000000000000000000000000000000000000119
1022395731500012730470000705209000000                         00000037934011000000DM 00000000000000000000 01092904197-11                          281018000000000893075630470990000000000000000000000000000000000000000000000000000000000000000000000000000000000000008930000000000000000000000000000000000000000000000000000010000000000000          0000221029869500000000000000000000000000000000000000000120
1022395731500012730470000705209000000                         00000037970611000000DM 00000000000000000000 010929041921-11                         281018000000000299075630470990000000000000000000000000000000000000000000000000000000000000000000000000000000000000002990000000000000000000000000000000000000000000000000000010000000000000          0001330200560100000000000000000000000000000000000000000121
1022395731500012730470000705209000000                         00000041807211000000DM 00000000000000000000 010929041921-11                         281018000000000299075630470990000000000000000000000000000000000000000000000000000000000000000000000000000000000000002990000000000000000000000000000000000000000000000000000010000000000000          0002902768362000000000000000000000000000000000000000000122
1022395731500012730470000705209000000                         00000042445411000000DM 00000000000000000000 010929041920-11                         281018000000000299075630470990000000000000000000000000000000000000000000000000000000000000000000000000000000000000002990000000000000000000000000000000000000000000000000000010000000000000          0008135936567200000000000000000000000000000000000000000123
1022395731500012730470000705209000000                         00000037753711000000DM 00000000000000000000 010929041906-11                         281018000000000497075630470120000000000000000000000000000000000000000000000000000000000000000000000000000000000000004970000000000000000000000000000000000000000000000000000010000000000000          0000833148168200000000000000000000000000000000000000000124
1022395731500012730470000705209000000                         00000037789111000000DM 00000000000000000000 010929041925-11                         281018000000000299075630470990000000000000000000000000000000000000000000000000000000000000000000000000000000000000002990000000000000000000000000000000000000000000000000000010000000000000          0001145783465000000000000000000000000000000000000000000125
1022395731500012730470000705209000000                         00000044537509000000DM 00000000000000000000 010929041904-09                         281018000000000398075630470120000000000000000000000000000000000000000000000000000000000000000000000000000000000000003980000000000000000000000000000000000000000000000000000010000000000000          0008484686060400000000000000000000000000000000000000000126
1022395731500012730470000705209000000                         00000053146208000000DM 00000000000000000000 010929041919-08                         301018000000000398075630470120000000000000000000000000000000000000000000000000000000000000000000000000000000000000003980000000000000000000000000000000000000000000000000000010000000000000          0000519864166900000000000000000000000000000000000000000127
1022395731500012730470000705209000000                         00000066059006000000DM 00000000000000000000 010929041912-06                         301018000000000398075630470120000000000000000000000000000000000000000000000000000000000000000000000000000000000000003980000000000000000000000000000000000000000000000000000010000000000000          0002519745266800000000000000000000000000000000000000000128
1022395731500012730470000705209000000                         00000089866902000000DM 00000000000000000000 010929041929-02                         281018000000000497075630470120000000000000000000000000000000000000000000000000000000000000000000000000000000000000004970000000000000000000000000000000000000000000000000000010000000000000          0003087733466800000000000000000000000000000000000000000129
1022395731500012730470000705209000000                         00000091584002000000DM 00000000000000000000 010929041923-02                         301018000000000992075630470120000000000000000000000000000000000000000000000000000000000000000000000000000000000000009920000000000000000000000000000000000000000000000000000010000000000000          0000275423263000000000000000000000000000000000000000000130
1022395731500012730470000705209000000                         00000092844002000000DM 00000000000000000000 010929041924-02                         301018000000000299075630470120000000000000000000000000000000000000000000000000000000000000000000000000000000000000002990000000000000000000000000000000000000000000000000000010000000000000          0004338857463400000000000000000000000000000000000000000131
1022395731500012730470000705209000000                         00000093060302000000DM 00000000000000000000 010929041944-02                         301018000000000299075630470120000000000000000000000000000000000000000000000000000000000000000000000000000000000000002990000000000000000000000000000000000000000000000000000010000000000000          0000256905967600000000000000000000000000000000000000000132
1022395731500012730470000705209000000                         00000094730402000000DM 00000000000000000000 010929041921-02                         301018000000000299075630470120000000000000000000000000000000000000000000000000000000000000000000000000000000000000002990000000000000000000000000000000000000000000000000000010000000000000          0005952484760400000000000000000000000000000000000000000133
1022395731500012730470000705209000000                         00000099621102000000DM 00000000000000000000 010929041928-02                         301018000000001388075630470120000000000000000000000000000000000000000000000000000000000000000000000000000000000000013880000000000000000000000000000000000000000000000000000010000000000000          2495333400014800000000000000000000000000000000000000000134
1022395731500012730470000705209000000                         00000099440807000000DM 00000000000000000000 010629041925-07                         150419000000000299010432340123004190000135000000000000000000000000000000000000000000000000000000000000000000000000003062000000000007200000000000000000000000000000000000000010000000000000          0000363414185900000000000000000000000000000000000000000135
1022395731500012730470000705209000000                         00000097165802000000DM 00000000000000000000 01092904196-02                          301018000000000299075630470120000000000000000000000000000000000000000000000000000000000000000000000000000000000000002990000000000000000000000000000000000000000000000000000010000000000000          0000898740266500000000000000000000000000000000000000000136
1022395731500012730470000705209000000                         00000100148701000000DM 00000000000000000000 010929041936-01                         281018000000000299075630470120000000000000000000000000000000000000000000000000000000000000000000000000000000000000002990000000000000000000000000000000000000000000000000000010000000000000          0001180646363600000000000000000000000000000000000000000137
1022395731500012730470000705209000000                         00000099105408000000DM 00000000000000000000 010629041920-08                         100519000000000299010414910123004190000135000000000000000000000000000000000000000000000000000000000000000000000000002990000000000000000000000000000000000000000000000000000010000000000000          0005804650068200000000000000000000000000000000000000000138
1022395731500012730470000705209000000                         00000102628708000000DM 00000000000000000000 010629041920-08                         150519000000000398010431480123004190000135000000000000000000000000000000000000000000000000000000000000000000000000003980000000000000000000000000000000000000000000000000000010000000000000          0002433638666800000000000000000000000000000000000000000139
1022395731500012730470000705209000000                         00000107676601000000DM 00000000000000000000 010929041946-01                         301018000000000992075630470120000000000000000000000000000000000000000000000000000000000000000000000000000000000000009920000000000000000000000000000000000000000000000000000010000000000000          0000802559069000000000000000000000000000000000000000000140
1022395731500012730470000705209000000                         00000126121805000000DM 00000000000000000000 010629041982-05                         100519000000000299075615350123004190000135000000000000000000000000000000000000000000000000000000000000000000000000002990000000000000000000000000000000000000000000000000000010000000000000          0007969498566800000000000000000000000000000000000000000141
1022395731500012730470000705209000000                         00000126058802000000DM 00000000000000000000 010629041910-02                         150219000000000299000103650123004190000135000000000000000000000000000000000000000000000000000000000000000000000000003776000000000078600000000000000000000000000000000000000010000000000000          0000568428960600000000000000000000000000000000000000000142
1022395731500012730470000705209000000                         00000135475904000000DM 00000000000000000000 010629041903-04                         100419000000000596000111790123004190000135000000000000000000000000000000000000000000000000000000000000000000000000006456000000000049600000000000000000000000000000000000000010000000000000          0001743165463400000000000000000000000000000000000000000143
1022395731500012730470000705209000000                         00000146093003000000DM 00000000000000000000 010629041920-03                         060519000000000299010423320123004190000135000000000000000000000000000000000000000000000000000000000000000000000000002990000000000000000000000000000000000000000000000000000010000000000000          0000973229268700000000000000000000000000000000000000000144
1022395731500012730470000705209000000                         00000149958602000000DM 00000000000000000000 01062904194-02                          100519000000000299023755060123004190000135000000000000000000000000000000000000000000000000000000000000000000000000002990000000000000000000000000000000000000000000000000000010000000000000          0000481038566300000000000000000000000000000000000000000145
1022395731500012730470000705209000000                         00000163584001000000DM 00000000000000000000 011029041978-01                         100519000000000299075630470120000000000070000000000000000000000000000000000000000000000000000000000000000000000000002990000000000000000000000000000000000000000000000000000010000000000000          0000318003562500000000000000000000000000000000000000000146
1022395731500012730470000705209000000                         00000033268112000000DM 00000000000000000000 010929041903-12                         301018000000000299075630470120000000000000000000000000000000000000000000000000000000000000000000000000000000000000002990000000000000000000000000000000000000000000000000000010000000000000          0000129108669200000000000000000000000000000000000000000147
1022395731500012730470000705209000000                         00000035517011000000DM 00000000000000000000 010929041913-11                         301018000000000695075630470990000000000000000000000000000000000000000000000000000000000000000000000000000000000000006950000000000000000000000000000000000000000000000000000010000000000000          0000408117567500000000000000000000000000000000000000000148
1022395731500012730470000705209000000                         00000037585911000000DM 00000000000000000000 010929041921-11                         281018000000000548075630470990000000000000000000000000000000000000000000000000000000000000000000000000000000000000005480000000000000000000000000000000000000000000000000000010000000000000          0004335100060000000000000000000000000000000000000000000149
1022395731500012730470000705209000000                         00000042790110000000DM 00000000000000000000 010929041901-10                         301018000000000398075630470120000000000000000000000000000000000000000000000000000000000000000000000000000000000000003980000000000000000000000000000000000000000000000000000010000000000000          0001068252286400000000000000000000000000000000000000000150
1022395731500012730470000705209000000                         00000037549311000000DM 00000000000000000000 010929041922-11                         281018000000000299075630470990000000000000000000000000000000000000000000000000000000000000000000000000000000000000002990000000000000000000000000000000000000000000000000000010000000000000          0000649161564200000000000000000000000000000000000000000151
1022395731500012730470000705209000000                         00000042684510000000DM 00000000000000000000 010929041903-10                         301018000000000299075630470990000000000000000000000000000000000000000000000000000000000000000000000000000000000000002990000000000000000000000000000000000000000000000000000010000000000000          0000025828762400000000000000000000000000000000000000000152
1022395731500012730470000705209000000                         00000037850711000000DM 00000000000000000000 010929041903-11                         291018000000000299075630470120000000000000000000000000000000000000000000000000000000000000000000000000000000000000002990000000000000000000000000000000000000000000000000000010000000000000          0000167268767500000000000000000000000000000000000000000153
1022395731500012730470000705209000000                         00000048459109000000DM 00000000000000000000 01092904198-09                          281018000000000299075630470990000000000000000000000000000000000000000000000000000000000000000000000000000000000000002990000000000000000000000000000000000000000000000000000010000000000000          0004321842360000000000000000000000000000000000000000000154
1022395731500012730470000705209000000                         00000053892408000000DM 00000000000000000000 010929041916-08                         281018000000000299075630470990000000000000000000000000000000000000000000000000000000000000000000000000000000000000002990000000000000000000000000000000000000000000000000000010000000000000          0000725523166700000000000000000000000000000000000000000155
1022395731500012730470000705209000000                         00000056999408000000DM 00000000000000000000 010929041914-08                         301018000000000794075630470120000000000000000000000000000000000000000000000000000000000000000000000000000000000000007940000000000000000000000000000000000000000000000000000010000000000000          0003047897964900000000000000000000000000000000000000000156
1022395731500012730470000705209000000                         00000061833907000000DM 00000000000000000000 010929041980-07                         301018000000000299075630470120000000000000000000000000000000000000000000000000000000000000000000000000000000000000002990000000000000000000000000000000000000000000000000000010000000000000          0000130013560300000000000000000000000000000000000000000157
1022395731500012730470000705209000000                         00000065084606000000DM 00000000000000000000 010929041910-06                         301018000000000398075630470120000000000000000000000000000000000000000000000000000000000000000000000000000000000000003980000000000000000000000000000000000000000000000000000010000000000000          0000496299964800000000000000000000000000000000000000000158
1022395731500012730470000705209000000                         00000071865105000000DM 00000000000000000000 010929041932-05                         281018000000000695075630470120000000000000000000000000000000000000000000000000000000000000000000000000000000000000006950000000000000000000000000000000000000000000000000000010000000000000          0005519711666800000000000000000000000000000000000000000159
1022395731500012730470000705209000000                         00000073167111000000DM 00000000000000000000 010629041910-11                         300419000000000299010431480123004190000135000000000000000000000000000000000000000000000000000000000000000000000000002990000000000000000000000000000000000000000000000000000010000000000000          0009262488068200000000000000000000000000000000000000000160
1022395731500012730470000705209000000                         00000077554010000000DM 00000000000000000000 010629041917-10                         300419000000000299000105060123004190000135000000000000000000000000000000000000000000000000000000000000000000000000002990000000000000000000000000000000000000000000000000000010000000000000          0000570152267900000000000000000000000000000000000000000161
1022395731500012730470000705209000000                         00000084829003000000DM 00000000000000000000 010929041931-03                         301018000000000299075630470120000000000000000000000000000000000000000000000000000000000000000000000000000000000000002990000000000000000000000000000000000000000000000000000010000000000000          0000077561163800000000000000000000000000000000000000000162
1022395731500012730470000705209000000                         00000082725103000000DM 00000000000000000000 010929041923-03                         281018000000000497075630470120000000000000000000000000000000000000000000000000000000000000000000000000000000000000004970000000000000000000000000000000000000000000000000000010000000000000          0007405840167200000000000000000000000000000000000000000163
1022395731500012730470000705209000000                         00000093653207000000DM 00000000000000000000 010629041903-07                         300319000000000299075630470123004190000110000000000000000000000000000000000000000000000000000000000000000000000000003078000000000008800000000000000000000000000000000000000010000000000000          0003087845469100000000000000000000000000000000000000000164
1022395731500012730470000705209000000                         00000090766202000000DM 00000000000000000000 010929041935-02                         301018000000000398075630470120000000000000000000000000000000000000000000000000000000000000000000000000000000000000003980000000000000000000000000000000000000000000000000000010000000000000          0000295139161700000000000000000000000000000000000000000165
1022395731500012730470000705209000000                         00000090790002000000DM 00000000000000000000 010929041936-02                         301018000000000497075630470120000000000000000000000000000000000000000000000000000000000000000000000000000000000000004970000000000000000000000000000000000000000000000000000010000000000000          0000922410569600000000000000000000000000000000000000000166
1022395731500012730470000705209000000                         00000096716902000000DM 00000000000000000000 010929041922-02                         281018000000000398075630470120000000000000000000000000000000000000000000000000000000000000000000000000000000000000003980000000000000000000000000000000000000000000000000000010000000000000          0001569405476800000000000000000000000000000000000000000167
1022395731500012730470000705209000000                         00000096961402000000DM 00000000000000000000 01092904194-02                          301018000000000596075630470120000000000000000000000000000000000000000000000000000000000000000000000000000000000000005960000000000000000000000000000000000000000000000000000010000000000000          0000676803156200000000000000000000000000000000000000000168
1022395731500012730470000705209000000                         00000098199702000000DM 00000000000000000000 010929041922-02                         281018000000000299075630470120000000000000000000000000000000000000000000000000000000000000000000000000000000000000002990000000000000000000000000000000000000000000000000000010000000000000          0001012544761200000000000000000000000000000000000000000169
1022395731500012730470000705209000000                         00000096482008000000DM 00000000000000000000 010629041915-08                         280419000000000299010432340123004190000135000000000000000000000000000000000000000000000000000000000000000000000000002990000000000000000000000000000000000000000000000000000010000000000000          0004952950166800000000000000000000000000000000000000000170
1022395731500012730470000705209000000                         00000106596201000000DM 00000000000000000000 010929041980-01                         301018000000000398075630470120000000000000000000000000000000000000000000000000000000000000000000000000000000000000003980000000000000000000000000000000000000000000000000000010000000000000          0006892518265300000000000000000000000000000000000000000171
1022395731500012730470000705209000000                         00000111091908000000DM 00000000000000000000 010629041963-08                         050619000000000299010416420123004190000135000000000000000000000000000000000000000000000000000000000000000000000000002990000000000000000000000000000000000000000000000000000010000000000000          0002900218462000000000000000000000000000000000000000000172
1022395731500012730470000705209000000                         00000114196404000000DM 00000000000000000000 011029041902-04                         280219000000000299075630470120000000000070000000000000000000000000000000000000000000000000000000000000000000000000002990000000000000000000000000000000000000000000000000000010000000000000          0001287560369800000000000000000000000000000000000000000173
1022395731500012730470000705209000000                         00000114933506000000DM 00000000000000000000 010629041903-06                         300419000000000299010432340123004190000135000000000000000000000000000000000000000000000000000000000000000000000000002990000000000000000000000000000000000000000000000000000010000000000000          0000619807067000000000000000000000000000000000000000000174
1022395731500012730470000705209000000                         00000149945001000000DM 00000000000000000000 010629041902-01                         150419000000000299010432340123004190000135000000000000000000000000000000000000000000000000000000000000000000000000003188000000000019800000000000000000000000000000000000000010000000000000          0001263137466500000000000000000000000000000000000000000175
1022395731500012730470000705209000000                         00000148712508000000DM 00000000000000000000 011029041941-08                         191119000000000299075630470120000000000070000000000000000000000000000000000000000000000000000000000000000000000000002990000000000000000000000000000000000000000000000000000010000000000000          0008409112663400000000000000000000000000000000000000000176
1022395731500012730470000705209000000                         00000148715711000000DM 00000000000000000000 011029041941-11                         190220000000000299075630470120000000000070000000000000000000000000000000000000000000000000000000000000000000000000002990000000000000000000000000000000000000000000000000000010000000000000          0008409112663400000000000000000000000000000000000000000177
1022395731500012730470000705209000000                         00000145242002000000DM 00000000000000000000 010629041920-02                         300419000000000299063300010123004190000135000000000000000000000000000000000000000000000000000000000000000000000000002990000000000000000000000000000000000000000000000000000010000000000000          0001541114264400000000000000000000000000000000000000000178
1022395731500012730470000705209000000                         00000163587204000000DM 00000000000000000000 011029041978-04                         100819000000000299075630470120000000000070000000000000000000000000000000000000000000000000000000000000000000000000002990000000000000000000000000000000000000000000000000000010000000000000          0000318003562500000000000000000000000000000000000000000179
1022395731500012730470000705209000000                         00000156105101000000DM 00000000000000000000 0106290419GR19-01                       300419000000000596010443920013004190000135000000000000000000000000000000000000000000000000000000000000000000000000005960000000000000000000000000000000000000000000000000000010000000000000          0000738460060000000000000000000000000000000000000000000180
1022395731500012730470000705209000000                         00000032343012000000DM 00000000000000000000 010929041921-12                         281018000000000497075630470990000000000000000000000000000000000000000000000000000000000000000000000000000000000000004970000000000000000000000000000000000000000000000000000010000000000000          0000536484066200000000000000000000000000000000000000000181
1022395731500012730470000705209000000                         00000037874311000000DM 00000000000000000000 010929041905-11                         291018000000000398075630470120000000000000000000000000000000000000000000000000000000000000000000000000000000000000003980000000000000000000000000000000000000000000000000000010000000000000          0000932945465800000000000000000000000000000000000000000182
1022395731500012730470000705209000000                         00000041819011000000DM 00000000000000000000 010929041922-11                         281018000000000299075630470990000000000000000000000000000000000000000000000000000000000000000000000000000000000000002990000000000000000000000000000000000000000000000000000010000000000000          0001168220467700000000000000000000000000000000000000000183
1022395731500012730470000705209000000                         00000037741911000000DM 00000000000000000000 010929041905-11                         281018000000000398075630470120000000000000000000000000000000000000000000000000000000000000000000000000000000000000003980000000000000000000000000000000000000000000000000000010000000000000          0006617962923400000000000000000000000000000000000000000184
1022395731500012730470000705209000000                         00000041267311000000DM 00000000000000000000 010929041920-11                         281018000000000299075630470990000000000000000000000000000000000000000000000000000000000000000000000000000000000000002990000000000000000000000000000000000000000000000000000010000000000000          0001458881067700000000000000000000000000000000000000000185
1022395731500012730470000705209000000                         00000047967009000000DM 00000000000000000000 010929041920-09                         281018000000000398075630470990000000000000000000000000000000000000000000000000000000000000000000000000000000000000003980000000000000000000000000000000000000000000000000000010000000000000          0006758116166800000000000000000000000000000000000000000186
1022395731500012730470000705209000000                         00000052893208000000DM 00000000000000000000 010929041913-08                         301018000000000398075630470120000000000000000000000000000000000000000000000000000000000000000000000000000000000000003980000000000000000000000000000000000000000000000000000010000000000000          0000069221758400000000000000000000000000000000000000000187
1022395731500012730470000705209000000                         00000050558009000000DM 00000000000000000000 010929041923-09                         281018000000000398075630470990000000000000000000000000000000000000000000000000000000000000000000000000000000000000003980000000000000000000000000000000000000000000000000000010000000000000          0001437154964000000000000000000000000000000000000000000188
1022395731500012730470000705209000000                         00000052149509000000DM 00000000000000000000 010929041901-09                         281018000000000299075630470120000000000000000000000000000000000000000000000000000000000000000000000000000000000000002990000000000000000000000000000000000000000000000000000010000000000000          0000763906964500000000000000000000000000000000000000000189
1022395731500012730470000705209000000                         00000059258707000000DM 00000000000000000000 010929041920-07                         281018000000000299075630470990000000000000000000000000000000000000000000000000000000000000000000000000000000000000002990000000000000000000000000000000000000000000000000000010000000000000          0001213662460100000000000000000000000000000000000000000190
1022395731500012730470000705209000000                         00000059759307000000DM 00000000000000000000 010929041921-07                         281018000000000299075630470120000000000000000000000000000000000000000000000000000000000000000000000000000000000000002990000000000000000000000000000000000000000000000000000010000000000000          0009827287060600000000000000000000000000000000000000000191
1022395731500012730470000705209000000                         00000062904606000000DM 00000000000000000000 010929041927-06                         281018000000000398075630470120000000000000000000000000000000000000000000000000000000000000000000000000000000000000003980000000000000000000000000000000000000000000000000000010000000000000          0000423811177000000000000000000000000000000000000000000192
1022395731500012730470000705209000000                         00000066649806000000DM 00000000000000000000 010929041914-06                         301018000000000299075630470120000000000000000000000000000000000000000000000000000000000000000000000000000000000000002990000000000000000000000000000000000000000000000000000010000000000000          0001172772363500000000000000000000000000000000000000000193
1022395731500012730470000705209000000                         00000067964311000000DM 00000000000000000000 010629041910-11                         100419000000000299003331540123004190000135000000000000000000000000000000000000000000000000000000000000000000000000003068000000000007800000000000000000000000000000000000000010000000000000          0001393262066600000000000000000000000000000000000000000194
1022395731500012730470000705209000000                         00000068848212000000DM 00000000000000000000 010629041916-12                         100519000000000299010437040123004190000135000000000000000000000000000000000000000000000000000000000000000000000000002990000000000000000000000000000000000000000000000000000010000000000000          0009741485964900000000000000000000000000000000000000000195
1022395731500012730470000705209000000                         00000071745205000000DM 00000000000000000000 010929041924-05                         281018000000000695075630470120000000000000000000000000000000000000000000000000000000000000000000000000000000000000006950000000000000000000000000000000000000000000000000000010000000000000          0000335985360100000000000000000000000000000000000000000196
1022395731500012730470000705209000000                         00000072729305000000DM 00000000000000000000 010929041920-05                         281018000000000299075630470120000000000000000000000000000000000000000000000000000000000000000000000000000000000000002990000000000000000000000000000000000000000000000000000010000000000000          0001083415360200000000000000000000000000000000000000000197
1022395731500012730470000705209000000                         00000077640912000000DM 00000000000000000000 010629041925-12                         200619000000000299023769800123004190000135000000000000000000000000000000000000000000000000000000000000000000000000002990000000000000000000000000000000000000000000000000000010000000000000          0000618351060200000000000000000000000000000000000000000198
1022395731500012730470000705209000000                         00000081373910000000DM 00000000000000000000 010629041915-10                         300419000000000299010432340123004190000135000000000000000000000000000000000000000000000000000000000000000000000000002990000000000000000000000000000000000000000000000000000010000000000000          0002005351768700000000000000000000000000000000000000000199
1022395731500012730470000705209000000                         00000085741703000000DM 00000000000000000000 010929041925-03                         281018000000000398075630470120000000000000000000000000000000000000000000000000000000000000000000000000000000000000003980000000000000000000000000000000000000000000000000000010000000000000          0000378445561100000000000000000000000000000000000000000200
1022395731500012730470000705209000000                         00000087529203000000DM 00000000000000000000 010929041939-03                         281018000000000299075630470120000000000000000000000000000000000000000000000000000000000000000000000000000000000000002990000000000000000000000000000000000000000000000000000010000000000000          0000556770269800000000000000000000000000000000000000000201
1022395731500012730470000705209000000                         00000092244002000000DM 00000000000000000000 010929041931-02                         301018000000000299075630470120000000000000000000000000000000000000000000000000000000000000000000000000000000000000002990000000000000000000000000000000000000000000000000000010000000000000          0009194256063000000000000000000000000000000000000000000202
1022395731500012730470000705209000000                         00000093144702000000DM 00000000000000000000 010929041955-02                         301018000000000299075630470120000000000000000000000000000000000000000000000000000000000000000000000000000000000000002990000000000000000000000000000000000000000000000000000010000000000000          0000275984060300000000000000000000000000000000000000000203
1022395731500012730470000705209000000                         00000094742202000000DM 00000000000000000000 010929041922-02                         301018000000000596075630470120000000000000000000000000000000000000000000000000000000000000000000000000000000000000005960000000000000000000000000000000000000000000000000000010000000000000          0000879551569000000000000000000000000000000000000000000204
1022395731500012730470000705209000000                         00000089276102000000DM 00000000000000000000 010929041927-02                         281018000000000299075630470120000000000000000000000000000000000000000000000000000000000000000000000000000000000000002990000000000000000000000000000000000000000000000000000010000000000000          0001114720968500000000000000000000000000000000000000000205
1022395731500012730470000705209000000                         00000094224002000000DM 00000000000000000000 01092904194-02                          301018000000000299075630470120000000000000000000000000000000000000000000000000000000000000000000000000000000000000002990000000000000000000000000000000000000000000000000000010000000000000          0000325518963200000000000000000000000000000000000000000206
1022395731500012730470000705209000000                         00000093654008000000DM 00000000000000000000 010629041903-08                         300419000000000299075630470123004190000110000000000000000000000000000000000000000000000000000000000000000000000000002990000000000000000000000000000000000000000000000000000010000000000000          0003087845469100000000000000000000000000000000000000000207
1022395731500012730470000705209000000                         00000099428907000000DM 00000000000000000000 010629041923-07                         150419000000000299010432340123004190000135000000000000000000000000000000000000000000000000000000000000000000000000003062000000000007200000000000000000000000000000000000000010000000000000          0003079108167200000000000000000000000000000000000000000208
1022395731500012730470000705209000000                         00000094965509000000DM 00000000000000000000 010629041933-09                         050519000000000497010431480123004190000135000000000000000000000000000000000000000000000000000000000000000000000000004970000000000000000000000000000000000000000000000000000010000000000000          0004570325661500000000000000000000000000000000000000000209
1022395731500012730470000705209000000                         00000096368402000000DM 00000000000000000000 010929041903-02                         281018000000000299075630470120000000000000000000000000000000000000000000000000000000000000000000000000000000000000002990000000000000000000000000000000000000000000000000000010000000000000          0000071185577300000000000000000000000000000000000000000210
1022395731500012730470000705209000000                         00000104244601000000DM 00000000000000000000 010929041920-01                         301018000000000398075630470120000000000000000000000000000000000000000000000000000000000000000000000000000000000000003980000000000000000000000000000000000000000000000000000010000000000000          0006528118779100000000000000000000000000000000000000000211
1022395731500012730470000705209000000                         00000115557306000000DM 00000000000000000000 010629041902-06                         010519000000000299075630470123004190000110000000000000000000000000000000000000000000000000000000000000000000000000002990000000000000000000000000000000000000000000000000000010000000000000          0005885467366800000000000000000000000000000000000000000212
1022395731500012730470000705209000000                         00000122173405000000DM 00000000000000000000 010629041902-05                         230419000000000299075630470123004190000110000000000000000000000000000000000000000000000000000000000000000000000000003108000000000011800000000000000000000000000000000000000010000000000000          0000068942869300000000000000000000000000000000000000000213
1022395731500012730470000705209000000                         00000133255004000000DM 00000000000000000000 010629041927-04                         010519000000000299010416420993004190000135000000000000000000000000000000000000000000000000000000000000000000000000002990000000000000000000000000000000000000000000000000000010000000000000          0000664389660600000000000000000000000000000000000000000214
1022395731500012730470000705209000000                         00000138849104000000DM 00000000000000000000 010629041928-04                         100519000000000398010431480993004190000135000000000000000000000000000000000000000000000000000000000000000000000000003980000000000000000000000000000000000000000000000000000010000000000000          0007051216767200000000000000000000000000000000000000000215
1022395731500012730470000705209000000                         00000138895002000000DM 00000000000000000000 010629041970-02                         200419000000000299023734600123004190000135000000000000000000000000000000000000000000000000000000000000000000000000003138000000000014800000000000000000000000000000000000000010000000000000          0000269540164700000000000000000000000000000000000000000216
1022395731500012730470000705209000000                         00000144005402000000DM 00000000000000000000 010629041902-02                         270419000000000299010432340123004190000135000000000000000000000000000000000000000000000000000000000000000000000000002990000000000000000000000000000000000000000000000000000010000000000000          0000771531060300000000000000000000000000000000000000000217
1022395731500012730470000705209000000                         00000162672501000000DM 00000000000000000000 01062904193258-01                       060519000000000596010431480123004190000135000000000000000000000000000000000000000000000000000000000000000000000000005960000000000000000000000000000000000000000000000000000010000000000000          0009264519467200000000000000000000000000000000000000000218
1022395731500012730470000705209000000                         00000148707803000000DM 00000000000000000000 011029041941-03                         190619000000000299075630470120000000000070000000000000000000000000000000000000000000000000000000000000000000000000002990000000000000000000000000000000000000000000000000000010000000000000          0008409112663400000000000000000000000000000000000000000219
1022395731500012730470000705209000000                         00000163588005000000DM 00000000000000000000 011029041978-05                         100919000000000299075630470120000000000070000000000000000000000000000000000000000000000000000000000000000000000000002990000000000000000000000000000000000000000000000000000010000000000000          0000318003562500000000000000000000000000000000000000000220
1022395731500012730470000705209000000                         00000163591208000000DM 00000000000000000000 011029041978-08                         101219000000000299075630470120000000000070000000000000000000000000000000000000000000000000000000000000000000000000002990000000000000000000000000000000000000000000000000000010000000000000          0000318003562500000000000000000000000000000000000000000221
1022395731500012730470000705209000000                         00000163594411000000DM 00000000000000000000 011029041978-11                         100320000000000299075630470120000000000070000000000000000000000000000000000000000000000000000000000000000000000000002990000000000000000000000000000000000000000000000000000010000000000000          0000318003562500000000000000000000000000000000000000000222
1022395731500012730470000705209000000                         00000032239912000000DM 00000000000000000000 010929041921-12                         281018000000000497075630470990000000000000000000000000000000000000000000000000000000000000000000000000000000000000004970000000000000000000000000000000000000000000000000000010000000000000          0000454736860000000000000000000000000000000000000000000223
1022395731500012730470000705209000000                         00000033304212000000DM 00000000000000000000 010929041905-12                         301018000000000596075630470120000000000000000000000000000000000000000000000000000000000000000000000000000000000000005960000000000000000000000000000000000000000000000000000010000000000000          0003053525569100000000000000000000000000000000000000000224
1022395731500012730470000705209000000                         00000038090611000000DM 00000000000000000000 010929041906-11                         301018000000000299075630470120000000000000000000000000000000000000000000000000000000000000000000000000000000000000002990000000000000000000000000000000000000000000000000000010000000000000          0001073376761300000000000000000000000000000000000000000225
1022395731500012730470000705209000000                         00000042263311000000DM 00000000000000000000 010929041920-11                         281018000000000497075630470990000000000000000000000000000000000000000000000000000000000000000000000000000000000000004970000000000000000000000000000000000000000000000000000010000000000000          0008126855665300000000000000000000000000000000000000000226
1022395731500012730470000705209000000                         00000042922410000000DM 00000000000000000000 010929041903-10                         301018000000000398075630470990000000000000000000000000000000000000000000000000000000000000000000000000000000000000003980000000000000000000000000000000000000000000000000000010000000000000          0005853264168700000000000000000000000000000000000000000227
1022395731500012730470000705209000000                         00000042994410000000DM 00000000000000000000 010929041909-10                         301018000000000497075630470990000000000000000000000000000000000000000000000000000000000000000000000000000000000000004970000000000000000000000000000000000000000000000000000010000000000000          0001436643660400000000000000000000000000000000000000000228
1022395731500012730470000705209000000                         00000047763809000000DM 00000000000000000000 010929041911-09                         281018000000000299075630470990000000000000000000000000000000000000000000000000000000000000000000000000000000000000002990000000000000000000000000000000000000000000000000000010000000000000          0001134455763500000000000000000000000000000000000000000229
1022395731500012730470000705209000000                         00000047824210000000DM 00000000000000000000 010929041922-10                         281018000000004754075630470990000000000000000000000000000000000000000000000000000000000000000000000000000000000000047540000000000000000000000000000000000000000000000000000010000000000000          2145714300010500000000000000000000000000000000000000000230
1022395731500012730470000705209000000                         00000052317309000000DM 00000000000000000000 01092904198-09                          281018000000000398075630470990000000000000000000000000000000000000000000000000000000000000000000000000000000000000003980000000000000000000000000000000000000000000000000000010000000000000          0000977625265600000000000000000000000000000000000000000231
1022395731500012730470000705209000000                         00000052965808000000DM 00000000000000000000 01092904198-08                          301018000000000497075630470990000000000000000000000000000000000000000000000000000000000000000000000000000000000000004970000000000000000000000000000000000000000000000000000010000000000000          0007206860460400000000000000000000000000000000000000000232
1022395731500012730470000705209000000                         00000060255007000000DM 00000000000000000000 010929041903-07                         281018000000000695075630470120000000000000000000000000000000000000000000000000000000000000000000000000000000000000006950000000000000000000000000000000000000000000000000000010000000000000          0001273260260400000000000000000000000000000000000000000233
1022395731500012730470000705209000000                         00000066901006000000DM 00000000000000000000 010929041920-06                         301018000000000497075630470120000000000000000000000000000000000000000000000000000000000000000000000000000000000000004970000000000000000000000000000000000000000000000000000010000000000000          0000314718966000000000000000000000000000000000000000000234
1022395731500012730470000705209000000                         00000074680605000000DM 00000000000000000000 010929041905-05                         301018000000000497075630470120000000000000000000000000000000000000000000000000000000000000000000000000000000000000004970000000000000000000000000000000000000000000000000000010000000000000          0000891824561000000000000000000000000000000000000000000235
1022395731500012730470000705209000000                         00000075346911000000DM 00000000000000000000 010629041901-11                         100519000000000299010432340123004190000135000000000000000000000000000000000000000000000000000000000000000000000000002990000000000000000000000000000000000000000000000000000010000000000000          0000063133164600000000000000000000000000000000000000000236
1022395731500012730470000705209000000                         00000081589010000000DM 00000000000000000000 010629041903-10                         280419000000000299000111540123004190000135000000000000000000000000000000000000000000000000000000000000000000000000002990000000000000000000000000000000000000000000000000000010000000000000          0000033586160100000000000000000000000000000000000000000237
1022395731500012730470000705209000000                         00000089227002000000DM 00000000000000000000 010929041918-02                         301018000000000299075630470120000000000000000000000000000000000000000000000000000000000000000000000000000000000000002990000000000000000000000000000000000000000000000000000010000000000000          0000771474369700000000000000000000000000000000000000000238
1022395731500012730470000705209000000                         00000095535602000000DM 00000000000000000000 010929041949-02                         301018000000000497075630470120000000000000000000000000000000000000000000000000000000000000000000000000000000000000004970000000000000000000000000000000000000000000000000000010000000000000          0007354148660000000000000000000000000000000000000000000239
1022395731500012730470000705209000000                         00000095366002000000DM 00000000000000000000 010929041937-02                         301018000000000497075630470120000000000000000000000000000000000000000000000000000000000000000000000000000000000000004970000000000000000000000000000000000000000000000000000010000000000000          0000808561065500000000000000000000000000000000000000000240
1022395731500012730470000705209000000                         00000095463002000000DM 00000000000000000000 010929041943-02                         301018000000000299075630470120000000000000000000000000000000000000000000000000000000000000000000000000000000000000002990000000000000000000000000000000000000000000000000000010000000000000          0005763884566800000000000000000000000000000000000000000241
1022395731500012730470000705209000000                         00000097958002000000DM 00000000000000000000 010929041920-02                         301018000000000299075630470120000000000000000000000000000000000000000000000000000000000000000000000000000000000000002990000000000000000000000000000000000000000000000000000010000000000000          0004726271067200000000000000000000000000000000000000000242
1022395731500012730470000705209000000                         00000100688001000000DM 00000000000000000000 010929041973-01                         291018000000000299075630470120000000000000000000000000000000000000000000000000000000000000000000000000000000000000002990000000000000000000000000000000000000000000000000000010000000000000          0007754750066800000000000000000000000000000000000000000243
1022395731500012730470000705209000000                         00000108822107000000DM 00000000000000000000 010629041946-07                         270419000000000299023769800123004190000135000000000000000000000000000000000000000000000000000000000000000000000000002990000000000000000000000000000000000000000000000000000010000000000000          0003823594370000000000000000000000000000000000000000000244
1022395731500012730470000705209000000                         00000112241306000000DM 00000000000000000000 010629041910-06                         010519000000000398010431480123004190000135000000000000000000000000000000000000000000000000000000000000000000000000003980000000000000000000000000000000000000000000000000000010000000000000          0000339792167800000000000000000000000000000000000000000245
1022395731500012730470000705209000000                         00000140586303000000DM 00000000000000000000 01062904192-03                          280419000000000299010431480123004190000135000000000000000000000000000000000000000000000000000000000000000000000000002990000000000000000000000000000000000000000000000000000010000000000000          0007593865061500000000000000000000000000000000000000000246
1022395731500012730470000705209000000                         00000148706002000000DM 00000000000000000000 011029041941-02                         190519000000000299075630470120000000000070000000000000000000000000000000000000000000000000000000000000000000000000002990000000000000000000000000000000000000000000000000000010000000000000          0008409112663400000000000000000000000000000000000000000247
1022395731500012730470000705209000000                         00000148709205000000DM 00000000000000000000 011029041941-05                         190819000000000299075630470120000000000070000000000000000000000000000000000000000000000000000000000000000000000000002990000000000000000000000000000000000000000000000000000010000000000000          0008409112663400000000000000000000000000000000000000000248
1022395731500012730470000705209000000                         00000148711807000000DM 00000000000000000000 011029041941-07                         191019000000000299075630470120000000000070000000000000000000000000000000000000000000000000000000000000000000000000002990000000000000000000000000000000000000000000000000000010000000000000          0008409112663400000000000000000000000000000000000000000249
