02RETORNO01COBRANÇA       30470000314811705209PROMEDICO PLANO ASSISTENCIAL A756 - BANCOOB S/A 2910190000450                                                                                                                                                                                                                                                                                               000001
1022395731500012730470000705209000000                         00000071751711000000DM 00000000000000000000 010928101924-11                         280419000000000695075630470120000000000000000000000000000000000000000000000000000000000000000000000000000000000000006950000000000000000000000000000000000000000000000000000010000000000000          0000335985360100000000000000000000000000000000000000000002
1022395731500012730470000705209000000                         00000066655212000000DM 00000000000000000000 010928101914-12                         300419000000000299075630470120000000000000000000000000000000000000000000000000000000000000000000000000000000000000002990000000000000000000000000000000000000000000000000000010000000000000          0001172772363500000000000000000000000000000000000000000003
1022395731500012730470000705209000000                         00000074082011000000DM 00000000000000000000 01092810198-11                          300419000000000398075630470120000000000000000000000000000000000000000000000000000000000000000000000000000000000000003980000000000000000000000000000000000000000000000000000010000000000000          0000530666065700000000000000000000000000000000000000000004
1022395731500012730470000705209000000                         00000062211512000000DM 00000000000000000000 010928101913-12                         300419000000000299075630470120000000000000000000000000000000000000000000000000000000000000000000000000000000000000002990000000000000000000000000000000000000000000000000000010000000000000          0000448374862900000000000000000000000000000000000000000005
1022395731500012730470000705209000000                         00000073371511000000DM 00000000000000000000 010928101914-11                         300419000000000596075630470120000000000000000000000000000000000000000000000000000000000000000000000000000000000000005960000000000000000000000000000000000000000000000000000010000000000000          0000276005260500000000000000000000000000000000000000000006
1022395731500012730470000705209000000                         00000073479511000000DM 00000000000000000000 01092810194-11                          280419000000000299075630470120000000000000000000000000000000000000000000000000000000000000000000000000000000000000002990000000000000000000000000000000000000000000000000000010000000000000          0001255864362200000000000000000000000000000000000000000007
1022395731500012730470000705209000000                         00000073491411000000DM 00000000000000000000 01092810198-11                          300419000000000299075630470120000000000000000000000000000000000000000000000000000000000000000000000000000000000000002990000000000000000000000000000000000000000000000000000010000000000000          0005402706360000000000000000000000000000000000000000000008
1022395731500012730470000705209000000                         00000080171110000000DM 00000000000000000000 01092810198-10                          300419000000000299075630470120000000000000000000000000000000000000000000000000000000000000000000000000000000000000002990000000000000000000000000000000000000000000000000000010000000000000          0001004996160800000000000000000000000000000000000000000009
1022395731500012730470000705209000000                         00000089282608000000DM 00000000000000000000 010928101927-08                         280419000000000299075630470120000000000000000000000000000000000000000000000000000000000000000000000000000000000000002990000000000000000000000000000000000000000000000000000010000000000000          0001114720968500000000000000000000000000000000000000000010
1022395731500012730470000705209000000                         00000087559309000000DM 00000000000000000000 010928101941-09                         280419000000000299075630470120000000000000000000000000000000000000000000000000000000000000000000000000000000000000002990000000000000000000000000000000000000000000000000000010000000000000          0006432375762000000000000000000000000000000000000000000011
1022395731500012730470000705209000000                         00000093150108000000DM 00000000000000000000 010928101955-08                         300419000000000299075630470120000000000000000000000000000000000000000000000000000000000000000000000000000000000000002990000000000000000000000000000000000000000000000000000010000000000000          0000275984060300000000000000000000000000000000000000000012
1022395731500012730470000705209000000                         00000093355109000000DM 00000000000000000000 010928101974-09                         300419000000000299075630470120000000000000000000000000000000000000000000000000000000000000000000000000000000000000002990000000000000000000000000000000000000000000000000000010000000000000          0001168633664000000000000000000000000000000000000000000013
1022395731500012730470000705209000000                         00000093367009000000DM 00000000000000000000 010928101977-09                         300419000000000299075630470120000000000000000000000000000000000000000000000000000000000000000000000000000000000000002990000000000000000000000000000000000000000000000000000010000000000000          0000166317462800000000000000000000000000000000000000000014
1022395731500012730470000705209000000                         00000093379809000000DM 00000000000000000000 010928101978-09                         300419000000000299075630470120000000000000000000000000000000000000000000000000000000000000000000000000000000000000002990000000000000000000000000000000000000000000000000000010000000000000          0000468841865500000000000000000000000000000000000000000015
1022395731500012730470000705209000000                         00000096338308000000DM 00000000000000000000 010928101920-08                         280419000000000497075630470120000000000000000000000000000000000000000000000000000000000000000000000000000000000000004970000000000000000000000000000000000000000000000000000010000000000000          0001008581968900000000000000000000000000000000000000000016
1022395731500012730470000705209000000                         00000096374908000000DM 00000000000000000000 010928101903-08                         280419000000000299075630470120000000000000000000000000000000000000000000000000000000000000000000000000000000000000002990000000000000000000000000000000000000000000000000000010000000000000          0000071185577300000000000000000000000000000000000000000017
1022395731500012730470000705209000000                         00000100694507000000DM 00000000000000000000 010928101973-07                         290419000000000299075630470120000000000000000000000000000000000000000000000000000000000000000000000000000000000000002990000000000000000000000000000000000000000000000000000010000000000000          0007754750066800000000000000000000000000000000000000000018
1022395731500012730470000705209000000                         00000109025806000000DM 00000000000000000000 010928101923-06                         280419000000000299075630470120000000000000000000000000000000000000000000000000000000000000000000000000000000000000002990000000000000000000000000000000000000000000000000000010000000000000          0003376288887600000000000000000000000000000000000000000019
1022395731500012730470000705209000000                         00000108359412000000DM 00000000000000000000 011028101928-12                         151019000000000497075630470120000000000070000000000000000000000000000000000000000000000000000000000000000000000000004970000000000000000000000000000000000000000000000000000010000000000000          0000025189964000000000000000000000000000000000000000000020
1022395731500012730470000705209000000                         00000113249006000000DM 00000000000000000000 010928101933-06                         300419000000000299075630470120000000000000000000000000000000000000000000000000000000000000000000000000000000000000002990000000000000000000000000000000000000000000000000000010000000000000          0000447437267000000000000000000000000000000000000000000021
1022395731500012730470000705209000000                         00000114354906000000DM 00000000000000000000 010928101907-06                         300419000000000497075630470120000000000000000000000000000000000000000000000000000000000000000000000000000000000000004970000000000000000000000000000000000000000000000000000010000000000000          0004662538068700000000000000000000000000000000000000000022
1022395731500012730470000705209000000                         00000119024806000000DM 00000000000000000000 010928101932-06                         300419000000000299075630470120000000000000000000000000000000000000000000000000000000000000000000000000000000000000002990000000000000000000000000000000000000000000000000000010000000000000          0000444603280100000000000000000000000000000000000000000023
1022395731500012730470000705209000000                         00000118084012000000DM 00000000000000000000 010628101923-12                         201119000000000299000110770122910190000135000000000000000000000000000000000000000000000000000000000000000000000000002990000000000000000000000000000000000000000000000000000010000000000000          0000757994369700000000000000000000000000000000000000000024
1022395731500012730470000705209000000                         00000124237905000000DM 00000000000000000000 010928101937-05                         280419000000000299075630470120000000000000000000000000000000000000000000000000000000000000000000000000000000000000002990000000000000000000000000000000000000000000000000000010000000000000          0001330200560100000000000000000000000000000000000000000025
1022395731500012730470000705209000000                         00000118557005000000DM 00000000000000000000 010928101955-05                         280419000000000299075630470120000000000000000000000000000000000000000000000000000000000000000000000000000000000000002990000000000000000000000000000000000000000000000000000010000000000000          0000833148168200000000000000000000000000000000000000000026
1022395731500012730470000705209000000                         00000121498405000000DM 00000000000000000000 01092810194-05                          300419000000000299075630470120000000000000000000000000000000000000000000000000000000000000000000000000000000000000002990000000000000000000000000000000000000000000000000000010000000000000          0001320524362500000000000000000000000000000000000000000027
1022395731500012730470000705209000000                         00000124944304000000DM 00000000000000000000 010928101980-04                         280419000000000299075630470120000000000000000000000000000000000000000000000000000000000000000000000000000000000000002990000000000000000000000000000000000000000000000000000010000000000000          0000472767461000000000000000000000000000000000000000000028
1022395731500012730470000705209000000                         00000125028804000000DM 00000000000000000000 010928101997-04                         300419000000000299075630470120000000000000000000000000000000000000000000000000000000000000000000000000000000000000002990000000000000000000000000000000000000000000000000000010000000000000          0000576322768900000000000000000000000000000000000000000029
1022395731500012730470000705209000000                         00000122089005000000DM 00000000000000000000 010928101901-05                         300419000000000398075630470120000000000000000000000000000000000000000000000000000000000000000000000000000000000000003980000000000000000000000000000000000000000000000000000010000000000000          0000309430054500000000000000000000000000000000000000000030
1022395731500012730470000705209000000                         00000125664404000000DM 00000000000000000000 010928101950-04                         300419000000000299075630470120000000000000000000000000000000000000000000000000000000000000000000000000000000000000002990000000000000000000000000000000000000000000000000000010000000000000          0001068252286400000000000000000000000000000000000000000031
1022395731500012730470000705209000000                         00000122005105000000DM 00000000000000000000 010928101907-05                         300419000000000299075630470120000000000000000000000000000000000000000000000000000000000000000000000000000000000000002990000000000000000000000000000000000000000000000000000010000000000000          0000693574968900000000000000000000000000000000000000000032
1022395731500012730470000705209000000                         00000124165305000000DM 00000000000000000000 010928101931-05                         280419000000000398075630470120000000000000000000000000000000000000000000000000000000000000000000000000000000000000003980000000000000000000000000000000000000000000000000000010000000000000          0000346505461000000000000000000000000000000000000000000033
1022395731500012730470000705209000000                         00000126997105000000DM 00000000000000000000 010928101944-05                         290419000000000299075630470120000000000000000000000000000000000000000000000000000000000000000000000000000000000000002990000000000000000000000000000000000000000000000000000010000000000000          0001043563563800000000000000000000000000000000000000000034
1022395731500012730470000705209000000                         00000134899304000000DM 00000000000000000000 010928101925-04                         300419000000000398075630470990000000000000000000000000000000000000000000000000000000000000000000000000000000000000003980000000000000000000000000000000000000000000000000000010000000000000          0000398725560900000000000000000000000000000000000000000035
1022395731500012730470000705209000000                         00000142181802000000DM 00000000000000000000 010928101904-02                         280419000000000299075630470120000000000000000000000000000000000000000000000000000000000000000000000000000000000000002990000000000000000000000000000000000000000000000000000010000000000000          0001169239668400000000000000000000000000000000000000000036
1022395731500012730470000705209000000                         00000141642003000000DM 00000000000000000000 010928101904-03                         280419000000000299075630470120000000000000000000000000000000000000000000000000000000000000000000000000000000000000002990000000000000000000000000000000000000000000000000000010000000000000          0007037928968700000000000000000000000000000000000000000037
1022395731500012730470000705209000000                         00000144555102000000DM 00000000000000000000 010928101918-02                         300419000000000596075630470120000000000000000000000000000000000000000000000000000000000000000000000000000000000000005960000000000000000000000000000000000000000000000000000010000000000000          0000451299760100000000000000000000000000000000000000000038
1022395731500012730470000705209000000                         00000146498402000000DM 00000000000000000000 010928101904-02                         300419000000000497075630470120000000000000000000000000000000000000000000000000000000000000000000000000000000000000004970000000000000000000000000000000000000000000000000000010000000000000          0007206860460400000000000000000000000000000000000000000039
1022395731500012730470000705209000000                         00000148861801000000DM 00000000000000000000 010928101950-01                         300419000000000299075630470120000000000000000000000000000000000000000000000000000000000000000000000000000000000000002990000000000000000000000000000000000000000000000000000010000000000000          0000130013560300000000000000000000000000000000000000000040
1022395731500012730470000705209000000                         00000148087407000000DM 00000000000000000000 010628101960-07                         251019000000000299000111540122910190000135000000000000000000000000000000000000000000000000000000000000000000000000003078000000000008800000000000000000000000000000000000000010000000000000          0002906048666800000000000000000000000000000000000000000041
1022395731500012730470000705209000000                         00000149795507000000DM 00000000000000000000 01062810197967-07                       101019000000000299075641050122910190000135000000000000000000000000000000000000000000000000000000000000000000000000003228000000000023800000000000000000000000000000000000000010000000000000          0000640879160300000000000000000000000000000000000000000042
1022395731500012730470000705209000000                         00000153229206000000DM 00000000000000000000 01062810193052-06                       300919000000000398010423320012910190000135000000000000000000000000000000000000000000000000000000000000000000000000004430000000000045000000000000000000000000000000000000000010000000000000          0002434821065900000000000000000000000000000000000000000043
1022395731500012730470000705209000000                         00000155673201000000DM 00000000000000000000 0109281019GR13-01                       300419000000000497075630470010000000000000000000000000000000000000000000000000000000000000000000000000000000000000004970000000000000000000000000000000000000000000000000000010000000000000          0000578395460800000000000000000000000000000000000000000044
1022395731500012730470000705209000000                         00000156508008000000DM 00000000000000000000 01062810193096-08                       201119000000000299010423320122910190000135000000000000000000000000000000000000000000000000000000000000000000000000002990000000000000000000000000000000000000000000000000000010000000000000          0000158252160300000000000000000000000000000000000000000045
1022395731500012730470000705209000000                         00000159339207000000DM 00000000000000000000 0106281019GR46-07                       151119000000000398010401180012910190000135000000000000000000000000000000000000000000000000000000000000000000000000003980000000000000000000000000000000000000000000000000000010000000000000          0000335690360800000000000000000000000000000000000000000046
1022395731500012730470000705209000000                         00000170896406000000DM 00000000000000000000 01062810193702-06                       301019000000000299023706600122910190000135000000000000000000000000000000000000000000000000000000000000000000000000002990000000000000000000000000000000000000000000000000000010000000000000          0002896015760000000000000000000000000000000000000000000047
1022395731500012730470000705209000000                         00000162108401000000DM 00000000000000000000 01092810197879-01                       300419000000000299075630470010000000000000000000000000000000000000000000000000000000000000000000000000000000000000002990000000000000000000000000000000000000000000000000000010000000000000          0006156461361500000000000000000000000000000000000000000048
1022395731500012730470000705209000000                         00000171975005000000DM 00000000000000000000 0110281019GR75-05                       151019000000000398075630470010000000000070000000000000000000000000000000000000000000000000000000000000000000000000003980000000000000000000000000000000000000000000000000000010000000000000          0000927224763200000000000000000000000000000000000000000049
1022395731500012730470000705209000000                         00000062910012000000DM 00000000000000000000 010928101927-12                         280419000000000398075630470120000000000000000000000000000000000000000000000000000000000000000000000000000000000000003980000000000000000000000000000000000000000000000000000010000000000000          0000423811177000000000000000000000000000000000000000000050
1022395731500012730470000705209000000                         00000065234112000000DM 00000000000000000000 010928101916-12                         300419000000000596075630470120000000000000000000000000000000000000000000000000000000000000000000000000000000000000005960000000000000000000000000000000000000000000000000000010000000000000          0000931361060400000000000000000000000000000000000000000051
1022395731500012730470000705209000000                         00000066427212000000DM 00000000000000000000 010928101910-12                         300419000000000596075630470120000000000000000000000000000000000000000000000000000000000000000000000000000000000000005960000000000000000000000000000000000000000000000000000010000000000000          0006251543868700000000000000000000000000000000000000000052
1022395731500012730470000705209000000                         00000074250811000000DM 00000000000000000000 010928101903-11                         290419000000000299075630470120000000000000000000000000000000000000000000000000000000000000000000000000000000000000002990000000000000000000000000000000000000000000000000000010000000000000          0005616026760400000000000000000000000000000000000000000053
1022395731500012730470000705209000000                         00000086289011000000DM 00000000000000000000 011028101910-11                         100619000000000596075630470120000000000070000000000000000000000000000000000000000000000000000000000000000000000000005960000000000000000000000000000000000000000000000000000010000000000000          0008364539060000000000000000000000000000000000000000000054
1022395731500012730470000705209000000                         00000089257108000000DM 00000000000000000000 010928101923-08                         300419000000000299075630470120000000000000000000000000000000000000000000000000000000000000000000000000000000000000002990000000000000000000000000000000000000000000000000000010000000000000          0000822921367400000000000000000000000000000000000000000055
1022395731500012730470000705209000000                         00000085915909000000DM 00000000000000000000 010928101918-09                         300419000000000299075630470120000000000000000000000000000000000000000000000000000000000000000000000000000000000000002990000000000000000000000000000000000000000000000000000010000000000000          0006151954564900000000000000000000000000000000000000000056
1022395731500012730470000705209000000                         00000093066708000000DM 00000000000000000000 010928101944-08                         300419000000000299075630470120000000000000000000000000000000000000000000000000000000000000000000000000000000000000002990000000000000000000000000000000000000000000000000000010000000000000          0000256905967600000000000000000000000000000000000000000057
1022395731500012730470000705209000000                         00000094736808000000DM 00000000000000000000 010928101921-08                         300419000000000299075630470120000000000000000000000000000000000000000000000000000000000000000000000000000000000000002990000000000000000000000000000000000000000000000000000010000000000000          0005952484760400000000000000000000000000000000000000000058
1022395731500012730470000705209000000                         00000095889908000000DM 00000000000000000000 01092810192-08                          300419000000000398075630470120000000000000000000000000000000000000000000000000000000000000000000000000000000000000003980000000000000000000000000000000000000000000000000000010000000000000          0008755244262000000000000000000000000000000000000000000059
1022395731500012730470000705209000000                         00000097616607000000DM 00000000000000000000 010928101924-07                         300419000000000299075630470120000000000000000000000000000000000000000000000000000000000000000000000000000000000000002990000000000000000000000000000000000000000000000000000010000000000000          0001163233463100000000000000000000000000000000000000000060
1022395731500012730470000705209000000                         00000093139009000000DM 00000000000000000000 010928101955-09                         300419000000000299075630470120000000000000000000000000000000000000000000000000000000000000000000000000000000000000002990000000000000000000000000000000000000000000000000000010000000000000          0000897479661900000000000000000000000000000000000000000061
1022395731500012730470000705209000000                         00000093163709000000DM 00000000000000000000 010928101956-09                         300419000000000299075630470120000000000000000000000000000000000000000000000000000000000000000000000000000000000000002990000000000000000000000000000000000000000000000000000010000000000000          0000536283265400000000000000000000000000000000000000000062
1022395731500012730470000705209000000                         00000094230508000000DM 00000000000000000000 01092810194-08                          300419000000000299075630470120000000000000000000000000000000000000000000000000000000000000000000000000000000000000002990000000000000000000000000000000000000000000000000000010000000000000          0000325518963200000000000000000000000000000000000000000063
1022395731500012730470000705209000000                         00000099627508000000DM 00000000000000000000 010928101928-08                         300419000000001388075630470120000000000000000000000000000000000000000000000000000000000000000000000000000000000000013880000000000000000000000000000000000000000000000000000010000000000000          2495333400014800000000000000000000000000000000000000000064
1022395731500012730470000705209000000                         00000106494607000000DM 00000000000000000000 010928101969-07                         300419000000000299075630470120000000000000000000000000000000000000000000000000000000000000000000000000000000000000002990000000000000000000000000000000000000000000000000000010000000000000          0006666137469100000000000000000000000000000000000000000065
1022395731500012730470000705209000000                         00000100646107000000DM 00000000000000000000 010928101970-07                         300419000000000299075630470120000000000000000000000000000000000000000000000000000000000000000000000000000000000000002990000000000000000000000000000000000000000000000000000010000000000000          0009338280462000000000000000000000000000000000000000000066
1022395731500012730470000705209000000                         00000100658007000000DM 00000000000000000000 010928101971-07                         290419000000000299075630470120000000000000000000000000000000000000000000000000000000000000000000000000000000000000002990000000000000000000000000000000000000000000000000000010000000000000          0001065274262900000000000000000000000000000000000000000067
1022395731500012730470000705209000000                         00000104250007000000DM 00000000000000000000 010928101920-07                         300419000000000398075630470120000000000000000000000000000000000000000000000000000000000000000000000000000000000000003980000000000000000000000000000000000000000000000000000010000000000000          0006528118779100000000000000000000000000000000000000000068
1022395731500012730470000705209000000                         00000111269006000000DM 00000000000000000000 010928101931-06                         300419000000000299075630470120000000000000000000000000000000000000000000000000000000000000000000000000000000000000002990000000000000000000000000000000000000000000000000000010000000000000          0000973025964000000000000000000000000000000000000000000069
1022395731500012730470000705209000000                         00000110141306000000DM 00000000000000000000 010928101931-06                         300419000000000398075630470120000000000000000000000000000000000000000000000000000000000000000000000000000000000000003980000000000000000000000000000000000000000000000000000010000000000000          0001131268261200000000000000000000000000000000000000000070
1022395731500012730470000705209000000                         00000115257806000000DM 00000000000000000000 01092810194-06                          300419000000000398075630470120000000000000000000000000000000000000000000000000000000000000000000000000000000000000003980000000000000000000000000000000000000000000000000000010000000000000          0007884741962000000000000000000000000000000000000000000071
1022395731500012730470000705209000000                         00000112829506000000DM 00000000000000000000 010928101931-06                         300419000000000398075630470120000000000000000000000000000000000000000000000000000000000000000000000000000000000000003980000000000000000000000000000000000000000000000000000010000000000000          0000455557861900000000000000000000000000000000000000000072
1022395731500012730470000705209000000                         00000111533006000000DM 00000000000000000000 010928101990-06                         280419000000000497075630470120000000000000000000000000000000000000000000000000000000000000000000000000000000000000004970000000000000000000000000000000000000000000000000000010000000000000          0000536484066200000000000000000000000000000000000000000073
1022395731500012730470000705209000000                         00000114270506000000DM 00000000000000000000 010928101907-06                         300419000000000299075630470120000000000000000000000000000000000000000000000000000000000000000000000000000000000000002990000000000000000000000000000000000000000000000000000010000000000000          0000880581867400000000000000000000000000000000000000000074
1022395731500012730470000705209000000                         00000118365605000000DM 00000000000000000000 010928101939-05                         300419000000000299075630470120000000000000000000000000000000000000000000000000000000000000000000000000000000000000002990000000000000000000000000000000000000000000000000000010000000000000          0001000034763900000000000000000000000000000000000000000075
1022395731500012730470000705209000000                         00000114426406000000DM 00000000000000000000 010928101925-06                         300419000000000695075630470120000000000000000000000000000000000000000000000000000000000000000000000000000000000000006950000000000000000000000000000000000000000000000000000010000000000000          0000912885165000000000000000000000000000000000000000000076
1022395731500012730470000705209000000                         00000120454111000000DM 00000000000000000000 011028101922-11                         151019000000000398075630470120000000000070000000000000000000000000000000000000000000000000000000000000000000000000003980000000000000000000000000000000000000000000000000000010000000000000          0000763540161000000000000000000000000000000000000000000077
1022395731500012730470000705209000000                         00000122641805000000DM 00000000000000000000 010928101938-05                         280419000000000398075630470120000000000000000000000000000000000000000000000000000000000000000000000000000000000000003980000000000000000000000000000000000000000000000000000010000000000000          0004335100060000000000000000000000000000000000000000000078
1022395731500012730470000705209000000                         00000123205405000000DM 00000000000000000000 010928101930-05                         300419000000000596075630470120000000000000000000000000000000000000000000000000000000000000000000000000000000000000005960000000000000000000000000000000000000000000000000000010000000000000          0002078694860400000000000000000000000000000000000000000079
1022395731500012730470000705209000000                         00000130440604000000DM 00000000000000000000 010928101920-04                         300419000000000299075630470120000000000000000000000000000000000000000000000000000000000000000000000000000000000000002990000000000000000000000000000000000000000000000000000010000000000000          0000833109561800000000000000000000000000000000000000000080
1022395731500012730470000705209000000                         00000132254304000000DM 00000000000000000000 010928101903-04                         300419000000000299075630470120000000000000000000000000000000000000000000000000000000000000000000000000000000000000002990000000000000000000000000000000000000000000000000000010000000000000          0000990242668900000000000000000000000000000000000000000081
1022395731500012730470000705209000000                         00000131155011000000DM 00000000000000000000 010628101920-11                         101119000000000596010423320992910190000135000000000000000000000000000000000000000000000000000000000000000000000000005960000000000000000000000000000000000000000000000000000010000000000000          0000282548963800000000000000000000000000000000000000000082
1022395731500012730470000705209000000                         00000146858702000000DM 00000000000000000000 010928101925-02                         280419000000000398075630470120000000000000000000000000000000000000000000000000000000000000000000000000000000000000003980000000000000000000000000000000000000000000000000000010000000000000          0000069221758400000000000000000000000000000000000000000083
1022395731500012730470000705209000000                         00000148124208000000DM 00000000000000000000 010628101963-08                         281119000000000299010414910122910190000135000000000000000000000000000000000000000000000000000000000000000000000000002990000000000000000000000000000000000000000000000000000010000000000000          0004638804462000000000000000000000000000000000000000000084
1022395731500012730470000705209000000                         00000149615407000000DM 00000000000000000000 01062810197949-07                       101019000000000398034131090122910190000135000000000000000000000000000000000000000000000000000000000000000000000000004297000000000031700000000000000000000000000000000000000010000000000000          0000315087161100000000000000000000000000000000000000000085
1022395731500012730470000705209000000                         00000148717101000000DM 00000000000000000000 010928101942-01                         300419000000000299075630470120000000000000000000000000000000000000000000000000000000000000000000000000000000000000002990000000000000000000000000000000000000000000000000000010000000000000          0000436432668200000000000000000000000000000000000000000086
1022395731500012730470000705209000000                         00000152352508000000DM 00000000000000000000 01062810197820 INC 01-08                201019000000000497010443920122910190000135000000000000000000000000000000000000000000000000000000000000000000000000005201000000000023100000000000000000000000000000000000000010000000000000          0000840105665900000000000000000000000000000000000000000087
1022395731500012730470000705209000000                         00000161657506000000DM 00000000000000000000 010628101946-06                         281019000000000299023769800122910190000135000000000000000000000000000000000000000000000000000000000000000000000000002990000000000000000000000000000000000000000000000000000010000000000000          0009884702381500000000000000000000000000000000000000000088
1022395731500012730470000705209000000                         00000161537606000000DM 00000000000000000000 010628101940-06                         301019000000000299010432340122910190000135000000000000000000000000000000000000000000000000000000000000000000000000002990000000000000000000000000000000000000000000000000000010000000000000          0001114883069300000000000000000000000000000000000000000089
1022395731500012730470000705209000000                         00000173036506000000DM 00000000000000000000 0106281019INC-06                        101019000000000398023738260122910190000135000000000000000000000000000000000000000000000000000000000000000000000000004297000000000031700000000000000000000000000000000000000010000000000000          0000351135561300000000000000000000000000000000000000000090
1022395731500012730470000705209000000                         00000181224007000000DM 00000000000000000000 01102810195236 - INC 01-07              251219000000000497075630470990000000000070000000000000000000000000000000000000000000000000000000000000000000000000004970000000000000000000000000000000000000000000000000000010000000000000          0000727899848400000000000000000000000000000000000000000091
1022395731500012730470000705209000000                         00000172684006000000DM 00000000000000000000 010628101901-06                         251019000000000299010432340122910190000135000000000000000000000000000000000000000000000000000000000000000000000000003078000000000008800000000000000000000000000000000000000010000000000000          0000824035666400000000000000000000000000000000000000000092
1022395731500012730470000705209000000                         00000182548005000000DM 00000000000000000000 0106281019GR116-05                      051119000000000398010431480012910190000135000000000000000000000000000000000000000000000000000000000000000000000000003980000000000000000000000000000000000000000000000000000010000000000000          0000287974960300000000000000000000000000000000000000000093
1022395731500012730470000705209000000                         00000188035005000000DM 00000000000000000000 010628101929-05                         201119000000000299010432340122910190000135000000000000000000000000000000000000000000000000000000000000000000000000002990000000000000000000000000000000000000000000000000000010000000000000          0000323757260800000000000000000000000000000000000000000094
1022395731500012730470000705209000000                         00000185467605000000DM 00000000000000000000 010628101937-66-05                      201019000000000299010431480012910190000135000000000000000000000000000000000000000000000000000000000000000000000000003128000000000013800000000000000000000000000000000000000010000000000000          0000629180962100000000000000000000000000000000000000000095
1022395731500012730470000705209000000                         00000191653803000000DM 00000000000000000000 0110281019GR164-03                      101019000000000596075630470010000000000070000000000000000000000000000000000000000000000000000000000000000000000000005960000000000000000000000000000000000000000000000000000010000000000000          0008364539060000000000000000000000000000000000000000000096
1022395731500012730470000705209000000                         00000082310410000000DM 00000000000000000000 010928101920-10                         280419000000000299075630470120000000000000000000000000000000000000000000000000000000000000000000000000000000000000002990000000000000000000000000000000000000000000000000000010000000000000          0004211355562000000000000000000000000000000000000000000097
1022395731500012730470000705209000000                         00000081817510000000DM 00000000000000000000 01092810198-10                          300419000000000299075630470120000000000000000000000000000000000000000000000000000000000000000000000000000000000000002990000000000000000000000000000000000000000000000000000010000000000000          0000274108569200000000000000000000000000000000000000000098
1022395731500012730470000705209000000                         00000085483009000000DM 00000000000000000000 010928101910-09                         300419000000000299075630470120000000000000000000000000000000000000000000000000000000000000000000000000000000000000002990000000000000000000000000000000000000000000000000000010000000000000          0000585061661600000000000000000000000000000000000000000099
1022395731500012730470000705209000000                         00000086290812000000DM 00000000000000000000 011028101910-12                         100719000000000596075630470120000000000070000000000000000000000000000000000000000000000000000000000000000000000000005960000000000000000000000000000000000000000000000000000010000000000000          0008364539060000000000000000000000000000000000000000000100
1022395731500012730470000705209000000                         00000089028409000000DM 00000000000000000000 010928101924-09                         280419000000000299075630470990000000000000000000000000000000000000000000000000000000000000000000000000000000000000002990000000000000000000000000000000000000000000000000000010000000000000          0000432162968300000000000000000000000000000000000000000101
1022395731500012730470000705209000000                         00000089245308000000DM 00000000000000000000 010928101920-08                         300419000000000299075630470120000000000000000000000000000000000000000000000000000000000000000000000000000000000000002990000000000000000000000000000000000000000000000000000010000000000000          0000180075969000000000000000000000000000000000000000000102
1022395731500012730470000705209000000                         00000092886008000000DM 00000000000000000000 010928101928-08                         300419000000000299075630470120000000000000000000000000000000000000000000000000000000000000000000000000000000000000002990000000000000000000000000000000000000000000000000000010000000000000          0000928599469500000000000000000000000000000000000000000103
1022395731500012730470000705209000000                         00000096386708000000DM 00000000000000000000 010928101904-08                         280419000000000299075630470120000000000000000000000000000000000000000000000000000000000000000000000000000000000000002990000000000000000000000000000000000000000000000000000010000000000000          0000036301060200000000000000000000000000000000000000000104
1022395731500012730470000705209000000                         00000093223409000000DM 00000000000000000000 010928101966-09                         300419000000000299075630470120000000000000000000000000000000000000000000000000000000000000000000000000000000000000002990000000000000000000000000000000000000000000000000000010000000000000          0000363272461000000000000000000000000000000000000000000105
1022395731500012730470000705209000000                         00000093295409000000DM 00000000000000000000 010928101973-09                         300419000000000299075630470120000000000000000000000000000000000000000000000000000000000000000000000000000000000000002990000000000000000000000000000000000000000000000000000010000000000000          0004586223065300000000000000000000000000000000000000000106
1022395731500012730470000705209000000                         00000091590508000000DM 00000000000000000000 010928101923-08                         300419000000000992075630470120000000000000000000000000000000000000000000000000000000000000000000000000000000000000009920000000000000000000000000000000000000000000000000000010000000000000          0000275423263000000000000000000000000000000000000000000107
1022395731500012730470000705209000000                         00000094880408000000DM 00000000000000000000 010928101931-08                         300419000000000596075630470120000000000000000000000000000000000000000000000000000000000000000000000000000000000000005960000000000000000000000000000000000000000000000000000010000000000000          0001150577967700000000000000000000000000000000000000000108
1022395731500012730470000705209000000                         00000100478307000000DM 00000000000000000000 010928101960-07                         300419000000000299075630470120000000000000000000000000000000000000000000000000000000000000000000000000000000000000002990000000000000000000000000000000000000000000000000000010000000000000          0001045459763000000000000000000000000000000000000000000109
1022395731500012730470000705209000000                         00000107682007000000DM 00000000000000000000 010928101946-07                         300419000000000992075630470120000000000000000000000000000000000000000000000000000000000000000000000000000000000000009920000000000000000000000000000000000000000000000000000010000000000000          0000802559069000000000000000000000000000000000000000000110
1022395731500012730470000705209000000                         00000110333806000000DM 00000000000000000000 010928101926-06                         300419000000000299075630470120000000000000000000000000000000000000000000000000000000000000000000000000000000000000002990000000000000000000000000000000000000000000000000000010000000000000          0003053525569100000000000000000000000000000000000000000111
1022395731500012730470000705209000000                         00000109721106000000DM 00000000000000000000 010928101935-06                         300419000000000299075630470120000000000000000000000000000000000000000000000000000000000000000000000000000000000000002990000000000000000000000000000000000000000000000000000010000000000000          0000129108669200000000000000000000000000000000000000000112
1022395731500012730470000705209000000                         00000112529006000000DM 00000000000000000000 010928101923-06                         300419000000000596075630470120000000000000000000000000000000000000000000000000000000000000000000000000000000000000005960000000000000000000000000000000000000000000000000000010000000000000          0009759115760400000000000000000000000000000000000000000113
1022395731500012730470000705209000000                         00000118581805000000DM 00000000000000000000 010928101920-05                         280419000000000893075630470120000000000000000000000000000000000000000000000000000000000000000000000000000000000000008930000000000000000000000000000000000000000000000000000010000000000000          0000221029869500000000000000000000000000000000000000000114
1022395731500012730470000705209000000                         00000118617805000000DM 00000000000000000000 010928101961-05                         290419000000000299075630470120000000000000000000000000000000000000000000000000000000000000000000000000000000000000002990000000000000000000000000000000000000000000000000000010000000000000          0000167268767500000000000000000000000000000000000000000115
1022395731500012730470000705209000000                         00000121594705000000DM 00000000000000000000 010928101907-05                         300419000000000299075630470120000000000000000000000000000000000000000000000000000000000000000000000000000000000000002990000000000000000000000000000000000000000000000000000010000000000000          0001091442762800000000000000000000000000000000000000000116
1022395731500012730470000705209000000                         00000118783605000000DM 00000000000000000000 010928101902-05                         280419000000000497075630470120000000000000000000000000000000000000000000000000000000000000000000000000000000000000004970000000000000000000000000000000000000000000000000000010000000000000          0008126855665300000000000000000000000000000000000000000117
1022395731500012730470000705209000000                         00000126252804000000DM 00000000000000000000 010928101936-04                         280419000000004754075630470120000000000000000000000000000000000000000000000000000000000000000000000000000000000000047540000000000000000000000000000000000000000000000000000010000000000000          2145714300010500000000000000000000000000000000000000000118
1022395731500012730470000705209000000                         00000126888304000000DM 00000000000000000000 010928101927-04                         300419000000000398075630470120000000000000000000000000000000000000000000000000000000000000000000000000000000000000003980000000000000000000000000000000000000000000000000000010000000000000          0000341033260000000000000000000000000000000000000000000119
1022395731500012730470000705209000000                         00000126985305000000DM 00000000000000000000 010928101942-05                         300419000000000497075630470120000000000000000000000000000000000000000000000000000000000000000000000000000000000000004970000000000000000000000000000000000000000000000000000010000000000000          0000434421367000000000000000000000000000000000000000000120
1022395731500012730470000705209000000                         00000124740004000000DM 00000000000000000000 010928101968-04                         280419000000000299075630470120000000000000000000000000000000000000000000000000000000000000000000000000000000000000002990000000000000000000000000000000000000000000000000000010000000000000          0001561003069200000000000000000000000000000000000000000121
1022395731500012730470000705209000000                         00000129120804000000DM 00000000000000000000 010928101909-04                         300419000000000299075630470120000000000000000000000000000000000000000000000000000000000000000000000000000000000000002990000000000000000000000000000000000000000000000000000010000000000000          0000338297960800000000000000000000000000000000000000000122
1022395731500012730470000705209000000                         00000128508704000000DM 00000000000000000000 010928101959-04                         300419000000000398075630470120000000000000000000000000000000000000000000000000000000000000000000000000000000000000003980000000000000000000000000000000000000000000000000000010000000000000          0005853264168700000000000000000000000000000000000000000123
1022395731500012730470000705209000000                         00000132739109000000DM 00000000000000000000 010628101922-09                         281019000000000299010437040122910190000135000000000000000000000000000000000000000000000000000000000000000000000000002990000000000000000000000000000000000000000000000000000010000000000000          0003497171867200000000000000000000000000000000000000000124
1022395731500012730470000705209000000                         00000134646003000000DM 00000000000000000000 010928101923-03                         300419000000000299075630470120000000000000000000000000000000000000000000000000000000000000000000000000000000000000002990000000000000000000000000000000000000000000000000000010000000000000          0000192485563100000000000000000000000000000000000000000125
1022395731500012730470000705209000000                         00000136973203000000DM 00000000000000000000 010928101903-03                         280419000000000299075630470120000000000000000000000000000000000000000000000000000000000000000000000000000000000000002990000000000000000000000000000000000000000000000000000010000000000000          0001134455763500000000000000000000000000000000000000000126
1022395731500012730470000705209000000                         00000135451204000000DM 00000000000000000000 010928101921-04                         280419000000000299075630470120000000000000000000000000000000000000000000000000000000000000000000000000000000000000002990000000000000000000000000000000000000000000000000000010000000000000          0000966874781000000000000000000000000000000000000000000127
1022395731500012730470000705209000000                         00000146149808000000DM 00000000000000000000 010628101904-08                         301019000000000299010416420122910190000135000000000000000000000000000000000000000000000000000000000000000000000000002990000000000000000000000000000000000000000000000000000010000000000000          0001473639069700000000000000000000000000000000000000000128
1022395731500012730470000705209000000                         00000149382202000000DM 00000000000000000000 010928101903-02                         300419000000000398075630470120000000000000000000000000000000000000000000000000000000000000000000000000000000000000003980000000000000000000000000000000000000000000000000000010000000000000          0000629181764000000000000000000000000000000000000000000129
1022395731500012730470000705209000000                         00000147134702000000DM 00000000000000000000 010928101914-02                         300419000000000497075630470120000000000000000000000000000000000000000000000000000000000000000000000000000000000000004970000000000000000000000000000000000000000000000000000010000000000000          0000948434660000000000000000000000000000000000000000000130
1022395731500012730470000705209000000                         00000150732708000000DM 00000000000000000000 01062810199347 - 01-08                  101119000000000299010423320122910190000135000000000000000000000000000000000000000000000000000000000000000000000000002990000000000000000000000000000000000000000000000000000010000000000000          0003078771865300000000000000000000000000000000000000000131
1022395731500012730470000705209000000                         00000161309606000000DM 00000000000000000000 0106281019GR56-06                       201019000000000596000110090012910190000135000000000000000000000000000000000000000000000000000000000000000000000000006237000000000027700000000000000000000000000000000000000010000000000000          0000301305064000000000000000000000000000000000000000000132
1022395731500012730470000705209000000                         00000161777406000000DM 00000000000000000000 010628101957-06                         301019000000000299010432340122910190000135000000000000000000000000000000000000000000000000000000000000000000000000002990000000000000000000000000000000000000000000000000000010000000000000          0001732908664900000000000000000000000000000000000000000133
1022395731500012730470000705209000000                         00000173084906000000DM 00000000000000000000 010628101903-06                         251019000000000299023769800122910190000135000000000000000000000000000000000000000000000000000000000000000000000000003078000000000008800000000000000000000000000000000000000010000000000000          0001042831963700000000000000000000000000000000000000000134
1022395731500012730470000705209000000                         00000174774705000000DM 00000000000000000000 0106281019111-05                        251019000000000299010432340122910190000135000000000000000000000000000000000000000000000000000000000000000000000000003078000000000008800000000000000000000000000000000000000010000000000000          0006667277566800000000000000000000000000000000000000000135
1022395731500012730470000705209000000                         00000176182306000000DM 00000000000000000000 011028101919096 INC 01-06               201019000000000398075630470120000000000070000000000000000000000000000000000000000000000000000000000000000000000000003980000000000000000000000000000000000000000000000000000010000000000000          0000484226665100000000000000000000000000000000000000000136
1022395731500012730470000705209000000                         00000184825502000000DM 00000000000000000000 0106281019GR130-02                      150819000000000596010428380012910190000135000000000000000000000000000000000000000000000000000000000000000000000000007549000000000158900000000000000000000000000000000000000010000000000000          0003346829189200000000000000000000000000000000000000000137
1022395731500012730470000705209000000                         00000188142404000000DM 00000000000000000000 010628101937-04                         301019000000000299010432340122910190000135000000000000000000000000000000000000000000000000000000000000000000000000002990000000000000000000000000000000000000000000000000000010000000000000          0002005351768700000000000000000000000000000000000000000138
1022395731500012730470000705209000000                         00000187976006000000DM 00000000000000000000 010628101926-06                         151219000000000299010432340122910190000135000000000000000000000000000000000000000000000000000000000000000000000000002990000000000000000000000000000000000000000000000000000010000000000000          0005663225862000000000000000000000000000000000000000000139
1022395731500012730470000705209000000                         00000192363505000000DM 00000000000000000000 0110281019GR159-05                      151219000000000497075630470010000000000070000000000000000000000000000000000000000000000000000000000000000000000000004970000000000000000000000000000000000000000000000000000010000000000000          0000143617664600000000000000000000000000000000000000000140
1022395731500012730470000705209000000                         00000192366708000000DM 00000000000000000000 0110281019GR159-08                      150320000000000497075630470010000000000070000000000000000000000000000000000000000000000000000000000000000000000000004970000000000000000000000000000000000000000000000000000010000000000000          0000143617664600000000000000000000000000000000000000000141
1022395731500012730470000705209000000                         00000192369911000000DM 00000000000000000000 0110281019GR159-11                      150620000000000497075630470010000000000070000000000000000000000000000000000000000000000000000000000000000000000000004970000000000000000000000000000000000000000000000000000010000000000000          0000143617664600000000000000000000000000000000000000000142
1022395731500012730470000705209000000                         00000205848903000000DM 00000000000000000000 0110281019GR184-03                      201119000000000299075630470010000000000070000000000000000000000000000000000000000000000000000000000000000000000000002990000000000000000000000000000000000000000000000000000010000000000000          0009824253963400000000000000000000000000000000000000000143
1022395731500012730470000705209000000                         00000071287212000000DM 00000000000000000000 010928101909-12                         300419000000000497075630470120000000000000000000000000000000000000000000000000000000000000000000000000000000000000004970000000000000000000000000000000000000000000000000000010000000000000          0000328948969800000000000000000000000000000000000000000144
1022395731500012730470000705209000000                         00000071871611000000DM 00000000000000000000 010928101932-11                         280419000000000695075630470120000000000000000000000000000000000000000000000000000000000000000000000000000000000000006950000000000000000000000000000000000000000000000000000010000000000000          0005519711666800000000000000000000000000000000000000000145
1022395731500012730470000705209000000                         00000072735811000000DM 00000000000000000000 010928101920-11                         280419000000000299075630470120000000000000000000000000000000000000000000000000000000000000000000000000000000000000002990000000000000000000000000000000000000000000000000000010000000000000          0001083415360200000000000000000000000000000000000000000146
1022395731500012730470000705209000000                         00000081948509000000DM 00000000000000000000 010928101932-09                         300419000000000398075630470120000000000000000000000000000000000000000000000000000000000000000000000000000000000000003980000000000000000000000000000000000000000000000000000010000000000000          0000902888064000000000000000000000000000000000000000000147
1022395731500012730470000705209000000                         00000082225210000000DM 00000000000000000000 010928101912-10                         300419000000000299075630470120000000000000000000000000000000000000000000000000000000000000000000000000000000000000002990000000000000000000000000000000000000000000000000000010000000000000          0000682715662100000000000000000000000000000000000000000148
1022395731500012730470000705209000000                         00000082322210000000DM 00000000000000000000 010928101921-10                         300419000000000398075630470120000000000000000000000000000000000000000000000000000000000000000000000000000000000000003980000000000000000000000000000000000000000000000000000010000000000000          0008254691665300000000000000000000000000000000000000000149
1022395731500012730470000705209000000                         00000082731609000000DM 00000000000000000000 010928101923-09                         280419000000000497075630470120000000000000000000000000000000000000000000000000000000000000000000000000000000000000004970000000000000000000000000000000000000000000000000000010000000000000          0007405840167200000000000000000000000000000000000000000150
1022395731500012730470000705209000000                         00000087535709000000DM 00000000000000000000 010928101939-09                         280419000000000299075630470120000000000000000000000000000000000000000000000000000000000000000000000000000000000000002990000000000000000000000000000000000000000000000000000010000000000000          0000556770269800000000000000000000000000000000000000000151
1022395731500012730470000705209000000                         00000084835509000000DM 00000000000000000000 010928101931-09                         300419000000000299075630470120000000000000000000000000000000000000000000000000000000000000000000000000000000000000002990000000000000000000000000000000000000000000000000000010000000000000          0000077561163800000000000000000000000000000000000000000152
1022395731500012730470000705209000000                         00000089527612000000DM 00000000000000000000 010628101920-12                         261019000000000299075630470122910190000110000000000000000000000000000000000000000000000000000000000000000000000000002990000000000000000000000000000000000000000000000000000010000000000000          0000746739664300000000000000000000000000000000000000000153
1022395731500012730470000705209000000                         00000090640008000000DM 00000000000000000000 010928101931-08                         300419000000000398075630470120000000000000000000000000000000000000000000000000000000000000000000000000000000000000003980000000000000000000000000000000000000000000000000000010000000000000          0000331802260800000000000000000000000000000000000000000154
1022395731500012730470000705209000000                         00000090772708000000DM 00000000000000000000 010928101935-08                         300419000000000398075630470120000000000000000000000000000000000000000000000000000000000000000000000000000000000000003980000000000000000000000000000000000000000000000000000010000000000000          0000295139161700000000000000000000000000000000000000000155
1022395731500012730470000705209000000                         00000096398508000000DM 00000000000000000000 010928101905-08                         280419000000000299075630470120000000000000000000000000000000000000000000000000000000000000000000000000000000000000002990000000000000000000000000000000000000000000000000000010000000000000          0000663179661000000000000000000000000000000000000000000156
1022395731500012730470000705209000000                         00000097544008000000DM 00000000000000000000 01092810192-08                          300419000000000299075630470120000000000000000000000000000000000000000000000000000000000000000000000000000000000000002990000000000000000000000000000000000000000000000000000010000000000000          0000459883763200000000000000000000000000000000000000000157
1022395731500012730470000705209000000                         00000107526607000000DM 00000000000000000000 010928101934-07                         300419000000000299075630470120000000000000000000000000000000000000000000000000000000000000000000000000000000000000002990000000000000000000000000000000000000000000000000000010000000000000          0009744790067200000000000000000000000000000000000000000158
1022395731500012730470000705209000000                         00000106602207000000DM 00000000000000000000 010928101980-07                         300419000000000398075630470120000000000000000000000000000000000000000000000000000000000000000000000000000000000000003980000000000000000000000000000000000000000000000000000010000000000000          0006892518265300000000000000000000000000000000000000000159
1022395731500012730470000705209000000                         00000109049406000000DM 00000000000000000000 010928101925-06                         280419000000000299075630470120000000000000000000000000000000000000000000000000000000000000000000000000000000000000002990000000000000000000000000000000000000000000000000000010000000000000          0008185813264900000000000000000000000000000000000000000160
1022395731500012730470000705209000000                         00000107286207000000DM 00000000000000000000 010928101992-07                         280419000000000398075630470120000000000000000000000000000000000000000000000000000000000000000000000000000000000000003980000000000000000000000000000000000000000000000000000010000000000000          0000975607960600000000000000000000000000000000000000000161
1022395731500012730470000705209000000                         00000114837206000000DM 00000000000000000000 010928101903-06                         300419000000000398075630470120000000000000000000000000000000000000000000000000000000000000000000000000000000000000003980000000000000000000000000000000000000000000000000000010000000000000          0000199846766000000000000000000000000000000000000000000162
1022395731500012730470000705209000000                         00000114873806000000DM 00000000000000000000 010928101901-06                         300419000000000299075630470120000000000000000000000000000000000000000000000000000000000000000000000000000000000000002990000000000000000000000000000000000000000000000000000010000000000000          0003486505564900000000000000000000000000000000000000000163
1022395731500012730470000705209000000                         00000114934207000000DM 00000000000000000000 010628101903-07                         300519000000000299010432340122910190000135000000000000000000000000000000000000000000000000000000000000000000000000004553000000000156300000000000000000000000000000000000000010000000000000          0000619807067000000000000000000000000000000000000000000164
1022395731500012730470000705209000000                         00000114937410000000DM 00000000000000000000 010628101903-10                         300819000000000299010432340122910190000135000000000000000000000000000000000000000000000000000000000000000000000000003637000000000064700000000000000000000000000000000000000010000000000000          0000619807067000000000000000000000000000000000000000000165
1022395731500012730470000705209000000                         00000115688305000000DM 00000000000000000000 010928101921-05                         290419000000000299075630470120000000000000000000000000000000000000000000000000000000000000000000000000000000000000002990000000000000000000000000000000000000000000000000000010000000000000          0006045937961500000000000000000000000000000000000000000166
1022395731500012730470000705209000000                         00000114717306000000DM 00000000000000000000 010928101901-06                         290419000000000299075630470120000000000000000000000000000000000000000000000000000000000000000000000000000000000000002990000000000000000000000000000000000000000000000000000010000000000000          0000336844280500000000000000000000000000000000000000000167
1022395731500012730470000705209000000                         00000123258410000000DM 00000000000000000000 010628101921-10                         261019000000000299010432340122910190000135000000000000000000000000000000000000000000000000000000000000000000000000002990000000000000000000000000000000000000000000000000000010000000000000          0006688951061500000000000000000000000000000000000000000168
1022395731500012730470000705209000000                         00000117776504000000DM 00000000000000000000 010928101925-04                         280419000000000398075630470120000000000000000000000000000000000000000000000000000000000000000000000000000000000000003980000000000000000000000000000000000000000000000000000010000000000000          0001114245267000000000000000000000000000000000000000000169
1022395731500012730470000705209000000                         00000120256205000000DM 00000000000000000000 010928101951-05                         280419000000000299075630470120000000000000000000000000000000000000000000000000000000000000000000000000000000000000002990000000000000000000000000000000000000000000000000000010000000000000          0002902768362000000000000000000000000000000000000000000170
1022395731500012730470000705209000000                         00000124836204000000DM 00000000000000000000 010928101974-04                         300419000000000497075630470120000000000000000000000000000000000000000000000000000000000000000000000000000000000000004970000000000000000000000000000000000000000000000000000010000000000000          0001436643660400000000000000000000000000000000000000000171
1022395731500012730470000705209000000                         00000119656405000000DM 00000000000000000000 010928101947-05                         300419000000000497075630470120000000000000000000000000000000000000000000000000000000000000000000000000000000000000004970000000000000000000000000000000000000000000000000000010000000000000          0000326916369000000000000000000000000000000000000000000172
1022395731500012730470000705209000000                         00000123947603000000DM 00000000000000000000 010928101924-03                         280419000000000299075630470120000000000000000000000000000000000000000000000000000000000000000000000000000000000000002990000000000000000000000000000000000000000000000000000010000000000000          0008484686060400000000000000000000000000000000000000000173
1022395731500012730470000705209000000                         00000129264304000000DM 00000000000000000000 010928101920-04                         300419000000000299075630470120000000000000000000000000000000000000000000000000000000000000000000000000000000000000002990000000000000000000000000000000000000000000000000000010000000000000          0001268385271100000000000000000000000000000000000000000174
1022395731500012730470000705209000000                         00000137849203000000DM 00000000000000000000 010928101920-03                         280419000000000398075630470120000000000000000000000000000000000000000000000000000000000000000000000000000000000000003980000000000000000000000000000000000000000000000000000010000000000000          0000977625265600000000000000000000000000000000000000000175
1022395731500012730470000705209000000                         00000138373008000000DM 00000000000000000000 010628101934-08                         281019000000000299000111540122910190000135000000000000000000000000000000000000000000000000000000000000000000000000002990000000000000000000000000000000000000000000000000000010000000000000          0000739311263900000000000000000000000000000000000000000176
1022395731500012730470000705209000000                         00000136481203000000DM 00000000000000000000 010928101926-03                         280419000000000299075630470120000000000000000000000000000000000000000000000000000000000000000000000000000000000000002990000000000000000000000000000000000000000000000000000010000000000000          0000357343867900000000000000000000000000000000000000000177
1022395731500012730470000705209000000                         00000147781401000000DM 00000000000000000000 010928101939-01                         300419000000000299075630470120000000000000000000000000000000000000000000000000000000000000000000000000000000000000002990000000000000000000000000000000000000000000000000000010000000000000          0000008977178800000000000000000000000000000000000000000178
1022395731500012730470000705209000000                         00000147866502000000DM 00000000000000000000 010928101942-02                         280419000000000299075630470120000000000000000000000000000000000000000000000000000000000000000000000000000000000000002990000000000000000000000000000000000000000000000000000010000000000000          0001291693874500000000000000000000000000000000000000000179
1022395731500012730470000705209000000                         00000145087702000000DM 00000000000000000000 010928101912-02                         300419000000000398075630470120000000000000000000000000000000000000000000000000000000000000000000000000000000000000003980000000000000000000000000000000000000000000000000000010000000000000          0000997487461000000000000000000000000000000000000000000180
1022395731500012730470000705209000000                         00000146540008000000DM 00000000000000000000 010628101901-08                         201019000000000299010414910122910190000135000000000000000000000000000000000000000000000000000000000000000000000000003128000000000013800000000000000000000000000000000000000010000000000000          0000697875865500000000000000000000000000000000000000000181
1022395731500012730470000705209000000                         00000153872001000000DM 00000000000000000000 0109281019GR37-01                       300419000000000299075630470010000000000000000000000000000000000000000000000000000000000000000000000000000000000000002990000000000000000000000000000000000000000000000000000010000000000000          0000565520962400000000000000000000000000000000000000000182
1022395731500012730470000705209000000                         00000153896701000000DM 00000000000000000000 0109281019GR37-01                       300419000000000299075630470010000000000000000000000000000000000000000000000000000000000000000000000000000000000000002990000000000000000000000000000000000000000000000000000010000000000000          0000301078165200000000000000000000000000000000000000000183
1022395731500012730470000705209000000                         00000155703907000000DM 00000000000000000000 0106281019GR11-07                       201019000000000497010431480012910190000135000000000000000000000000000000000000000000000000000000000000000000000000005201000000000023100000000000000000000000000000000000000010000000000000          0000596064063500000000000000000000000000000000000000000184
1022395731500012730470000705209000000                         00000156213201000000DM 00000000000000000000 0109281019GR32-01                       300419000000000794075630470010000000000000000000000000000000000000000000000000000000000000000000000000000000000000007940000000000000000000000000000000000000000000000000000010000000000000          0003047897964900000000000000000000000000000000000000000185
1022395731500012730470000705209000000                         00000153824701000000DM 00000000000000000000 0109281019GR37-01                       300419000000000299075630470010000000000000000000000000000000000000000000000000000000000000000000000000000000000000002990000000000000000000000000000000000000000000000000000010000000000000          0000344164969900000000000000000000000000000000000000000186
1022395731500012730470000705209000000                         00000156165301000000DM 00000000000000000000 0109281019GR25-01                       300419000000000695075630470010000000000000000000000000000000000000000000000000000000000000000000000000000000000000006950000000000000000000000000000000000000000000000000000010000000000000          0001273260260400000000000000000000000000000000000000000187
1022395731500012730470000705209000000                         00000192364206000000DM 00000000000000000000 0110281019GR159-06                      150120000000000497075630470010000000000070000000000000000000000000000000000000000000000000000000000000000000000000004970000000000000000000000000000000000000000000000000000010000000000000          0000143617664600000000000000000000000000000000000000000188
1022395731500012730470000705209000000                         00000201941309000000DM 00000000000000000000 011028101927-09                         250520000000000299075630470120000000000070000000000000000000000000000000000000000000000000000000000000000000000000002990000000000000000000000000000000000000000000000000000010000000000000          0005333841365300000000000000000000000000000000000000000189
1022395731500012730470000705209000000                         00000201944512000000DM 00000000000000000000 011028101927-12                         250820000000000299075630470120000000000070000000000000000000000000000000000000000000000000000000000000000000000000002990000000000000000000000000000000000000000000000000000010000000000000          0005333841365300000000000000000000000000000000000000000190
1022395731500012730470000705209000000                         00000193885502000000DM 00000000000000000000 0110281019GR146-02                      100919000000000299075630470010000000000070000000000000000000000000000000000000000000000000000000000000000000000000002990000000000000000000000000000000000000000000000000000010000000000000          0009035822846800000000000000000000000000000000000000000191
1022395731500012730470000705209000000                         00000074686011000000DM 00000000000000000000 010928101905-11                         300419000000000497075630470120000000000000000000000000000000000000000000000000000000000000000000000000000000000000004970000000000000000000000000000000000000000000000000000010000000000000          0000891824561000000000000000000000000000000000000000000192
1022395731500012730470000705209000000                         00000076894010000000DM 00000000000000000000 010928101924-10                         280419000000000398075630470120000000000000000000000000000000000000000000000000000000000000000000000000000000000000003980000000000000000000000000000000000000000000000000000010000000000000          0000014935660900000000000000000000000000000000000000000193
1022395731500012730470000705209000000                         00000089656109000000DM 00000000000000000000 010928101921-09                         280419000000000398075630470120000000000000000000000000000000000000000000000000000000000000000000000000000000000000003980000000000000000000000000000000000000000000000000000010000000000000          0002911480082900000000000000000000000000000000000000000194
1022395731500012730470000705209000000                         00000084967209000000DM 00000000000000000000 010928101934-09                         300419000000000398075630470120000000000000000000000000000000000000000000000000000000000000000000000000000000000000003980000000000000000000000000000000000000000000000000000010000000000000          0000346086663200000000000000000000000000000000000000000195
1022395731500012730470000705209000000                         00000089526911000000DM 00000000000000000000 010628101920-11                         260919000000000299075630470122910190000110000000000000000000000000000000000000000000000000000000000000000000000000003080000000000009000000000000000000000000000000000000000010000000000000          0000746739664300000000000000000000000000000000000000000196
1022395731500012730470000705209000000                         00000091866308000000DM 00000000000000000000 010928101922-08                         280419000000000299075630470120000000000000000000000000000000000000000000000000000000000000000000000000000000000000002990000000000000000000000000000000000000000000000000000010000000000000          0000260626260300000000000000000000000000000000000000000197
1022395731500012730470000705209000000                         00000096967808000000DM 00000000000000000000 01092810194-08                          300419000000000596075630470120000000000000000000000000000000000000000000000000000000000000000000000000000000000000005960000000000000000000000000000000000000000000000000000010000000000000          0000676803156200000000000000000000000000000000000000000198
1022395731500012730470000705209000000                         00000096662607000000DM 00000000000000000000 010928101911-07                         300419000000000299075630470120000000000000000000000000000000000000000000000000000000000000000000000000000000000000002990000000000000000000000000000000000000000000000000000010000000000000          0000508146160100000000000000000000000000000000000000000199
1022395731500012730470000705209000000                         00000097964508000000DM 00000000000000000000 010928101920-08                         300419000000000299075630470120000000000000000000000000000000000000000000000000000000000000000000000000000000000000002990000000000000000000000000000000000000000000000000000010000000000000          0004726271067200000000000000000000000000000000000000000200
1022395731500012730470000705209000000                         00000100803908000000DM 00000000000000000000 010928101928-08                         300419000000000299075630470120000000000000000000000000000000000000000000000000000000000000000000000000000000000000002990000000000000000000000000000000000000000000000000000010000000000000          0001378835360000000000000000000000000000000000000000000201
1022395731500012730470000705209000000                         00000102750107000000DM 00000000000000000000 010928101935-07                         300419000000000299075630470120000000000000000000000000000000000000000000000000000000000000000000000000000000000000002990000000000000000000000000000000000000000000000000000010000000000000          0000592166465000000000000000000000000000000000000000000202
1022395731500012730470000705209000000                         00000101954507000000DM 00000000000000000000 010928101935-07                         300419000000000299075630470120000000000000000000000000000000000000000000000000000000000000000000000000000000000000002990000000000000000000000000000000000000000000000000000010000000000000          0003588042261500000000000000000000000000000000000000000203
1022395731500012730470000705209000000                         00000114849006000000DM 00000000000000000000 010928101905-06                         300419000000000398075630470120000000000000000000000000000000000000000000000000000000000000000000000000000000000000003980000000000000000000000000000000000000000000000000000010000000000000          0005646678161500000000000000000000000000000000000000000204
1022395731500012730470000705209000000                         00000114936709000000DM 00000000000000000000 010628101903-09                         300719000000000299010432340122910190000135000000000000000000000000000000000000000000000000000000000000000000000000003945000000000095500000000000000000000000000000000000000010000000000000          0000619807067000000000000000000000000000000000000000000205
1022395731500012730470000705209000000                         00000114939912000000DM 00000000000000000000 010628101903-12                         301019000000000299010432340122910190000135000000000000000000000000000000000000000000000000000000000000000000000000002990000000000000000000000000000000000000000000000000000010000000000000          0000619807067000000000000000000000000000000000000000000206
1022395731500012730470000705209000000                         00000114813606000000DM 00000000000000000000 010928101901-06                         300419000000000299075630470120000000000000000000000000000000000000000000000000000000000000000000000000000000000000002990000000000000000000000000000000000000000000000000000010000000000000          0000303335467000000000000000000000000000000000000000000207
1022395731500012730470000705209000000                         00000113741106000000DM 00000000000000000000 010928101910-06                         300419000000000695075630470120000000000000000000000000000000000000000000000000000000000000000000000000000000000000006950000000000000000000000000000000000000000000000000000010000000000000          0000709610661800000000000000000000000000000000000000000208
1022395731500012730470000705209000000                         00000118855105000000DM 00000000000000000000 010928101905-05                         300419000000000695075630470120000000000000000000000000000000000000000000000000000000000000000000000000000000000000006950000000000000000000000000000000000000000000000000000010000000000000          0000408117567500000000000000000000000000000000000000000209
1022395731500012730470000705209000000                         00000117933205000000DM 00000000000000000000 010928101951-05                         280419000000000299075630470120000000000000000000000000000000000000000000000000000000000000000000000000000000000000002990000000000000000000000000000000000000000000000000000010000000000000          0000649161564200000000000000000000000000000000000000000210
1022395731500012730470000705209000000                         00000120717405000000DM 00000000000000000000 010928101927-05                         280419000000000596075630470120000000000000000000000000000000000000000000000000000000000000000000000000000000000000005960000000000000000000000000000000000000000000000000000010000000000000          0005825396365300000000000000000000000000000000000000000211
1022395731500012730470000705209000000                         00000131605004000000DM 00000000000000000000 010928101910-04                         300419000000000299075630470120000000000000000000000000000000000000000000000000000000000000000000000000000000000000002990000000000000000000000000000000000000000000000000000010000000000000          0000946592063000000000000000000000000000000000000000000212
1022395731500012730470000705209000000                         00000132302204000000DM 00000000000000000000 010928101902-04                         300419000000000398075630470120000000000000000000000000000000000000000000000000000000000000000000000000000000000000003980000000000000000000000000000000000000000000000000000010000000000000          0000248498860500000000000000000000000000000000000000000213
1022395731500012730470000705209000000                         00000134125610000000DM 00000000000000000000 010628101926-10                         031119000000000299023766680992910190000135000000000000000000000000000000000000000000000000000000000000000000000000002990000000000000000000000000000000000000000000000000000010000000000000          0006144978461500000000000000000000000000000000000000000214
1022395731500012730470000705209000000                         00000141869202000000DM 00000000000000000000 010928101903-02                         280419000000000299075630470120000000000000000000000000000000000000000000000000000000000000000000000000000000000000002990000000000000000000000000000000000000000000000000000010000000000000          0001277256861000000000000000000000000000000000000000000215
1022395731500012730470000705209000000                         00000140028709000000DM 00000000000000000000 010628101926-09                         051119000000000497000121060992910190000135000000000000000000000000000000000000000000000000000000000000000000000000004970000000000000000000000000000000000000000000000000000010000000000000          0000514512261600000000000000000000000000000000000000000216
1022395731500012730470000705209000000                         00000147158302000000DM 00000000000000000000 010928101915-02                         300419000000000497075630470120000000000000000000000000000000000000000000000000000000000000000000000000000000000000004970000000000000000000000000000000000000000000000000000010000000000000          0008552824264900000000000000000000000000000000000000000217
1022395731500012730470000705209000000                         00000146100810000000DM 00000000000000000000 010628101920-10                         061219000000000299010423320122910190000135000000000000000000000000000000000000000000000000000000000000000000000000002990000000000000000000000000000000000000000000000000000010000000000000          0000973229268700000000000000000000000000000000000000000218
1022395731500012730470000705209000000                         00000147709301000000DM 00000000000000000000 010928101933-01                         280419000000000299075630470120000000000000000000000000000000000000000000000000000000000000000000000000000000000000002990000000000000000000000000000000000000000000000000000010000000000000          0008384625565300000000000000000000000000000000000000000219
1022395731500012730470000705209000000                         00000144787008000000DM 00000000000000000000 01062810195-08                          251019000000000299000111540122910190000135000000000000000000000000000000000000000000000000000000000000000000000000003078000000000008800000000000000000000000000000000000000010000000000000          0001048158667900000000000000000000000000000000000000000220
1022395731500012730470000705209000000                         00000144850002000000DM 00000000000000000000 010928101904-02                         300419000000000299075630470120000000000000000000000000000000000000000000000000000000000000000000000000000000000000002990000000000000000000000000000000000000000000000000000010000000000000          0002435742169100000000000000000000000000000000000000000221
1022395731500012730470000705209000000                         00000150539407000000DM 00000000000000000000 010628101902-07                         301019000000000299010432340122910190000135000000000000000000000000000000000000000000000000000000000000000000000000002990000000000000000000000000000000000000000000000000000010000000000000          0000923145168500000000000000000000000000000000000000000222
1022395731500012730470000705209000000                         00000153884901000000DM 00000000000000000000 0109281019GR37-01                       300419000000000299075630470010000000000000000000000000000000000000000000000000000000000000000000000000000000000000002990000000000000000000000000000000000000000000000000000010000000000000          0001213662460100000000000000000000000000000000000000000223
1022395731500012730470000705209000000                         00000153812901000000DM 00000000000000000000 0109281019GR37-01                       300419000000000299075630470010000000000000000000000000000000000000000000000000000000000000000000000000000000000000002990000000000000000000000000000000000000000000000000000010000000000000          0009827287060600000000000000000000000000000000000000000224
1022395731500012730470000705209000000                         00000153848301000000DM 00000000000000000000 0109281019GR37-01                       300419000000000299075630470010000000000000000000000000000000000000000000000000000000000000000000000000000000000000002990000000000000000000000000000000000000000000000000000010000000000000          0004855632287500000000000000000000000000000000000000000225
1022395731500012730470000705209000000                         00000156117001000000DM 00000000000000000000 0109281019GR19-01                       300419000000000596075630470010000000000000000000000000000000000000000000000000000000000000000000000000000000000000005960000000000000000000000000000000000000000000000000000010000000000000          0003872418963400000000000000000000000000000000000000000226
1022395731500012730470000705209000000                         00000161489706000000DM 00000000000000000000 0106281019GR57-06                       101019000000000596023721070012910190000135000000000000000000000000000000000000000000000000000000000000000000000000006436000000000047600000000000000000000000000000000000000010000000000000          0009215361561500000000000000000000000000000000000000000227
1022395731500012730470000705209000000                         00000181223206000000DM 00000000000000000000 01102810195236 - INC 01-06              251119000000000497075630470990000000000070000000000000000000000000000000000000000000000000000000000000000000000000004970000000000000000000000000000000000000000000000000000010000000000000          0000727899848400000000000000000000000000000000000000000228
1022395731500012730470000705209000000                         00000187651005000000DM 00000000000000000000 010628101989-05                         301119000000000299010432340122910190000135000000000000000000000000000000000000000000000000000000000000000000000000002990000000000000000000000000000000000000000000000000000010000000000000          0008185823065900000000000000000000000000000000000000000229
1022395731500012730470000705209000000                         00000187975205000000DM 00000000000000000000 010628101926-05                         151119000000000299010432340122910190000135000000000000000000000000000000000000000000000000000000000000000000000000002990000000000000000000000000000000000000000000000000000010000000000000          0005663225862000000000000000000000000000000000000000000230
1022395731500012730470000705209000000                         00000187122804000000DM 00000000000000000000 010628101954-04                         301019000000000299023769800122910190000135000000000000000000000000000000000000000000000000000000000000000000000000002990000000000000000000000000000000000000000000000000000010000000000000          0000033586160100000000000000000000000000000000000000000231
1022395731500012730470000705209000000                         00000190706404000000DM 00000000000000000000 01062810193969 - INC 01-04              051119000000000398075629310992910190000135000000000000000000000000000000000000000000000000000000000000000000000000003980000000000000000000000000000000000000000000000000000010000000000000          0009169123080400000000000000000000000000000000000000000232
1022395731500012730470000705209000000                         00000192940704000000DM 00000000000000000000 01062810199340 EX 01-04                 301019000000000398010431480122910190000135000000000000000000000000000000000000000000000000000000000000000000000000003980000000000000000000000000000000000000000000000000000010000000000000          0000337522260200000000000000000000000000000000000000000233
1022395731500012730470000705209000000                         00000195783704000000DM 00000000000000000000 01062810194070-04                       151119000000000398000110090992910190000135000000000000000000000000000000000000000000000000000000000000000000000000003980000000000000000000000000000000000000000000000000000010000000000000          0000621222461700000000000000000000000000000000000000000234
1022395731500012730470000705209000000                         00000192792602000000DM 00000000000000000000 011028101906-02                         150919000000000299075630470120000000000070000000000000000000000000000000000000000000000000000000000000000000000000002990000000000000000000000000000000000000000000000000000010000000000000          0008252115861500000000000000000000000000000000000000000235
1022395731500012730470000705209000000                         00000201938006000000DM 00000000000000000000 011028101927-06                         250220000000000299075630470120000000000070000000000000000000000000000000000000000000000000000000000000000000000000002990000000000000000000000000000000000000000000000000000010000000000000          0005333841365300000000000000000000000000000000000000000236
1022395731500012730470000705209000000                         00000201940608000000DM 00000000000000000000 011028101927-08                         250420000000000299075630470120000000000070000000000000000000000000000000000000000000000000000000000000000000000000002990000000000000000000000000000000000000000000000000000010000000000000          0005333841365300000000000000000000000000000000000000000237
1022395731500012730470000705209000000                         00000201943811000000DM 00000000000000000000 011028101927-11                         250720000000000299075630470120000000000070000000000000000000000000000000000000000000000000000000000000000000000000002990000000000000000000000000000000000000000000000000000010000000000000          0005333841365300000000000000000000000000000000000000000238
1022395731500012730470000705209000000                         00000066907412000000DM 00000000000000000000 010928101920-12                         300419000000000497075630470120000000000000000000000000000000000000000000000000000000000000000000000000000000000000004970000000000000000000000000000000000000000000000000000010000000000000          0000314718966000000000000000000000000000000000000000000239
1022395731500012730470000705209000000                         00000066355712000000DM 00000000000000000000 01092810194-12                          300419000000000398075630470120000000000000000000000000000000000000000000000000000000000000000000000000000000000000003980000000000000000000000000000000000000000000000000000010000000000000          0001296553361300000000000000000000000000000000000000000240
1022395731500012730470000705209000000                         00000086288210000000DM 00000000000000000000 011028101910-10                         100519000000000596075630470120000000000070000000000000000000000000000000000000000000000000000000000000000000000000005960000000000000000000000000000000000000000000000000000010000000000000          0008364539060000000000000000000000000000000000000000000241
1022395731500012730470000705209000000                         00000092250408000000DM 00000000000000000000 010928101931-08                         300419000000000299075630470120000000000000000000000000000000000000000000000000000000000000000000000000000000000000002990000000000000000000000000000000000000000000000000000010000000000000          0009194256063000000000000000000000000000000000000000000242
1022395731500012730470000705209000000                         00000098205708000000DM 00000000000000000000 010928101922-08                         280419000000000299075630470120000000000000000000000000000000000000000000000000000000000000000000000000000000000000002990000000000000000000000000000000000000000000000000000010000000000000          0001012544761200000000000000000000000000000000000000000243
1022395731500012730470000705209000000                         00000095469408000000DM 00000000000000000000 010928101943-08                         300419000000000299075630470120000000000000000000000000000000000000000000000000000000000000000000000000000000000000002990000000000000000000000000000000000000000000000000000010000000000000          0005763884566800000000000000000000000000000000000000000244
1022395731500012730470000705209000000                         00000097195908000000DM 00000000000000000000 01092810198-08                          300419000000000299075630470120000000000000000000000000000000000000000000000000000000000000000000000000000000000000002990000000000000000000000000000000000000000000000000000010000000000000          0000696462265900000000000000000000000000000000000000000245
1022395731500012730470000705209000000                         00000094748608000000DM 00000000000000000000 010928101922-08                         300419000000000596075630470120000000000000000000000000000000000000000000000000000000000000000000000000000000000000005960000000000000000000000000000000000000000000000000000010000000000000          0000879551569000000000000000000000000000000000000000000246
1022395731500012730470000705209000000                         00000114935008000000DM 00000000000000000000 010628101903-08                         300619000000000299010432340122910190000135000000000000000000000000000000000000000000000000000000000000000000000000004244000000000125400000000000000000000000000000000000000010000000000000          0000619807067000000000000000000000000000000000000000000247
1022395731500012730470000705209000000                         00000115989605000000DM 00000000000000000000 010928101935-05                         280419000000000299075630470120000000000000000000000000000000000000000000000000000000000000000000000000000000000000002990000000000000000000000000000000000000000000000000000010000000000000          0001168220467700000000000000000000000000000000000000000248
1022395731500012730470000705209000000                         00000110417106000000DM 00000000000000000000 010928101944-06                         300419000000000299075630470120000000000000000000000000000000000000000000000000000000000000000000000000000000000000002990000000000000000000000000000000000000000000000000000010000000000000          0000631470662900000000000000000000000000000000000000000249
