75600000         223957315000127                    03047000000007052090PROMEDICO PLANO ASSISTENCIAL ASICOOB                                  22505202113492300002008500000                                                                     
75600011T01  043 2023957315000127          304700000003047000000007052090PROMEDICO PLANO ASSISTENCIAL A                                                                                000000002505202100000000                                 
7560001300001T 0603047000000007052090000015330801016     115330          2506202100000000000299003303931011081822678              091000011081822678KERLON CESAR SOUZA FONTES               00000000000000000000001350000000004                 
7560001300002U 060000000000000000000000000000000000000000000000000000000000000000000000029900000000000029900000000000000000000000000000002405202125052021    00000000000000000000000                        91793475600000000000000000000       
7560001300003T 0903047000000007052090000241142512012     111283-12       22112020000000000002990756030470                         091000007270117667ENI FABRETE                             00000000000000000000000000000000013                 
7560001300004U 090000000000000000000000000000000000000000000000000000000000000000000000000000000000000000000000000000000000000000000000002405202100000000    00000000000000000000000                        91839675600000000000000000000       
7560001300005T 0903047000000007052090000241766212012     17125-12        23112020000000000004970756030470                         091000004824602610GISLENE SILVA CAMPOS                    00000000000000000000000000000000013                 
7560001300006U 090000000000000000000000000000000000000000000000000000000000000000000000000000000000000000000000000000000000000000000000002405202100000000    00000000000000000000000                        91841975600000000000000000000       
7560001300007T 0903047000000007052090000243521612012     111286-12       22112020000000000002990756030470                         091000023565317850MARIA DE NAZARE LIMA                    00000000000000000000000000000000013                 
7560001300008U 090000000000000000000000000000000000000000000000000000000000000000000000000000000000000000000000000000000000000000000000002405202100000000    00000000000000000000000                        91844175600000000000000000000       
7560001300009T 0903047000000007052090000244109912012     111284-12       22112020000000000004970756030470                         091000011855699605MIRIAM TALINE HENRIQUE ASSIS            00000000000000000000000000000000013                 
7560001300010U 090000000000000000000000000000000000000000000000000000000000000000000000000000000000000000000000000000000000000000000000002405202100000000    00000000000000000000000                        91846275600000000000000000000       
7560001300011T 0903047000000007052090000253950411012     111534-11       22112020000000000002990756030470                         091000098215574653CLAUDIA APARECIDA DOS SANTOS SILVA      00000000000000000000000000000000013                 
7560001300012U 090000000000000000000000000000000000000000000000000000000000000000000000000000000000000000000000000000000000000000000000002405202100000000    00000000000000000000000                        91848275600000000000000000000       
7560001300013T 0903047000000007052090000255222311012     111452-11       22112020000000000003980756030470                         091000098213474600ELIANE DA SILVA TEIXEIRA                00000000000000000000000000000000013                 
7560001300014U 090000000000000000000000000000000000000000000000000000000000000000000000000000000000000000000000000000000000000000000000002405202100000000    00000000000000000000000                        91849875600000000000000000000       
7560001300015T 0903047000000007052090000256770511012     110605-11       22112020000000000003980756030470                         091000004124635630IRENE GON큐LVES DOMINGOS                00000000000000000000000000000000013                 
7560001300016U 090000000000000000000000000000000000000000000000000000000000000000000000000000000000000000000000000000000000000000000000002405202100000000    00000000000000000000000                        91851475600000000000000000000       
7560001300017T 0903047000000007052090000257790111012     111430-11       22112020000000000004970756030470                         091000012267107600LUCAS FELIPE DE OLIVEIRA MACHADO        00000000000000000000000000000000013                 
7560001300018U 090000000000000000000000000000000000000000000000000000000000000000000000000000000000000000000000000000000000000000000000002405202100000000    00000000000000000000000                        91853075600000000000000000000       
7560001300019T 0903047000000007052090000260068011012     17435-11        24112020000000000003980756030470                         091000004608800639SILEIDA FAUSTINO                        00000000000000000000000000000000013                 
7560001300020U 090000000000000000000000000000000000000000000000000000000000000000000000000000000000000000000000000000000000000000000000002405202100000000    00000000000000000000000                        91854475600000000000000000000       
7560001300021T 0903047000000007052090000267519110012     19066-10        23112020000000000002990756030470                         091000079806090691CARLOS ROBERTO DO NASCIMENTO            00000000000000000000000000000000013                 
7560001300022U 090000000000000000000000000000000000000000000000000000000000000000000000000000000000000000000000000000000000000000000000002405202100000000    00000000000000000000000                        91855875600000000000000000000       
7560001300023T 0903047000000007052090000267951510012     19064-10        23112020000000000003980756030470                         091000010816918678DEYFERSON BATISTA DE SOUZA              00000000000000000000000000000000013                 
7560001300024U 090000000000000000000000000000000000000000000000000000000000000000000000000000000000000000000000000000000000000000000000002405202100000000    00000000000000000000000                        91857175600000000000000000000       
7560001300025T 0903047000000007052090000273304910012     19068-10        24112020000000000002990756030470                         091000055270387620SEBASTIAO RAIMUNDO DA SILVA             00000000000000000000000000000000013                 
7560001300026U 090000000000000000000000000000000000000000000000000000000000000000000000000000000000000000000000000000000000000000000000002405202100000000    00000000000000000000000                        91858375600000000000000000000       
7560001300027T 0903047000000007052090000274293110012     19060-10        22112020000000000002990756030470                         091000078692890600ROSANY JOSE DE OLIVEIRA SANTOS          00000000000000000000000000000000013                 
7560001300028U 090000000000000000000000000000000000000000000000000000000000000000000000000000000000000000000000000000000000000000000000002405202100000000    00000000000000000000000                        91859575600000000000000000000       
7560001300029T 0903047000000007052090000280435909012     19308-09        22112020000000000002990756030470                         091000001575667657KELLY CRISTINA FERREIRA                 00000000000000000000000000000000013                 
7560001300030U 090000000000000000000000000000000000000000000000000000000000000000000000000000000000000000000000000000000000000000000000002405202100000000    00000000000000000000000                        91860475600000000000000000000       
7560001300031T 0903047000000007052090000282320509012     19310-09        22112020000000000005960756030470                         091000003749679622PITERSON MELO TEIXEIRA                  00000000000000000000000000000000013                 
7560001300032U 090000000000000000000000000000000000000000000000000000000000000000000000000000000000000000000000000000000000000000000000002405202100000000    00000000000000000000000                        91861375600000000000000000000       
7560001300033T 0903047000000007052090000302713609012     124754-09       10122020000000000004970756030470                         091000024337234691LAIR  JOSE FERNANDES                    00000000000000000000000700000000009                 
7560001300034U 090000000000000000000000000000000000000000000000000000000000000000000000000000000000000000000000000000000000000000000000002405202100000000    00000000000000000000000                        91775075600000000000000000000       
7560001300035T 0903047000000007052090000302714310012     124754-10       10012021000000000004970756030470                         091000024337234691LAIR  JOSE FERNANDES                    00000000000000000000000700000000009                 
7560001300036U 090000000000000000000000000000000000000000000000000000000000000000000000000000000000000000000000000000000000000000000000002405202100000000    00000000000000000000000                        91775175600000000000000000000       
7560001300037T 0903047000000007052090000302715011012     124754-11       10022021000000000004970756030470                         091000024337234691LAIR  JOSE FERNANDES                    00000000000000000000000700000000009                 
7560001300038U 090000000000000000000000000000000000000000000000000000000000000000000000000000000000000000000000000000000000000000000000002405202100000000    00000000000000000000000                        91775275600000000000000000000       
7560001300039T 0903047000000007052090000302716812012     124754-12       10032021000000000004970756030470                         091000024337234691LAIR  JOSE FERNANDES                    00000000000000000000000700000000009                 
7560001300040U 090000000000000000000000000000000000000000000000000000000000000000000000000000000000000000000000000000000000000000000000002405202100000000    00000000000000000000000                        91775375600000000000000000000       
7560001300041T 0903047000000007052090000309254211012     122698-11       20032021000000000003980756030470                         091000070107040662KASSIA CRISTINA DE SOUZA                00000000000000000000000700000000009                 
7560001300042U 090000000000000000000000000000000000000000000000000000000000000000000000000000000000000000000000000000000000000000000000002405202100000000    00000000000000000000000                        91775475600000000000000000000       
7560001300043T 0903047000000007052090000309255012012     122698-12       20042021000000000003980756030470                         091000070107040662KASSIA CRISTINA DE SOUZA                00000000000000000000000700000000009                 
7560001300044U 090000000000000000000000000000000000000000000000000000000000000000000000000000000000000000000000000000000000000000000000002405202100000000    00000000000000000000000                        91775575600000000000000000000       
7560001300045T 0903047000000007052090000309973510012     133-10          30032021000000000002990756030470                         091000006280551610DELZA DE PAULA                          00000000000000000000000700000000009                 
7560001300046U 090000000000000000000000000000000000000000000000000000000000000000000000000000000000000000000000000000000000000000000000002405202100000000    00000000000000000000000                        91775675600000000000000000000       
7560001300047T 0903047000000007052090000309974211012     133-11          30042021000000000002990756030470                         091000006280551610DELZA DE PAULA                          00000000000000000000000700000000009                 
7560001300048U 090000000000000000000000000000000000000000000000000000000000000000000000000000000000000000000000000000000000000000000000002405202100000000    00000000000000000000000                        91775775600000000000000000000       
7560001300049T 0903047000000007052090000309975012012     133-12          30052021000000000002990756030470                         091000006280551610DELZA DE PAULA                          00000000000000000000000700000000009                 
7560001300050U 090000000000000000000000000000000000000000000000000000000000000000000000000000000000000000000000000000000000000000000000002405202100000000    00000000000000000000000                        91775875600000000000000000000       
7560001300051T 0603047000000007052090000310104809012     130-09          15022021000000000002990001011540                         091000010342878697EMILIA DE SOUZA PEREIRA FREITAS         00000000000000000000001350000000004                 
7560001300052U 060000000000004340000000000000000000000000000000000000000000000000000000034240000000000034240000000000000000000000000000002405202125052021    00000000000000000000000                        91831975600000000000000000000       
7560001300053T 0603047000000007052090000310105510012     130-10          15032021000000000002990001011540                         091000010342878697EMILIA DE SOUZA PEREIRA FREITAS         00000000000000000000001350000000004                 
7560001300054U 060000000000003780000000000000000000000000000000000000000000000000000000033680000000000033680000000000000000000000000000002405202125052021    00000000000000000000000                        91863475600000000000000000000       
7560001300055T 0603047000000007052090000310106211012     130-11          15042021000000000002990001011540                         091000010342878697EMILIA DE SOUZA PEREIRA FREITAS         00000000000000000000001350000000004                 
7560001300056U 060000000000003160000000000000000000000000000000000000000000000000000000033060000000000033060000000000000000000000000000002405202125052021    00000000000000000000000                        91842575600000000000000000000       
7560001300057T 0603047000000007052090000310107012012     130-12          15052021000000000002990001011540                         091000010342878697EMILIA DE SOUZA PEREIRA FREITAS         00000000000000000000001350000000004                 
7560001300058U 060000000000002560000000000000000000000000000000000000000000000000000000032460000000000032460000000000000000000000000000002405202125052021    00000000000000000000000                        91877575600000000000000000000       
7560001300059T 0603047000000007052090000311691712012     136-12          25052021000000000002990104016420                         091000088928535620MARTA CARVALHO DE OLIVEIRA LIMA         00000000000000000000001350000000004                 
7560001300060U 060000000000000000000000000000000000000000000000000000000000000000000000029900000000000029900000000000000000000000000000002405202125052021    00000000000000000000000                        91856675600000000000000000000       
7560001300061T 0603047000000007052090000314143112012     13749-12        30052021000000000002990104023320                         091000069189218868BENEDITO ASSIS MOSCHEM                  00000000000000000000001350000000004                 
7560001300062U 060000000000000000000000000000000000000000000000000000000000000000000000029900000000000029900000000000000000000000000000002405202125052021    00000000000000000000000                        91856775600000000000000000000       
7560001300063T 0603047000000007052090000315391812012     163-12          20052021000000000002990237034600                         091000005699646604ROSIMEIRE COUTINHO DA SILVA             00000000000000000000001350000000004                 
7560001300064U 060000000000002460000000000000000000000000000000000000000000000000000000032360000000000032360000000000000000000000000000002405202125052021    00000000000000000000000                        91813775600000000000000000000       
7560001300065T 0603047000000007052090000317881112012     13744-12        30052021000000000003980104023320                         091000068216157720JUSCELINO GON큐LVES DE MELO             00000000000000000000001350000000004                 
7560001300066U 060000000000000000000000000000000000000000000000000000000000000000000000039800000000000039800000000000000000000000000000002405202125052021    00000000000000000000000                        91849275600000000000000000000       
7560001300067T 0603047000000007052090000318941812012     14338-12        20052021000000000002990756030470                         091000026606999847GIVANILDO EDUARDO GOMES                 00000000000000000000001100000000002                 
7560001300068U 060000000000000740000000000000000000000000000000000000000000000000000000030640000000000030640000000000000000000000000000002405202125052021    00000000000000000000000                        91881475600000000000000000000       
7560001300069T 0903047000000007052090000321584010012     110524 EX01-10  15032021000000000003980756030470                         091000001154831604MARIA DA CONCEI큐O SOUZA                00000000000000000000000700000000009                 
7560001300070U 090000000000000000000000000000000000000000000000000000000000000000000000000000000000000000000000000000000000000000000000002405202100000000    00000000000000000000000                        91775975600000000000000000000       
7560001300071T 0903047000000007052090000321585811012     110524 EX01-11  15042021000000000003980756030470                         091000001154831604MARIA DA CONCEI큐O SOUZA                00000000000000000000000700000000009                 
7560001300072U 090000000000000000000000000000000000000000000000000000000000000000000000000000000000000000000000000000000000000000000000002405202100000000    00000000000000000000000                        91776075600000000000000000000       
7560001300073T 0903047000000007052090000321586512012     110524 EX01-12  15052021000000000003980756030470                         091000001154831604MARIA DA CONCEI큐O SOUZA                00000000000000000000000700000000009                 
7560001300074U 090000000000000000000000000000000000000000000000000000000000000000000000000000000000000000000000000000000000000000000000002405202100000000    00000000000000000000000                        91776175600000000000000000000       
7560001300075T 0603047000000007052090000322365611012     190-11          20052021000000000002990104014910                         091000011602316643FABIANA FERREIRA PESSOA SOUZA           00000000000000000000001350000000004                 
7560001300076U 060000000000002460000000000000000000000000000000000000000000000000000000032360000000000032360000000000000000000000000000002405202125052021    00000000000000000000000                        91835675600000000000000000000       
7560001300077T 0603047000000007052090000323762012012     14345-12        20052021000000000002990237069800                         091000007715608696JUSILEIA DE SOUSA MARTINS               00000000000000000000001350000000004                 
7560001300078U 060000000000000740000000000000000000000000000000000000000000000000000000030640000000000030640000000000000000000000000000002405202125052021    00000000000000000000000                        91830275600000000000000000000       
7560001300079T 0603047000000007052090000324920412012     152-12          15062021000000000002990001011540                         091000089106130682MARCIA HELENA SIMAO DE PAULA            00000000000000000000001350000000004                 
7560001300080U 060000000000000000000000000000000000000000000000000000000000000000000000029900000000000029900000000000000000000000000000002405202125052021    00000000000000000000000                        91864375600000000000000000000       
7560001300081T 0603047000000007052090000330393109012     11019-09        20032021000000000004970104043920                         091000090479351600MARIA DAS DORES DA SILVA COELHO         00000000000000000000001350000000004                 
7560001300082U 060000000000009600000000000000000000000000000000000000000000000000000000059300000000000059300000000000000000000000000000002405202125052021    00000000000000000000000                        91825375600000000000000000000       
7560001300083T 0603047000000007052090000330394910012     11019-10        20042021000000000004970104043920                         091000090479351600MARIA DAS DORES DA SILVA COELHO         00000000000000000000001350000000004                 
7560001300084U 060000000000005490000000000000000000000000000000000000000000000000000000055190000000000055190000000000000000000000000000002405202125052021    00000000000000000000000                        91836275600000000000000000000       
7560001300085T 0903047000000007052090000330477509012     15297-09        15032021000000000002990756030470                         091000083362363687MARIA DE SOUZA REZENDE                  00000000000000000000000700000000009                 
7560001300086U 090000000000000000000000000000000000000000000000000000000000000000000000000000000000000000000000000000000000000000000000002405202100000000    00000000000000000000000                        91776275600000000000000000000       
7560001300087T 0903047000000007052090000330478210012     15297-10        15042021000000000002990756030470                         091000083362363687MARIA DE SOUZA REZENDE                  00000000000000000000000700000000009                 
7560001300088U 090000000000000000000000000000000000000000000000000000000000000000000000000000000000000000000000000000000000000000000000002405202100000000    00000000000000000000000                        91776375600000000000000000000       
7560001300089T 0903047000000007052090000330479011012     15297-11        15052021000000000002990756030470                         091000083362363687MARIA DE SOUZA REZENDE                  00000000000000000000000700000000009                 
7560001300090U 090000000000000000000000000000000000000000000000000000000000000000000000000000000000000000000000000000000000000000000000002405202100000000    00000000000000000000000                        91776475600000000000000000000       
7560001300091T 0903047000000007052090000331739011012     13796-11        10052021000000000002990756030470                         091000045694915615VERA LUCIA DE MEDEIROS SOUZA            00000000000000000000000700000000009                 
7560001300092U 090000000000000000000000000000000000000000000000000000000000000000000000000000000000000000000000000000000000000000000000002405202100000000    00000000000000000000000                        91776575600000000000000000000       
7560001300093T 0603047000000007052090000333826410012     154-10          30052021000000000002990104032340                         091000062661353615Geraldo Inacio Ramos                    00000000000000000000001350000000004                 
7560001300094U 060000000000000000000000000000000000000000000000000000000000000000000000029900000000000029900000000000000000000000000000002405202125052021    00000000000000000000000                        91875675600000000000000000000       
7560001300095T 0603047000000007052090000334031611012     1INC 20112-11   25052021000000000003980756022220                         091000005300768618MARILIA DE SOUZA ARAUJO                 00000000000000000000001350000000004                 
7560001300096U 060000000000000000000000000000000000000000000000000000000000000000000000039800000000000039800000000000000000000000000000002405202125052021    00000000000000000000000                        91805875600000000000000000000       
7560001300097T 0603047000000007052090000334450310012     156-10          15052021000000000002990001011540                         091000038871890604MARIA ALMEZITA DE OLIVEIRA              00000000000000000000001350000000004                 
7560001300098U 060000000000002560000000000000000000000000000000000000000000000000000000032460000000000032460000000000000000000000000000002405202125052021    00000000000000000000000                        91860775600000000000000000000       
7560001300099T 0903047000000007052090000335773706012     15664-06        10012021000000000003980756030470                         091000011717913644AGDA LUIZA SOARES                       00000000000000000000000700000000009                 
7560001300100U 090000000000000000000000000000000000000000000000000000000000000000000000000000000000000000000000000000000000000000000000002405202100000000    00000000000000000000000                        91776675600000000000000000000       
7560001300101T 0903047000000007052090000335774407012     15664-07        10022021000000000003980756030470                         091000011717913644AGDA LUIZA SOARES                       00000000000000000000000700000000009                 
7560001300102U 090000000000000000000000000000000000000000000000000000000000000000000000000000000000000000000000000000000000000000000000002405202100000000    00000000000000000000000                        91776775600000000000000000000       
7560001300103T 0903047000000007052090000335775108012     15664-08        10032021000000000003980756030470                         091000011717913644AGDA LUIZA SOARES                       00000000000000000000000700000000009                 
7560001300104U 090000000000000000000000000000000000000000000000000000000000000000000000000000000000000000000000000000000000000000000000002405202100000000    00000000000000000000000                        91776875600000000000000000000       
7560001300105T 0903047000000007052090000335776909012     15664-09        10042021000000000003980756030470                         091000011717913644AGDA LUIZA SOARES                       00000000000000000000000700000000009                 
7560001300106U 090000000000000000000000000000000000000000000000000000000000000000000000000000000000000000000000000000000000000000000000002405202100000000    00000000000000000000000                        91776975600000000000000000000       
7560001300107T 0903047000000007052090000335777610012     15664-10        10052021000000000003980756030470                         091000011717913644AGDA LUIZA SOARES                       00000000000000000000000700000000009                 
7560001300108U 090000000000000000000000000000000000000000000000000000000000000000000000000000000000000000000000000000000000000000000000002405202100000000    00000000000000000000000                        91777075600000000000000000000       
7560001300109T 0603047000000007052090000342720710012     155-10          25052021000000000002990756030470                         091000010418257655PAULO CESAR NOGUEIRA DE FREITAS         00000000000000000000001100000000002                 
7560001300110U 060000000000000000000000000000000000000000000000000000000000000000000000029900000000000029900000000000000000000000000000002405202125052021    00000000000000000000000                        91881075600000000000000000000       
7560001300111T 0603047000000007052090000345760910012     123080-10       25052021000000000003980237006600                         091000055377050606JOSE RAIMUNDO                           00000000000000000000001350000000004                 
7560001300112U 060000000000000000000000000000000000000000000000000000000000000000000000039800000000000039800000000000000000000000000000002405202125052021    00000000000000000000000                        91825675600000000000000000000       
7560001300113T 0603047000000007052090000346424710012     169-10          15062021000000000002990001011540                         091000037908804691JUAREZ DIAS COELHO                      00000000000000000000001350000000004                 
7560001300114U 060000000000000000000000000000000000000000000000000000000000000000000000029900000000000029900000000000000000000000000000002405202125052021    00000000000000000000000                        91874075600000000000000000000       
7560001300115T 0603047000000007052090000349579009012     136-09          30052021000000000002990756029320                         091000083640479653CEZAR MARINS ROCHA                      00000000000000000000001350000000004                 
7560001300116U 060000000000000000000000000000000000000000000000000000000000000000000000029900000000000029900000000000000000000000000000002405202125052021    00000000000000000000000                        91806275600000000000000000000       
7560001300117T 0603047000000007052090000351589910012     15873-10        10062021000000000002990104038800                         091000072527641687ELIANA MESQUITA                         00000000000000000000001350000000004                 
7560001300118U 060000000000000000000000000000000000000000000000000000000000000000000000029900000000000029900000000000000000000000000000002405202125052021    00000000000000000000000                        91836175600000000000000000000       
7560001300119T 0603047000000007052090000351590711012     15873-11        10072021000000000002990104038800                         091000072527641687ELIANA MESQUITA                         00000000000000000000001350000000004                 
7560001300120U 060000000000000000000000000000000000000000000000000000000000000000000000029900000000000029900000000000000000000000000000002405202125052021    00000000000000000000000                        91825275600000000000000000000       
7560001300121T 0603047000000007052090000351591412012     15873-12        10082021000000000002990104038800                         091000072527641687ELIANA MESQUITA                         00000000000000000000001350000000004                 
7560001300122U 060000000000000000000000000000000000000000000000000000000000000000000000029900000000000029900000000000000000000000000000002405202125052021    00000000000000000000000                        91841275600000000000000000000       
7560001300123T 0603047000000007052090000352776609012     123065-09       20052021000000000002990033017190                         091000095420908620CHEILA TOLEDO PINHEIRO                  00000000000000000000001350000000004                 
7560001300124U 060000000000000900000000000000000000000000000000000000000000000000000000030800000000000030800000000000000000000000000000002405202125052021    00000000000000000000000                        91792775600000000000000000000       
7560001300125T 0603047000000007052090000352969810012     110189-10       10062021000000000003980001030030                         091000008259876604GUSTAVO BOTELHO DA SILVA                00000000000000000000001350000000004                 
7560001300126U 060000000000000000000000000000000000000000000000000000000000000000000000039800000000000039800000000000000000000000000000002405202125052021    00000000000000000000000                        91810075600000000000000000000       
7560001300127T 0603047000000007052090000353886009012     123589-09       15052021000000000002990104023320                         091000083487670615ADRIANA MORAES DE OLIVEIRA              00000000000000000000001350000000004                 
7560001300128U 060000000000001300000000000000000000000000000000000000000000000000000000031200000000000031200000000000000000000000000000002405202125052021    00000000000000000000000                        91824975600000000000000000000       
7560001300129T 0603047000000007052090000355147909012     123621-09       20052021000000000004970422002820                         091000003890388655EDECIO GON큐LVES DE ANDRADE             00000000000000000000001350000000004                 
7560001300130U 060000000000001250000000000000000000000000000000000000000000000000000000050950000000000050950000000000000000000000000000002405202125052021    00000000000000000000000                        91815175600000000000000000000       
7560001300131T 0603047000000007052090000355171609012     123514-09       25052021000000000002990237015670                         091000032497415749DELVAIR VICENTE PEREIRA                 00000000000000000000001350000000004                 
7560001300132U 060000000000000000000000000000000000000000000000000000000000000000000000029900000000000029900000000000000000000000000000002405202125052021    00000000000000000000000                        91820775600000000000000000000       
7560001300133T 0603047000000007052090000356828010012     14286-10        10062021000000000002990104031480                         091000087871912615TARCISA ALVES DA SILVA                  00000000000000000000001350000000004                 
7560001300134U 060000000000000000000000000000000000000000000000000000000000000000000000029900000000000029900000000000000000000000000000002405202125052021    00000000000000000000000                        91841075600000000000000000000       
7560001300135T 0603047000000007052090000358159409012     123638-09       20052021000000000003980260000010                         091000013974703640ALINE DA SILVA BENTO                    00000000000000000000001350000000004                 
7560001300136U 060000000000001000000000000000000000000000000000000000000000000000000000040800000000000040800000000000000000000000000000002405202125052021    00000000000000000000000                        91814275600000000000000000000       
7560001300137T 0603047000000007052090000358614208012     157-08          25052021000000000002990104032340                         091000060890576653CLERIO RODRIGUES DE OLIVEIRA            00000000000000000000001350000000004                 
7560001300138U 060000000000000000000000000000000000000000000000000000000000000000000000029900000000000029900000000000000000000000000000002405202125052021    00000000000000000000000                        91849375600000000000000000000       
7560001300139T 0603047000000007052090000359717507012     180-07          15042021000000000002990104014910                         091000010331128608JAQUELINE TAUANA MIRANDA CABRAL         00000000000000000000001350000000004                 
7560001300140U 060000000000003160000000000000000000000000000000000000000000000000000000033060000000000033060000000000000000000000000000002405202125052021    00000000000000000000000                        91838475600000000000000000000       
7560001300141T 0603047000000007052090000360306208012     180-08          25052021000000000002990104016420                         091000007807415606LUCIANA LOURENCO DE OLIVEIRA            00000000000000000000001350000000004                 
7560001300142U 060000000000000000000000000000000000000000000000000000000000000000000000029900000000000029900000000000000000000000000000002405202125052021    00000000000000000000000                        91811975600000000000000000000       
7560001300143T 0603047000000007052090000361818908012     123669-08       15052021000000000002990756018090                         091000033594929604OTARCIZIO JOSE DUTRA                    00000000000000000000001350000000004                 
7560001300144U 060000000000001300000000000000000000000000000000000000000000000000000000031200000000000031200000000000000000000000000000002405202125052021    00000000000000000000000                        91805075600000000000000000000       
7560001300145T 0603047000000007052090000362406208012     1INC 23295-08   10052021000000000003980104001180                         091000008284165678LEICE DE OLIVEIRA CASTRO                00000000000000000000001350000000004                 
7560001300146U 060000000000002060000000000000000000000000000000000000000000000000000000041860000000000041860000000000000000000000000000002405202125052021    00000000000000000000000                        91811475600000000000000000000       
7560001300147T 0603047000000007052090000364319408012     123745-08       10052021000000000006950104031480                         091000006061879601DALVA DE PAIVA BARBOSA                  00000000000000000000001350000000004                 
7560001300148U 060000000000003980000000000000000000000000000000000000000000000000000000073480000000000073480000000000000000000000000000002405202125052021    00000000000000000000000                        91832875600000000000000000000       
7560001300149T 0603047000000007052090000364356709012     124191 INC-09   20052021000000000004970001030030                         091000099181240678ANGELINO FERREIRA GUERRA                00000000000000000000001350000000004                 
7560001300150U 060000000000001520000000000000000000000000000000000000000000000000000000051220000000000051220000000000000000000000000000002405202125052021    00000000000000000000000                        91818675600000000000000000000       
7560001300151T 0603047000000007052090000367169608012     123907-08       20052021000000000004970104001180                         091000004744068650ROSELI DOS REIS                         00000000000000000000001350000000004                 
7560001300152U 060000000000001250000000000000000000000000000000000000000000000000000000050950000000000050950000000000000000000000000000002405202125052021    00000000000000000000000                        91794475600000000000000000000       
7560001300153T 0603047000000007052090000368215008012     121670-08       20052021000000000002990104032340                         091000005787905644JOUSE CRISTINA DE OLIVEIRA CARVALHO     00000000000000000000001350000000004                 
7560001300154U 060000000000000740000000000000000000000000000000000000000000000000000000030640000000000030640000000000000000000000000000002405202125052021    00000000000000000000000                        91867975600000000000000000000       
7560001300155T 0603047000000007052090000368863408012     123953-08       20052021000000000002990237039290                         091000012814260677KARINI LOPES DA SILVA                   00000000000000000000001350000000004                 
7560001300156U 060000000000000900000000000000000000000000000000000000000000000000000000030800000000000030800000000000000000000000000000002405202125052021    00000000000000000000000                        91799275600000000000000000000       
7560001300157T 0603047000000007052090000371424307012     1INC 22358-07   20052021000000000006950104031480                         091000009397082647NILZA MARIA DE JESUS                    00000000000000000000001350000000004                 
7560001300158U 060000000000001760000000000000000000000000000000000000000000000000000000071260000000000071260000000000000000000000000000002405202125052021    00000000000000000000000                        91812275600000000000000000000       
7560001300159T 0603047000000007052090000375410707012     190-07          30052021000000000002990104014910                         091000010498515605ALEXANDRA MARIA SALOME                  00000000000000000000001350000000004                 
7560001300160U 060000000000000000000000000000000000000000000000000000000000000000000000029900000000000029900000000000000000000000000000002405202125052021    00000000000000000000000                        91864675600000000000000000000       
7560001300161T 0603047000000007052090000376046307012     188-07          25052021000000000002990104016420                         091000000351409688IRANEIDE NEIVA DE LIMA DOS SANTOS       00000000000000000000001350000000004                 
7560001300162U 060000000000000000000000000000000000000000000000000000000000000000000000029900000000000029900000000000000000000000000000002405202125052021    00000000000000000000000                        91840875600000000000000000000       
7560001300163T 0603047000000007052090000376502907012     163-07          25052021000000000002990104014910                         091000017328560606JOSE MARTINS DE MOURA                   00000000000000000000001350000000004                 
7560001300164U 060000000000000000000000000000000000000000000000000000000000000000000000029900000000000029900000000000000000000000000000002405202125052021    00000000000000000000000                        91853775600000000000000000000       
7560001300165T 0603047000000007052090000378480007012     163-07          30052021000000000002990001011540                         091000010908804644SIMONE APARECIDA LUCAS                  00000000000000000000001350000000004                 
7560001300166U 060000000000000000000000000000000000000000000000000000000000000000000000029900000000000029900000000000000000000000000000002405202125052021    00000000000000000000000                        91853475600000000000000000000       
7560001300167T 0603047000000007052090000386920607012     120647-07       20052021000000000004970104023320                         091000054312817634MARIA NEUZA BATISTA CARVALHO            00000000000000000000001350000000004                 
7560001300168U 060000000000001520000000000000000000000000000000000000000000000000000000051220000000000051220000000000000000000000000000002405202125052021    00000000000000000000000                        91843175600000000000000000000       
7560001300169T 0603047000000007052090000388528507012     121666-07       25052021000000000002990104014250                         091000007159173660KELLY CRISTINA DA SILVA SANTOS          00000000000000000000001350000000004                 
7560001300170U 060000000000000000000000000000000000000000000000000000000000000000000000029900000000000029900000000000000000000000000000002405202125052021    00000000000000000000000                        91795575600000000000000000000       
7560001300171T 0603047000000007052090000389584707012     16593-07        20052021000000000005960001015870                         091000002609441657ROSIANE RODRIGUES MIRANDA CARVALHO      00000000000000000000001350000000004                 
7560001300172U 060000000000001820000000000000000000000000000000000000000000000000000000061420000000000061420000000000000000000000000000002405202125052021    00000000000000000000000                        91818575600000000000000000000       
7560001300173T 0603047000000007052090000390893405012     193-05          20042021000000000002990260000010                         091000042745918672ER ANDRADE SOUZA                        00000000000000000000001350000000004                 
7560001300174U 060000000000003060000000000000000000000000000000000000000000000000000000032960000000000032960000000000000000000000000000002405202125052021    00000000000000000000000                        91847975600000000000000000000       
7560001300175T 0603047000000007052090000390894106012     193-06          20052021000000000002990260000010                         091000042745918672ER ANDRADE SOUZA                        00000000000000000000001350000000004                 
7560001300176U 060000000000002460000000000000000000000000000000000000000000000000000000032360000000000032360000000000000000000000000000002405202125052021    00000000000000000000000                        91821475600000000000000000000       
7560001300177T 0603047000000007052090000394055606012     125406-06       20052021000000000003980237006600                         091000011255425601CAMILA ALVES MARTINS                    00000000000000000000001350000000004                 
7560001300178U 060000000000001210000000000000000000000000000000000000000000000000000000041010000000000041010000000000000000000000000000002405202125052021    00000000000000000000000                        91829775600000000000000000000       
7560001300179T 0603047000000007052090000398681506012     125434-06       25052021000000000002990104031480                         091000003231092680MARIA ZILDETE DE JESUS SILVA            00000000000000000000001350000000004                 
7560001300180U 060000000000000000000000000000000000000000000000000000000000000000000000029900000000000029900000000000000000000000000000002405202125052021    00000000000000000000000                        91835975600000000000000000000       
7560001300181T 0603047000000007052090000399522806012     124509-06       25052021000000000002990104043920                         091000012092753762JULIANA JESUS DOS SANTOS                00000000000000000000001350000000004                 
7560001300182U 060000000000000000000000000000000000000000000000000000000000000000000000029900000000000029900000000000000000000000000000002405202125052021    00000000000000000000000                        91833175600000000000000000000       
7560001300183T 0603047000000007052090000399823007012     1PREMIUM 25382-018052021000000000007100104023320                         091000000628513658MARILUCIA REIS DA CRUZ FERREIRA         00000000000000000000001350000000004                 
7560001300184U 060000000000002170000000000000000000000000000000000000000000000000000000073170000000000073170000000000000000000000000000002405202125052021    00000000000000000000000                        91829175600000000000000000000       
7560001300185T 0603047000000007052090000400080206012     111260-06       20052021000000000005960104023320                         091000005116070670LEIDIANE JERONIMO DO CARMO BALBINO      00000000000000000000001350000000004                 
7560001300186U 060000000000001820000000000000000000000000000000000000000000000000000000061420000000000061420000000000000000000000000000002405202125052021    00000000000000000000000                        91855375600000000000000000000       
7560001300187T 0603047000000007052090000401569906012     17034-06        10052021000000000003980104031480                         091000048544272649PAULO DIAS FERREIRA                     00000000000000000000001350000000004                 
7560001300188U 060000000000002270000000000000000000000000000000000000000000000000000000042070000000000042070000000000000000000000000000002405202125052021    00000000000000000000000                        91796675600000000000000000000       
7560001300189T 0603047000000007052090000403339206012     124300-06       10052021000000000003980104001060                         091000006796020626MARIA DAS GRA큐S DIAS                   00000000000000000000001350000000004                 
7560001300190U 060000000000002270000000000000000000000000000000000000000000000000000000042070000000000042070000000000000000000000000000002405202125052021    00000000000000000000000                        91811275600000000000000000000       
7560001300191T 0603047000000007052090000403727107012     140-07          10062021000000000002990001011540                         091000003907821653JOSE OVIDIO LOPES                       00000000000000000000001350000000004                 
7560001300192U 060000000000000000000000000000000000000000000000000000000000000000000000029900000000000029900000000000000000000000000000002405202125052021    00000000000000000000000                        91859875600000000000000000000       
7560001300193T 0603047000000007052090000404081606012     1025172-06      25052021000000000002990104031480                         091000002997112699LUCINEIA MARQUES RAMIRO                 00000000000000000000001350000000004                 
7560001300194U 060000000000000000000000000000000000000000000000000000000000000000000000029900000000000029900000000000000000000000000000002405202125052021    00000000000000000000000                        91845375600000000000000000000       
7560001300195T 0603047000000007052090000404093406012     125502-06       20052021000000000002990104023320                         091000050130641634APARECIDA NOGUEIRA GUIMAR츈S            00000000000000000000001350000000004                 
7560001300196U 060000000000000740000000000000000000000000000000000000000000000000000000030640000000000030640000000000000000000000000000002405202125052021    00000000000000000000000                        91812175600000000000000000000       
7560001300197T 0603047000000007052090000404549906012     125510-06       25052021000000000002990104023320                         091000009817613640IVONE CATIA DE JESUS BARBOSA            00000000000000000000001350000000004                 
7560001300198U 060000000000000000000000000000000000000000000000000000000000000000000000029900000000000029900000000000000000000000000000002405202125052021    00000000000000000000000                        91857975600000000000000000000       
7560001300199T 0903047000000007052090000405871601012     144-01          15022021000000000002990756030470                         091000004791523652CLARA ROSA DE JESUS                     00000000000000000000000700000000009                 
7560001300200U 090000000000000000000000000000000000000000000000000000000000000000000000000000000000000000000000000000000000000000000000002405202100000000    00000000000000000000000                        91777175600000000000000000000       
7560001300201T 0903047000000007052090000405872302012     144-02          15032021000000000002990756030470                         091000004791523652CLARA ROSA DE JESUS                     00000000000000000000000700000000009                 
7560001300202U 090000000000000000000000000000000000000000000000000000000000000000000000000000000000000000000000000000000000000000000000002405202100000000    00000000000000000000000                        91777275600000000000000000000       
7560001300203T 0903047000000007052090000405873003012     144-03          15042021000000000002990756030470                         091000004791523652CLARA ROSA DE JESUS                     00000000000000000000000700000000009                 
7560001300204U 090000000000000000000000000000000000000000000000000000000000000000000000000000000000000000000000000000000000000000000000002405202100000000    00000000000000000000000                        91777375600000000000000000000       
7560001300205T 0903047000000007052090000405874804012     144-04          15052021000000000002990756030470                         091000004791523652CLARA ROSA DE JESUS                     00000000000000000000000700000000009                 
7560001300206U 090000000000000000000000000000000000000000000000000000000000000000000000000000000000000000000000000000000000000000000000002405202100000000    00000000000000000000000                        91777475600000000000000000000       
7560001300207T 0603047000000007052090000405923405012     112-05          15052021000000000002990104032340                         091000006687662635CONCEI츒 ROSA DE OLIVEIRA              00000000000000000000001350000000004                 
7560001300208U 060000000000002560000000000000000000000000000000000000000000000000000000032460000000000032460000000000000000000000000000002405202125052021    00000000000000000000000                        91838875600000000000000000000       
7560001300209T 0903047000000007052090000405959905012     190-05          15052021000000000002990756030470                         091000061731064691DARLY FERREIRA DA CUNHA                 00000000000000000000000700000000009                 
7560001300210U 090000000000000000000000000000000000000000000000000000000000000000000000000000000000000000000000000000000000000000000000002405202100000000    00000000000000000000000                        91777575600000000000000000000       
7560001300211T 0603047000000007052090000408935005012     166-05          15052021000000000002990104032340                         091000004796797629ONOFRA MARIA BATISTA                    00000000000000000000001350000000004                 
7560001300212U 060000000000002560000000000000000000000000000000000000000000000000000000032460000000000032460000000000000000000000000000002405202125052021    00000000000000000000000                        91812375600000000000000000000       
7560001300213T 0603047000000007052090000412697304012     121689-04       05042021000000000002990104032340                         091000012826489690DAYANE CRISTINA SANTOS LINO             00000000000000000000001350000000004                 
7560001300214U 060000000000004330000000000000000000000000000000000000000000000000000000034230000000000034230000000000000000000000000000002405202125052021    00000000000000000000000                        91876375600000000000000000000       
7560001300215T 0603047000000007052090000412698005012     121689-05       05052021000000000002990104032340                         091000012826489690DAYANE CRISTINA SANTOS LINO             00000000000000000000001350000000004                 
7560001300216U 060000000000001940000000000000000000000000000000000000000000000000000000031840000000000031840000000000000000000000000000002405202125052021    00000000000000000000000                        91862075600000000000000000000       
7560001300217T 0603047000000007052090000413082105012     125657-05       15052021000000000002990033031520                         091000001542073650MARIA APARECIDA FREITAS PINTO           00000000000000000000001350000000004                 
7560001300218U 060000000000001140000000000000000000000000000000000000000000000000000000031040000000000031040000000000000000000000000000002405202125052021    00000000000000000000000                        91793275600000000000000000000       
7560001300219T 0603047000000007052090000413484305012     15460-05        20052021000000000006950104043920                         091000000690450621PAULO ROSA                              00000000000000000000001350000000004                 
7560001300220U 060000000000002130000000000000000000000000000000000000000000000000000000071630000000000071630000000000000000000000000000002405202125052021    00000000000000000000000                        91797175600000000000000000000       
7560001300221T 0603047000000007052090000416982505012     176-05          20052021000000000002990001040640                         091000084569280625JOAO BARBOSA DE SOUZA                   00000000000000000000001350000000004                 
7560001300222U 060000000000002460000000000000000000000000000000000000000000000000000000032360000000000032360000000000000000000000000000002405202125052021    00000000000000000000000                        91791075600000000000000000000       
7560001300223T 0603047000000007052090000417749704012     123-04          20052021000000000002990104014910                         091000010195683641CAROLINA VIEIRA SABINO                  00000000000000000000001350000000004                 
7560001300224U 060000000000002460000000000000000000000000000000000000000000000000000000032360000000000032360000000000000000000000000000002405202125052021    00000000000000000000000                        91850675600000000000000000000       
7560001300225T 0603047000000007052090000420388003012     146-03          25042021000000000002990260000010                         091000014142777688NAIANE CINTIA DA FONSECA PINTO          00000000000000000000001350000000004                 
7560001300226U 060000000000002960000000000000000000000000000000000000000000000000000000032860000000000032860000000000000000000000000000002405202125052021    00000000000000000000000                        91843875600000000000000000000       
7560001300227T 0603047000000007052090000420389804012     146-04          25052021000000000002990260000010                         091000014142777688NAIANE CINTIA DA FONSECA PINTO          00000000000000000000001350000000004                 
7560001300228U 060000000000000000000000000000000000000000000000000000000000000000000000029900000000000029900000000000000000000000000000002405202125052021    00000000000000000000000                        91852775600000000000000000000       
7560001300229T 0603047000000007052090000420978805012     110091-05       10062021000000000002990104023320                         091000004823858638ELIENE SILVA SANTOS                     00000000000000000000001350000000004                 
7560001300230U 060000000000000000000000000000000000000000000000000000000000000000000000029900000000000029900000000000000000000000000000002405202125052021    00000000000000000000000                        91838675600000000000000000000       
7560001300231T 0603047000000007052090000421817604012     133-04          25052021000000000002990104016420                         091000008663983689MARILENE MENDES DA SILVA                00000000000000000000001350000000004                 
7560001300232U 060000000000000000000000000000000000000000000000000000000000000000000000029900000000000029900000000000000000000000000000002405202125052021    00000000000000000000000                        91850775600000000000000000000       
7560001300233T 0603047000000007052090000423471502012     124740-02       15032021000000000002990104023320                         091000010535083874VERIANA IUNOCENCIA SILVA                00000000000000000000001350000000004                 
7560001300234U 060000000000006170000000000000000000000000000000000000000000000000000000036070000000000036070000000000000000000000000000002405202125052021    00000000000000000000000                        91850875600000000000000000000       
7560001300235T 0603047000000007052090000423472203012     124740-03       15042021000000000002990104023320                         091000010535083874VERIANA IUNOCENCIA SILVA                00000000000000000000001350000000004                 
7560001300236U 060000000000003690000000000000000000000000000000000000000000000000000000033590000000000033590000000000000000000000000000002405202125052021    00000000000000000000000                        91819975600000000000000000000       
7560001300237T 0603047000000007052090000423473004012     124740-04       15052021000000000002990104023320                         091000010535083874VERIANA IUNOCENCIA SILVA                00000000000000000000001350000000004                 
7560001300238U 060000000000001300000000000000000000000000000000000000000000000000000000031200000000000031200000000000000000000000000000002405202125052021    00000000000000000000000                        91852475600000000000000000000       
7560001300239T 0603047000000007052090000423917603012     1INC 25485-03   25032021000000000003980001010090                         091000096408740600LUCIA APARECIDA DOS SANTOS              00000000000000000000001350000000004                 
7560001300240U 060000000000006940000000000000000000000000000000000000000000000000000000046740000000000046740000000000000000000000000000002405202125052021    00000000000000000000000                        91789275600000000000000000000       
7560001300241T 0603047000000007052090000423918304012     1INC 25485-04   25042021000000000003980001010090                         091000096408740600LUCIA APARECIDA DOS SANTOS              00000000000000000000001350000000004                 
7560001300242U 060000000000003650000000000000000000000000000000000000000000000000000000043450000000000043450000000000000000000000000000002405202125052021    00000000000000000000000                        91809675600000000000000000000       
7560001300243T 0603047000000007052090000425004204012     124889-04       20052021000000000002990104014910                         091000077784731604MANOEL JULIAO DOS SANTOS NETO           00000000000000000000001350000000004                 
7560001300244U 060000000000000900000000000000000000000000000000000000000000000000000000030800000000000030800000000000000000000000000000002405202125052021    00000000000000000000000                        91811875600000000000000000000       
7560001300245T 0603047000000007052090000426942803012     125786-03       15042021000000000002990633000010                         091000001263320619MANUELA KATARINA ESTEVES LEAL           00000000000000000000001350000000004                 
7560001300246U 060000000000003690000000000000000000000000000000000000000000000000000000033590000000000033590000000000000000000000000000002405202125052021    00000000000000000000000                        91839475600000000000000000000       
7560001300247T 0603047000000007052090000427879704012     122015-04       25052021000000000002990633000010                         091000029107822634OLAVIO GOMES DA SILVA                   00000000000000000000001350000000004                 
7560001300248U 060000000000000000000000000000000000000000000000000000000000000000000000029900000000000029900000000000000000000000000000002405202125052021    00000000000000000000000                        91843975600000000000000000000       
7560001300249T 0603047000000007052090000427951304012     17069-04        15052021000000000005960104031480                         091000015257565838OSAIR SILVA ARAUJO                      00000000000000000000001350000000004                 
7560001300250U 060000000000002620000000000000000000000000000000000000000000000000000000062220000000000062220000000000000000000000000000002405202125052021    00000000000000000000000                        91838775600000000000000000000       
7560001300251T 0603047000000007052090000429884204012     125867-04       20052021000000000002990104043920                         091000029649436804ELENICE PERIRA DA SILVA                 00000000000000000000001350000000004                 
7560001300252U 060000000000000740000000000000000000000000000000000000000000000000000000030640000000000030640000000000000000000000000000002405202125052021    00000000000000000000000                        91820375600000000000000000000       
7560001300253T 0603047000000007052090000430125004012     1C INC 24463-04 20052021000000000003980104001060                         091000013531985612GLEISILENE BOTELHO SOARES               00000000000000000000001350000000004                 
7560001300254U 060000000000001000000000000000000000000000000000000000000000000000000000040800000000000040800000000000000000000000000000002405202125052021    00000000000000000000000                        91819175600000000000000000000       
7560001300255T 0603047000000007052090000430522605012     15540-05        15062021000000000003980001015870                         091000051313987620SEBASTIAO FREITAS DE ALMEIDA            00000000000000000000001350000000004                 
7560001300256U 060000000000000000000000000000000000000000000000000000000000000000000000039800000000000039800000000000000000000000000000002405202125052021    00000000000000000000000                        91809975600000000000000000000       
7560001300257T 0903047000000007052090000431590603012     122218-03       10052021000000000002990756030470                         091000037282425604EDESIA VALADARES                        00000000000000000000000700000000009                 
7560001300258U 090000000000000000000000000000000000000000000000000000000000000000000000000000000000000000000000000000000000000000000000002405202100000000    00000000000000000000000                        91777675600000000000000000000       
7560001300259T 0903047000000007052090000431591304012     122218-04       10062021000000000002990756030470                         091000037282425604EDESIA VALADARES                        00000000000000000000000700000000009                 
7560001300260U 090000000000000000000000000000000000000000000000000000000000000000000000000000000000000000000000000000000000000000000000002405202100000000    00000000000000000000000                        91777775600000000000000000000       
7560001300261T 0903047000000007052090000431592005012     122218-05       10072021000000000002990756030470                         091000037282425604EDESIA VALADARES                        00000000000000000000000700000000009                 
7560001300262U 090000000000000000000000000000000000000000000000000000000000000000000000000000000000000000000000000000000000000000000000002405202100000000    00000000000000000000000                        91777875600000000000000000000       
7560001300263T 0903047000000007052090000431593806012     122218-06       10082021000000000002990756030470                         091000037282425604EDESIA VALADARES                        00000000000000000000000700000000009                 
7560001300264U 090000000000000000000000000000000000000000000000000000000000000000000000000000000000000000000000000000000000000000000000002405202100000000    00000000000000000000000                        91777975600000000000000000000       
7560001300265T 0903047000000007052090000431594507012     122218-07       10092021000000000002990756030470                         091000037282425604EDESIA VALADARES                        00000000000000000000000700000000009                 
7560001300266U 090000000000000000000000000000000000000000000000000000000000000000000000000000000000000000000000000000000000000000000000002405202100000000    00000000000000000000000                        91778075600000000000000000000       
7560001300267T 0903047000000007052090000431595208012     122218-08       10102021000000000002990756030470                         091000037282425604EDESIA VALADARES                        00000000000000000000000700000000009                 
7560001300268U 090000000000000000000000000000000000000000000000000000000000000000000000000000000000000000000000000000000000000000000000002405202100000000    00000000000000000000000                        91778175600000000000000000000       
7560001300269T 0903047000000007052090000431596009012     122218-09       10112021000000000002990756030470                         091000037282425604EDESIA VALADARES                        00000000000000000000000700000000009                 
7560001300270U 090000000000000000000000000000000000000000000000000000000000000000000000000000000000000000000000000000000000000000000000002405202100000000    00000000000000000000000                        91778275600000000000000000000       
7560001300271T 0903047000000007052090000431597710012     122218-10       10122021000000000002990756030470                         091000037282425604EDESIA VALADARES                        00000000000000000000000700000000009                 
7560001300272U 090000000000000000000000000000000000000000000000000000000000000000000000000000000000000000000000000000000000000000000000002405202100000000    00000000000000000000000                        91778375600000000000000000000       
7560001300273T 0903047000000007052090000431598411012     122218-11       10012022000000000002990756030470                         091000037282425604EDESIA VALADARES                        00000000000000000000000700000000009                 
7560001300274U 090000000000000000000000000000000000000000000000000000000000000000000000000000000000000000000000000000000000000000000000002405202100000000    00000000000000000000000                        91778475600000000000000000000       
7560001300275T 0903047000000007052090000431599112012     122218-12       10022022000000000002990756030470                         091000037282425604EDESIA VALADARES                        00000000000000000000000700000000009                 
7560001300276U 090000000000000000000000000000000000000000000000000000000000000000000000000000000000000000000000000000000000000000000000002405202100000000    00000000000000000000000                        91778575600000000000000000000       
7560001300277T 0603047000000007052090000431899704012     121768-04       28052021000000000002990104032340                         091000047234679634ANTONIO MARIANO DA SILVA                00000000000000000000001350000000004                 
7560001300278U 060000000000000000000000000000000000000000000000000000000000000000000000029900000000000029900000000000000000000000000000002405202125052021    00000000000000000000000                        91874275600000000000000000000       
7560001300279T 0603047000000007052090000434408703012     120218-03       10052021000000000003980001010090                         091000011819613607CAROLINE PEREIRA SILVA                  00000000000000000000001350000000004                 
7560001300280U 060000000000002270000000000000000000000000000000000000000000000000000000042070000000000042070000000000000000000000000000002405202125052021    00000000000000000000000                        91823875600000000000000000000       
7560001300281T 0603047000000007052090000434745504012     1025188-04      20062021000000000002990756041050                         091000030835585620FILOMENA APARECIDA DA SILVA             00000000000000000000001350000000004                 
7560001300282U 060000000000000000000000000000000000000000000000000000000000000000000000029900000000000029900000000000000000000000000000002405202125052021    00000000000000000000000                        91816675600000000000000000000       
7560001300283T 0603047000000007052090000439074103012     16856-03        20052021000000000003980104001180                         091000007907005736ROSILDA HELENA DE SOUZA CASTELO         00000000000000000000001350000000004                 
7560001300284U 060000000000001210000000000000000000000000000000000000000000000000000000041010000000000041010000000000000000000000000000002405202125052021    00000000000000000000000                        91819275600000000000000000000       
7560001300285T 0903047000000007052090000440693802012     126151-02       10042021000000000002990756030470                         091000093701187649SIRLEIA SOUZA ALMEIDA MONTEIRO          00000000000000000000000700000000009                 
7560001300286U 090000000000000000000000000000000000000000000000000000000000000000000000000000000000000000000000000000000000000000000000002405202100000000    00000000000000000000000                        91778675600000000000000000000       
7560001300287T 0903047000000007052090000440694503012     126151-03       10052021000000000002990756030470                         091000093701187649SIRLEIA SOUZA ALMEIDA MONTEIRO          00000000000000000000000700000000009                 
7560001300288U 090000000000000000000000000000000000000000000000000000000000000000000000000000000000000000000000000000000000000000000000002405202100000000    00000000000000000000000                        91778775600000000000000000000       
7560001300289T 0903047000000007052090000440754203012     17826-03        10052021000000000003980756030470                         091000011714501680JOHNATAN MAX GOMES DE ALMEIDA           00000000000000000000000700000000009                 
7560001300290U 090000000000000000000000000000000000000000000000000000000000000000000000000000000000000000000000000000000000000000000000002405202100000000    00000000000000000000000                        91778875600000000000000000000       
7560001300291T 0603047000000007052090000442888203012     17660-03        15052021000000000005960237006600                         091000009435876625MARIA APARECIDA ALVES DOMINGOS BRAGAN큐 00000000000000000000001350000000004                 
7560001300292U 060000000000002620000000000000000000000000000000000000000000000000000000062220000000000062220000000000000000000000000000002405202125052021    00000000000000000000000                        91836375600000000000000000000       
7560001300293T 0903047000000007052090000443598003012     126070-03       20052021000000000006950756030470                         091000012258681650ALCIANE NUNES DOS SANTOS                00000000000000000000000700000000009                 
7560001300294U 090000000000000000000000000000000000000000000000000000000000000000000000000000000000000000000000000000000000000000000000002405202100000000    00000000000000000000000                        91778975600000000000000000000       
7560001300295T 0603047000000007052090000443815404012     126180-04       20052021000000000005900033031540                         091000010036035645RAQUEL DE PAULA DUTRA                   00000000000000000000001350000000004                 
7560001300296U 060000000000001800000000000000000000000000000000000000000000000000000000060800000000000060800000000000000000000000000000002405202125052021    00000000000000000000000                        91793375600000000000000000000       
7560001300297T 0903047000000007052090000444307503012     123383-03       10052021000000000004970756030470                         091000083748512600LUZINETE APARECIDA FREIRE ROCHA         00000000000000000000000700000000009                 
7560001300298U 090000000000000000000000000000000000000000000000000000000000000000000000000000000000000000000000000000000000000000000000002405202100000000    00000000000000000000000                        91779075600000000000000000000       
7560001300299T 0603047000000007052090000444343003012     13581 inc-03    25052021000000000003980033017190                         091000081615345604GRA큐 APARECIDA RAMOS                   00000000000000000000001350000000004                 
7560001300300U 060000000000000000000000000000000000000000000000000000000000000000000000039800000000000039800000000000000000000000000000002405202125052021    00000000000000000000000                        91810475600000000000000000000       
7560001300301T 0903047000000007052090000444389901012     126197-01       20032021000000000002990756030470                         091000011195337671LUDMILA CRISTINA FERNANDES              00000000000000000000000700000000009                 
7560001300302U 090000000000000000000000000000000000000000000000000000000000000000000000000000000000000000000000000000000000000000000000002405202100000000    00000000000000000000000                        91779175600000000000000000000       
7560001300303T 0903047000000007052090000444390702012     126197-02       20042021000000000002990756030470                         091000011195337671LUDMILA CRISTINA FERNANDES              00000000000000000000000700000000009                 
7560001300304U 090000000000000000000000000000000000000000000000000000000000000000000000000000000000000000000000000000000000000000000000002405202100000000    00000000000000000000000                        91779275600000000000000000000       
7560001300305T 0903047000000007052090000444391403012     126197-03       20052021000000000002990756030470                         091000011195337671LUDMILA CRISTINA FERNANDES              00000000000000000000000700000000009                 
7560001300306U 090000000000000000000000000000000000000000000000000000000000000000000000000000000000000000000000000000000000000000000000002405202100000000    00000000000000000000000                        91779375600000000000000000000       
7560001300307T 0603047000000007052090000444416304012     15809 - PREMIUM-25052021000000000007100756008160                         091000011726866610TATIANE FERREIRA SANTOS                 00000000000000000000001350000000004                 
7560001300308U 060000000000000000000000000000000000000000000000000000000000000000000000071000000000000071000000000000000000000000000000002405202125052021    00000000000000000000000                        91803575600000000000000000000       
7560001300309T 0603047000000007052090000444512604012     146-04          25062021000000000021679756014700                         091000003695648635ADIEL CEZARIO DA COSTA                  00000000000000000000001350000000004                 
7560001300310U 060000000000000000000000000000000000000000000000000000000000000000000000216790000000000216790000000000000000000000000000002405202125052021    00000000000000000000000                        91804475600000000000000000000       
7560001300311T 0603047000000007052090000446689202012     146-02          25052021000000000002990104032340                         091000093768834620LEOPOLDINA DE SOUSA NUNES               00000000000000000000001350000000004                 
7560001300312U 060000000000000000000000000000000000000000000000000000000000000000000000029900000000000029900000000000000000000000000000002405202125052021    00000000000000000000000                        91877075600000000000000000000       
7560001300313T 0903047000000007052090000447589001012     122698-01       15052021000000000003980756030470                         091000070107040662KASSIA CRISTINA DE SOUZA                00000000000000000000000700000000009                 
7560001300314U 090000000000000000000000000000000000000000000000000000000000000000000000000000000000000000000000000000000000000000000000002405202100000000    00000000000000000000000                        91779475600000000000000000000       
7560001300315T 0603047000000007052090000447831903012     125556-03       20052021000000000002990104038800                         091000024862831885LAUDICEIA GOMES PEREIRA                 00000000000000000000001350000000004                 
7560001300316U 060000000000000900000000000000000000000000000000000000000000000000000000030800000000000030800000000000000000000000000000002405202125052021    00000000000000000000000                        91847575600000000000000000000       
7560001300317T 0603047000000007052090000448323003012     126038-03       15052021000000000005900104023320                         091000070607543698RUBEN DARIO MONCADA GRAJALES            00000000000000000000001350000000004                 
7560001300318U 060000000000002590000000000000000000000000000000000000000000000000000000061590000000000061590000000000000000000000000000002405202125052021    00000000000000000000000                        91853975600000000000000000000       
7560001300319T 0603047000000007052090000451187002012     122447-02       20052021000000000006950756029310                         091000003775296646JANDERSON LUIZ SILVA                    00000000000000000000001350000000004                 
7560001300320U 060000000000002130000000000000000000000000000000000000000000000000000000071630000000000071630000000000000000000000000000002405202125052021    00000000000000000000000                        91806175600000000000000000000       
7560001300321T 0603047000000007052090000451439202012     122620-02       10052021000000000004970001030030                         091000002958493636JOSE DO CARMO VIEIRA DE OLIVEIRA        00000000000000000000001350000000004                 
7560001300322U 060000000000002840000000000000000000000000000000000000000000000000000000052540000000000052540000000000000000000000000000002405202125052021    00000000000000000000000                        91790675600000000000000000000       
7560001300323T 0903047000000007052090000451835002012     126356-02       20052021000000000006950756030470                         091000002853379639MARIA APARECIDA DAVID ESTEVAM RODRIGUES 00000000000000000000000700000000009                 
7560001300324U 090000000000000000000000000000000000000000000000000000000000000000000000000000000000000000000000000000000000000000000000002405202100000000    00000000000000000000000                        91779575600000000000000000000       
7560001300325T 0903047000000007052090000452062401012     124754-01       10042021000000000004970756030470                         091000024337234691LAIR  JOSE FERNANDES                    00000000000000000000000700000000009                 
7560001300326U 090000000000000000000000000000000000000000000000000000000000000000000000000000000000000000000000000000000000000000000000002405202100000000    00000000000000000000000                        91779675600000000000000000000       
7560001300327T 0903047000000007052090000452063102012     124754-02       10052021000000000004970756030470                         091000024337234691LAIR  JOSE FERNANDES                    00000000000000000000000700000000009                 
7560001300328U 090000000000000000000000000000000000000000000000000000000000000000000000000000000000000000000000000000000000000000000000002405202100000000    00000000000000000000000                        91779775600000000000000000000       
7560001300329T 0903047000000007052090000452064903012     124754-03       10062021000000000004970756030470                         091000024337234691LAIR  JOSE FERNANDES                    00000000000000000000000700000000009                 
7560001300330U 090000000000000000000000000000000000000000000000000000000000000000000000000000000000000000000000000000000000000000000000002405202100000000    00000000000000000000000                        91779875600000000000000000000       
7560001300331T 0903047000000007052090000452065604012     124754-04       10072021000000000004970756030470                         091000024337234691LAIR  JOSE FERNANDES                    00000000000000000000000700000000009                 
7560001300332U 090000000000000000000000000000000000000000000000000000000000000000000000000000000000000000000000000000000000000000000000002405202100000000    00000000000000000000000                        91779975600000000000000000000       
7560001300333T 0903047000000007052090000452066305012     124754-05       10082021000000000004970756030470                         091000024337234691LAIR  JOSE FERNANDES                    00000000000000000000000700000000009                 
7560001300334U 090000000000000000000000000000000000000000000000000000000000000000000000000000000000000000000000000000000000000000000000002405202100000000    00000000000000000000000                        91780075600000000000000000000       
7560001300335T 0903047000000007052090000452067006012     124754-06       10092021000000000004970756030470                         091000024337234691LAIR  JOSE FERNANDES                    00000000000000000000000700000000009                 
7560001300336U 090000000000000000000000000000000000000000000000000000000000000000000000000000000000000000000000000000000000000000000000002405202100000000    00000000000000000000000                        91780175600000000000000000000       
7560001300337T 0903047000000007052090000452068807012     124754-07       10102021000000000004970756030470                         091000024337234691LAIR  JOSE FERNANDES                    00000000000000000000000700000000009                 
7560001300338U 090000000000000000000000000000000000000000000000000000000000000000000000000000000000000000000000000000000000000000000000002405202100000000    00000000000000000000000                        91780275600000000000000000000       
7560001300339T 0903047000000007052090000452069508012     124754-08       10112021000000000004970756030470                         091000024337234691LAIR  JOSE FERNANDES                    00000000000000000000000700000000009                 
7560001300340U 090000000000000000000000000000000000000000000000000000000000000000000000000000000000000000000000000000000000000000000000002405202100000000    00000000000000000000000                        91780375600000000000000000000       
7560001300341T 0903047000000007052090000452070309012     124754-09       10122021000000000004970756030470                         091000024337234691LAIR  JOSE FERNANDES                    00000000000000000000000700000000009                 
7560001300342U 090000000000000000000000000000000000000000000000000000000000000000000000000000000000000000000000000000000000000000000000002405202100000000    00000000000000000000000                        91780475600000000000000000000       
7560001300343T 0903047000000007052090000452071010012     124754-10       10012022000000000004970756030470                         091000024337234691LAIR  JOSE FERNANDES                    00000000000000000000000700000000009                 
7560001300344U 090000000000000000000000000000000000000000000000000000000000000000000000000000000000000000000000000000000000000000000000002405202100000000    00000000000000000000000                        91780575600000000000000000000       
7560001300345T 0903047000000007052090000452072811012     124754-11       10022022000000000004970756030470                         091000024337234691LAIR  JOSE FERNANDES                    00000000000000000000000700000000009                 
7560001300346U 090000000000000000000000000000000000000000000000000000000000000000000000000000000000000000000000000000000000000000000000002405202100000000    00000000000000000000000                        91780675600000000000000000000       
7560001300347T 0903047000000007052090000452073512012     124754-12       10032022000000000004970756030470                         091000024337234691LAIR  JOSE FERNANDES                    00000000000000000000000700000000009                 
7560001300348U 090000000000000000000000000000000000000000000000000000000000000000000000000000000000000000000000000000000000000000000000002405202100000000    00000000000000000000000                        91780775600000000000000000000       
7560001300349T 0603047000000007052090000453216802012     19393-02        15052021000000000002990001046250                         091000004771726604MARIA APARECIDA DOS  SANTOS             00000000000000000000001350000000004                 
7560001300350U 060000000000001300000000000000000000000000000000000000000000000000000000031200000000000031200000000000000000000000000000002405202125052021    00000000000000000000000                        91791275600000000000000000000       
7560001300351T 0603047000000007052090000455664702012     19495-02        20052021000000000005960104001180                         091000066470757634SEBASTI츒 BRAGA DE FREITAS              00000000000000000000001350000000004                 
7560001300352U 060000000000001820000000000000000000000000000000000000000000000000000000061420000000000061420000000000000000000000000000002405202125052021    00000000000000000000000                        91828475600000000000000000000       
7560001300353T 0603047000000007052090000456708502012     122625-02       15052021000000000002990104038800                         091000004870550636EDNA DA SILVA MARQUES                   00000000000000000000001350000000004                 
7560001300354U 060000000000001300000000000000000000000000000000000000000000000000000000031200000000000031200000000000000000000000000000002405202125052021    00000000000000000000000                        91812575600000000000000000000       
7560001300355T 0603047000000007052090000457513802012     126394-02       20052021000000000005960260000010                         091000007570849663MARINA JOSANA PEREIRA DE OLIVEIRA DIAS  00000000000000000000001350000000004                 
7560001300356U 060000000000001820000000000000000000000000000000000000000000000000000000061420000000000061420000000000000000000000000000002405202125052021    00000000000000000000000                        91854175600000000000000000000       
7560001300357T 0603047000000007052090000457788301012     163-01          30052021000000000002990104032340                         091000017329086649ELOI FIALHO                             00000000000000000000001350000000004                 
7560001300358U 060000000000000000000000000000000000000000000000000000000000000000000000029900000000000029900000000000000000000000000000002405202125052021    00000000000000000000000                        91874975600000000000000000000       
7560001300359T 0603047000000007052090000457849802012     126399-02       30052021000000000002990104023320                         091000002659841659LUIZ PROCOPIO DE ALVARENGA              00000000000000000000001350000000004                 
7560001300360U 060000000000000000000000000000000000000000000000000000000000000000000000029900000000000029900000000000000000000000000000002405202125052021    00000000000000000000000                        91832775600000000000000000000       
7560001300361T 0603047000000007052090000457933202012     126344-02       30052021000000000003980104023320                         091000012576030602DAIANE AUXILIADORA DE SOUZA             00000000000000000000001350000000004                 
7560001300362U 060000000000000000000000000000000000000000000000000000000000000000000000039800000000000039800000000000000000000000000000002405202125052021    00000000000000000000000                        91859175600000000000000000000       
7560001300363T 0603047000000007052090000458450801012     122163 INC-01   25042021000000000005960104023320                         091000009535957651EVERALDO FELIPE PEDRO                   00000000000000000000001350000000004                 
7560001300364U 060000000000005790000000000000000000000000000000000000000000000000000000065390000000000065390000000000000000000000000000002405202125052021    00000000000000000000000                        91796375600000000000000000000       
7560001300365T 0603047000000007052090000458451502012     122163 INC-02   25052021000000000005960104023320                         091000009535957651EVERALDO FELIPE PEDRO                   00000000000000000000001350000000004                 
7560001300366U 060000000000000000000000000000000000000000000000000000000000000000000000059600000000000059600000000000000000000000000000002405202125052021    00000000000000000000000                        91847375600000000000000000000       
7560001300367T 0603047000000007052090000458715502012     126509-02       20052021000000000002990655000010                         091000065025890659MARIA DOS ANJOS                         00000000000000000000001350000000004                 
7560001300368U 060000000000000900000000000000000000000000000000000000000000000000000000030800000000000030800000000000000000000000000000002405202125052021    00000000000000000000000                        91815375600000000000000000000       
7560001300369T 0603047000000007052090000458751002012     1INC 26179-02   25052021000000000003980237025230                         091000024925225634JOSE EGIDIO DOS REIS                    00000000000000000000001350000000004                 
7560001300370U 060000000000000000000000000000000000000000000000000000000000000000000000039800000000000039800000000000000000000000000000002405202125052021    00000000000000000000000                        91798775600000000000000000000       
7560001300371T 0603047000000007052090000460154601012     159-01          15052021000000000002990001011540                         091000063411164620NILDETE MOURA MACHADO                   00000000000000000000001350000000004                 
7560001300372U 060000000000001140000000000000000000000000000000000000000000000000000000031040000000000031040000000000000000000000000000002405202125052021    00000000000000000000000                        91854875600000000000000000000       
7560001300373T 0603047000000007052090000460370801012     119-01          20052021000000000002990237069800                         091000005598881632RONALIA LUCAS DA SILVA                  00000000000000000000001350000000004                 
7560001300374U 060000000000000740000000000000000000000000000000000000000000000000000000030640000000000030640000000000000000000000000000002405202125052021    00000000000000000000000                        91841575600000000000000000000       
7560001300375T 0603047000000007052090000461411401012     1INC 23787-01   15042021000000000003980104031480                         091000010867452641JUCIANE ALVES TEIXEIRA BARBOSA          00000000000000000000001350000000004                 
7560001300376U 060000000000004710000000000000000000000000000000000000000000000000000000044510000000000044510000000000000000000000000000002405202125052021    00000000000000000000000                        91843275600000000000000000000       
7560001300377T 0603047000000007052090000461412102012     1INC 23787-02   15052021000000000003980104031480                         091000010867452641JUCIANE ALVES TEIXEIRA BARBOSA          00000000000000000000001350000000004                 
7560001300378U 060000000000001530000000000000000000000000000000000000000000000000000000041330000000000041330000000000000000000000000000002405202125052021    00000000000000000000000                        91829275600000000000000000000       
7560001300379T 0603047000000007052090000461903401012     13244-01        20052021000000000004970104037040                         091000010290896630ALINE ABDALLA DE OLIVEIRA               00000000000000000000001350000000004                 
7560001300380U 060000000000001520000000000000000000000000000000000000000000000000000000051220000000000051220000000000000000000000000000002405202125052021    00000000000000000000000                        91796975600000000000000000000       
7560001300381T 0903047000000007052090000462119601012     120179 EX/FID-0105052021000000000002990756030470                         091000008858246608F첵IO DE ALMEIDA                        00000000000000000000000700000000009                 
7560001300382U 090000000000000000000000000000000000000000000000000000000000000000000000000000000000000000000000000000000000000000000000002405202100000000    00000000000000000000000                        91780875600000000000000000000       
7560001300383T 0903047000000007052090000465071501012     122802-01       20052021000000000003980756030470                         091000070028322630MARIA MIRIAM GOMES DA SILVA             00000000000000000000000700000000009                 
7560001300384U 090000000000000000000000000000000000000000000000000000000000000000000000000000000000000000000000000000000000000000000000002405202100000000    00000000000000000000000                        91780975600000000000000000000       
7560001300385T 0903047000000007052090000465072202012     122802-02       20062021000000000003980756030470                         091000070028322630MARIA MIRIAM GOMES DA SILVA             00000000000000000000000700000000009                 
7560001300386U 090000000000000000000000000000000000000000000000000000000000000000000000000000000000000000000000000000000000000000000000002405202100000000    00000000000000000000000                        91781075600000000000000000000       
7560001300387T 0903047000000007052090000465073003012     122802-03       20072021000000000003980756030470                         091000070028322630MARIA MIRIAM GOMES DA SILVA             00000000000000000000000700000000009                 
7560001300388U 090000000000000000000000000000000000000000000000000000000000000000000000000000000000000000000000000000000000000000000000002405202100000000    00000000000000000000000                        91781175600000000000000000000       
7560001300389T 0903047000000007052090000465074704012     122802-04       20082021000000000003980756030470                         091000070028322630MARIA MIRIAM GOMES DA SILVA             00000000000000000000000700000000009                 
7560001300390U 090000000000000000000000000000000000000000000000000000000000000000000000000000000000000000000000000000000000000000000000002405202100000000    00000000000000000000000                        91781275600000000000000000000       
7560001300391T 0903047000000007052090000465075405012     122802-05       20092021000000000003980756030470                         091000070028322630MARIA MIRIAM GOMES DA SILVA             00000000000000000000000700000000009                 
7560001300392U 090000000000000000000000000000000000000000000000000000000000000000000000000000000000000000000000000000000000000000000000002405202100000000    00000000000000000000000                        91781375600000000000000000000       
7560001300393T 0903047000000007052090000465076106012     122802-06       20102021000000000003980756030470                         091000070028322630MARIA MIRIAM GOMES DA SILVA             00000000000000000000000700000000009                 
7560001300394U 090000000000000000000000000000000000000000000000000000000000000000000000000000000000000000000000000000000000000000000000002405202100000000    00000000000000000000000                        91781475600000000000000000000       
7560001300395T 0903047000000007052090000465077907012     122802-07       20112021000000000003980756030470                         091000070028322630MARIA MIRIAM GOMES DA SILVA             00000000000000000000000700000000009                 
7560001300396U 090000000000000000000000000000000000000000000000000000000000000000000000000000000000000000000000000000000000000000000000002405202100000000    00000000000000000000000                        91781575600000000000000000000       
7560001300397T 0903047000000007052090000465078608012     122802-08       20122021000000000003980756030470                         091000070028322630MARIA MIRIAM GOMES DA SILVA             00000000000000000000000700000000009                 
7560001300398U 090000000000000000000000000000000000000000000000000000000000000000000000000000000000000000000000000000000000000000000000002405202100000000    00000000000000000000000                        91781675600000000000000000000       
7560001300399T 0903047000000007052090000465079309012     122802-09       20012022000000000003980756030470                         091000070028322630MARIA MIRIAM GOMES DA SILVA             00000000000000000000000700000000009                 
7560001300400U 090000000000000000000000000000000000000000000000000000000000000000000000000000000000000000000000000000000000000000000000002405202100000000    00000000000000000000000                        91781775600000000000000000000       
7560001300401T 0903047000000007052090000465080110012     122802-10       20022022000000000003980756030470                         091000070028322630MARIA MIRIAM GOMES DA SILVA             00000000000000000000000700000000009                 
7560001300402U 090000000000000000000000000000000000000000000000000000000000000000000000000000000000000000000000000000000000000000000000002405202100000000    00000000000000000000000                        91781875600000000000000000000       
7560001300403T 0903047000000007052090000465081911012     122802-11       20032022000000000003980756030470                         091000070028322630MARIA MIRIAM GOMES DA SILVA             00000000000000000000000700000000009                 
7560001300404U 090000000000000000000000000000000000000000000000000000000000000000000000000000000000000000000000000000000000000000000000002405202100000000    00000000000000000000000                        91781975600000000000000000000       
7560001300405T 0903047000000007052090000465082612012     122802-12       20042022000000000003980756030470                         091000070028322630MARIA MIRIAM GOMES DA SILVA             00000000000000000000000700000000009                 
7560001300406U 090000000000000000000000000000000000000000000000000000000000000000000000000000000000000000000000000000000000000000000000002405202100000000    00000000000000000000000                        91782075600000000000000000000       
7560001300407T 0603047000000007052090000465599001012     122730 INC-01   10052021000000000003980104031480                         091000009533898631ADRIANA JESUS DE SOUZA OLIVEIRA         00000000000000000000001350000000004                 
7560001300408U 060000000000002270000000000000000000000000000000000000000000000000000000042070000000000042070000000000000000000000000000002405202125052021    00000000000000000000000                        91825075600000000000000000000       
7560001300409T 0603047000000007052090000465612102012     1INC 26236-02   20052021000000000005960001046250                         091000098227076653JORGE MARCOS DE BELEM                   00000000000000000000001350000000004                 
7560001300410U 060000000000001500000000000000000000000000000000000000000000000000000000061100000000000061100000000000000000000000000000002405202125052021    00000000000000000000000                        91818775600000000000000000000       
7560001300411T 0603047000000007052090000466175501012     122808-01       25052021000000000003980104031480                         091000011291880607LEIDIANE MAGDA GON큐LVES DOS SANTOS     00000000000000000000001350000000004                 
7560001300412U 060000000000000000000000000000000000000000000000000000000000000000000000039800000000000039800000000000000000000000000000002405202125052021    00000000000000000000000                        91820075600000000000000000000       
7560001300413T 0603047000000007052090000468941801012     126600-01       30052021000000000003980104023320                         091000085650803668ODETE ALVES VIANA                       00000000000000000000001350000000004                 
