02RETORNO01COBRANÇA       30470000314811705209PROMEDICO PLANO ASSISTENCIAL A756 - BANCOOB S/A 1606210000857                                                                                                                                                                                                                                                                                               000001
1022395731500012730470000705209000000                         00000446726003000000DM 00000000000000000000 010615062169-03                         150621000000000299000111540121606210000135000000000000000000000000000000000000000000000000000000000000000000000000002990000000000000000000000000000000000000000000000000000010000000000000          0000936462868300000000000000000000000000000000000000000002
1022395731500012730470000705209000000                         00000346964010000000DM 00000000000000000000 010615062166-10                         150621000000000299000111540121606210000135000000000000000000000000000000000000000000000000000000000000000000000000002990000000000000000000000000000000000000000000000000000010000000000000          0000363113665000000000000000000000000000000000000000000003
1022395731500012730470000705209000000                         00000447435004000000DM 00000000000000000000 010615062121875-04                      020721000000000299075630470121606210000110000000000000000000000000000000000000000000000000000000000000000000000000002990000000000000000000000000000000000000000000000000000010000000000000          0009022932060000000000000000000000000000000000000000000004
1022395731500012730470000705209000000                         00000358483709000000DM 00000000000000000000 010615062158-09                         150621000000000299000111540121606210000135000000000000000000000000000000000000000000000000000000000000000000000000002990000000000000000000000000000000000000000000000000000010000000000000          0003718261766800000000000000000000000000000000000000000005
1022395731500012730470000705209000000                         00000447469002000000DM 00000000000000000000 010615062147-02                         300521000000000299000111540121606210000135000000000000000000000000000000000000000000000000000000000000000000000000003258000000000026800000000000000000000000000000000000000010000000000000          0000016263669500000000000000000000000000000000000000000006
1022395731500012730470000705209000000                         00000392889205000000DM 00000000000000000000 010615062166-05                         150421000000000299000111540121606210000135000000000000000000000000000000000000000000000000000000000000000000000000003350000000000036000000000000000000000000000000000000000010000000000000          0006089045268700000000000000000000000000000000000000000007
1022395731500012730470000705209000000                         00000405948806000000DM 00000000000000000000 010615062123-06                         100621000000000299075630470121606210000110000000000000000000000000000000000000000000000000000000000000000000000000003238000000000024800000000000000000000000000000000000000010000000000000          0007646448265300000000000000000000000000000000000000000008
1022395731500012730470000705209000000                         00000360679509000000DM 00000000000000000000 010615062130-09                         150621000000000299075630470121606210000110000000000000000000000000000000000000000000000000000000000000000000000000002990000000000000000000000000000000000000000000000000000010000000000000          0000901362565700000000000000000000000000000000000000000009
1022395731500012730470000705209000000                         00000446259404000000DM 00000000000000000000 010615062146-04                         300621000000000299010407060121606210000135000000000000000000000000000000000000000000000000000000000000000000000000002990000000000000000000000000000000000000000000000000000010000000000000          0000533813263000000000000000000000000000000000000000000010
1022395731500012730470000705209000000                         00000346184310000000DM 00000000000000000000 010615062166-10                         150621000000000299000111540121606210000135000000000000000000000000000000000000000000000000000000000000000000000000002990000000000000000000000000000000000000000000000000000010000000000000          0008323015767200000000000000000000000000000000000000000011
1022395731500012730470000705209000000                         00000249205707000000DM 00000000000000000000 010914062196-07                         151220000000000299075630470120000000000000000000000000000000000000000000000000000000000000000000000000000000000000002990000000000000000000000000000000000000000000000000000010000000000000          0001158726562100000000000000000000000000000000000000000012
1022395731500012730470000705209000000                         00000253435412000000DM 00000000000000000000 01091406217311-12                       151220000000000299075630470990000000000000000000000000000000000000000000000000000000000000000000000000000000000000002990000000000000000000000000000000000000000000000000000010000000000000          0000937344060800000000000000000000000000000000000000000013
1022395731500012730470000705209000000                         00000253579012000000DM 00000000000000000000 010914062111378-12                      151220000000000695075630470990000000000000000000000000000000000000000000000000000000000000000000000000000000000000006950000000000000000000000000000000000000000000000000000010000000000000          0005419419963400000000000000000000000000000000000000000014
1022395731500012730470000705209000000                         00000253843012000000DM 00000000000000000000 010914062111359-12                      151220000000000794075630470990000000000000000000000000000000000000000000000000000000000000000000000000000000000000007940000000000000000000000000000000000000000000000000000010000000000000          0000659566761400000000000000000000000000000000000000000015
1022395731500012730470000705209000000                         00000253891412000000DM 00000000000000000000 010914062124495-12                      151220000000000398075630470120000000000000000000000000000000000000000000000000000000000000000000000000000000000000003980000000000000000000000000000000000000000000000000000010000000000000          0000754670864800000000000000000000000000000000000000000016
1022395731500012730470000705209000000                         00000255211212000000DM 00000000000000000000 010914062111346-12                      151220000000000299075630470990000000000000000000000000000000000000000000000000000000000000000000000000000000000000002990000000000000000000000000000000000000000000000000000010000000000000          0000814850162900000000000000000000000000000000000000000017
1022395731500012730470000705209000000                         00000255307412000000DM 00000000000000000000 010914062111473-12                      151220000000000299075630470990000000000000000000000000000000000000000000000000000000000000000000000000000000000000002990000000000000000000000000000000000000000000000000000010000000000000          0001141403463600000000000000000000000000000000000000000018
1022395731500012730470000705209000000                         00000255415512000000DM 00000000000000000000 010914062111406-12                      151220000000000398075630470990000000000000000000000000000000000000000000000000000000000000000000000000000000000000003980000000000000000000000000000000000000000000000000000010000000000000          0000502202068800000000000000000000000000000000000000000019
1022395731500012730470000705209000000                         00000264673411000000DM 00000000000000000000 010914062129-11                         151220000000000299075630470120000000000000000000000000000000000000000000000000000000000000000000000000000000000000002990000000000000000000000000000000000000000000000000000010000000000000          0000495531464300000000000000000000000000000000000000000020
1022395731500012730470000705209000000                         00000264697011000000DM 00000000000000000000 010914062129-11                         151220000000000299075630470120000000000000000000000000000000000000000000000000000000000000000000000000000000000000002990000000000000000000000000000000000000000000000000000010000000000000          0000740007262500000000000000000000000000000000000000000021
1022395731500012730470000705209000000                         00000264973011000000DM 00000000000000000000 010914062129-11                         151220000000000299075630470120000000000000000000000000000000000000000000000000000000000000000000000000000000000000002990000000000000000000000000000000000000000000000000000010000000000000          0001332291864500000000000000000000000000000000000000000022
1022395731500012730470000705209000000                         00000265033811000000DM 00000000000000000000 010914062126-11                         151220000000000299075630470120000000000000000000000000000000000000000000000000000000000000000000000000000000000000002990000000000000000000000000000000000000000000000000000010000000000000          0007893985267200000000000000000000000000000000000000000023
1022395731500012730470000705209000000                         00000265093011000000DM 00000000000000000000 010914062185-11                         151220000000000299075630470120000000000000000000000000000000000000000000000000000000000000000000000000000000000000002990000000000000000000000000000000000000000000000000000010000000000000          0004823758269100000000000000000000000000000000000000000024
1022395731500012730470000705209000000                         00000265129011000000DM 00000000000000000000 010914062145-11                         151220000000000299075630470120000000000000000000000000000000000000000000000000000000000000000000000000000000000000002990000000000000000000000000000000000000000000000000000010000000000000          0001465018760500000000000000000000000000000000000000000025
1022395731500012730470000705209000000                         00000265165511000000DM 00000000000000000000 010914062129-11                         151220000000000299075630470120000000000000000000000000000000000000000000000000000000000000000000000000000000000000002990000000000000000000000000000000000000000000000000000010000000000000          0001034288067500000000000000000000000000000000000000000026
1022395731500012730470000705209000000                         00000265213411000000DM 00000000000000000000 010914062189-11                         151220000000000299075630470120000000000000000000000000000000000000000000000000000000000000000000000000000000000000002990000000000000000000000000000000000000000000000000000010000000000000          0001054299269800000000000000000000000000000000000000000027
1022395731500012730470000705209000000                         00000265237011000000DM 00000000000000000000 010914062124777-11                      151220000000000299075630470990000000000000000000000000000000000000000000000000000000000000000000000000000000000000002990000000000000000000000000000000000000000000000000000010000000000000          0000425392163900000000000000000000000000000000000000000028
1022395731500012730470000705209000000                         00000265261811000000DM 00000000000000000000 010914062136-11                         151220000000000299075630470120000000000000000000000000000000000000000000000000000000000000000000000000000000000000002990000000000000000000000000000000000000000000000000000010000000000000          0009338251063400000000000000000000000000000000000000000029
1022395731500012730470000705209000000                         00000265309611000000DM 00000000000000000000 010914062129-11                         151220000000000299075630470120000000000000000000000000000000000000000000000000000000000000000000000000000000000000002990000000000000000000000000000000000000000000000000000010000000000000          0005583963069100000000000000000000000000000000000000000030
1022395731500012730470000705209000000                         00000265321511000000DM 00000000000000000000 010914062129-11                         151220000000000299075630470120000000000000000000000000000000000000000000000000000000000000000000000000000000000000002990000000000000000000000000000000000000000000000000000010000000000000          0001350558362600000000000000000000000000000000000000000031
1022395731500012730470000705209000000                         00000265333311000000DM 00000000000000000000 010914062124726-11                      151220000000000299075630470120000000000000000000000000000000000000000000000000000000000000000000000000000000000000002990000000000000000000000000000000000000000000000000000010000000000000          0000711601860300000000000000000000000000000000000000000032
1022395731500012730470000705209000000                         00000265393511000000DM 00000000000000000000 010914062129-11                         151220000000000299075630470120000000000000000000000000000000000000000000000000000000000000000000000000000000000000002990000000000000000000000000000000000000000000000000000010000000000000          0005643065568700000000000000000000000000000000000000000033
1022395731500012730470000705209000000                         00000265537611000000DM 00000000000000000000 010914062129-11                         151220000000000299075630470120000000000000000000000000000000000000000000000000000000000000000000000000000000000000002990000000000000000000000000000000000000000000000000000010000000000000          0000568865766900000000000000000000000000000000000000000034
1022395731500012730470000705209000000                         00000265597811000000DM 00000000000000000000 010914062124779-11                      151220000000000299075630470990000000000000000000000000000000000000000000000000000000000000000000000000000000000000002990000000000000000000000000000000000000000000000000000010000000000000          0000683779761100000000000000000000000000000000000000000035
1022395731500012730470000705209000000                         00000265705411000000DM 00000000000000000000 010914062144-11                         151220000000000299075630470120000000000000000000000000000000000000000000000000000000000000000000000000000000000000002990000000000000000000000000000000000000000000000000000010000000000000          0000707359767400000000000000000000000000000000000000000036
1022395731500012730470000705209000000                         00000386129708000000DM 00000000000000000000 011014062124002-08                      150621000000000299075630470010000000000070000000000000000000000000000000000000000000000000000000000000000000000000002990000000000000000000000000000000000000000000000000000010000000000000          0003110223961500000000000000000000000000000000000000000037
1022395731500012730470000705209000000                         00000386130509000000DM 00000000000000000000 011014062124002-09                      150721000000000299075630470010000000000070000000000000000000000000000000000000000000000000000000000000000000000000002990000000000000000000000000000000000000000000000000000010000000000000          0003110223961500000000000000000000000000000000000000000038
1022395731500012730470000705209000000                         00000386131210000000DM 00000000000000000000 011014062124002-10                      150821000000000299075630470010000000000070000000000000000000000000000000000000000000000000000000000000000000000000002990000000000000000000000000000000000000000000000000000010000000000000          0003110223961500000000000000000000000000000000000000000039
1022395731500012730470000705209000000                         00000386132011000000DM 00000000000000000000 011014062124002-11                      150921000000000299075630470010000000000070000000000000000000000000000000000000000000000000000000000000000000000000002990000000000000000000000000000000000000000000000000000010000000000000          0003110223961500000000000000000000000000000000000000000040
1022395731500012730470000705209000000                         00000386133712000000DM 00000000000000000000 011014062124002-12                      151021000000000299075630470010000000000070000000000000000000000000000000000000000000000000000000000000000000000000002990000000000000000000000000000000000000000000000000000010000000000000          0003110223961500000000000000000000000000000000000000000041
1022395731500012730470000705209000000                         00000402355106000000DM 00000000000000000000 011014062125452-06                      150521000000000398075630470990000000000070000000000000000000000000000000000000000000000000000000000000000000000000003980000000000000000000000000000000000000000000000000000010000000000000          0003369743469100000000000000000000000000000000000000000042
1022395731500012730470000705209000000                         00000433175606000000DM 00000000000000000000 0110140621EXC 5632-06                   150721000000000299075630470010000000000070000000000000000000000000000000000000000000000000000000000000000000000000002990000000000000000000000000000000000000000000000000000010000000000000          0000316319260200000000000000000000000000000000000000000043
1022395731500012730470000705209000000                         00000433176307000000DM 00000000000000000000 0110140621EXC 5632-07                   150821000000000299075630470010000000000070000000000000000000000000000000000000000000000000000000000000000000000000002990000000000000000000000000000000000000000000000000000010000000000000          0000316319260200000000000000000000000000000000000000000044
1022395731500012730470000705209000000                         00000433177008000000DM 00000000000000000000 0110140621EXC 5632-08                   150921000000000299075630470010000000000070000000000000000000000000000000000000000000000000000000000000000000000000002990000000000000000000000000000000000000000000000000000010000000000000          0000316319260200000000000000000000000000000000000000000045
1022395731500012730470000705209000000                         00000433178809000000DM 00000000000000000000 0110140621EXC 5632-09                   151021000000000299075630470010000000000070000000000000000000000000000000000000000000000000000000000000000000000000002990000000000000000000000000000000000000000000000000000010000000000000          0000316319260200000000000000000000000000000000000000000046
1022395731500012730470000705209000000                         00000433179510000000DM 00000000000000000000 0110140621EXC 5632-10                   151121000000000299075630470010000000000070000000000000000000000000000000000000000000000000000000000000000000000000002990000000000000000000000000000000000000000000000000000010000000000000          0000316319260200000000000000000000000000000000000000000047
1022395731500012730470000705209000000                         00000433180311000000DM 00000000000000000000 0110140621EXC 5632-11                   151221000000000299075630470010000000000070000000000000000000000000000000000000000000000000000000000000000000000000002990000000000000000000000000000000000000000000000000000010000000000000          0000316319260200000000000000000000000000000000000000000048
1022395731500012730470000705209000000                         00000433181012000000DM 00000000000000000000 0110140621EXC 5632-12                   150122000000000299075630470010000000000070000000000000000000000000000000000000000000000000000000000000000000000000002990000000000000000000000000000000000000000000000000000010000000000000          0000316319260200000000000000000000000000000000000000000049
1022395731500012730470000705209000000                         00000444138002000000DM 00000000000000000000 011014062126187-02                      200421000000000299075630470990000000000070000000000000000000000000000000000000000000000000000000000000000000000000002990000000000000000000000000000000000000000000000000000010000000000000          0000598810773700000000000000000000000000000000000000000050
1022395731500012730470000705209000000                         00000444139703000000DM 00000000000000000000 011014062126187-03                      200521000000000299075630470990000000000070000000000000000000000000000000000000000000000000000000000000000000000000002990000000000000000000000000000000000000000000000000000010000000000000          0000598810773700000000000000000000000000000000000000000051
1022395731500012730470000705209000000                         00000444140504000000DM 00000000000000000000 011014062126187-04                      200621000000000299075630470990000000000070000000000000000000000000000000000000000000000000000000000000000000000000002990000000000000000000000000000000000000000000000000000010000000000000          0000598810773700000000000000000000000000000000000000000052
1022395731500012730470000705209000000                         00000448418402000000DM 00000000000000000000 01101406215073 EX01-02                  150421000000000299075630470010000000000070000000000000000000000000000000000000000000000000000000000000000000000000002990000000000000000000000000000000000000000000000000000010000000000000          0000544240782800000000000000000000000000000000000000000053
1022395731500012730470000705209000000                         00000448419103000000DM 00000000000000000000 01101406215073 EX01-03                  150521000000000299075630470010000000000070000000000000000000000000000000000000000000000000000000000000000000000000002990000000000000000000000000000000000000000000000000000010000000000000          0000544240782800000000000000000000000000000000000000000054
1022395731500012730470000705209000000                         00000457860001000000DM 00000000000000000000 011014062110783 FID EST-01              100421000000000596075630470010000000000070000000000000000000000000000000000000000000000000000000000000000000000000005960000000000000000000000000000000000000000000000000000010000000000000          0008364539060000000000000000000000000000000000000000000055
1022395731500012730470000705209000000                         00000457861702000000DM 00000000000000000000 011014062110783 FID EST-02              100521000000000596075630470010000000000070000000000000000000000000000000000000000000000000000000000000000000000000005960000000000000000000000000000000000000000000000000000010000000000000          0008364539060000000000000000000000000000000000000000000056
1022395731500012730470000705209000000                         00000477690106000000DM 00000000000000000000 011014062123014-06                      151121000000000299075630470010000000000070000000000000000000000000000000000000000000000000000000000000000000000000002990000000000000000000000000000000000000000000000000000010000000000000          0000739932861700000000000000000000000000000000000000000057
1022395731500012730470000705209000000                         00000477691907000000DM 00000000000000000000 011014062123014-07                      151221000000000299075630470010000000000070000000000000000000000000000000000000000000000000000000000000000000000000002990000000000000000000000000000000000000000000000000000010000000000000          0000739932861700000000000000000000000000000000000000000058
1022395731500012730470000705209000000                         00000477692608000000DM 00000000000000000000 011014062123014-08                      150122000000000299075630470010000000000070000000000000000000000000000000000000000000000000000000000000000000000000002990000000000000000000000000000000000000000000000000000010000000000000          0000739932861700000000000000000000000000000000000000000059
1022395731500012730470000705209000000                         00000477693309000000DM 00000000000000000000 011014062123014-09                      150222000000000299075630470010000000000070000000000000000000000000000000000000000000000000000000000000000000000000002990000000000000000000000000000000000000000000000000000010000000000000          0000739932861700000000000000000000000000000000000000000060
1022395731500012730470000705209000000                         00000477694010000000DM 00000000000000000000 011014062123014-10                      150322000000000299075630470010000000000070000000000000000000000000000000000000000000000000000000000000000000000000002990000000000000000000000000000000000000000000000000000010000000000000          0000739932861700000000000000000000000000000000000000000061
1022395731500012730470000705209000000                         00000477695811000000DM 00000000000000000000 011014062123014-11                      150422000000000299075630470010000000000070000000000000000000000000000000000000000000000000000000000000000000000000002990000000000000000000000000000000000000000000000000000010000000000000          0000739932861700000000000000000000000000000000000000000062
1022395731500012730470000705209000000                         00000477696512000000DM 00000000000000000000 011014062123014-12                      150522000000000299075630470010000000000070000000000000000000000000000000000000000000000000000000000000000000000000002990000000000000000000000000000000000000000000000000000010000000000000          0000739932861700000000000000000000000000000000000000000063
1022395731500012730470000705209000000                         00000478741101000000DM 00000000000000000000 011014062123019-01                      150621000000000299075630470010000000000070000000000000000000000000000000000000000000000000000000000000000000000000002990000000000000000000000000000000000000000000000000000010000000000000          0008072463969100000000000000000000000000000000000000000064
1022395731500012730470000705209000000                         00000478742902000000DM 00000000000000000000 011014062123019-02                      150721000000000299075630470010000000000070000000000000000000000000000000000000000000000000000000000000000000000000002990000000000000000000000000000000000000000000000000000010000000000000          0008072463969100000000000000000000000000000000000000000065
1022395731500012730470000705209000000                         00000478743603000000DM 00000000000000000000 011014062123019-03                      150821000000000299075630470010000000000070000000000000000000000000000000000000000000000000000000000000000000000000002990000000000000000000000000000000000000000000000000000010000000000000          0008072463969100000000000000000000000000000000000000000066
1022395731500012730470000705209000000                         00000478744304000000DM 00000000000000000000 011014062123019-04                      150921000000000299075630470010000000000070000000000000000000000000000000000000000000000000000000000000000000000000002990000000000000000000000000000000000000000000000000000010000000000000          0008072463969100000000000000000000000000000000000000000067
1022395731500012730470000705209000000                         00000478745005000000DM 00000000000000000000 011014062123019-05                      151021000000000299075630470010000000000070000000000000000000000000000000000000000000000000000000000000000000000000002990000000000000000000000000000000000000000000000000000010000000000000          0008072463969100000000000000000000000000000000000000000068
1022395731500012730470000705209000000                         00000269800611000000DM 00000000000000000000 010914062124857-11                      151220000000000299075630470990000000000000000000000000000000000000000000000000000000000000000000000000000000000000002990000000000000000000000000000000000000000000000000000010000000000000          0000418658560100000000000000000000000000000000000000000069
1022395731500012730470000705209000000                         00000269776311000000DM 00000000000000000000 010914062124853-11                      151220000000000398075630470990000000000000000000000000000000000000000000000000000000000000000000000000000000000000003980000000000000000000000000000000000000000000000000000010000000000000          0005818737560400000000000000000000000000000000000000000070
1022395731500012730470000705209000000                         00000269764511000000DM 00000000000000000000 010914062124822-11                      151220000000000398075630470990000000000000000000000000000000000000000000000000000000000000000000000000000000000000003980000000000000000000000000000000000000000000000000000010000000000000          0000284061360300000000000000000000000000000000000000000071
1022395731500012730470000705209000000                         00000269704311000000DM 00000000000000000000 010914062122-11                         151220000000000299075630470120000000000000000000000000000000000000000000000000000000000000000000000000000000000000002990000000000000000000000000000000000000000000000000000010000000000000          0001058292765000000000000000000000000000000000000000000072
1022395731500012730470000705209000000                         00000269680111000000DM 00000000000000000000 01091406211123-11                       151220000000000299075630470990000000000000000000000000000000000000000000000000000000000000000000000000000000000000002990000000000000000000000000000000000000000000000000000010000000000000          0001100401261600000000000000000000000000000000000000000073
1022395731500012730470000705209000000                         00000269644611000000DM 00000000000000000000 01091406217668-11                       151220000000000299075630470990000000000000000000000000000000000000000000000000000000000000000000000000000000000000002990000000000000000000000000000000000000000000000000000010000000000000          0003466867088000000000000000000000000000000000000000000074
1022395731500012730470000705209000000                         00000269447411000000DM 00000000000000000000 01091406219017-11                       151220000000000398075630470990000000000000000000000000000000000000000000000000000000000000000000000000000000000000003980000000000000000000000000000000000000000000000000000010000000000000          0002537914368700000000000000000000000000000000000000000075
1022395731500012730470000705209000000                         00000269291511000000DM 00000000000000000000 010914062111236-11                      151220000000000299075630470990000000000000000000000000000000000000000000000000000000000000000000000000000000000000002990000000000000000000000000000000000000000000000000000010000000000000          0000534349862000000000000000000000000000000000000000000076
1022395731500012730470000705209000000                         00000261365212000000DM 00000000000000000000 010914062124575-12                      151220000000000497075630470120000000000000000000000000000000000000000000000000000000000000000000000000000000000000004970000000000000000000000000000000000000000000000000000010000000000000          0000234625880600000000000000000000000000000000000000000077
1022395731500012730470000705209000000                         00000261173812000000DM 00000000000000000000 010914062145-12                         151220000000000299075630470120000000000000000000000000000000000000000000000000000000000000000000000000000000000000002990000000000000000000000000000000000000000000000000000010000000000000          0001409457761000000000000000000000000000000000000000000078
1022395731500012730470000705209000000                         00000261125412000000DM 00000000000000000000 010914062125-12                         151220000000000299075630470120000000000000000000000000000000000000000000000000000000000000000000000000000000000000002990000000000000000000000000000000000000000000000000000010000000000000          0009261763863400000000000000000000000000000000000000000079
1022395731500012730470000705209000000                         00000261065712000000DM 00000000000000000000 010914062196-12                         151220000000000299075630470120000000000000000000000000000000000000000000000000000000000000000000000000000000000000002990000000000000000000000000000000000000000000000000000010000000000000          0001906433062000000000000000000000000000000000000000000080
1022395731500012730470000705209000000                         00000260717712000000DM 00000000000000000000 010914062159-12                         151220000000000299075630470120000000000000000000000000000000000000000000000000000000000000000000000000000000000000002990000000000000000000000000000000000000000000000000000010000000000000          0008736415863400000000000000000000000000000000000000000081
1022395731500012730470000705209000000                         00000260561812000000DM 00000000000000000000 010914062122-12                         151220000000000299075630470120000000000000000000000000000000000000000000000000000000000000000000000000000000000000002990000000000000000000000000000000000000000000000000000010000000000000          0001732506469100000000000000000000000000000000000000000082
1022395731500012730470000705209000000                         00000260429012000000DM 00000000000000000000 010914062111417-12                      151220000000000299075630470990000000000000000000000000000000000000000000000000000000000000000000000000000000000000002990000000000000000000000000000000000000000000000000000010000000000000          0000743502663800000000000000000000000000000000000000000083
1022395731500012730470000705209000000                         00000260285912000000DM 00000000000000000000 01091406217232-12                       151220000000000398075630470990000000000000000000000000000000000000000000000000000000000000000000000000000000000000003980000000000000000000000000000000000000000000000000000010000000000000          0008336427767200000000000000000000000000000000000000000084
1022395731500012730470000705209000000                         00000259997412000000DM 00000000000000000000 010914062111322-12                      151220000000000398075630470990000000000000000000000000000000000000000000000000000000000000000000000000000000000000003980000000000000000000000000000000000000000000000000000010000000000000          0000373921969600000000000000000000000000000000000000000085
1022395731500012730470000705209000000                         00000259937212000000DM 00000000000000000000 010914062111480-12                      151220000000000398075630470990000000000000000000000000000000000000000000000000000000000000000000000000000000000000003980000000000000000000000000000000000000000000000000000010000000000000          0003370871165300000000000000000000000000000000000000000086
1022395731500012730470000705209000000                         00000259913612000000DM 00000000000000000000 01091406217340-12                       151220000000000398075630470990000000000000000000000000000000000000000000000000000000000000000000000000000000000000003980000000000000000000000000000000000000000000000000000010000000000000          0001015121063200000000000000000000000000000000000000000087
1022395731500012730470000705209000000                         00000259751212000000DM 00000000000000000000 010914062124606-12                      151220000000000299075630470990000000000000000000000000000000000000000000000000000000000000000000000000000000000000002990000000000000000000000000000000000000000000000000000010000000000000          0001378264860900000000000000000000000000000000000000000088
1022395731500012730470000705209000000                         00000259532912000000DM 00000000000000000000 010914062111029-12                      151220000000000497075630470990000000000000000000000000000000000000000000000000000000000000000000000000000000000000004970000000000000000000000000000000000000000000000000000010000000000000          0006593274968700000000000000000000000000000000000000000089
1022395731500012730470000705209000000                         00000259316712000000DM 00000000000000000000 01091406217148-12                       151220000000000299075630470990000000000000000000000000000000000000000000000000000000000000000000000000000000000000002990000000000000000000000000000000000000000000000000000010000000000000          0003519544989900000000000000000000000000000000000000000090
1022395731500012730470000705209000000                         00000259244112000000DM 00000000000000000000 010914062111456-12                      151220000000000299075630470990000000000000000000000000000000000000000000000000000000000000000000000000000000000000002990000000000000000000000000000000000000000000000000000010000000000000          0004960424460400000000000000000000000000000000000000000091
1022395731500012730470000705209000000                         00000259184412000000DM 00000000000000000000 01091406217154-12                       151220000000000596075630470990000000000000000000000000000000000000000000000000000000000000000000000000000000000000005960000000000000000000000000000000000000000000000000000010000000000000          0001490432663600000000000000000000000000000000000000000092
1022395731500012730470000705209000000                         00000258752012000000DM 00000000000000000000 010914062110223-12                      151220000000000596075630470990000000000000000000000000000000000000000000000000000000000000000000000000000000000000005960000000000000000000000000000000000000000000000000000010000000000000          0001894877462000000000000000000000000000000000000000000093
1022395731500012730470000705209000000                         00000258740212000000DM 00000000000000000000 010914062111477-12                      151220000000000299075630470990000000000000000000000000000000000000000000000000000000000000000000000000000000000000002990000000000000000000000000000000000000000000000000000010000000000000          0000001132563100000000000000000000000000000000000000000094
1022395731500012730470000705209000000                         00000258692312000000DM 00000000000000000000 010914062110431-12                      151220000000000398075630470990000000000000000000000000000000000000000000000000000000000000000000000000000000000000003980000000000000000000000000000000000000000000000000000010000000000000          0000118618660700000000000000000000000000000000000000000095
1022395731500012730470000705209000000                         00000258656812000000DM 00000000000000000000 010914062111467-12                      151220000000000299075630470990000000000000000000000000000000000000000000000000000000000000000000000000000000000000002990000000000000000000000000000000000000000000000000000010000000000000          0000319244970500000000000000000000000000000000000000000096
1022395731500012730470000705209000000                         00000258523312000000DM 00000000000000000000 010914062111330-12                      151220000000000398075630470990000000000000000000000000000000000000000000000000000000000000000000000000000000000000003980000000000000000000000000000000000000000000000000000010000000000000          0000842428160800000000000000000000000000000000000000000097
1022395731500012730470000705209000000                         00000258367312000000DM 00000000000000000000 010914062111005-12                      151220000000000695075630470990000000000000000000000000000000000000000000000000000000000000000000000000000000000000006950000000000000000000000000000000000000000000000000000010000000000000          0003499320762000000000000000000000000000000000000000000098
1022395731500012730470000705209000000                         00000258307112000000DM 00000000000000000000 01091406217238-12                       151220000000000299075630470990000000000000000000000000000000000000000000000000000000000000000000000000000000000000002990000000000000000000000000000000000000000000000000000010000000000000          0000716436868600000000000000000000000000000000000000000099
1022395731500012730470000705209000000                         00000258283012000000DM 00000000000000000000 010914062111445-12                      151220000000000596075630470990000000000000000000000000000000000000000000000000000000000000000000000000000000000000005960000000000000000000000000000000000000000000000000000010000000000000          0000063090961000000000000000000000000000000000000000000100
1022395731500012730470000705209000000                         00000258259212000000DM 00000000000000000000 010914062124601-12                      151220000000000398075630470990000000000000000000000000000000000000000000000000000000000000000000000000000000000000003980000000000000000000000000000000000000000000000000000010000000000000          0000748877061700000000000000000000000000000000000000000101
1022395731500012730470000705209000000                         00000258031312000000DM 00000000000000000000 010914062111017-12                      151220000000000299075630470990000000000000000000000000000000000000000000000000000000000000000000000000000000000000002990000000000000000000000000000000000000000000000000000010000000000000          0001968359885400000000000000000000000000000000000000000102
1022395731500012730470000705209000000                         00000257575712000000DM 00000000000000000000 010914062111415-12                      151220000000000299075630470990000000000000000000000000000000000000000000000000000000000000000000000000000000000000002990000000000000000000000000000000000000000000000000000010000000000000          0007053517560400000000000000000000000000000000000000000103
1022395731500012730470000705209000000                         00000257527312000000DM 00000000000000000000 010914062111486-12                      151220000000000299075630470990000000000000000000000000000000000000000000000000000000000000000000000000000000000000002990000000000000000000000000000000000000000000000000000010000000000000          0000063519968800000000000000000000000000000000000000000104
1022395731500012730470000705209000000                         00000257515512000000DM 00000000000000000000 010914062111431-12                      151220000000000596075630470990000000000000000000000000000000000000000000000000000000000000000000000000000000000000005960000000000000000000000000000000000000000000000000000010000000000000          0000665541066500000000000000000000000000000000000000000105
1022395731500012730470000705209000000                         00000257227812000000DM 00000000000000000000 010914062111455-12                      151220000000000398075630470990000000000000000000000000000000000000000000000000000000000000000000000000000000000000003980000000000000000000000000000000000000000000000000000010000000000000          0003928342967200000000000000000000000000000000000000000106
1022395731500012730470000705209000000                         00000256927112000000DM 00000000000000000000 010914062111449-12                      151220000000000299075630470990000000000000000000000000000000000000000000000000000000000000000000000000000000000000002990000000000000000000000000000000000000000000000000000010000000000000          0000512777667700000000000000000000000000000000000000000107
1022395731500012730470000705209000000                         00000256591612000000DM 00000000000000000000 010914062154-12                         151220000000000299075630470120000000000000000000000000000000000000000000000000000000000000000000000000000000000000002990000000000000000000000000000000000000000000000000000010000000000000          0006891196361500000000000000000000000000000000000000000108
1022395731500012730470000705209000000                         00000256483512000000DM 00000000000000000000 010914062155-12                         151220000000000299075630470120000000000000000000000000000000000000000000000000000000000000000000000000000000000000002990000000000000000000000000000000000000000000000000000010000000000000          0004179292068700000000000000000000000000000000000000000109
1022395731500012730470000705209000000                         00000256471712000000DM 00000000000000000000 010914062129-12                         151220000000000299075630470120000000000000000000000000000000000000000000000000000000000000000000000000000000000000002990000000000000000000000000000000000000000000000000000010000000000000          0000263814661700000000000000000000000000000000000000000110
1022395731500012730470000705209000000                         00000256327012000000DM 00000000000000000000 010914062124555-12                      151220000000000398075630470120000000000000000000000000000000000000000000000000000000000000000000000000000000000000003980000000000000000000000000000000000000000000000000000010000000000000          0000394348168900000000000000000000000000000000000000000111
1022395731500012730470000705209000000                         00000256291012000000DM 00000000000000000000 010914062111457-12                      151220000000000299075630470990000000000000000000000000000000000000000000000000000000000000000000000000000000000000002990000000000000000000000000000000000000000000000000000010000000000000          0000568428960600000000000000000000000000000000000000000112
1022395731500012730470000705209000000                         00000256087712000000DM 00000000000000000000 010914062165-12                         151220000000000299075630470120000000000000000000000000000000000000000000000000000000000000000000000000000000000000002990000000000000000000000000000000000000000000000000000010000000000000          0001136213180600000000000000000000000000000000000000000113
1022395731500012730470000705209000000                         00000255907512000000DM 00000000000000000000 010914062129-12                         151220000000000299075630470120000000000000000000000000000000000000000000000000000000000000000000000000000000000000002990000000000000000000000000000000000000000000000000000010000000000000          0000507729463100000000000000000000000000000000000000000114
1022395731500012730470000705209000000                         00000255727912000000DM 00000000000000000000 010914062110954-12                      151220000000000398075630470990000000000000000000000000000000000000000000000000000000000000000000000000000000000000003980000000000000000000000000000000000000000000000000000010000000000000          0000657090760300000000000000000000000000000000000000000115
1022395731500012730470000705209000000                         00000255691912000000DM 00000000000000000000 010914062111321-12                      151220000000000497075630470990000000000000000000000000000000000000000000000000000000000000000000000000000000000000004970000000000000000000000000000000000000000000000000000010000000000000          0001182167268200000000000000000000000000000000000000000116
1022395731500012730470000705209000000                         00000255199812000000DM 00000000000000000000 01091406217366-12                       151220000000000398075630470990000000000000000000000000000000000000000000000000000000000000000000000000000000000000003980000000000000000000000000000000000000000000000000000010000000000000          0000795184360100000000000000000000000000000000000000000117
1022395731500012730470000705209000000                         00000255163312000000DM 00000000000000000000 010914062111481-12                      151220000000000299075630470990000000000000000000000000000000000000000000000000000000000000000000000000000000000000002990000000000000000000000000000000000000000000000000000010000000000000          0000826238262500000000000000000000000000000000000000000118
1022395731500012730470000705209000000                         00000254959912000000DM 00000000000000000000 010914062128-12                         151220000000000299075630470120000000000000000000000000000000000000000000000000000000000000000000000000000000000000002990000000000000000000000000000000000000000000000000000010000000000000          0004792905729100000000000000000000000000000000000000000119
1022395731500012730470000705209000000                         00000254935212000000DM 00000000000000000000 010914062111290-12                      151220000000000497075630470990000000000000000000000000000000000000000000000000000000000000000000000000000000000000004970000000000000000000000000000000000000000000000000000010000000000000          0000824007069800000000000000000000000000000000000000000120
1022395731500012730470000705209000000                         00000254851912000000DM 00000000000000000000 010914062111711-12                      151220000000000398075630470990000000000000000000000000000000000000000000000000000000000000000000000000000000000000003980000000000000000000000000000000000000000000000000000010000000000000          0001025038061700000000000000000000000000000000000000000121
1022395731500012730470000705209000000                         00000254707212000000DM 00000000000000000000 010914062129-12                         151220000000000299075630470120000000000000000000000000000000000000000000000000000000000000000000000000000000000000002990000000000000000000000000000000000000000000000000000010000000000000          0001151855464400000000000000000000000000000000000000000122
1022395731500012730470000705209000000                         00000254563112000000DM 00000000000000000000 010914062127-12                         151220000000000299075630470120000000000000000000000000000000000000000000000000000000000000000000000000000000000000002990000000000000000000000000000000000000000000000000000010000000000000          0006518994967200000000000000000000000000000000000000000123
1022395731500012730470000705209000000                         00000254527612000000DM 00000000000000000000 01091406219708-12                       151220000000000398075630470990000000000000000000000000000000000000000000000000000000000000000000000000000000000000003980000000000000000000000000000000000000000000000000000010000000000000          0007033497261200000000000000000000000000000000000000000124
1022395731500012730470000705209000000                         00000254455012000000DM 00000000000000000000 010914062124497-12                      151220000000000299075630470120000000000000000000000000000000000000000000000000000000000000000000000000000000000000002990000000000000000000000000000000000000000000000000000010000000000000          0001511194561000000000000000000000000000000000000000000125
1022395731500012730470000705209000000                         00000254311512000000DM 00000000000000000000 010914062136-12                         151220000000000299075630470120000000000000000000000000000000000000000000000000000000000000000000000000000000000000002990000000000000000000000000000000000000000000000000000010000000000000          0003492931260400000000000000000000000000000000000000000126
1022395731500012730470000705209000000                         00000254299012000000DM 00000000000000000000 010914062133-12                         151220000000000299075630470120000000000000000000000000000000000000000000000000000000000000000000000000000000000000002990000000000000000000000000000000000000000000000000000010000000000000          0000016247663900000000000000000000000000000000000000000127
1022395731500012730470000705209000000                         00000254227012000000DM 00000000000000000000 010914062125-12                         151220000000000299075630470120000000000000000000000000000000000000000000000000000000000000000000000000000000000000002990000000000000000000000000000000000000000000000000000010000000000000          0000643464166400000000000000000000000000000000000000000128
1022395731500012730470000705209000000                         00000254167312000000DM 00000000000000000000 010914062111429-12                      151220000000000398075630470990000000000000000000000000000000000000000000000000000000000000000000000000000000000000003980000000000000000000000000000000000000000000000000000010000000000000          0003588024468700000000000000000000000000000000000000000129
1022395731500012730470000705209000000                         00000254143712000000DM 00000000000000000000 010914062111381-12                      151220000000000299075630470990000000000000000000000000000000000000000000000000000000000000000000000000000000000000002990000000000000000000000000000000000000000000000000000010000000000000          0000751194867700000000000000000000000000000000000000000130
1022395731500012730470000705209000000                         00000254071112000000DM 00000000000000000000 01091406217138-12                       141220000000000299075630470990000000000000000000000000000000000000000000000000000000000000000000000000000000000000002990000000000000000000000000000000000000000000000000000010000000000000          0006191356161500000000000000000000000000000000000000000131
1022395731500012730470000705209000000                         00000254035612000000DM 00000000000000000000 01091406217156-12                       151220000000000299075630470990000000000000000000000000000000000000000000000000000000000000000000000000000000000000002990000000000000000000000000000000000000000000000000000010000000000000          0000314312366400000000000000000000000000000000000000000132
1022395731500012730470000705209000000                         00000254023812000000DM 00000000000000000000 01091406217432-12                       151220000000000497075630470990000000000000000000000000000000000000000000000000000000000000000000000000000000000000004970000000000000000000000000000000000000000000000000000010000000000000          0000378959263300000000000000000000000000000000000000000133
1022395731500012730470000705209000000                         00000478746806000000DM 00000000000000000000 011014062123019-06                      151121000000000299075630470010000000000070000000000000000000000000000000000000000000000000000000000000000000000000002990000000000000000000000000000000000000000000000000000010000000000000          0008072463969100000000000000000000000000000000000000000134
1022395731500012730470000705209000000                         00000478747507000000DM 00000000000000000000 011014062123019-07                      151221000000000299075630470010000000000070000000000000000000000000000000000000000000000000000000000000000000000000002990000000000000000000000000000000000000000000000000000010000000000000          0008072463969100000000000000000000000000000000000000000135
1022395731500012730470000705209000000                         00000363153212000000DM 00000000000000000000 0106140621023233-12                     150921000000000299000186260991506210000135000000000000000000000000000000000000000000000000000000000000000000000000002990000000000000000000000000000000000000000000000000000010000000000000          0000818260661600000000000000000000000000000000000000000136
1022395731500012730470000705209000000                         00000413083906000000DM 00000000000000000000 010614062125657-06                      150621000000000299003331520121506210000135000000000000000000000000000000000000000000000000000000000000000000000000002990000000000000000000000000000000000000000000000000000010000000000000          0000154207365000000000000000000000000000000000000000000137
1022395731500012730470000705209000000                         00000473212301000000DM 00000000000000000000 010614062126722-01                      150621000000000398003331540121506210000135000000000000000000000000000000000000000000000000000000000000000000000000003980000000000000000000000000000000000000000000000000000010000000000000          0000831301368000000000000000000000000000000000000000000138
1022395731500012730470000705209000000                         00000396939207000000DM 00000000000000000000 0106140621INC 23015-07                  210521000000000596003338470121506210000135000000000000000000000000000000000000000000000000000000000000000000000000006444000000000048400000000000000000000000000000000000000010000000000000          0000260663360100000000000000000000000000000000000000000139
1022395731500012730470000705209000000                         00000469109601000000DM 00000000000000000000 010614062125-01                         100621000000000299003339310121506210000135000000000000000000000000000000000000000000000000000000000000000000000000003064000000000007400000000000000000000000000000000000000010000000000000          0000581087968300000000000000000000000000000000000000000140
1022395731500012730470000705209000000                         00000464809303000000DM 00000000000000000000 0106140621TRANSF 25193-03               150621000000000497010401060011506210000135000000000000000000000000000000000000000000000000000000000000000000000000004970000000000000000000000000000000000000000000000000000010000000000000          0000486825566500000000000000000000000000000000000000000141
1022395731500012730470000705209000000                         00000390294007000000DM 00000000000000000000 010614062146-07                         150621000000000299010416420121506210000135000000000000000000000000000000000000000000000000000000000000000000000000002990000000000000000000000000000000000000000000000000000010000000000000          0000842074066700000000000000000000000000000000000000000142
1022395731500012730470000705209000000                         00000343093011000000DM 00000000000000000000 010614062123393-11                      100621000000000398010423320991506210000135000000000000000000000000000000000000000000000000000000000000000000000000004101000000000012100000000000000000000000000000000000000010000000000000          0003487437260000000000000000000000000000000000000000000143
1022395731500012730470000705209000000                         00000396228907000000DM 00000000000000000000 010614062124217-07                      100621000000000398075619900011506210000135000000000000000000000000000000000000000000000000000000000000000000000000004101000000000012100000000000000000000000000000000000000010000000000000          0005698938563400000000000000000000000000000000000000000144
1022395731500012730470000705209000000                         00000398118107000000DM 00000000000000000000 0106140621025306-07                     100621000000000596075622220991506210000135000000000000000000000000000000000000000000000000000000000000000000000000006142000000000018200000000000000000000000000000000000000010000000000000          0001190911663700000000000000000000000000000000000000000145
1022395731500012730470000705209000000                         00000419946705000000DM 00000000000000000000 010614062160-05                         050621000000000299075629350121506210000135000000000000000000000000000000000000000000000000000000000000000000000000003246000000000025600000000000000000000000000000000000000010000000000000          0000584887868400000000000000000000000000000000000000000146
1022395731500012730470000705209000000                         00000477685401000000DM 00000000000000000000 010614062123014-01                      150621000000000299075643270011506210000135000000000000000000000000000000000000000000000000000000000000000000000000002990000000000000000000000000000000000000000000000000000010000000000000          0000739932861700000000000000000000000000000000000000000147
1022395731500012730470000705209000000                         00000378901708000000DM 00000000000000000000 010614062157-08                         200621000000000299000105060121506210000135000000000000000000000000000000000000000000000000000000000000000000000000002990000000000000000000000000000000000000000000000000000010000000000000          0000902600265300000000000000000000000000000000000000000148
1022395731500012730470000705209000000                         00000428865305000000DM 00000000000000000000 010614062124886-05                      150621000000000299000110090011506210000135000000000000000000000000000000000000000000000000000000000000000000000000002990000000000000000000000000000000000000000000000000000010000000000000          0009046865169100000000000000000000000000000000000000000149
1022395731500012730470000705209000000                         00000363152511000000DM 00000000000000000000 0106140621023233-11                     150821000000000299000186260991506210000135000000000000000000000000000000000000000000000000000000000000000000000000002990000000000000000000000000000000000000000000000000000010000000000000          0000818260661600000000000000000000000000000000000000000150
1022395731500012730470000705209000000                         00000378829008000000DM 00000000000000000000 010614062125055 RESP-08                 150621000000000398010401060991506210000135000000000000000000000000000000000000000000000000000000000000000000000000003980000000000000000000000000000000000000000000000000000010000000000000          0002899958461500000000000000000000000000000000000000000151
1022395731500012730470000705209000000                         00000444840804000000DM 00000000000000000000 010614062125827-04                      250621000000000299010401180011506210000135000000000000000000000000000000000000000000000000000000000000000000000000002990000000000000000000000000000000000000000000000000000010000000000000          0001253254966100000000000000000000000000000000000000000152
1022395731500012730470000705209000000                         00000361699109000000DM 00000000000000000000 010614062162-09                         300621000000000299010416420121506210000135000000000000000000000000000000000000000000000000000000000000000000000000002990000000000000000000000000000000000000000000000000000010000000000000          0007827652760400000000000000000000000000000000000000000153
1022395731500012730470000705209000000                         00000262484312000000DM 00000000000000000000 010914062124600-12                      151220000000000497075630470120000000000000000000000000000000000000000000000000000000000000000000000000000000000000004970000000000000000000000000000000000000000000000000000010000000000000          0000460199668600000000000000000000000000000000000000000154
1022395731500012730470000705209000000                         00000262544012000000DM 00000000000000000000 010914062124701-12                      151220000000000596075630470120000000000000000000000000000000000000000000000000000000000000000000000000000000000000005960000000000000000000000000000000000000000000000000000010000000000000          0000443912866100000000000000000000000000000000000000000155
1022395731500012730470000705209000000                         00000473902201000000DM 00000000000000000000 010614062110838-01                      200621000000000398010423320011506210000135000000000000000000000000000000000000000000000000000000000000000000000000003980000000000000000000000000000000000000000000000000000010000000000000          0001140917366600000000000000000000000000000000000000000156
1022395731500012730470000705209000000                         00000445163303000000DM 00000000000000000000 010614062147-03                         100621000000000299010432340121506210000135000000000000000000000000000000000000000000000000000000000000000000000000003236000000000024600000000000000000000000000000000000000010000000000000          0001709071087400000000000000000000000000000000000000000157
1022395731500012730470000705209000000                         00000417175806000000DM 00000000000000000000 01061406213108-06                       050721000000000398010431480011506210000135000000000000000000000000000000000000000000000000000000000000000000000000003980000000000000000000000000000000000000000000000000000010000000000000          0004513843560400000000000000000000000000000000000000000158
1022395731500012730470000705209000000                         00000477793501000000DM 00000000000000000000 0106140621Inc 22692-01                  150621000000000398010423320121506210000135000000000000000000000000000000000000000000000000000000000000000000000000003980000000000000000000000000000000000000000000000000000010000000000000          0004638826563400000000000000000000000000000000000000000159
1022395731500012730470000705209000000                         00000332412512000000DM 00000000000000000000 010614062123176-12                      200621000000000398026000010121506210000135000000000000000000000000000000000000000000000000000000000000000000000000003980000000000000000000000000000000000000000000000000000010000000000000          0007529605569100000000000000000000000000000000000000000160
1022395731500012730470000705209000000                         00000417307006000000DM 00000000000000000000 0106140621INC 22426-06                  150621000000000497010431480121506210000135000000000000000000000000000000000000000000000000000000000000000000000000004970000000000000000000000000000000000000000000000000000010000000000000          0000291116965400000000000000000000000000000000000000000161
1022395731500012730470000705209000000                         00000480269201000000DM 00000000000000000000 0106140621EXC 5052-01                   200621000000000398010423320011506210000135000000000000000000000000000000000000000000000000000000000000000000000000003980000000000000000000000000000000000000000000000000000010000000000000          0000357383966500000000000000000000000000000000000000000162
1022395731500012730470000705209000000                         00000476689401000000DM 00000000000000000000 01061406213951-01                       300621000000000299010431480011506210000135000000000000000000000000000000000000000000000000000000000000000000000000002990000000000000000000000000000000000000000000000000000010000000000000          0007820902167200000000000000000000000000000000000000000163
1022395731500012730470000705209000000                         00000431159005000000DM 00000000000000000000 010614062125884-05                      250621000000000299010423320121506210000135000000000000000000000000000000000000000000000000000000000000000000000000002990000000000000000000000000000000000000000000000000000010000000000000          0000241837960400000000000000000000000000000000000000000164
1022395731500012730470000705209000000                         00000401570707000000DM 00000000000000000000 01061406217034-07                       100621000000000398010431480011506210000135000000000000000000000000000000000000000000000000000000000000000000000000004101000000000012100000000000000000000000000000000000000010000000000000          0004854427264900000000000000000000000000000000000000000165
1022395731500012730470000705209000000                         00000383800008000000DM 00000000000000000000 010614062120833-08                      150621000000000299010423320011506210000135000000000000000000000000000000000000000000000000000000000000000000000000002990000000000000000000000000000000000000000000000000000010000000000000          0005744301763400000000000000000000000000000000000000000166
1022395731500012730470000705209000000                         00000360331709000000DM 00000000000000000000 010614062190-09                         150621000000000299000111540121506210000135000000000000000000000000000000000000000000000000000000000000000000000000002990000000000000000000000000000000000000000000000000000010000000000000          0007425930064400000000000000000000000000000000000000000167
1022395731500012730470000705209000000                         00000442949704000000DM 00000000000000000000 010614062126166-04                      150621000000000398010431480991506210000135000000000000000000000000000000000000000000000000000000000000000000000000003980000000000000000000000000000000000000000000000000000010000000000000          0000364133767400000000000000000000000000000000000000000168
1022395731500012730470000705209000000                         00000447135504000000DM 00000000000000000000 0106140621INC 6976-04                   150621000000000497010423320121506210000135000000000000000000000000000000000000000000000000000000000000000000000000004970000000000000000000000000000000000000000000000000000010000000000000          0000702910961900000000000000000000000000000000000000000169
1022395731500012730470000705209000000                         00000472252901000000DM 00000000000000000000 01061406213177-01                       100621000000000299010431480011506210000135000000000000000000000000000000000000000000000000000000000000000000000000003080000000000009000000000000000000000000000000000000000010000000000000          0000695925768900000000000000000000000000000000000000000170
1022395731500012730470000705209000000                         00000369804907000000DM 00000000000000000000 010614062123918-07                      250421000000000299010423320121506210000135000000000000000000000000000000000000000000000000000000000000000000000000003431000000000044100000000000000000000000000000000000000010000000000000          0000342628763300000000000000000000000000000000000000000171
1022395731500012730470000705209000000                         00000379677008000000DM 00000000000000000000 010614062125075-08                      150621000000000299026000010991506210000135000000000000000000000000000000000000000000000000000000000000000000000000002990000000000000000000000000000000000000000000000000000010000000000000          0001136971963900000000000000000000000000000000000000000172
1022395731500012730470000705209000000                         00000336066111000000DM 00000000000000000000 01061406214086-11                       150621000000000497010423320011506210000135000000000000000000000000000000000000000000000000000000000000000000000000004970000000000000000000000000000000000000000000000000000010000000000000          0006759875761500000000000000000000000000000000000000000173
1022395731500012730470000705209000000                         00000443982003000000DM 00000000000000000000 010614062122614-03                      150621000000000299063300010011506210000135000000000000000000000000000000000000000000000000000000000000000000000000002990000000000000000000000000000000000000000000000000000010000000000000          0001269355163300000000000000000000000000000000000000000174
1022395731500012730470000705209000000                         00000347492710000000DM 00000000000000000000 01061406217216 INC-10                   150621000000000695023706600991506210000135000000000000000000000000000000000000000000000000000000000000000000000000006950000000000000000000000000000000000000000000000000000010000000000000          0000093622465700000000000000000000000000000000000000000175
1022395731500012730470000705209000000                         00000403944007000000DM 00000000000000000000 0106140621EXC 01 - 24474-07             200621000000000299010423320011506210000135000000000000000000000000000000000000000000000000000000000000000000000000002990000000000000000000000000000000000000000000000000000010000000000000          0006432334063000000000000000000000000000000000000000000176
1022395731500012730470000705209000000                         00000416778106000000DM 00000000000000000000 010614062125679-06                      200621000000000299023706600121506210000135000000000000000000000000000000000000000000000000000000000000000000000000002990000000000000000000000000000000000000000000000000000010000000000000          0001296682560000000000000000000000000000000000000000000177
1022395731500012730470000705209000000                         00000446102303000000DM 00000000000000000000 010614062146-03                         150621000000000299010432340121506210000135000000000000000000000000000000000000000000000000000000000000000000000000002990000000000000000000000000000000000000000000000000000010000000000000          0000734901461900000000000000000000000000000000000000000178
1022395731500012730470000705209000000                         00000399499207000000DM 00000000000000000000 010614062110293-07                      100621000000000398010431480011506210000135000000000000000000000000000000000000000000000000000000000000000000000000004101000000000012100000000000000000000000000000000000000010000000000000          0000583523765000000000000000000000000000000000000000000179
1022395731500012730470000705209000000                         00000444116804000000DM 00000000000000000000 010614062126186-04                      150621000000000299010423320991506210000135000000000000000000000000000000000000000000000000000000000000000000000000002990000000000000000000000000000000000000000000000000000010000000000000          0003873005760400000000000000000000000000000000000000000180
1022395731500012730470000705209000000                         00000409440706000000DM 00000000000000000000 010614062196-06                         150621000000000299075630470121506210000110000000000000000000000000000000000000000000000000000000000000000000000000002990000000000000000000000000000000000000000000000000000010000000000000          0005450339666800000000000000000000000000000000000000000181
1022395731500012730470000705209000000                         00000370900711000000DM 00000000000000000000 01061406216539-11                       100821000000000299010431480011506210000135000000000000000000000000000000000000000000000000000000000000000000000000002990000000000000000000000000000000000000000000000000000010000000000000          0006656527884900000000000000000000000000000000000000000182
1022395731500012730470000705209000000                         00000380849208000000DM 00000000000000000000 01061406215174-08                       200621000000000398010423320011506210000135000000000000000000000000000000000000000000000000000000000000000000000000003980000000000000000000000000000000000000000000000000000010000000000000          0005942574162000000000000000000000000000000000000000000183
1022395731500012730470000705209000000                         00000349184010000000DM 00000000000000000000 010614062123602-10                      150621000000000398063300010121506210000135000000000000000000000000000000000000000000000000000000000000000000000000003980000000000000000000000000000000000000000000000000000010000000000000          0001043605061700000000000000000000000000000000000000000184
1022395731500012730470000705209000000                         00000428601905000000DM 00000000000000000000 010614062124831-05                      150621000000000299023706600011506210000135000000000000000000000000000000000000000000000000000000000000000000000000002990000000000000000000000000000000000000000000000000000010000000000000          0000341159867000000000000000000000000000000000000000000185
1022395731500012730470000705209000000                         00000442709904000000DM 00000000000000000000 010614062126113-04                      150621000000000497010431480011506210000135000000000000000000000000000000000000000000000000000000000000000000000000004970000000000000000000000000000000000000000000000000000010000000000000          0000572874065000000000000000000000000000000000000000000186
1022395731500012730470000705209000000                         00000398934407000000DM 00000000000000000000 010614062125437-07                      150621000000000299010423320991506210000135000000000000000000000000000000000000000000000000000000000000000000000000002990000000000000000000000000000000000000000000000000000010000000000000          0000034045368000000000000000000000000000000000000000000187
1022395731500012730470000705209000000                         00000383098608000000DM 00000000000000000000 01061406216758-08                       150621000000000497010401180011506210000135000000000000000000000000000000000000000000000000000000000000000000000000004970000000000000000000000000000000000000000000000000000010000000000000          0001057581968500000000000000000000000000000000000000000188
1022395731500012730470000705209000000                         00000409464306000000DM 00000000000000000000 010614062163-06                         150621000000000299000111540121506210000135000000000000000000000000000000000000000000000000000000000000000000000000002990000000000000000000000000000000000000000000000000000010000000000000          0000486633365000000000000000000000000000000000000000000189
1022395731500012730470000705209000000                         00000450888103000000DM 00000000000000000000 010614062126308-03                      150621000000000299063300010121506210000135000000000000000000000000000000000000000000000000000000000000000000000000002990000000000000000000000000000000000000000000000000000010000000000000          0001189157969000000000000000000000000000000000000000000190
1022395731500012730470000705209000000                         00000322786812000000DM 00000000000000000000 010614062122993-12                      100621000000000299026000010121506210000135000000000000000000000000000000000000000000000000000000000000000000000000003064000000000007400000000000000000000000000000000000000010000000000000          0007031629560400000000000000000000000000000000000000000191
1022395731500012730470000705209000000                         00000467244802000000DM 00000000000000000000 01061406213151-02                       050621000000000497023706600011506210000135000000000000000000000000000000000000000000000000000000000000000000000000005188000000000021800000000000000000000000000000000000000010000000000000          0008132671864900000000000000000000000000000000000000000192
1022395731500012730470000705209000000                         00000431521806000000DM 00000000000000000000 010614062125890-06                      260721000000000398010431480121506210000135000000000000000000000000000000000000000000000000000000000000000000000000003980000000000000000000000000000000000000000000000000000010000000000000          0000684834367600000000000000000000000000000000000000000193
1022395731500012730470000705209000000                         00000328584412000000DM 00000000000000000000 01061406213568-12                       100621000000000398010401180011506210000135000000000000000000000000000000000000000000000000000000000000000000000000004101000000000012100000000000000000000000000000000000000010000000000000          0009167524362000000000000000000000000000000000000000000194
1022395731500012730470000705209000000                         00000409427005000000DM 00000000000000000000 010614062149-05                         200521000000000299000110770121506210000135000000000000000000000000000000000000000000000000000000000000000000000000003278000000000028800000000000000000000000000000000000000010000000000000          0009824095160000000000000000000000000000000000000000000195
1022395731500012730470000705209000000                         00000336258611000000DM 00000000000000000000 01061406213778-11                       050621000000000299063300010011506210000135000000000000000000000000000000000000000000000000000000000000000000000000003120000000000013000000000000000000000000000000000000000010000000000000          0006256959760000000000000000000000000000000000000000000196
1022395731500012730470000705209000000                         00000451740603000000DM 00000000000000000000 0106140621EX 22513-03                   150621000000000299026000010011506210000135000000000000000000000000000000000000000000000000000000000000000000000000002990000000000000000000000000000000000000000000000000000010000000000000          0001341496368000000000000000000000000000000000000000000197
1022395731500012730470000705209000000                         00000332933911000000DM 00000000000000000000 010614062123184-11                      300521000000000299023706600121506210000135000000000000000000000000000000000000000000000000000000000000000000000000003144000000000015400000000000000000000000000000000000000010000000000000          0000484201964600000000000000000000000000000000000000000198
1022395731500012730470000705209000000                         00000331560112000000DM 00000000000000000000 01061406211274-12                       150621000000000398010431480011506210000135000000000000000000000000000000000000000000000000000000000000000000000000003980000000000000000000000000000000000000000000000000000010000000000000          0001143407865500000000000000000000000000000000000000000199
1022395731500012730470000705209000000                         00000450732803000000DM 00000000000000000000 01061406219538-03                       200621000000000398010423320011506210000135000000000000000000000000000000000000000000000000000000000000000000000000003980000000000000000000000000000000000000000000000000000010000000000000          0000362633959900000000000000000000000000000000000000000200
1022395731500012730470000705209000000                         00000445850003000000DM 00000000000000000000 010614062141-03                         150621000000000299010416420121506210000135000000000000000000000000000000000000000000000000000000000000000000000000002990000000000000000000000000000000000000000000000000000010000000000000          0008434128985300000000000000000000000000000000000000000201
1022395731500012730470000705209000000                         00000403232007000000DM 00000000000000000000 010614062120204-07                      100621000000000398010401180011506210000135000000000000000000000000000000000000000000000000000000000000000000000000004101000000000012100000000000000000000000000000000000000010000000000000          0000150705867500000000000000000000000000000000000000000202
1022395731500012730470000705209000000                         00000378481708000000DM 00000000000000000000 010614062163-08                         300621000000000299000111540121506210000135000000000000000000000000000000000000000000000000000000000000000000000000002990000000000000000000000000000000000000000000000000000010000000000000          0001090880464400000000000000000000000000000000000000000203
1022395731500012730470000705209000000                         00000444029102000000DM 00000000000000000000 01061406213410-02                       150621000000000398063300010011506210000135000000000000000000000000000000000000000000000000000000000000000000000000003980000000000000000000000000000000000000000000000000000010000000000000          0006881772068200000000000000000000000000000000000000000204
1022395731500012730470000705209000000                         00000427496505000000DM 00000000000000000000 0106140621INC 10426-05                  150621000000000497026000010121506210000135000000000000000000000000000000000000000000000000000000000000000000000000004970000000000000000000000000000000000000000000000000000010000000000000          0000763540161000000000000000000000000000000000000000000205
1022395731500012730470000705209000000                         00000443862003000000DM 00000000000000000000 010614062126182-03                      300521000000000299023706600991506210000135000000000000000000000000000000000000000000000000000000000000000000000000003168000000000017800000000000000000000000000000000000000010000000000000          0000169453367000000000000000000000000000000000000000000206
1022395731500012730470000705209000000                         00000376443908000000DM 00000000000000000000 010614062189-08                         100621000000000299010432340121506210000135000000000000000000000000000000000000000000000000000000000000000000000000003236000000000024600000000000000000000000000000000000000010000000000000          0001076341381000000000000000000000000000000000000000000207
1022395731500012730470000705209000000                         00000451512603000000DM 00000000000000000000 01061406219465-03                       150621000000000299010431480011506210000135000000000000000000000000000000000000000000000000000000000000000000000000002990000000000000000000000000000000000000000000000000000010000000000000          0005130055969100000000000000000000000000000000000000000208
1022395731500012730470000705209000000                         00000369805608000000DM 00000000000000000000 010614062123918-08                      250521000000000299010423320121506210000135000000000000000000000000000000000000000000000000000000000000000000000000003192000000000020200000000000000000000000000000000000000010000000000000          0000342628763300000000000000000000000000000000000000000209
1022395731500012730470000705209000000                         00000396628608000000DM 00000000000000000000 01061406219489 EX01-08                  150621000000000299010401180011506210000135000000000000000000000000000000000000000000000000000000000000000000000000002990000000000000000000000000000000000000000000000000000010000000000000          0000533721067000000000000000000000000000000000000000000210
1022395731500012730470000705209000000                         00000409426304000000DM 00000000000000000000 010614062149-04                         200421000000000299000110770121506210000135000000000000000000000000000000000000000000000000000000000000000000000000003338000000000034800000000000000000000000000000000000000010000000000000          0009824095160000000000000000000000000000000000000000000211
1022395731500012730470000705209000000                         00000384304908000000DM 00000000000000000000 010614062120861-08                      100621000000000299023706600011506210000135000000000000000000000000000000000000000000000000000000000000000000000000003080000000000009000000000000000000000000000000000000000010000000000000          0004880473871500000000000000000000000000000000000000000212
1022395731500012730470000705209000000                         00000465155901000000DM 00000000000000000000 01061406211362-01                       200521000000000299010431480011506210000135000000000000000000000000000000000000000000000000000000000000000000000000003248000000000025800000000000000000000000000000000000000010000000000000          0000767422660300000000000000000000000000000000000000000213
1022395731500012730470000705209000000                         00000355868610000000DM 00000000000000000000 01061406215954-10                       150621000000000596010423320011506210000135000000000000000000000000000000000000000000000000000000000000000000000000005960000000000000000000000000000000000000000000000000000010000000000000          0001315708884000000000000000000000000000000000000000000214
1022395731500012730470000705209000000                         00000480677901000000DM 00000000000000000000 010614062123002-01                      100621000000000299010414910011506210000135000000000000000000000000000000000000000000000000000000000000000000000000003080000000000009000000000000000000000000000000000000000010000000000000          0000598119663700000000000000000000000000000000000000000215
1022395731500012730470000705209000000                         00000402956007000000DM 00000000000000000000 010614062125391-07                      200621000000000299010401180121506210000135000000000000000000000000000000000000000000000000000000000000000000000000002990000000000000000000000000000000000000000000000000000010000000000000          0000420953469200000000000000000000000000000000000000000216
1022395731500012730470000705209000000                         00000360391909000000DM 00000000000000000000 010614062184-09                         150621000000000299023769800121506210000135000000000000000000000000000000000000000000000000000000000000000000000000002990000000000000000000000000000000000000000000000000000010000000000000          0000455865361100000000000000000000000000000000000000000217
1022395731500012730470000705209000000                         00000372314709000000DM 00000000000000000000 0106140621EXC 01 6405-09                150621000000000299023706600011506210000135000000000000000000000000000000000000000000000000000000000000000000000000002990000000000000000000000000000000000000000000000000000010000000000000          0000473564068100000000000000000000000000000000000000000218
1022395731500012730470000705209000000                         00000480254201000000DM 00000000000000000000 0106140621NEG-01                        100621000000001000010431480011506210000135000000000000000000000000000000000000000000000000000000000000000000000000010306000000000030600000000000000000000000000000000000000010000000000000          0000406525064100000000000000000000000000000000000000000219
1022395731500012730470000705209000000                         00000477181601000000DM 00000000000000000000 01061406213713-01                       100621000000000596010423320011506210000135000000000000000000000000000000000000000000000000000000000000000000000000006142000000000018200000000000000000000000000000000000000010000000000000          0000022515380700000000000000000000000000000000000000000220
1022395731500012730470000705209000000                         00000386873408000000DM 00000000000000000000 010614062111612-08                      100621000000000497010401180011506210000135000000000000000000000000000000000000000000000000000000000000000000000000005122000000000015200000000000000000000000000000000000000010000000000000          0000016755669000000000000000000000000000000000000000000221
1022395731500012730470000705209000000                         00000437569504000000DM 00000000000000000000 010614062125818-04                      100621000000000299026000010011506210000135000000000000000000000000000000000000000000000000000000000000000000000000003080000000000009000000000000000000000000000000000000000010000000000000          0000483905763000000000000000000000000000000000000000000222
1022395731500012730470000705209000000                         00000388492507000000DM 00000000000000000000 010614062125270-07                      150621000000000299023706600991506210000135000000000000000000000000000000000000000000000000000000000000000000000000002990000000000000000000000000000000000000000000000000000010000000000000          0000426864760000000000000000000000000000000000000000000223
1022395731500012730470000705209000000                         00000350120510000000DM 00000000000000000000 010614062123516-10                      150621000000000299010431480011506210000135000000000000000000000000000000000000000000000000000000000000000000000000002990000000000000000000000000000000000000000000000000000010000000000000          0000800984668600000000000000000000000000000000000000000224
1022395731500012730470000705209000000                         00000325642012000000DM 00000000000000000000 0106140621022343-12                     100621000000000398010423320991506210000135000000000000000000000000000000000000000000000000000000000000000000000000004101000000000012100000000000000000000000000000000000000010000000000000          0004514471062000000000000000000000000000000000000000000225
1022395731500012730470000705209000000                         00000408156006000000DM 00000000000000000000 010614062147-06                         200621000000000299010416420121506210000135000000000000000000000000000000000000000000000000000000000000000000000000002990000000000000000000000000000000000000000000000000000010000000000000          0005333805768700000000000000000000000000000000000000000226
1022395731500012730470000705209000000                         00000410448006000000DM 00000000000000000000 010614062146-06                         100621000000000299010414910121506210000135000000000000000000000000000000000000000000000000000000000000000000000000003236000000000024600000000000000000000000000000000000000010000000000000          0002005094161500000000000000000000000000000000000000000227
1022395731500012730470000705209000000                         00000419935606000000DM 00000000000000000000 0106140621INC 23813-06                  100621000000000497063300010121506210000135000000000000000000000000000000000000000000000000000000000000000000000000005122000000000015200000000000000000000000000000000000000010000000000000          0000682888265200000000000000000000000000000000000000000228
1022395731500012730470000705209000000                         00000411494907000000DM 00000000000000000000 010614062123958 inc-07                  100621000000000398026000010991506210000135000000000000000000000000000000000000000000000000000000000000000000000000004101000000000012100000000000000000000000000000000000000010000000000000          0001404729569800000000000000000000000000000000000000000229
1022395731500012730470000705209000000                         00000423822105000000DM 00000000000000000000 01061406213688-05                       150621000000000398023706600011506210000135000000000000000000000000000000000000000000000000000000000000000000000000003980000000000000000000000000000000000000000000000000000010000000000000          0007810415778700000000000000000000000000000000000000000230
1022395731500012730470000705209000000                         00000447267204000000DM 00000000000000000000 010614062123226 INC-04                  250621000000000497023704670991506210000135000000000000000000000000000000000000000000000000000000000000000000000000004970000000000000000000000000000000000000000000000000000010000000000000          0000281331766700000000000000000000000000000000000000000231
1022395731500012730470000705209000000                         00000462011601000000DM 00000000000000000000 010614062126536-01                      300521000000000299010431480991506210000135000000000000000000000000000000000000000000000000000000000000000000000000003168000000000017800000000000000000000000000000000000000010000000000000          0000690216858000000000000000000000000000000000000000000232
1022395731500012730470000705209000000                         00000443731004000000DM 00000000000000000000 010614062126174-04                      100621000000000398010423320991506210000135000000000000000000000000000000000000000000000000000000000000000000000000004101000000000012100000000000000000000000000000000000000010000000000000          0001474817769100000000000000000000000000000000000000000233
1022395731500012730470000705209000000                         00000323947312000000DM 00000000000000000000 010614062196-12                         150621000000000299010416420121506210000135000000000000000000000000000000000000000000000000000000000000000000000000002990000000000000000000000000000000000000000000000000000010000000000000          0003878878060000000000000000000000000000000000000000000234
1022395731500012730470000705209000000                         00000435081704000000DM 00000000000000000000 01061406212  CONT. 26007-04             150621000000000299010401180121506210000135000000000000000000000000000000000000000000000000000000000000000000000000002990000000000000000000000000000000000000000000000000000010000000000000          0001057581968500000000000000000000000000000000000000000235
1022395731500012730470000705209000000                         00000323738312000000DM 00000000000000000000 010614062165-12                         050621000000000299000110770121506210000135000000000000000000000000000000000000000000000000000000000000000000000000003246000000000025600000000000000000000000000000000000000010000000000000          0000434527165700000000000000000000000000000000000000000236
1022395731500012730470000705209000000                         00000434805204000000DM 00000000000000000000 010614062122117-04                      150621000000000299063300010011506210000135000000000000000000000000000000000000000000000000000000000000000000000000002990000000000000000000000000000000000000000000000000000010000000000000          0000391627961000000000000000000000000000000000000000000237
1022395731500012730470000705209000000                         00000394110707000000DM 00000000000000000000 01061406216239 INC-07                   150621000000000596023706600991506210000135000000000000000000000000000000000000000000000000000000000000000000000000005960000000000000000000000000000000000000000000000000000010000000000000          0001900152568700000000000000000000000000000000000000000238
1022395731500012730470000705209000000                         00000355917211000000DM 00000000000000000000 010614062120155-11                      100721000000000299021200010011506210000135000000000000000000000000000000000000000000000000000000000000000000000000002990000000000000000000000000000000000000000000000000000010000000000000          0001158527160800000000000000000000000000000000000000000239
1022395731500012730470000705209000000                         00000389971906000000DM 00000000000000000000 010614062175-06                         300621000000000299010432340121506210000135000000000000000000000000000000000000000000000000000000000000000000000000002990000000000000000000000000000000000000000000000000000010000000000000          0006688951061500000000000000000000000000000000000000000240
1022395731500012730470000705209000000                         00000446391204000000DM 00000000000000000000 010614062122345 INC-04                  100621000000000497010431480991506210000135000000000000000000000000000000000000000000000000000000000000000000000000005122000000000015200000000000000000000000000000000000000010000000000000          0005663953868700000000000000000000000000000000000000000241
1022395731500012730470000705209000000                         00000465755001000000DM 00000000000000000000 010614062122781-01                      200521000000000398010423320011506210000135000000000000000000000000000000000000000000000000000000000000000000000000004324000000000034400000000000000000000000000000000000000010000000000000          0000373332262200000000000000000000000000000000000000000242
1022395731500012730470000705209000000                         00000391520005000000DM 00000000000000000000 010614062147-05                         150621000000000299010416420121506210000135000000000000000000000000000000000000000000000000000000000000000000000000002990000000000000000000000000000000000000000000000000000010000000000000          0001748455281000000000000000000000000000000000000000000243
1022395731500012730470000705209000000                         00000447374603000000DM 00000000000000000000 010614062179-03                         150621000000000299000111540121506210000135000000000000000000000000000000000000000000000000000000000000000000000000002990000000000000000000000000000000000000000000000000000010000000000000          0009338295265300000000000000000000000000000000000000000244
1022395731500012730470000705209000000                         00000386729808000000DM 00000000000000000000 010614062123047 INC-08                  300521000000000497063300010991506210000135000000000000000000000000000000000000000000000000000000000000000000000000005267000000000029700000000000000000000000000000000000000010000000000000          0000809889668400000000000000000000000000000000000000000245
1022395731500012730470000705209000000                         00000400429307000000DM 00000000000000000000 010614062124375-07                      150621000000000398026000010011506210000135000000000000000000000000000000000000000000000000000000000000000000000000003980000000000000000000000000000000000000000000000000000010000000000000          0000500080968800000000000000000000000000000000000000000246
1022395731500012730470000705209000000                         00000360247209000000DM 00000000000000000000 010614062180-09                         150621000000000299023769800121506210000135000000000000000000000000000000000000000000000000000000000000000000000000002990000000000000000000000000000000000000000000000000000010000000000000          0003051888168700000000000000000000000000000000000000000247
1022395731500012730470000705209000000                         00000449879003000000DM 00000000000000000000 010614062126048-03                      100621000000000398023706600121506210000135000000000000000000000000000000000000000000000000000000000000000000000000004080000000000010000000000000000000000000000000000000000010000000000000          0000016585364600000000000000000000000000000000000000000248
1022395731500012730470000705209000000                         00000364044309000000DM 00000000000000000000 010614062120961-09                      200621000000000299023704670011506210000135000000000000000000000000000000000000000000000000000000000000000000000000002990000000000000000000000000000000000000000000000000000010000000000000          0009771828967200000000000000000000000000000000000000000249
